:100000000C9447050C946F050C946F050C946F05C8
:100010000C946F050C946F050C946F050C946F0590
:100020000C946F050C946F050C946F050C946B1970
:100030000C946F050C946F050C946F050C946F0570
:100040000C94001C0C946F050C9439190C94131922
:100050000C946F050C946F050C946F050C946F0550
:100060000C94030A0C946F052200FF2100DB40A4CE
:10007000A62EAFDA0281DA1281DA02818F2000A186
:10008000C8D300408DAED580A800006000000000FD
:1000900000000000000000000000E0000000000080
:1000A000000000000000000001E00000000000006F
:1000B0000000000000000001F0000000000000004F
:1000C00000000000000003F000000000000000003D
:1000D000000000000007F000000000000000000029
:1000E0000000000007F80000000000000000000011
:1000F0000000000FF800000003C0007E000001E0D7
:10010000007F0FF800000003C000FE000001E000C7
:10011000FFEFF800000003C000FE000001E000FF58
:10012000FFF800000003C000F00000000F007FFE99
:100130007FC0000003C000F00000000F003FFE7F02
:10014000F83FF1FBCFFCFEF3BC3DEFE01FFE7FFF6D
:100150007FFBFFDFFEFEFFBC3DEFE01FC6FFFF7F22
:10016000FBFFDFFEFEFFBC3DEFE00FE3C7FE787B49
:10017000C3DE1EF0FFBC3DEF0007FF87FC787BC3AA
:10018000DE1EF0F83C3DEF0001FFFFF0007BC3C036
:100190001EF0F03C3DEF0001F37FE03FFBC3CFFEDC
:1001A000F0F03C3DEF0003E33F807FFBC3DFFEF058
:1001B000F03C3DEF0007E73C00787BC3DE1EF0F02B
:1001C0003C3DEF0007FFBE00787BC3DE1EF0F03C35
:1001D0003DEF0007FFFE00787BC3DE1EF0F03C3DE4
:1001E000EF000FFFFE007FFBFFDFFEF0F03FFDEFB3
:1001F000E00FFFFF007FFBFFDFFEF0F03FFDEFE0D1
:100200000FF9FF003E79F9CF9EF0F01F3DE7E01FA8
:10021000F1FF0000000000000000000000001F804F
:10022000FF007FFFFFFFFFFFFFFFFFFFE01C007FDE
:10023000007FFFFFFFFEB46D888D18E000001F00F7
:100240007FFFFFFFFE95AD7DB577E000000F007FDB
:10025000FFFFFFFEA5AD9D8D19E0000006007FFFAA
:10026000FFFFFEB5ADEDB57EE000000000000180AF
:1002700000000000000000000003800000000000FB
:100280000000000007C000000000000000000007A0
:10029000C00000000000000000000FC000000000CF
:1002A00000000000001FE00000000000000000004F
:1002B0001FE00000000000000000003FE000000020
:1002C0000000000000003FF00000000000000000FF
:1002D000007FF0000000000000001FF87FF0000029
:1002E00000000000003FFE7FF00000000000000062
:1002F0003FFF7FF0000000000000001FFFFBE00058
:100300000000000000000FFFF9FFC0000000000027
:10031000000FFFF9FFF800000000000007FFF1FFE9
:10032000FF00000000000003FC73FFFF80000000DE
:10033000000001FE3FFFFF80000000000000FF1EE4
:100340000FFF000000000000007FFE1FFC00000007
:10035000000000003FFFFFF8000000000000000F59
:10036000DFFFE0000000000000001F19FFC00000D8
:1003700000000000003F3CFF000000000000000003
:100380007E7CF800000000000000007FFE7C000082
:10039000000000000000FFFFFC0000000000000063
:1003A00000FFFFFE0000000000000000FFFFFE0055
:1003B00000000000000001FFEFFE00000000000050
:1003C0000001FFCFFE0000000000000003FF07FE59
:1003D0000000000000000003FC07FE000000000019
:1003E000000003F003FE0000000000000001800098
:1003F000FE000000000000000000007E0000000081
:100400000000000000003E000000000000000000AE
:10041000000C000000000000078000FC000003C08A
:10042000000000078001FC000003C00000000780FE
:1004300001FC000003C0000000078001E000000094
:100440001E000000078001E00000001E007FE3F7AF
:100450009FF9FDE7787BDFC0FFF7FFBFFDFDFF7869
:100460007BDFC0FFF7FFBFFDFDFF787BDFC0F0F74C
:1004700087BC3DE1FF787BDE00F0F787BC3DE1F013
:10048000787BDE0000F787803DE1E0787BDE007F4F
:10049000F7879FFDE1E0787BDE00FFF787BFFDE196
:1004A000E0787BDE00F0F787BC3DE1E0787BDE00A2
:1004B000F0F787BC3DE1E0787BDE00F0F787BC3DDC
:1004C000E1E0787BDE00FFF7FFBFFDE1E07FFBDFCF
:1004D000C0FFF7FFBFFDE1E07FFBDFC07CF3F39FD0
:1004E0003DE1E03E7BCFC0000000000000000000C6
:1004F0000000FFFFFFFFFFFFFFFFFFFFC0FFFFFF49
:10050000FFFD68DB111A31C0FFFFFFFFFD2B5AFB17
:100510006AEFC0FFFFFFFFFD4B5B3B1A33C0FFFFDD
:10052000FFFFFD6B5BDB6AFDC000000000240027BD
:10053000002A0000000000250028002B000404040D
:10054000040404040402020202020203030303037C
:100550000301020408102040800102040810200159
:10056000020408102000000008000201000003043B
:10057000070000000000000000000103070F1F3FFC
:100580007F0080C0E0F0F8FCFE00000000003E5B51
:100590004F5B3E3E6B4F6B3E1C3E7C3E1C183C7ED0
:1005A0003C181C577D571C1C5E7F5E1C00183C18B5
:1005B00000FFE7C3E7FF0018241800FFE7DBE7FFB1
:1005C00030483A060E2629792926407F050507403E
:1005D0007F05253F5A3CE73C5A7F3E1C1C08081CFF
:1005E0001C3E7F14227F22145F5F005F5F06097F3D
:1005F000017F006689956A606060606094A2FFA2D6
:100600009408047E040810207E201008082A1C0884
:10061000081C2A08081E101010100C1E0C1E0C308E
:10062000383E3830060E3E0E060000000000000086
:100630005F00000007000700147F147F14242A7F46
:100640002A12231308646236495620500008070313
:1006500000001C2241000041221C002A1C7F1C2A91
:1006600008083E08080080703000080808080800E4
:100670000060600020100804023E5149453E0042DF
:100680007F400072494949462141494D33181412AF
:100690007F1027454545393C4A49493141211109D7
:1006A000073649494936464949291E0000140000C9
:1006B00000403400000008142241141414141400E3
:1006C0004122140802015909063E415D594E7C122F
:1006D00011127C7F494949363E414141227F4141C7
:1006E000413E7F494949417F090909013E41415144
:1006F000737F0808087F00417F41002040413F018F
:100700007F081422417F404040407F021C027F7FCF
:100710000408107F3E4141413E7F090909063E41E0
:1007200051215E7F09192946264949493203017F33
:1007300001033F4040403F1F2040201F3F403840C2
:100740003F631408146303047804036159494D435B
:10075000007F4141410204081020004141417F04D3
:1007600002010204404040404000030708002054BA
:100770005478407F2844443838444444283844441A
:10078000287F385454541800087E090218A4A49CE9
:10079000787F0804047800447D40002040403D00FC
:1007A0007F1028440000417F40007C047804787C5E
:1007B000080404783844444438FC182424181824C5
:1007C0002418FC7C08040408485454542404043FAE
:1007D00044243C4040207C1C2040201C3C403040B5
:1007E0003C44281028444C9090907C4464544C44E1
:1007F0000008364100000077000000413608000282
:10080000010204023C2623263C1EA1A161123A40AB
:1008100040207A3854545559215555794122545421
:100820007842215554784020545579400C1E52721C
:1008300012395555555939545454593955545458F9
:100840000000457C410002457D420001457C407D21
:100850001211127DF0282528F07C545545002054B3
:10086000547C547C0A097F4932494949323A44440C
:10087000443A324A4848303A4141217A3A4240208B
:1008800078009DA0A07D3D4242423D3D4040403D1C
:100890003C24FF2424487E4943662B2FFC2F2BFF4A
:1008A0000929F620C0887E090320545479410000AC
:1008B000447D413048484A32384040227A007A0A22
:1008C0000A727D0D19317D2629292F2826292929EB
:1008D0002630484D4020380808080808080808381D
:1008E0002F10C8ACBA2F102834FA00007B00000883
:1008F000142A142222142A14085500550055AA550A
:10090000AA55AAFF55FF55FF000000FF0010101068
:10091000FF00141414FF001010FF00FF1010F0105F
:10092000F0141414FC001414F700FF0000FF00FF83
:100930001414F404FC141417101F10101F101F14AB
:1009400014141F00101010F0000000001F101010F1
:10095000101F10101010F010000000FF10101010E9
:100960001010101010FF10000000FF140000FF0016
:10097000FF00001F10170000FC04F41414171017D8
:100980001414F404F40000FF00F7141414141414E5
:1009900014F700F7141414171410101F101F141458
:1009A00014F4141010F010F000001F101F000000CD
:1009B0001F14000000FC140000F010F01010FF10D5
:1009C000FF141414FF141010101F00000000F0108A
:1009D000FFFFFFFFFFF0F0F0F0F0FFFFFF0000006F
:1009E0000000FFFF0F0F0F0F0F3844443844FC4A3C
:1009F0004A4A347E02020606027E027E026355499E
:100A000041633844443C04407E201E2006027E029E
:100A10000299A5E7A5991C2A492A1C4C7201724C1F
:100A2000304A4D4D303048784830BC625A463D3EE1
:100A3000494949007E0101017E2A2A2A2A2A444482
:100A40005F444440514A444040444A51400000FF02
:100A50000103E080FF000008086B6B0836123624A3
:100A600036060F090F0600001818000000101000CD
:100A70003040FF0101001F01011E00191D17120067
:100A80003C3C3C3C0000000000001C278D1C112455
:100A90001FBECFEFD8E0DEBFCDBF12E0A0E0B1E0D7
:100AA000E2EBFFE502C005900D92AA30B107D9F73D
:100AB00024E0AAE0B2E001C01D92A43DB207E1F734
:100AC00015E0C6E4D5E004C02197FE010E94952CF4
:100AD000C534D107C9F70E94211D0C94CC2F0C946A
:100AE000000085ED8093BC008091BC0084FDFCCFAC
:100AF0001092B402089540912A02262F30E0240F6C
:100B0000311D21323105DCF42091B4022430C9F4C6
:100B1000FC0180E090E0861758F430912A02219180
:100B2000DC01A65FBD4FA30FB11D2C930196F3CF3F
:100B300080912A02680F60932A0280E0089581E084
:100B4000089582E00895089508950895E0916C0253
:100B500080916B02E81730F4F0E0E359FD4F80819B
:100B600090E008958FEF9FEF089590916C0280912F
:100B70006B02981750F4E92FF0E0E359FD4F208104
:100B800030E09F5F90936C0202C02FEF3FEFC901EE
:100B9000089580916B0290E020916C02821B910974
:100BA0000895CF92DF92EF92FF920F931F93CF930E
:100BB000DF937C01CB018A012091B502222389F0C9
:100BC000EB016B01C40ED51ECC15DD0569F06991F2
:100BD000D701ED91FC910190F081E02DC7010995BD
:100BE000F3CF642F0E947B05C801DF91CF911F9145
:100BF0000F91FF90EF90DF90CF900895CF93DF9308
:100C00001F92CDB7DEB769832091B5022223D1F0C0
:100C10002091D802203240F021E030E0FC01338303
:100C2000228380E090E015C08091B602E82FF0E0CA
:100C3000E954FD4F998190838F5F8093B602809332
:100C4000D80205C061E0CE0101960E947B0581E0DB
:100C500090E00F90DF91CF9108950895FC016370AB
:100C6000658B8481958126813781613039F06330CD
:100C700029F09187808733872287089531872087DD
:100C80009387828708956F927F928F929F92AF92FF
:100C9000BF92CF92DF92EF92FF920F931F93CF9369
:100CA000DF93EC014B015A0169013801E881F981B8
:100CB0000284F385E02D0995E881F9810288F389A2
:100CC000E02D87019601A501B401CE010995A5018A
:100CD000460D571D41505109E881F9810288F38979
:100CE000E02D9601B401CE010995E881F9810088D3
:100CF000F189E02D9301A501B401CE010995C80C3D
:100D0000D91CB60161507109E881F9810088F18927
:100D1000E02D9301A501CE010995E881F9810688AE
:100D2000F789E02DCE01DF91CF911F910F91FF90B8
:100D3000EF90DF90CF90BF90AF909F908F907F907B
:100D40006F9009948F929F92AF92BF92CF92DF9251
:100D5000EF92FF920F931F93CF93DF934C016B01A0
:100D60005A01E901DC01ED91FC916217730781F4EE
:100D70000417150724F48B2D5801042F182F0A1976
:100D80001B0998012F5F3F4F048CF58DE02D12C099
:100D90004017510709F52617370724F48D2D6901EF
:100DA000C62FD82F9E012C193D092F5F3F4F068C6F
:100DB000F78DE02D8701A501B601C4010995DF91EA
:100DC000CF911F910F91FF90EF90DF90CF90BF9048
:100DD000AF909F908F9008950284F385E02D099540
:100DE000D401ED91FC910488F589E02D9E01A501C7
:100DF000B601C4010995D401ED91FC910688F789EB
:100E0000E02DC401DF91CF911F910F91FF90EF90E2
:100E1000DF90CF90BF90AF909F908F900994EF920A
:100E2000FF920F931F93DC011A960D911C911B9753
:100E300018962D913C911997ED91FC9100A0F1A18C
:100E4000E02D7B0140E050E060E070E009951F91EB
:100E50000F91FF90EF9008954F925F926F927F9263
:100E60008F929F92AF92BF92CF92DF92EF92FF92BA
:100E70000F931F93CF93DF936C012B015A0139011C
:100E80004801DC01ED91FC910284F385E02D099588
:100E9000E201640C751CD601ED91FC91C615D705D5
:100EA0005CF40088F189E02D87019401A501BE0161
:100EB000C60109952196EFCF0688F789E02DC60176
:100EC000DF91CF911F910F91FF90EF90DF90CF9026
:100ED000BF90AF909F908F907F906F905F904F905A
:100EE00009948F929F92AF92BF92CF92DF92EF922E
:100EF000FF920F931F93CF93DF93EC015B014A01A5
:100F00006901E881F9810284F385E02D0995950155
:100F10002C0D3D1D21503109E881F9810488F589A6
:100F2000E02D78018401A401B501CE010995E88185
:100F3000F9810688F789E02DCE01DF91CF911F91CD
:100F40000F91FF90EF90DF90CF90BF90AF909F9068
:100F50008F9009948F929F92AF92BF92CF92DF921F
:100F6000EF92FF920F931F93CF93DF93EC015B01FE
:100F70004A0169017801E881F9810284F385E02D55
:100F80000995C80CD91C860101501109E881F98125
:100F90000488F589E02D9501A401B501CE010995DC
:100FA000E881F9810688F789E02DCE01DF91CF91A4
:100FB0001F910F91FF90EF90DF90CF90BF90AF9077
:100FC0009F908F900994EF92FF920F931F93DC01F3
:100FD000ED91FC9100A0F1A1E02D09951F910F91D9
:100FE000FF90EF9008950F931F93DC01ED91FC911A
:100FF000068CF78DE02D09951F910F9108950F93A1
:101000001F93DC01ED91FC91048CF58DE02D099589
:101010001F910F910895DC01ED91FC910084F18501
:10102000E02D09942F923F924F925F926F927F92A0
:101030008F929F92AF92BF92CF92DF92EF92FF92E8
:101040000F931F93CF93DF9300D000D000D0CDB784
:10105000DEB72C017E836D836A015901C801FC82D1
:10106000EB824801841A950A97FE03C091948194FB
:10107000910835012D813E81621A730A77FE03C003
:10108000719461947108681479045CF43A2D2B2DE5
:101090005C01832F922F3D812E81DE82CD82C32E73
:1010A000D22EAD81BE81AA16BB065CF43C2D2D2D3F
:1010B0006C01832F922F3D812E81BE82AD82A32EA3
:1010C000B22E85012D813E81021B130B1C012C18B1
:1010D0003D0837FE03C0319421943108780117FF91
:1010E00003C03FEFE31AF30AF594E794C816D90654
:1010F0002CF08FEF9FEF9A83898304C0A1E0B0E0CA
:10110000BA83A9832D813E81A216B30624F1D201B0
:10111000ED91FC910484F585E02D2B813C816814D0
:10112000790424F44D815E81B60103C0A6016D816E
:101130007E81C2010995E218F308F7FE06C02981F5
:101140003A81C20ED31EE00EF11E8D819E81019662
:101150009E838D83D7CF26960FB6F894DEBF0FBE41
:10116000CDBFDF91CF911F910F91FF90EF90DF9056
:10117000CF90BF90AF909F908F907F906F905F9037
:101180004F903F902F900895089580E090E008954B
:101190000895AF92BF92CF92EF92FF920F931F9359
:1011A000CF93DF93EC01262F888D998D009709F05E
:1011B00040C06A3059F41D861C862C898E859F8517
:1011C00038E0239F800D911D112441C06D3009F43A
:1011D000AAC08E898823C1F03C898C859D8546E014
:1011E000349F800D911D1124488559854817590752
:1011F0005CF41D861C868E859F8548E0349F800D9B
:10120000911D11249F878E87EA88FB880889198998
:101210004E855F856C857D85CC88CE010E940D1141
:101220002C898C859D8536E0239F800D911D11248E
:1012300042C06A3079F41D861C862C89FC013696E2
:10124000E4918E859F852E9F800D911D11249F878F
:101250008E8769C06D3009F466C0FC013496349104
:10126000631708F460C03196E491E61708F45BC098
:10127000FC01329665917491422F50E0431B510955
:1012800037E0349F5001359FB00C1124A60EB71ED5
:10129000F501329634913196E491332311F0E11146
:1012A0000DC0F5013496E4912C898C859D85E29FD3
:1012B000800D911D11249D878C8735C0F5013596D1
:1012C00044915E89552311F16C89E32FF0E0E40F1E
:1012D000F11D47FDFA956E9FD0016F9FB00D11244F
:1012E0004C855D854A0F5B1FE885F985E417F50796
:1012F0006CF41D861C86FC013696E4918E859F85D4
:101300006E9F800D911D11249F878E87EA88FB8830
:10131000088919894E855F856C857D85CC88CE01CD
:101320000E940D11BECF81E090E0DF91CF911F911F
:101330000F91FF90EF90CF90BF90AF9008950C94D5
:10134000522ECF9360EC70E00E946D2CC82F605C31
:1013500089ED92E00E94CB1560E46C0F89ED92E07C
:10136000CF910C94CB1561E089ED92E00E94CB15F2
:1013700020E030E048EC52E4609162027091630238
:1013800080916402909165020E94092B0E947A2D3F
:101390009B01AC01285D3C4D4F4F5F4FA0E8BEE381
:1013A0000E94E62B20E536E440E050E00E94C72B87
:1013B000C9010C94A10962E089ED92E00E94CB156D
:1013C00020E030E048EC52E4609156027091570200
:1013D00080915802909159020E94092B0E947A2D07
:1013E0009B01AC01285D3C4D4F4F5F4FA0E8BEE331
:1013F0000E94E62B20E536E440E050E00E94C72B37
:10140000C9010C94A1091F920F920FB60F921124DB
:101410002F933F934F935F936F937F938F939F93FC
:10142000AF93BF93EF93FF938091B900887F80368D
:1014300009F49CC068F5883209F45BC090F48031EF
:1014400009F454C038F4882309F4F6C0883009F44C
:101450004DC0F6C0883109F44CC0803209F45DC03B
:10146000EFC0803409F468C048F4803309F455C0F3
:10147000883309F0E5C08093B202D8C0803509F402
:101480004FC0883509F45DC0883409F0D9C0D6C092
:10149000883909F4C7C0A8F4883709F467C038F45C
:1014A000883609F463C0803709F460C0C9C0883841
:1014B00009F4B8C0803909F45FC0803809F0C0C0B1
:1014C0005BC0803B09F486C038F4803A09F466C0FA
:1014D000883A09F47FC0B4C0803C09F4A7C0883CB6
:1014E00009F4A4C0883B09F48AC0AAC080918F0285
:1014F00010C09091B1028091B002981770F5E09100
:10150000B10281E08E0F8093B102F0E0E057FD4F11
:1015100080818093BB0085EC86C08093B2028EC030
:10152000E091B10281E08E0F8093B1028091BB0007
:10153000F0E0E057FD4F80839091B1028091B002BE
:101540006EC0E091B10281E08E0F8093B102809174
:10155000BB00F0E0E057FD4F80838091B302811122
:101560006DC081E080938E0284EA61C083E0809345
:10157000B40210924C02CFCF80914C02803208F01E
:1015800051C0E0914C0281E08E0F80934C0280911B
:10159000BB00F0E0E45DFD4F8083BDCF85EC809320
:1015A000BC001092B40280914C02803230F4E09181
:1015B0004C02F0E0E45DFD4F108260914C0270E05F
:1015C000E0916702F09168028CE292E00995109236
:1015D0004C0236C084E08093B40210922B02109229
:1015E0002A02E0916902F0916A02099580912A022B
:1015F000811105C081E080932A0210920A02E091D5
:101600002B0281E08E0F80932B02F0E0E65FFD4F0E
:1016100080818093BB0090912B0280912A029817C1
:1016200008F479CF85E88093BC000AC085EC8093EC
:10163000BC001092B40204C01092B2020E94710564
:10164000FF91EF91BF91AF919F918F917F916F919A
:101650005F914F913F912F910F900FBE0F901F9070
:10166000189581E08093B5026093D7021092B6027C
:101670001092D8020895EF92FF920F931F93CF9389
:10168000DF930E944C0F81E080939D048093A0041F
:1016900081E090E090939C0480939B0490939A0443
:1016A00080939904109296041092950410929804D5
:1016B000109297048BE694E00E94370F10929604E4
:1016C00010929504C8E0D0E0D0939804C09397049A
:1016D00085E694E00E94370F80914D028823A1F0A7
:1016E0008BE490E09093960480939504D0939804B3
:1016F000C093970460914E0270914F028091500206
:10170000909151020E94260E55E0E52EF12CF092A8
:101710009604E0929504C0E1D0E0D0939804C09381
:10172000970460915A0270915B0280915C029091E3
:101730005D020E94260E06E210E0109396040093CC
:101740009504D0939804C0939704609162027091BD
:10175000630280916402909165020E94260E80E5EA
:1017600090E09093960480939504D0939804C0934E
:10177000970460915602709157028091580290919F
:1017800059020E94260EF0929604E0929504C8E158
:10179000D0E0D0939804C093970460915202709166
:1017A000530280915402909155020E94260E10938C
:1017B000960400939504D0939804C0939704609185
:1017C0005E0270915F0280916002909161020E94BE
:1017D000260E8091A5049091A604892BD1F020912A
:1017E000BF043091C0044091C1045091C20460E034
:1017F00074E284EF90E00E94302CDA01C901409736
:10180000A109B109B695A795979587958093B800DA
:1018100016C08091A3049091A404892B31F080918B
:10182000BD049091BE040E94921AE091B704F09119
:10183000B80490818091BC0480958923808365E001
:1018400088E690E00E94770D60918D04615089E8F0
:1018500094E00E94341A20918F0430919004C901C1
:10186000079697FD079633E0959587953A95E1F7AA
:1018700020918D0430918E04829F8001839F100DF2
:10188000929F100D1124C091A704D091A8048091BB
:10189000A5049091A6040C0F1D1F009709F445C0E4
:1018A0006091A9040E94310B8091A5049091A60437
:1018B000DC01ED91FC910190F081E02D60E409954F
:1018C0007E01D1E08091A5049091A6040E151F051C
:1018D00049F1D032B8F00E94731B6091A904809145
:1018E000A5049091A6040E94310B8091A5049091CB
:1018F000A604DC01ED91FC910190F081E02D60E403
:101900000995D1E08091A5049091A604F701619119
:101910007F01DC01ED91FC910190F081E02D0995B2
:10192000DF5FD0CF0E94731B41C0E091B504F091FE
:10193000B60490818091BB04892B8083C017D107A6
:10194000A9F189912091A3043091A404232B19F0CB
:101950000E942D1AF3CF28E030E040E8E091B10476
:10196000F091B2049091B904582F542319F050818A
:10197000952B03C05081909595239083E091B304FB
:10198000F091B40450819091BA04952B9083E0912A
:10199000B304F091B40450819091BA0490959523CA
:1019A0009083469521503109C9F6C8CF8091A5048E
:1019B0009091A604892BD1F02091C3043091C404E6
:1019C0004091C5045091C60460E074E284EF90E059
:1019D0000E94302CDA01C9014097A109B109B695DE
:1019E000A795979587958093B80017C0E091B704A5
:1019F000F091B80490818091BC04892B8083809100
:101A0000A3049091A404892B41F0DF91CF911F9101
:101A10000F91FF90EF900C942C1ADF91CF911F91B2
:101A20000F91FF90EF9008950F931F93CF93DF9343
:101A3000DC015D96ED91FC915E97309781F0EC01B1
:101A4000ABA1BCA114960D911C91159715969C9372
:101A50008E9314970995EBA1FCA115830483DF9164
:101A6000CF911F910F9108950895CF93DF9389ED42
:101A700092E00E947115EC01803491052CF460E035
:101A800070EC89E794EC19C089ED92E00E94711521
:101A900080349105A4F3C054D10920EC2C9FB001EF
:101AA0002D9F700D112480549109680F791F072E06
:101AB000000C880B990B0E94AA2ADF91CF91089500
:101AC000BC0185E694E00C94F218009769F0FC01E3
:101AD00001900020E9F73197AF01481B590BBC0179
:101AE00089E894E00C94381580E090E00895DF9246
:101AF000EF92FF920F931F93CF93DF93D82ED92F9E
:101B0000C62F8091A5049091A604009709F44EC0B9
:101B10006091A9040E94310B8091A5049091A604C4
:101B2000DC01ED91FC910190F081E02D60E00995E0
:101B3000ED2CFD2E11E08091A5049091A604CC23FC
:101B400061F11032B8F00E94731B6091A90480917A
:101B5000A5049091A6040E94310B8091A504909158
:101B6000A604DC01ED91FC910190F081E02D60E094
:101B7000099511E08091A5049091A604F701649164
:101B8000DC01ED91FC910190F081E02D09951F5F42
:101B9000C150BFEFEB1AFB0ACECFDF91CF911F915F
:101BA0000F91FF90EF90DF900C94731BE091B504C0
:101BB000F091B60490818091BB0480958923808345
:101BC0000D2D1D2FCC2309F439C0F80184912091EB
:101BD000A3043091A404232B31F00E942D1AC1508C
:101BE0000F5F1F4FEFCF28E030E040E8E091B104F5
:101BF000F091B2049091B904582F542319F05081F8
:101C0000952B03C05081909595239083E091B30468
:101C1000F091B40450819091BA04952B9083E09197
:101C2000B304F091B40450819091BA049095952337
:101C30009083469521503109C9F6D1CFDF91CF91DC
:101C40001F910F91FF90EF90DF9008952F923F9298
:101C50004F925F926F927F928F929F92AF92BF92BC
:101C6000CF92DF92EF92FF920F931F93CF93DF9368
:101C7000CDB7DEB7A4970FB6F894DEBF0FBECDBFC9
:101C80004B015C019B01AC010E94B52D882319F02A
:101C90008DEE91E01AC075016401E894F7F82FEF1A
:101CA0003FEF4FE75FE7C701B6010E94B52D8111F5
:101CB00010C02FEF3FEF4FE75FE7C701B6010E946B
:101CC000A32A181634F481EF91E00E94650D8C016F
:101CD000AFC02FEF3FEF4FE75FE4C501B4010E94B3
:101CE000B02D18161CF485EF91E0EFCF2FEF3FEFEA
:101CF0004FE75FECC501B4010E94A32A87FDF3CF33
:101D000020E030E0A901C501B4010E94A32A87FFA9
:101D10000BC06DE289E894E00E94C9086C01B7FA33
:101D2000B094B7F8B09402C0C12CD12C2AE037EDA2
:101D300043EA5BE3C501B4010E949C2C4B015C01AA
:101D40000E94812D2B013C010E94A82A9B01AC011D
:101D5000C501B4010E949B2C4B015C0119A27E01BC
:101D600081E2E80EF11CEAA2FBA2C301B2012AE063
:101D700030E040E050E00E94302C29013A01605DE3
:101D8000F70162937F01232B242B252B71F7CF01C1
:101D90000E94650D8C016EE289E894E00E94C908FA
:101DA000800F911F8C010C0D1D1D83E0F82E9AE011
:101DB000292E312C412C512CFA94FF20C9F120E01E
:101DC00030E040E251E4C501B4010E94092B4B010F
:101DD0005C010E94812D9B0140E050E019A26AA0A5
:101DE0007BA06CA3C32ED42EE52ECA01B901A2019B
:101DF00091010E94302C605DF30162933F01211537
:101E000031054105510589F7CF010E94650D080F85
:101E1000191F6CA17C2D8D2D9E2D0E94A82A9B013F
:101E2000AC01C501B4010E949B2C4B015C01C4CFE5
:101E300089EF91E00E94650D800F911FA4960FB667
:101E4000F894DEBF0FBECDBFDF91CF911F910F91F0
:101E5000FF90EF90DF90CF90BF90AF909F908F90CA
:101E60007F906F905F904F903F902F900895CF9309
:101E7000DF93FC01448155816081718189E894E0A0
:101E80000E943815EC0189EF91E00E94650D8C0FDE
:101E90009D1FDF91CF91089520918F043091900480
:101EA000C901079697FD079623E0959587952A9592
:101EB000E1F720918D0430918E04829FA001839FD1
:101EC000500D929F500D112460E070E08091A704A6
:101ED0009091A8040C94AF2F9091B4029111FCCF73
:101EE00091E09093B4029093B3022FEF2093B2024B
:101EF0001092B102260F2093B00290938F0290911E
:101F00008F02880F892B80938F0280918E028130FF
:101F100061F410928E0280918F028093BB008091B9
:101F2000BC0083FDF8CF85EC01C085EE8093BC003A
:101F30008091B4028130E1F38091B102861710F4F0
:101F40006091B102A0E9B2E0EDE6F2E080E0861730
:101F500021F09D9191938F5FFACF08953F924F9218
:101F60005F926F927F928F929F92AF92BF92CF9229
:101F7000DF92EF92FF920F931F93CF93DF9300D0E6
:101F800000D000D0CDB7DEB72C013B014A0159018A
:101F9000C901079697FD07969C0193E03595279513
:101FA0009A95E1F73C832B83C12CD12CE12CF12CA9
:101FB000312CC3018E0D9F1D9A838983E016F10693
:101FC000C4F51E821D822D813E812A153B054CF5EC
:101FD000C90187709927892B11F0330C0EC0ED8150
:101FE000FE81F7FD379683E0F595E7958A95E1F751
:101FF000EC0DFD1DE80DF91D349037FE0CC021E0FD
:1020000030E049815A816D817E81640D751D89E8BA
:1020100094E00E940B088D819E8101969E838D83A2
:10202000D2CF9FEFE91AF90A2B813C81C20ED31E51
:10203000C0CF26960FB6F894DEBF0FBECDBFDF919E
:10204000CF911F910F91FF90EF90DF90CF90BF90B5
:10205000AF909F908F907F906F905F904F903F9048
:1020600008954F925F926F927F928F929F92AF925C
:10207000BF92CF92DF92EF92FF920F931F93CF9375
:10208000DF9300D000D0CDB7DEB74B015C01290152
:102090003A016701780120E030E0A9010E94A32AFB
:1020A00087FDA6C020E030E0A901C301B2010E9473
:1020B000A32A87FD9DC020E030E0A901C701B60139
:1020C0000E94A32A87FD94C081E020913B043091B7
:1020D0003C042130310509F080E080935C0480925B
:1020E000210490922204A0922304B09224044092EE
:1020F0002504509226046092270470922804C0920E
:102100002904D0922A04E0922B04F0922C046091CE
:102110004F047091500480915104909152040E9498
:10212000A82A20E030E04AE754E40E94082D6983A1
:102130007A838B839C8380922D0490922E04A092AC
:102140002F04B09230049B01AC01C301B2010E9484
:10215000092B2B013C01609331047093320480936E
:1021600033049093340429813A814B815C81C70107
:10217000B6010E94082D6B017C01609335047093B9
:1021800036048093370490933804809139049091F9
:102190003A04019769F5A501940160E070E0CB0174
:1021A0000E949B2C60932D0470932E0480932F0427
:1021B00090933004A301920160E070E0CB010E9493
:1021C0009B2C60933104709332048093330490937A
:1021D0003404A701960160E070E0CB010E949B2CC3
:1021E00060933504709336048093370490933804D9
:1021F0000F900F900F900F90DF91CF911F910F9143
:10220000FF90EF90DF90CF90BF90AF909F908F9016
:102210007F906F905F904F9008952F923F924F92D2
:102220005F926F927F928F929F92AF92BF92CF9266
:10223000DF92EF92FF920F931F93CF93DF93CDB76F
:10224000DEB76B970FB6F894DEBF0FBECDBF9B8F86
:102250008A8F5B011A01D22E1F830E833701C98238
:10226000DC0158962D913C9159972115310509F0C3
:10227000E6C018968D919C911997681779070CF014
:10228000CDC11A968D919C911B97481759070CF058
:10229000C5C18C2C912CFB0126E0C29EE00DF11DE6
:1022A0001124FB87EA871E161F060CF0B7C1A40194
:1022B00083E0440F551F8A95E1F75D874C87CA017B
:1022C000820D931D181619060CF0A8C157968C9113
:1022D000811104C05FEA5D1508F4D394AA8DBB8D0B
:1022E000ED91FC9111970284F385E02DCD010995C4
:1022F000B5E0DB9EC0011124F5013596FF87EE871E
:10230000BB82AA8225019C012A193B09398B288BA3
:10231000A101485F5F4F5B8B4A8BE889F989E40D27
:10232000F51DE757FA4F5491588761013D822C8281
:10233000888580FF13C0AA8DBB8DED91FC91B9817A
:10234000B13031F40484F585E02D2E813F8116C033
:102350000684F785E02DEE80FF801AC0EE81FF81B4
:10236000E615F705F1F0AA8DBB8DED91FC91B981D1
:10237000B13051F40484F585E02D9301A601B2013A
:102380008A8D9B8D09950DC00684F785E02D73011C
:10239000840194014C815D816A817B818A8D9B8D52
:1023A0000995E885E695E887FFEFCF1ADF0A2C81CB
:1023B0003D81280D391D3D832C834A895B89C416D4
:1023C000D50609F0B5CF5FEF451A550A8A819B8182
:1023D000880D991D9B838A83AE85BF854A165B064F
:1023E00009F09BCFEE81FF81E615F70509F4F4C0F3
:1023F000EA8DFB8DA081B181F981F13079F4B501CD
:102400006B5F7F4F5096ED91FC915197830128E0CF
:1024100030E0A1018A8D9B8D0995DEC06A857B85A0
:10242000681979091E96ED91FC911F9773010C852F
:102430001D859401A1018A8D9B8D0995CDC0F9015F
:102440003496E491DE1AF901329685919491B7E0C1
:10245000DB9E800D911D1124F901259134913B8B58
:102460002A8BFC01259134912901FC013296C490FC
:10247000319634913E87329614913196D4904981A9
:10248000423058F0612E012E000C77088D2D0D2C56
:10249000000C990B9987888704C019861886612CCF
:1024A000712CAA8DBB8DED91FC9111970284F3855F
:1024B000E02DCD010995B9818B2E912C689CC0012E
:1024C000699C900D789C900D1124FC01EA0DFB1D78
:1024D000FD87EC871A82712C612CE12F110FFF0B05
:1024E00095012E0F3F1F3B872A87AC0CB11CA5011D
:1024F0004E0F5F1F5F8B4E8BC1018D0D911DD7FC61
:102500009A95998F888F9E85691608F065C0862DEB
:1025100090E048855985480F591F489D9001499D75
:10252000300D589D300D1124D101A20FB31FB98B6E
:10253000A88BEC85FD85FD83EC83AA84BB84DA80BF
:10254000FA85DF1A288D398D280F391F3D8B2C8B8A
:102550008D2D8A0D4E895F89A416B506C1F187704D
:1025600041F4C2010196EA89FB89E40DF51D7490DE
:102570002C0177FE21C0AA8DBB8DED91FC91B98114
:10258000B13061F40484F585E02D2E813F814C89C2
:102590005D89B5018A8D9B8D09950EC00684F785EE
:1025A000E02DEE80FF8084019401488959896C8177
:1025B0007D818A8D9B8D0995770CEFEFAE1ABE0A4F
:1025C0002C813D81280D391D3D832C83C1CF3A815B
:1025D0003C0D3A83639497CFAA8DBB8DED91FC910E
:1025E00011970688F789E02DCD016B960FB6F89408
:1025F000DEBF0FBECDBFDF91CF911F910F91FF9036
:10260000EF90DF90CF90BF90AF909F908F907F9092
:102610006F905F904F903F902F9009946B960FB6FC
:10262000F894DEBF0FBECDBFDF91CF911F910F9108
:10263000FF90EF90DF90CF90BF90AF909F908F90E2
:102640007F906F905F904F903F902F9008950F93E1
:102650001F93CF93DF9377FF04C0260F371F60E0EF
:1026600070E0DC011496CD91DC911597FB01E20F2F
:10267000F31FCE17DF071CF49E01261B370B121623
:1026800013060CF046C0FA0157FD3796DF01E3E070
:10269000B595A795EA95E1F7AC9FF001AD9FF00DD8
:1026A000BC9FF00D11246E0F7F1FDC015E96ED9133
:1026B000FC915F97E60FF71F4770552781E090E088
:1026C00001C0880F4A95EAF7482F0130110539F00B
:1026D00078F002301105E9F42E0F3F1F13C02E0FC2
:1026E0003F1FE217F307A9F08081842B8193F9CF74
:1026F00080952E0F3F1FE217F30759F09081982322
:102700009193F9CFE217F30721F080818427819319
:10271000F9CFDF91CF911F910F910895EF92FF9222
:102720000F931F93CF93DF93EC0177FDA5C0EC804F
:10273000FD806E157F050CF09FC057FF04C0240F6D
:10274000351F40E050E08E819F81FA01E20FF31FB8
:102750008E179F071CF49C01241B350B12161306C1
:102760000CF08AC0922F842F8695869586958E9D33
:10277000D0018F9DB00D11246A0F7B1FAE8DBF8DD0
:10278000A60FB71F4770B1F188E0841B482F682F50
:1027900070E0FB01EF57FA4FE491281798F4621BA1
:1027A00071092FEF30E002C0359527956A95E2F761
:1027B000E2230130110549F078F00230110509F0EB
:1027C0005BC00EC00130110519F48C91E82B0AC0D2
:1027D0000130110508F049C0E0958C91E82302C052
:1027E0008C91E827EC93941708F446C02C813D8126
:1027F000A20FB31FE92FE41BE830F8F002301105F7
:1028000061F48E2F9C9190959C932C813D81A20F19
:10281000B31F88508830B0F70FC081E00115110553
:1028200009F480E081959E2F8C932C813D81A20F2D
:10283000B31F98509830C0F7E770EE23E9F0F0E04E
:10284000E758FA4FE4910130110539F048F00230B1
:10285000110591F48C91E82706C08C91E82B03C0F8
:10286000E0958C91E823EC9307C00230110509F440
:10287000B7CFAE0DBF1DBECFDF91CF911F910F918E
:10288000FF90EF90089590E0FC01EB59FA4F2491EE
:10289000FC01EF5AFA4F3491FC01E35CFA4FE491EA
:1028A000EE2309F43CC0222339F1233091F038F4AF
:1028B0002130A9F0223001F584B58F7D12C0273078
:1028C00091F02830A1F02430B9F4809180008F7D00
:1028D00003C0809180008F77809380000DC084B505
:1028E0008F7784BD09C08091B0008F7703C080913D
:1028F000B0008F7D8093B000F0E0EE0FFF1FED5C25
:10290000FA4FA591B4919FB7F894611104C08C91CE
:102910003095382302C0EC913E2B3C939FBF089525
:1029200010926C0210926B021092B6021092D802B2
:102930001092B40281E08093B30210928E0261E0A3
:1029400082E10E94431461E083E10E944314E9EBB9
:10295000F0E080818E7F808380818D7F808388E41A
:102960008093B80085E48093BC0083EA95E090935F
:102970006A028093690284EA95E0909368028093EA
:1029800067020895CF93DF9390E0FC01EF5AFA4F6E
:102990002491FC01E35CFA4F8491882361F190E07B
:1029A000880F991FFC01E75DFA4FC591D491FC0196
:1029B000ED5CFA4FA591B491611109C09FB7F894ED
:1029C0008881209582238883EC912E230BC062306E
:1029D00061F49FB7F8948881322F309583238883E0
:1029E000EC912E2B2C939FBF06C08FB7F894E881F3
:1029F0002E2B28838FBFDF91CF9108958F929F92C6
:102A0000AF92BF92CF92DF92EF92FF926B017C0167
:102A10000E94CF1B4B015C01C114D104E104F104FD
:102A2000F1F00E94CF1BDC01CB0188199909AA099A
:102A3000BB09883E9340A105B10570F321E0C21A9D
:102A4000D108E108F10888EE880E83E0981EA11CE9
:102A5000B11CC114D104E104F10419F7DDCFFF90DA
:102A6000EF90DF90CF90BF90AF909F908F900895A0
:102A7000CF92DF92EF92FF920F931F93CF93DF934A
:102A80006C017A018B01C0E0D0E0CE15DF0581F04A
:102A9000D8016D918D01D601ED91FC910190F081ED
:102AA000E02DC6010995892B11F02196EECF7E010C
:102AB000C701DF91CF911F910F91FF90EF90DF90B1
:102AC000CF900895FC01538D448D252F30E0842F45
:102AD00090E0821B930B541710F0CF960895019746
:102AE0000895FC01918D828D981761F0828DDF0130
:102AF000A80FB11D5D968C91928D9F5F9F73928FF1
:102B000090E008958FEF9FEF0895FC01918D828DE5
:102B1000981731F0828DE80FF11D858D90E00895B2
:102B20008FEF9FEF0895FC01918D228D892F90E00A
:102B3000805C9F4F821B91098F739927089589EDBF
:102B400092E00E94931521E0892B09F420E0822F66
:102B50000895FC01848DDF01A80FB11DA35ABF4F5A
:102B60002C91848D90E001968F739927848FA6898C
:102B7000B7892C93A089B1898C91837080648C93E0
:102B8000938D848D981306C00288F389E02D80818F
:102B90008F7D80830895EF92FF920F931F93CF93C1
:102BA000DF93EC0181E0888F9B8D8C8D981305C09D
:102BB000E889F989808185FD26C0F62E0B8D10E00D
:102BC0000F5F1F4F0F731127E02E8C8DE8120CC082
:102BD0000FB607FCFACFE889F989808185FFF5CF28
:102BE000CE010E94A915F1CF8B8DFE01E80FF11DDA
:102BF000E35AFF4FF0829FB7F8940B8FEA89FB8965
:102C0000808180620AC09FB7F894EE89FF89608353
:102C1000E889F98980818370806480839FBF81E027
:102C200090E0DF91CF911F910F91FF90EF90089569
:102C3000CF93DF93EC01888D8823C9F0EA89FB8963
:102C4000808185FD05C0A889B9898C9186FD0FC05A
:102C50000FB607FCF5CF808185FFF2CFA889B9892F
:102C60008C9185FFEDCFCE010E94A915E7CFDF91B2
:102C7000CF91089580E090E0892B29F00E949F1564
:102C800081110C9400000895FC0177FDB9C0808586
:102C90009185681779070CF0B3C057FDB1C08285E4
:102CA0009385481759070CF008958589823079F487
:102CB00084819581DC01A61BB70BBD0161507109B0
:102CC00086819781DC01A41BB50BAD010EC083305A
:102CD00009F084C064277527CA01862797276827CB
:102CE000792746815781481B590B415051092130A2
:102CF000310531F048F12230310509F44AC0089518
:102D0000CA0157FD07969C01A3E035952795AA9522
:102D1000E1F7A481B5812A9FC0012B9F900D3A9FB6
:102D2000900D1124680F791F068CF78DE02DE60FAA
:102D3000F71F4770552781E090E001C0880F4A9542
:102D4000EAF79081892B48C0CA0157FD07969C017C
:102D500093E0359527959A95E1F7A481B5812A9F4F
:102D6000C0012B9F900D3A9F900D1124680F791F81
:102D7000068CF78DE02DE60FF71F4770552781E091
:102D800090E001C0880F4A95EAF7809590818923E9
:102D900023C0CA0157FD07969C0183E0359527950E
:102DA0008A95E1F7A481B5812A9FC0012B9F900DE0
:102DB0003A9F900D1124680F791F068CF78DE02D36
:102DC000E60FF71F4770552781E090E001C0880F9C
:102DD0004A95EAF79081892780830895813009F028
:102DE00086CF642775274627572764277527848150
:102DF0009581DC01A61BB70BBD016150710977CF2E
:102E000008950E94A12F8F929F92AF92BF92CF926E
:102E1000DF92EF92FF920F931F93CF93DF93CDB783
:102E2000DEB762970FB6F894DEBF0FBECDBF7C0150
:102E30008B0184E2DB011D928A95E9F784E290E040
:102E4000A0E0B0E0FB0180839183A283B383F7010C
:102E500086819781A085B185FB0184839583A683B4
:102E6000B78383E090E0A0E0B0E080879187A287FD
:102E7000B3870E94F41BD80150966D937D938D9378
:102E80009C935397FE0131968CE0DF011D928A9549
:102E9000E9F76E01BDE0CB0ED11C86E0F601119280
:102EA0008A95E9F7D70113966C91139714968D9133
:102EB0009C9115970E94310BF70184819581DC016B
:102EC000ED91FC910190F081E02D6AE10995F70107
:102ED000848195810E94731B66E0D70113968C91C3
:102EE0000E946C0F10926C0280936B025E01B3E142
:102EF000AB0EB11CF70184819581DC01ED91FC9151
:102F00000284F385E02D0995F60181936F01EA159E
:102F1000FB0581F76D857E85072E000C880B990BCC
:102F20000E94AA2A20E030E040E85DE30E94092BDD
:102F30004B015C016F857889072E000C880B990B7B
:102F40000E94AA2A20E030E040E85DE30E94092BBD
:102F50006B017C0169897A89072E000C880B990B1B
:102F60000E94AA2A20E030E040E85DE30E94092B9D
:102F7000D80154968D929D92AD92BC925797F801CC
:102F8000C08ED18EE28EF38E5C966D937D938D9381
:102F90009C935F9781E062960FB6F894DEBF0FBEF8
:102FA000CDBFDF91CF911F910F91FF90EF90DF90F8
:102FB000CF90BF90AF909F908F9008950F931F93E5
:102FC000CF93DF938C01EB0188E2FB0111928A958C
:102FD000E9F74BE050E06CEF71E0CE010E94BD2FAD
:102FE0001B8681E090E0A0E0B0E08C879D87AE87F3
:102FF000BF87F80186819781A085B185888B998BE1
:10300000AA8BBB8B83E090E0A0E0B0E08C8B9D8B23
:10301000AE8BBF8B1CA21DA21EA21FA2188E198EE2
:103020001A8E1B8E1C8E1D8E1E8E1F8E8AE097EDB3
:10303000A3E2BCE388A399A3AAA3BBA3DF91CF918A
:103040001F910F9108950F931F93CF93DF93DC018E
:103050005596EC915597E23071F0E330E9F0E130AC
:1030600079F5FB0114960D90BC91A02DA41BB50B16
:10307000A21BB30B18C0EC01EC81FD81E61BF70B22
:10308000BF0161507109EE81FF81DF01A41BB50B07
:10309000AD01421B530B14C0DA01EC01EE81FF813C
:1030A000E61BF70B3197F7FD0DC0EC014E815F81F8
:1030B000E417F5073CF4AF01BD010E94271302C0DD
:1030C0000E948E13DF91CF911F910F9108950F935E
:1030D0001F93DC015596EC915597E23061F0E33097
:1030E00009F1E13081F51496ED91FC911597E41BFF
:1030F000F50B319723C0DC011496ED91FC911597E7
:10310000DF01A61BB70BBD01DC011696ED91FC910A
:103110001797DF01A41BB50BAD0141505109621B8C
:10312000730B11C0FA01DC0116964D915C91179753
:10313000DA01A61BB70BBD01621B730BAB01BF010C
:103140000E948E130CC057FD0AC0DC011696ED914B
:10315000FC9117974E175F0714F40E9427131F91D5
:103160000F910895EF92FF920F931F93CF93DF93E8
:10317000EC017B018A0188819981009729F02A81DD
:103180003B8124173507F8F4B8016F5F7F4F0E9429
:10319000DB2E009759F0998388831B830A832C8147
:1031A0003D81232B81F4FC0110820DC0888199811F
:1031B000009711F00E94522E198218821D821C82E3
:1031C0001B821A8207C01D830C83B70188819981F5
:1031D0000E94B62FCE01DF91CF911F910F91FF90EA
:1031E000EF900895CF93DF93EC016115710559F0CD
:1031F000FB0101900020E9F73197AF01461B570B07
:103200000E94B2180CC088819981009711F00E9429
:10321000522E198218821D821C821B821A82CE01B4
:10322000DF91CF9108951F920F920FB60F92112444
:103230002F933F934F935F936F937F938F939F93BE
:10324000AF93BF93EF93FF9389ED92E00E94A9158E
:10325000FF91EF91BF91AF919F918F917F916F916E
:103260005F914F913F912F910F900FBE0F901F9044
:1032700018951F920F920FB60F9211242F938F93D0
:103280009F93EF93FF93E091E902F091EA0280812E
:10329000E091EF02F091F00282FD12C090818091E6
:1032A000F2028F5F8F732091F302821751F0E09149
:1032B000F202F0E0E752FD4F958F8093F20201C0D9
:1032C0008081FF91EF919F918F912F910F900FBE71
:1032D0000F901F9018951F920F920FB60F92112406
:1032E0002F933F934F935F936F937F938F939F930E
:1032F000AF93BF93EF93FF9380918D0287FF05C03B
:1033000010928500109284001BC020918D02022E25
:10331000000C330B80919A0390E02817390784F44E
:1033200080918D02082E000C990BFC01EE0FFF1FFF
:103330008E0F9F1FFC01EA58FC4F808186FD15C04F
:1033400080918D028F5F80938D0220918D02022EDD
:10335000000C330B80919A0390E028173907C4F4CE
:1033600080918D028C3064F113C080918D02082E03
:10337000000C990BFC01EE0FFF1F8E0F9F1FFC012D
:10338000EA58FC4F808160E08F730E944314D8CFCD
:103390008091840090918500049680349C4918F4B3
:1033A00080E49CE905C0809184009091850004969A
:1033B00090938900809388008FEF80938D023BC0AB
:1033C000209184003091850080918D02082E000CA0
:1033D000990BFC01EE0FFF1F8E0F9F1FFC01EA5897
:1033E000FC4F81819281820F931F9093890080937B
:1033F000880080918D02082E000C990BFC01EE0FC5
:10340000FF1F8E0F9F1FFC01EA58FC4F808186FF33
:1034100012C080918D02082E000C990BFC01EE0F5A
:10342000FF1F8E0F9F1FFC01EA58FC4F808161E057
:103430008F730E944314FF91EF91BF91AF919F91C1
:103440008F917F916F915F914F913F912F910F904D
:103450000FBE0F901F90189508958EBD00000DB4FB
:1034600007FEFDCF8EB508951F93CF93DF93FC0128
:10347000848D958D009701F1162FEF0160A10E94B8
:10348000310B8C8D9D8DDC01ED91FC910190F081D3
:10349000E02D60E009958C8D9D8DDC01ED91FC9116
:1034A0000190F081E02D612F09958C8D9D8DDF912C
:1034B000CF911F910C94731BA4A5B5A59C9182A9D3
:1034C000809589238C93828D938D892B31F0862F63
:1034D000DF91CF911F910C942D1A28E030E080E805
:1034E000A0A5B1A590A9462F482319F04C91942B83
:1034F00003C04C91909594239C93A2A5B3A54C91A5
:1035000091A9942B9C93A2A5B3A54C9191A99095B8
:1035100094239C9386952150310911F7DF91CF9127
:103520001F9108958CBD9DBD08951F93CF93DF9388
:10353000EC01162F8C8D9D8D892BB1F02EA93FA902
:1035400048AD59AD60E074E284EF90E00E94302C09
:10355000DA01C9014097A109B109B695A7959795D8
:1035600087958093B8000FC08A8D9B8D892B21F0A1
:103570008CA99DA90E94921AEEA5FFA590818BA906
:10358000809589238083111102C066EA01C067EA31
:10359000CE010E94341A8C8D9D8D892BB1F02AADFD
:1035A0003BAD4CAD5DAD60E074E284EF90E00E9415
:1035B000302CDA01C9014097A109B109B695A79548
:1035C000979587958093B80006C0EEA5FFA59081DA
:1035D0008BA9892B8083DF91CF911F910895CF9282
:1035E000DF92EF92FF92DC01A03282E0B8070CF08C
:1035F0003EC0B7FD06C0A53BB1052CF0A4EBB0E082
:1036000002C0A0E0B0E08091110428E830E0690138
:10361000C81AD10887FDD394CC0CDD1CCC0CDD1C62
:103620000D2C000CEE08FF088091120428E532E012
:10363000281B310987FD3395220F331F220F331FBB
:10364000A901330F660B770B9A01AB012C193D09C9
:103650004E095F090E94F12B24EB30E040E050E07E
:103660000E94C72BC20ED31EE41EF51ED6019091F8
:1036700010049C3098F58091110448E850E0481BF4
:10368000510987FD5395440F551F440F551FA4172B
:10369000B5078CF08091120428E532E0281B31092F
:1036A00087FD3395220F331F220F331FAD012A17D9
:1036B0003B070CF4A90142505109440F551F2FB785
:1036C000F894892F90E0FC01EE0FFF1F8E0F9F1FD3
:1036D000FC01EA58FC4F528341832FBFFF90EF90CB
:1036E000DF90CF9008953091D802313208F04BC06E
:1036F0008091B4028111FCCF9091D70222E02093F7
:10370000B40221E02093B3022FEF2093B202109273
:10371000B1023093B002E7EBF2E0A0E9B2E020E0C2
:10372000321721F041914D932F5FFACF10928F0203
:1037300020918F02990F922B90938F0290918E027D
:10374000913061F410928E0290918F029093BB00A1
:103750009091BC0093FDF8CF95EC01C095EE90934D
:10376000BC009091B4029230E1F39091B2029F3F7D
:1037700079F08091B202803241F08091B2028033C0
:1037800031F084E005C081E003C082E001C083E045
:103790001092B6021092D8021092B50208953FB767
:1037A000F8948091CC049091CD04A091CE04B09176
:1037B000CF0426B5A89B05C02F3F19F00196A11D87
:1037C000B11D3FBFBA2FA92F982F8827820F911DB7
:1037D000A11DB11DBC01CD0142E0660F771F881FFE
:1037E000991F4A95D1F708952FB7F8946091C804AE
:1037F0007091C9048091CA049091CB042FBF0895A1
:103800001F920F920FB60F9211242F933F938F9315
:103810009F93AF93BF938091C8049091C904A091E6
:10382000CA04B091CB043091C70423E0230F2D3795
:1038300020F40196A11DB11D05C026E8230F0296B4
:10384000A11DB11D2093C7048093C8049093C9049F
:10385000A093CA04B093CB048091CC049091CD0482
:10386000A091CE04B091CF040196A11DB11D80930B
:10387000CC049093CD04A093CE04B093CF04BF9119
:10388000AF919F918F913F912F910F900FBE0F900D
:103890001F901895CF93DF93EC01988188818E7FDC
:1038A000888388818D7F888390FF03C0CE010E942A
:1038B000140D8BA19CA1009769F11CA21BA2EF8D96
:1038C000F8A1A9A1BAA1309799F4109749F4DC01A5
:1038D00011961C921E9213961C921E9212971AC059
:1038E00090961C921E925F97FC01B183A08312C038
:1038F000109741F412A211A2DC011396FC93EE93EF
:10390000129708C0B2A3A1A3A9A1BAA19096FC9353
:10391000EE935F97DF91CF91089581EA93E00E9443
:103920004A1C86EC93E00E944A1C8BEE93E00E94B6
:103930004A1C80916504909166040E94522E8091E9
:103940006B0490916C040E94522E8CE391E0909352
:103950008A04809389048091A7049091A804009719
:1039600011F00C94522E08950F931F93CF93DF9371
:10397000EC018BA19CA18B599340F9F08BE993E06A
:103980009CA38BA380919B0390919C03892B39F47A
:10399000D0939C03C0939B0318A21F8E08C0E09194
:1039A0009D03F0919E03F8A3EF8FD2A3C1A31AA2A7
:1039B00019A2D0939E03C0939D03ABA1BCA1109705
:1039C000D9F11D8A1E8A1F8A188EEB8DFC8D3097C7
:1039D00079F1888181FD2CC014960D911C91159769
:1039E0001596DC93CE93149788818260888309951D
:1039F000988180FB90F9988388818D7F8883EBA1E3
:103A0000FCA1158304830E94F41B09811A812B8178
:103A10003C810D831E832F833887DC01CB01801B03
:103A2000910BA20BB30B89879A87AB87BC8704C025
:103A3000888181608883E7CFDF91CF911F910F91BB
:103A40000895CF93DF93CDB7DEB7E5970FB6F8941F
:103A5000DEBF0FBECDBF789484B5826084BD84B5CF
:103A6000816084BD85B5826085BD85B5816085BD79
:103A700080916E00816080936E0010928100809131
:103A800081008260809381008091810081608093B9
:103A90008100809180008160809380008091B100DE
:103AA00084608093B1008091B00081608093B00009
:103AB00080917A00846080937A0080917A0082609D
:103AC00080937A0080917A00816080937A0080915F
:103AD0007A00806880937A001092C10062E082E0F0
:103AE0000E94C2148091A7049091A804892B11F51B
:103AF00020918F0430919004C901079697FD079695
:103B0000B3E095958795BA95E1F720918D043091B2
:103B10008E04AC01429FC001439F900D529F900DB7
:103B200011240E94BA2D9093A8048093A704892B96
:103B300009F4FFCF0E944C0F20918F043091900424
:103B400080918D0490918E0421323105A4F0B90149
:103B50006054710977FF02C06F5F7F4F759567955D
:103B60008255910997FD019600E410E022E530E0CE
:103B700049E652E013C0B9016052710977FF02C0F3
:103B80006F5F7F4F759567958357910997FD0196F4
:103B900000E210E023E730E049E850E09595879592
:103BA0000E94AE0F82E08093AA048091A5049091B8
:103BB000A604892B31F08CE38093A9040E94901411
:103BC000BEC061E08091AE040E94C21461E08091A9
:103BD000AF040E94C2148091AE04082E000C990B11
:103BE000FC01E35CFA4FE491F0E0EE0FFF1FED5CA7
:103BF000FA4F259134913093B6042093B504FC011B
:103C0000EF5AFA4FE491E093BB048091AF04082E81
:103C1000000C990BFC01E35CFA4FE491F0E0EE0F2D
:103C2000FF1FED5CFA4FA591B491B093B804A09337
:103C3000B704FC01EF5AFA4FE491E093BC048C9175
:103C4000E82BEC938091A3049091A404892B09F4B0
:103C500034C01FB7F89480916602811127C0E7E451
:103C6000F5E08491EBE5F5E09491E82FF0E0EE0FBC
:103C7000FF1FE75DFA4FA591B491EC91E92321F480
:103C800061E08AE00E94431461E08AE00E94C2146D
:103C90008CB580618CBD8CB580648CBD61E08DE09D
:103CA0000E94C21461E08BE00E94C21480916602FF
:103CB0008F5F809366021FBF42C061E08091AC04B9
:103CC0000E94C21461E08091AD040E94C2148091F0
:103CD000AC04082E000C990BFC01E35CFA4FE49154
:103CE000F0E0EE0FFF1FED5CFA4F25913491309319
:103CF000B2042093B104FC01EF5AFA4FE491E0932F
:103D0000B9048091AD04082E000C990BFC01E35C12
:103D1000FA4FE491F0E0EE0FFF1FED5CFA4FA59132
:103D2000B491B093B404A093B304FC01EF5AFA4FDA
:103D3000E491E093BA048C91E095E823EC938091B0
:103D4000B00487FD1EC061E00E94C21461E0809152
:103D5000B0040E94431461E070E080E090E00E94B3
:103D6000FE1460E08091B0040E9443146AE070E0A9
:103D700080E090E00E94FE1461E08091B0040E9417
:103D800043148091A5049091A604892BD1F0209131
:103D9000BF043091C0044091C1045091C20460E05E
:103DA00074E284EF90E00E94302CDA01C901409760
:103DB000A109B109B695A795979587958093B80005
:103DC00016C08091A3049091A404892B31F08091B6
:103DD000BD049091BE040E94921AE091B704F09144
:103DE000B80490818091BC0480958923808364E02D
:103DF00085E890E00E94770D60918F04615089E81A
:103E000094E00E94341A64E081E890E00E94770D0B
:103E10008091AA04813011F064E101C060E189E879
:103E200094E00E94341A64E08DE790E00E94770DE0
:103E300080918D0490918E0480389105E9F48091F1
:103E40008F04909190048032910531F464E089E709
:103E500090E00E94770D29C08034910531F563E030
:103E600086E790E00E94770D8091AA04813011F0DE
:103E70006FEC17C06FE915C080369105B1F48091E1
:103E80008F0490919004409781F463E083E790E081
:103E90000E94770D8091AA04813011F06FEA01C071
:103EA00060E189E894E00E94341A69ED89E894E0C1
:103EB0000E94341A8091AA04813011F061EF01C090
:103EC00062E289E894E00E94341A66E08DE690E0B0
:103ED0000E94770D8091A5049091A604892BD1F0C2
:103EE0002091C3043091C4044091C5045091C6048C
:103EF00060E074E284EF90E00E94302CDA01C901A6
:103F00004097A109B109B695A79597958795809394
:103F1000B80011C0E091B704F091B804908180918D
:103F2000BC04892B80838091A3049091A404892BE5
:103F300011F00E942C1A63ED71E08BE694E00E9470
:103F4000F2180E943B0B88ED91E00E94600D0E94E8
:103F50003B0BE091E902F091EA0282E08083E0917C
:103F6000E502F091E6021082E091E702F091E802AA
:103F700080E180831092F102E091ED02F091EE0277
:103F800086E08083E091EB02F091EC028081806119
:103F90008083E091EB02F091EC0280818860808365
:103FA000E091EB02F091EC02808180688083E091E7
:103FB000EB02F091EC0280818F7D808384EE91E0B2
:103FC0000E94600D0E943B0B0E9490140E94E2260A
:103FD000803A59F068EE73E080E090E00E94FE14B1
:103FE0000E94E226803A09F09BC080E090E00E94A7
:103FF0000D2760E28FE390E00E94B7260E94E22640
:10400000803A39F06AE070E080E090E00E94FE14AF
:10401000F5CF62E370E080E090E00E94FE1460E083
:104020008EE390E00E94B7266AE070E080E090E0C6
:104030000E94FE1460E087E090E00E94B72660E0F6
:104040008FE390E00E94B7266AE070E080E090E0A5
:104050000E94FE148CE090E00E940D2764E170E065
:1040600080E090E00E94FE1468EE73E080E090E053
:104070000E94FE1400917B0410917C0480E090E08B
:104080000E940D2769E170E080E090E00E94FE143C
:1040900060E087E090E00E94B72660E88FE390E060
:1040A0000E94B7266AE070E080E090E00E94FE1473
:1040B000C8010E940D2764E170E080E090E00E945A
:1040C000FE1480E891E00E94600D0E943B0B10916D
:1040D0001304809110048C3008F055C061E0812FEA
:1040E0000E94C21480911004E82FF0E09F01220F7B
:1040F000331FE20FF31FEA58FC4F1F739081907C2F
:10410000192B108310921104109212046CE00E947B
:10411000612C5CE0859FB001112440E050E006C0B6
:10412000FFCF4F5F5F4F4C30510579F09B01240F5B
:10413000351FF901EE0FFF1F2E0F3F1FF901EA583F
:10414000FC4F908196FFEDCF11C081110FC01092EE
:10415000800082E08093810010928500109284009C
:10416000B19A80916F00826080936F00E09110049B
:10417000F0E0CF01880F991FE80FF91FEA58FC4FB4
:104180008081806480838AE590E00E94EF1A10921B
:104190001D0410921E0410921F041092200410920D
:1041A0001504109216041092170410921804412C52
:1041B000512C9CE8692E92EC792E40925304509237
:1041C00054046092550470925604C12CD12C2CE8F2
:1041D000E22E22E4F22EC0925704D0925804E092CC
:1041E0005904F0925A0480915B0400913F041091AD
:1041F0004004D8018D909D90AD90BC90882309F427
:104200004FC0A7019601C501B4010E94B02D181638
:1042100034F4F801C082D182E282F38210C020E03F
:1042200030E04CE852ECC501B4010E94A32A87FF9C
:1042300006C0D8014D925D926D927C92139780904A
:10424000470490904804A0904904B0904A04C0905C
:104250005704D0905804E0905904F0905A04A701F4
:104260009601C501B4010E94B02D181684F0C090CB
:104270005304D0905404E0905504F0905604A701E4
:104280009601C501B4010E94A32A87FF3DC0C092D8
:104290004704D0924804E0924904F0924A0434C0A2
:1042A0008092470490924804A0924904B0924A0434
:1042B000E0913D04F0913E0480819181A281B3811F
:1042C00080934B0490934C04A0934D04B0934E0400
:1042D00020E030E04CE852E4C501B4010E94B02D6A
:1042E0001816ACF220E030E04CE852ECC501B40105
:1042F0000E94A32A87FF08C04092470450924804B6
:104300006092490470924A0481E080935B0460915A
:104310004F047091500480915104909152040E9476
:10432000A82A9B01AC0160E070E088E493E40E945D
:10433000082D6B017C019B01AC01609131047091EF
:10434000320480913304909134040E94092B6093CD
:104350003104709332048093330490933404A701A2
:1043600096016091350470913604809137049091E4
:1043700038040E94082D60933504709336048093AE
:1043800037049093380488EC90E0A0E0B0E080938C
:104390004F0490935004A0935104B0935204109290
:1043A0009C0310929B0310929E0310929D03109207
:1043B000A00310929F0381EA93E00E94B41C8BEE4D
:1043C00093E00E94B41C86EC93E00E94B41C60E968
:1043D00071E08BE694E00E94F2188BEF91E00E946E
:1043E000600D80E8482E8EE3582E612C712C809150
:1043F0009B0390919C039093A00380939F03E09173
:104400009F03F091A003309709F475C001A112A198
:10441000808180FF6BC085859685A785B089892BB3
:104420008A2B8B2B69F4908180818E7F80838081A1
:104430008D7F808390FF5AC0CF010E94140D56C01B
:104440000E94F41BE0919F03F091A003218132812F
:104450004381548181849284A384B484C580D680AE
:10446000E780F084DC01CB0188199909AA09BB090E
:104470008C159D05AE05BF05C8F185859685A78578
:10448000B089181619061A061B065CF485859685F0
:10449000A785B0890197A109B10985879687A78764
:1044A000B08B85899689A789B08D0196A11DB11D14
:1044B000858B968BA78BB08FC580D680E780F084E4
:1044C00081859285A385B4858C0D9D1DAE1DBF1D74
:1044D00081879287A387B487258336834783508754
:1044E000018CF28DE02D309709F009951093A0030F
:1044F00000939F0384CF89ED92E00E949315039768
:104500000CF49CC189ED92E00E9471156C0180341D
:1045100091050CF093C18130910509F052C00E94C1
:10452000350D0E947A2D9B01AC01A0E1B7E20E94FB
:10453000E62BA30192010E94C72BCA01B9010E9478
:10454000AA2A20E030E048EC52E40E94082D20E046
:1045500030E048E452E40E949B2C60935A0270932E
:104560005B0280935C0290935D020E94350D4B01CB
:104570005C0120E030EC49E754EC0E94A32A882338
:1045800009F4C3C0C501B4010E947A2D9B01AC019E
:10459000A4EBB0E00E94E62BA30192010E94C72B7E
:1045A000CA01B9016A557109810991090E94AA2AB3
:1045B0006093520270935302809354029093550279
:1045C000A4C08230910509F052C00E94350D0E94AE
:1045D0007A2D9B01AC01A0E1B7E20E94E62BA3017A
:1045E00092010E94C72BCA01B9010E94AA2A20E0A9
:1045F00030E048EC52E40E94082D60930A01709369
:104600000B0180930C0190930D0188E991E00E94C9
:10461000600DE0906104F0906204009163041091D9
:10462000640420915D0430915E0440915F045091D8
:10463000600460910A0170910B0180910C019091CE
:104640000D010E9431108091210490912204A091CB
:104650002304B091240480934E0290934F02A093C0
:104660005002B093510241E040934D024EC083305E
:10467000910509F08CC00E94350D0E947A2D9B0196
:10468000AC01A0E1B7E20E94E62BA30192010E94D7
:10469000C72BCA01B9010E94AA2A20E030E048ECE9
:1046A00052E40E94082D60935D0470935E04809331
:1046B0005F04909360048FE991E00E94600D209167
:1046C0005D0430915E0440915F045091600420933A
:1046D0004E0230934F024093500250935102E090AB
:1046E0006104F0906204009163041091640460918D
:1046F0000A0170910B0180910C0190910D010E94B3
:10470000311081E080934D02ECC2E6E0CE16D10478
:1047100009F0E7C20E94350D6B017C0120E030E01A
:10472000A9010E94B02D87FD89C0C701B6010E9472
:104730007A2D9B01AC01A0E1B7E20E94E62BA30118
:1047400092010E94C72BCA01B9010E94AA2A20E047
:1047500030E048EC52E40E94082D6B017C0160932C
:1047600006017093070180930801909309018BEB78
:1047700091E00E94600DC0924E02D0924F02E092F2
:104780005002F0925102F1E0F0934D0257C00497AD
:1047900009F070C20E94350D6B017C0120E030E011
:1047A000A9010E94B02D87FD49C0C701B6010E9432
:1047B0007A2D9B01AC01A0E1B7E20E94E62BA30198
:1047C00092010E94C72BCA01B9010E94AA2A20E0C7
:1047D00030E048EC52E40E94082D6093610470932D
:1047E0006204809363049093640486EA91E00E94DB
:1047F000600DE0906104F0906204009163041091F8
:104800006404E0924E02F0924F0200935002109323
:10481000510220915D0430915E0440915F045091FB
:10482000600460910A0170910B0180910C019091DC
:104830000D010E94311091E090934D02BE016F5F17
:104840007F4F81E794E00E940317C98CDA8CEB8CD0
:10485000FC8C20916202309163024091640250917D
:104860006502C701B6010E94A32A811110C02091E0
:104870005E0230915F0240916002509161026D8D45
:104880007E8D8F8D98A10E94A32A8823E1F0C0928B
:104890006202D0926302E0926402F09265028D8D12
:1048A0009E8DAF8DB8A180935E0290935F02A0931E
:1048B0006002B0936102C0921D04D0921E04E09287
:1048C0001F04F092200480915A0290915B02A09103
:1048D0005C02B0915D028093150490931604A0933E
:1048E0001704B093180480915B04882309F44DC128
:1048F0000E94F41B6DA77EA78FA798AB80914304FD
:1049000090914404A0914504B09146044DA55EA544
:104910006FA578A9481B590B6A0B7B0B80914F043C
:1049200090915004A0915104B09152044817590736
:104930006A077B0708F429C1E0913D04F0913E0429
:1049400080819181A281B38189A79AA7ABA7BCA7D7
:10495000E0914104F09142049C01AD0160817181BC
:10496000828193810E949B2C4B015C0120914B041E
:1049700030914C0440914D0450914E0469A57AA5A4
:104980008BA59CA50E949B2C6B017C01209131047E
:10499000309132044091330450913404C501B40184
:1049A0000E94092B2091470430914804409149040A
:1049B00050914A040E949C2C6DA37EA38FA398A7BC
:1049C00060934704709348048093490490934A0489
:1049D00090915C0499AB91111CC020912D043091F1
:1049E0002E0440912F0450913004C701B6010E945B
:1049F000092B9B01AC016DA17EA18FA198A50E94FE
:104A00009B2C6093470470934804809349049093CF
:104A10004A048091470490914804A0914904B091C0
:104A20004A048DA39EA3AFA3B8A710915704009189
:104A300058043090590420905A04212F302F432DD0
:104A4000522DBC01CD010E94B02D18162CF4812FDF
:104A5000902FA32DB22D1AC080915304909154042D
:104A6000A0915504B09156048AAB9BABACABBDABE7
:104A70009C01AD016DA17EA18FA198A50E94A32AE2
:104A800087FF0CC08AA99BA9ACA9BDA98093470444
:104A900090934804A0934904B0934A0499A9992398
:104AA00079F020912D0430912E0440912F045091E3
:104AB0003004C501B4010E94092B4B015C0103C005
:104AC000812C912C54012091350430913604409171
:104AD000370450913804C701B6010E94092B9B018D
:104AE000AC01609147047091480480914904909111
:104AF0004A040E949B2CA50194010E949C2C6B01EE
:104B00007C019B01AC01612F702F832D922D0E949F
:104B1000A32A87FD16C010915304009154043090CD
:104B2000550420905604212F302F432D522DB601CD
:104B3000C7010E94A32A87FD04C01C2D0D2D3E2C09
:104B40002F2CE0913F04F0914004812F902FA32D52
:104B5000B22D80839183A283B38389A59AA5ABA547
:104B6000BCA580934B0490934C04A0934D04B09348
:104B70004E048DA59EA5AFA5B8A98093430490933C
:104B80004404A0934504B0934604C0901904D09007
:104B90001A04E0901B04F0901C042AE939E949E169
:104BA0005EE3C701B6010E94B02D181654F02AE941
:104BB00039E949E15EEBC701B6010E94A32A87FFEC
:104BC0003BC020E030E0A901C701B6010E94B02D32
:104BD0001816A4F4A70196016091060170910701CF
:104BE00080910801909109010E949C2C60935602CB
:104BF00070935702809358029093590220E030E05E
:104C0000A901C701B6010E94A32A87FF1DC02091F8
:104C10000601309107014091080150910901C70137
:104C2000B6010E949B2C60935602709357028093AA
:104C300058029093590208C01092560210925702DF
:104C40001092580210925902209156023091570248
:104C5000409158025091590260E070E084EB92E478
:104C60000E949B2C0E947A2DCB010E94EF1A0E9479
:104C70003A16BDCBA5E0CA16D10409F046CD0E9474
:104C8000350D0E947A2D9B01AC01A0E1B7E20E9494
:104C9000E62BA30192010E94C72BCA01B9010E9411
:104CA000AA2A20E030E048EC52E40E94082D6B0173
:104CB0007C0160930201709303018093040190933F
:104CC00005018DEA91E00E94600DC0924E02D092E3
:104CD0004F02E0925002F0925102B1E0B0934D02C7
:104CE000ADCDE7E0CE16D10409F0A8CD0E94350D78
:104CF0006B017C0120E030E0A9010E94B02D87FD0E
:104D00009DCDC701B6010E947A2D9B01AC01A0E5A3
:104D1000B6E40E94E62BA30192010E94C72BCA01B0
:104D2000B9010E94AA2A20E030E048EC52E40E9437
:104D3000082D0E947A2D6B017C0170930101609314
:104D4000000187EC91E00E94600DB601DD0C880B3C
:104D5000990B0E94AA2A60934E0270934F0280938F
:104D600050029093510241E040934D0267CD0F9362
:104D70001F93CF93DF93082F162FC1E7D4E06B81E9
:104D80008C819D810E94310B8C819D81DC01ED9194
:104D9000FC910190F081E02D602F09958C819D811F
:104DA000DC01ED91FC910190F081E02D612F0995DE
:104DB0008C819D810E94731B81E0DF91CF911F91B7
:104DC0000F910895CF93DF93C1E7D4E06B818C817D
:104DD0009D810E94310B8C819D81DC01ED91FC91C4
:104DE0000190F081E02D60E009958C819D810E9409
:104DF000731B61E08B810E946C0F10926C02809398
:104E00006B028C819D81DC01ED91FC910284F38524
:104E1000E02D0995DF91CF910895E1E7F4E08287D5
:104E20009387682F8DE390E00E94B7266EE170E0D3
:104E300080E090E00C94FE144F925F926F927F920C
:104E40008F929F92AF92BF92CF92DF92EF92FF929A
:104E5000CF931092DC021092DB0288EE93E0A0E088
:104E6000B0E08093DD029093DE02A093DF02B09366
:104E7000E00228E131E03093DA022093D90225ECF8
:104E800030E03093E6022093E50224EC30E03093EA
:104E9000E8022093E70220EC30E03093EA0220930E
:104EA000E90221EC30E03093EC022093EB0222EC9B
:104EB00030E03093EE022093ED0226EC30E03093A8
:104EC000F0022093EF021092F2021092F30210927D
:104ED000F4021092F5022DE734E010928004109253
:104EE0007F048093810490938204A0938304B09301
:104EF00084048AE291E090937E0480937D04109272
:104F00008C0410928B0440E850E050938E04409340
:104F10008D0480E290E09093900480938F045093EE
:104F2000920440939104909394048093930410927C
:104F30009E04109296041092950410929804109278
:104F40009704C1E0C0939D048FEF9FEF90939C0462
:104F500080939B0490939A0480939904C0939F0438
:104F60001092A0041092A2041092A1048CE391E08C
:104F700090938A04809389041092A4041092A3044D
:104F80003093A6042093A5041092A8041092A704BD
:104F90008FEF8093AC048093AD048093AE04809334
:104FA000AF0484E08093B00480E58093BD04109248
:104FB000BE0480E89AE1A6E0B0E08093BF0490933D
:104FC000C004A093C104B093C20480EA96E8A1E0B3
:104FD000B0E08093C3049093C404A093C504B0933D
:104FE000C60486E791E0909372048093710481E097
:104FF00090E0A0E0B0E08093770490937804A093D1
:105000007904B0937A0488E2809374043093760430
:105010002093750410926C0410926B0410926E042D
:1050200010926D041092700410926F0446E050E0EC
:1050300063E072E08BE694E00E94B218109266047E
:1050400010926504109268041092670410926A042A
:105050001092690440E050E06BEF71E085E694E067
:105060000E94B218C0906104D0906204E090630482
:10507000F090640480905D0490905E04A0905F04C2
:10508000B090600440900A0150900B0160900C01B8
:1050900070900D0189E194E09093400480933F0467
:1050A0008DE194E090933E0480933D0485E194E08B
:1050B000909342048093410410925B041092530435
:1050C00010925404109255041092560480E090E01F
:1050D000AFE7B3E48093570490935804A093590426
:1050E000B0935A0484E690E0A0E0B0E080934F04CF
:1050F00090935004A0935104B093520410923A0438
:105100001092390420E030E0A901C301B2010E94ED
:10511000A32A87FD5AC020E030E0A901C501B401EF
:105120000E94A32A87FD51C020E030E0A901C701F9
:10513000B6010E94A32A87FD48C081E090E09093C9
:105140003C0480933B04C0935C0440922104509241
:105150002204609223047092240480922504909289
:105160002604A0922704B0922804C0922904D09269
:105170002A04E0922B04F0922C0440922D045092C9
:105180002E0460922F04709230042DEC3CEC4CEC19
:105190005DE3C501B4010E94092B60933104709353
:1051A000320480933304909334042DEC3CEC4CECAB
:1051B0005DE3C701B6010E94082D6093350470932A
:1051C000360480933704909338040E94F41BC090F7
:1051D0004F04D0905004E0905104F0905204DC0150
:1051E000CB018C199D09AE09BF09809343049093AC
:1051F0004404A0934504B093460480919A038C30F4
:10520000A0F491E0980F90939A038093100490E09B
:10521000FC01EE0FFF1F8E0F9F1FFC01EA58FC4F91
:1052200088EB9BE09283818303C08FEF809310040F
:1052300086E090E090931404809313048091EB0334
:105240008E7F8093EB038091EB038D7F8093EB0344
:105250001092F4031092F5031092F6031092F703E4
:105260001092F0031092F1031092F2031092F303E4
:105270001092EC031092ED031092EE031092EF03E4
:1052800010920B0410920A0410920D0410920C0458
:1052900010920F0410920E04109200041092010458
:1052A000109202041092030483EB99E0909305049A
:1052B00080930404109207041092060410920904CB
:1052C0001092080488EC882E912CA12CB12C80928D
:1052D000EC039092ED03A092EE03B092EF03809165
:1052E000EC039091ED03A091EE03B091EF03809356
:1052F000F0039093F103A093F203B093F3030E94A1
:10530000F41B6093F4037093F5038093F60390937A
:10531000F703CC24CA94DC2C7601C092F803D09217
:10532000F903E092FA03F092FB03C092FC03D092DF
:10533000FD03E092FE03F092FF038091C6038E7F8F
:105340008093C6038091C6038D7F8093C60310921D
:10535000CF031092D0031092D1031092D203109277
:10536000CB031092CC031092CD031092CE03109277
:10537000C7031092C8031092C9031092CA03109277
:10538000E6031092E5031092E8031092E7031092EF
:10539000EA031092E9031092DB031092DC031092EF
:1053A000DD031092DE038BED99E09093E003809390
:1053B000DF031092E2031092E1031092E4031092D3
:1053C000E3038092C7039092C803A092C903B092EE
:1053D000CA038091C7039091C803A091C903B091FB
:1053E000CA038093CB039093CC03A093CD03B093D7
:1053F000CE030E94F41B6093CF037093D00380937D
:10540000D1039093D203C092D303D092D403E092FD
:10541000D503F092D603C092D703D092D803E0927E
:10542000D903F092DA038091A1038E7F8093A103C8
:105430008091A1038D7F8093A1031092AA03109203
:10544000AB031092AC031092AD031092A60310921E
:10545000A7031092A8031092A9031092A20310921E
:10546000A3031092A4031092A5031092C1031092FB
:10547000C0031092C3031092C2031092C50310928E
:10548000C4031092B6031092B7031092B80310929F
:10549000B9038BE39BE09093BB038093BA03109214
:1054A000BD031092BC031092BF031092BE03809202
:1054B000A2039092A303A092A403B092A5038091AB
:1054C000A2039091A303A091A403B091A50380939C
:1054D000A6039093A703A093A803B093A9030E94E7
:1054E000F41B6093AA037093AB038093AC03909377
:1054F000AD03C092AE03D092AF03E092B003F0923E
:10550000B103C092B203D092B303E092B403F0921D
:10551000B50310929C0310929B0310929E0310926D
:105520009D031092A00310929F03CF91FF90EF90E4
:10553000DF90CF90BF90AF909F908F907F906F90B3
:105540005F904F9008950E94E52A08F481E0089545
:10555000E89409C097FB3EF490958095709561950D
:105560007F4F8F4F9F4F9923A9F0F92F96E9BB27C3
:105570009395F695879577956795B795F111F8CF3F
:10558000FAF4BB0F11F460FF1BC06F5F7F4F8F4FAA
:105590009F4F16C0882311F096E911C0772321F0A0
:1055A0009EE8872F762F05C0662371F096E8862F38
:1055B00070E060E02AF09A95660F771F881FDAF78F
:1055C000880F9695879597F90895990F0008550FBC
:1055D000AA0BE0E8FEEF16161706E807F907C0F079
:1055E00012161306E407F50798F0621B730B840B81
:1055F000950B39F40A2661F0232B242B252B21F45B
:1056000008950A2609F4A140A6958FEF811D811DFA
:1056100008950E941C2B0C948D2B0E947F2B38F038
:105620000E94862B20F0952311F00C94762B0C947D
:105630007C2B11240C94C12B0E949E2B70F3959F00
:10564000C1F3950F50E0551F629FF001729FBB2779
:10565000F00DB11D639FAA27F00DB11DAA1F649F15
:105660006627B00DA11D661F829F2227B00DA11DC8
:10567000621F739FB00DA11D621F839FA00D611D4E
:10568000221F749F3327A00D611D231F849F600D6F
:10569000211D822F762F6A2F11249F5750409AF098
:1056A000F1F088234AF0EE0FFF1FBB1F661F771F24
:1056B000881F91505040A9F79E3F510580F00C94EF
:1056C000762B0C94C12B5F3FE4F3983ED4F3869580
:1056D00077956795B795F795E7959F5FC1F7FE2B8F
:1056E000880F911D9695879597F9089597F99F676B
:1056F00080E870E060E008959FEF80EC089500245A
:105700000A941616170618060906089500240A9426
:1057100012161306140605060895092E0394000CAC
:1057200011F4882352F0BB0F40F4BF2B11F460FF3B
:1057300004C06F5F7F4F8F4F9F4F089557FD905864
:10574000440F551F59F05F3F71F04795880F97FB45
:10575000991F61F09F3F79F08795089512161306FF
:105760001406551FF2CF4695F1DF08C0161617062E
:105770001806991FF1CF8695710561050894089563
:10578000E894BB2766277727CB0197F90895052E64
:1057900097FB1EF400940E94DE2B57FD07D00E9459
:1057A000302C07FC03D04EF40C94DE2B5095409522
:1057B000309521953F4F4F4F5F4F089590958095BD
:1057C000709561957F4F8F4F9F4F08950E94522C87
:1057D000A59F900DB49F900DA49F800D911D112445
:1057E0000895B7FF0C94E62B0E94E62B821B930BC7
:1057F00008952F923F924F925F926F927F928F9275
:105800009F92AF92BF92CF92DF92EF92FF920F934F
:105810001F93CF93DF93CDB7DEB7CA1BDB0B0FB659
:10582000F894DEBF0FBECDBF09942A883988488816
:105830005F846E847D848C849B84AA84B984C884AC
:10584000DF80EE80FD800C811B81AA81B981CE0FA3
:10585000D11D0FB6F894DEBF0FBECDBFED01089588
:10586000A1E21A2EAA1BBB1BFD010DC0AA1FBB1F64
:10587000EE1FFF1FA217B307E407F50720F0A21BD6
:10588000B30BE40BF50B661F771F881F991F1A9443
:1058900069F760957095809590959B01AC01BD016D
:1058A000CF010895A29FB001B39FC001A39F700DC7
:1058B000811D1124911DB29F700D811D1124911D18
:1058C0000895991B79E004C0991F961708F0961B5C
:1058D000881F7A95C9F78095089597FB072E16F4CF
:1058E000009407D077FD09D00E94812C07FC05D0D9
:1058F0003EF4909581959F4F0895709561957F4FE7
:105900000895AA1BBB1B51E107C0AA1FBB1FA61706
:10591000B70710F0A61BB70B881F991F5A95A9F758
:1059200080959095BC01CD010895EE0FFF1F059065
:10593000F491E02D09945058BB27AA270E94B32C5C
:105940000C948D2B0E947F2B38F00E94862B20F028
:1059500039F49F3F19F426F40C947C2B0EF4E09557
:10596000E7FB0C94762BE92F0E949E2B58F3BA1775
:10597000620773078407950720F079F4A6F50C9465
:10598000C02B0EF4E0950B2EBA2FA02D0B01B90100
:1059900090010C01CA01A0011124FF27591B99F0A5
:1059A000593F50F4503E68F11A16F040A22F232FB1
:1059B000342F4427585FF3CF469537952795A79501
:1059C000F0405395C9F77EF41F16BA0B620B730BA8
:1059D000840BBAF09150A1F0FF0FBB1F661F771F19
:1059E000881FC2F70EC0BA0F621F731F841F48F4CE
:1059F000879577956795B795F7959E3F08F0B0CF57
:105A00009395880F08F09927EE0F9795879508953D
:105A10000E941C2D0C948D2B0E94862B58F00E9406
:105A20007F2B40F029F45F3F29F00C94762B511125
:105A30000C94C12B0C947C2B0E949E2B68F3992311
:105A4000B1F3552391F3951B550BBB27AA2762177A
:105A50007307840738F09F5F5F4F220F331F441F87
:105A6000AA1FA9F335D00E2E3AF0E0E832D09150BB
:105A70005040E695001CCAF72BD0FE2F29D0660FA8
:105A8000771F881FBB1F261737074807AB07B0E8EB
:105A900009F0BB0B802DBF01FF2793585F4F3AF0F1
:105AA0009E3F510578F00C94762B0C94C12B5F3FF0
:105AB000E4F3983ED4F3869577956795B795F79577
:105AC0009F5FC9F7880F911D9695879597F908955F
:105AD000E1E0660F771F881FBB1F621773078407FB
