:100000000C9447050C946F050C946F050C946F05C8
:100010000C946F050C946F050C946F050C946F0590
:100020000C946F050C946F050C946F050C94CA1812
:100030000C946F050C946F050C946F050C946F0570
:100040000C94F51B0C946F050C9498180C94721872
:100050000C946F050C946F050C946F050C946F0550
:100060000C940D0A0C946F052200FF2100DB40A4C4
:10007000A62EAFDA0281DA1281DA02818F2000A186
:10008000C8D300408DAED580A800006000000000FD
:1000900000000000000000000000E0000000000080
:1000A000000000000000000001E00000000000006F
:1000B0000000000000000001F0000000000000004F
:1000C00000000000000003F000000000000000003D
:1000D000000000000007F000000000000000000029
:1000E0000000000007F80000000000000000000011
:1000F0000000000FF800000003C0007E000001E0D7
:10010000007F0FF800000003C000FE000001E000C7
:10011000FFEFF800000003C000FE000001E000FF58
:10012000FFF800000003C000F00000000F007FFE99
:100130007FC0000003C000F00000000F003FFE7F02
:10014000F83FF1FBCFFCFEF3BC3DEFE01FFE7FFF6D
:100150007FFBFFDFFEFEFFBC3DEFE01FC6FFFF7F22
:10016000FBFFDFFEFEFFBC3DEFE00FE3C7FE787B49
:10017000C3DE1EF0FFBC3DEF0007FF87FC787BC3AA
:10018000DE1EF0F83C3DEF0001FFFFF0007BC3C036
:100190001EF0F03C3DEF0001F37FE03FFBC3CFFEDC
:1001A000F0F03C3DEF0003E33F807FFBC3DFFEF058
:1001B000F03C3DEF0007E73C00787BC3DE1EF0F02B
:1001C0003C3DEF0007FFBE00787BC3DE1EF0F03C35
:1001D0003DEF0007FFFE00787BC3DE1EF0F03C3DE4
:1001E000EF000FFFFE007FFBFFDFFEF0F03FFDEFB3
:1001F000E00FFFFF007FFBFFDFFEF0F03FFDEFE0D1
:100200000FF9FF003E79F9CF9EF0F01F3DE7E01FA8
:10021000F1FF0000000000000000000000001F804F
:10022000FF007FFFFFFFFFFFFFFFFFFFE01C007FDE
:10023000007FFFFFFFFEB46D888D18E000001F00F7
:100240007FFFFFFFFE95AD7DB577E000000F007FDB
:10025000FFFFFFFEA5AD9D8D19E0000006007FFFAA
:10026000FFFFFEB5ADEDB57EE000000000000180AF
:1002700000000000000000000003800000000000FB
:100280000000000007C000000000000000000007A0
:10029000C00000000000000000000FC000000000CF
:1002A00000000000001FE00000000000000000004F
:1002B0001FE00000000000000000003FE000000020
:1002C0000000000000003FF00000000000000000FF
:1002D000007FF0000000000000001FF87FF0000029
:1002E00000000000003FFE7FF00000000000000062
:1002F0003FFF7FF0000000000000001FFFFBE00058
:100300000000000000000FFFF9FFC0000000000027
:10031000000FFFF9FFF800000000000007FFF1FFE9
:10032000FF00000000000003FC73FFFF80000000DE
:10033000000001FE3FFFFF80000000000000FF1EE4
:100340000FFF000000000000007FFE1FFC00000007
:10035000000000003FFFFFF8000000000000000F59
:10036000DFFFE0000000000000001F19FFC00000D8
:1003700000000000003F3CFF000000000000000003
:100380007E7CF800000000000000007FFE7C000082
:10039000000000000000FFFFFC0000000000000063
:1003A00000FFFFFE0000000000000000FFFFFE0055
:1003B00000000000000001FFEFFE00000000000050
:1003C0000001FFCFFE0000000000000003FF07FE59
:1003D0000000000000000003FC07FE000000000019
:1003E000000003F003FE0000000000000001800098
:1003F000FE000000000000000000007E0000000081
:100400000000000000003E000000000000000000AE
:10041000000C000000000000078000FC000003C08A
:10042000000000078001FC000003C00000000780FE
:1004300001FC000003C0000000078001E000000094
:100440001E000000078001E00000001E007FE3F7AF
:100450009FF9FDE7787BDFC0FFF7FFBFFDFDFF7869
:100460007BDFC0FFF7FFBFFDFDFF787BDFC0F0F74C
:1004700087BC3DE1FF787BDE00F0F787BC3DE1F013
:10048000787BDE0000F787803DE1E0787BDE007F4F
:10049000F7879FFDE1E0787BDE00FFF787BFFDE196
:1004A000E0787BDE00F0F787BC3DE1E0787BDE00A2
:1004B000F0F787BC3DE1E0787BDE00F0F787BC3DDC
:1004C000E1E0787BDE00FFF7FFBFFDE1E07FFBDFCF
:1004D000C0FFF7FFBFFDE1E07FFBDFC07CF3F39FD0
:1004E0003DE1E03E7BCFC0000000000000000000C6
:1004F0000000FFFFFFFFFFFFFFFFFFFFC0FFFFFF49
:10050000FFFD68DB111A31C0FFFFFFFFFD2B5AFB17
:100510006AEFC0FFFFFFFFFD4B5B3B1A33C0FFFFDD
:10052000FFFFFD6B5BDB6AFDC000000000240027BD
:10053000002A0000000000250028002B000404040D
:10054000040404040402020202020203030303037C
:100550000301020408102040800102040810200159
:10056000020408102000000008000201000003043B
:10057000070000000000000000000103070F1F3FFC
:100580007F0080C0E0F0F8FCFE00000000003E5B51
:100590004F5B3E3E6B4F6B3E1C3E7C3E1C183C7ED0
:1005A0003C181C577D571C1C5E7F5E1C00183C18B5
:1005B00000FFE7C3E7FF0018241800FFE7DBE7FFB1
:1005C00030483A060E2629792926407F050507403E
:1005D0007F05253F5A3CE73C5A7F3E1C1C08081CFF
:1005E0001C3E7F14227F22145F5F005F5F06097F3D
:1005F000017F006689956A606060606094A2FFA2D6
:100600009408047E040810207E201008082A1C0884
:10061000081C2A08081E101010100C1E0C1E0C308E
:10062000383E3830060E3E0E060000000000000086
:100630005F00000007000700147F147F14242A7F46
:100640002A12231308646236495620500008070313
:1006500000001C2241000041221C002A1C7F1C2A91
:1006600008083E08080080703000080808080800E4
:100670000060600020100804023E5149453E0042DF
:100680007F400072494949462141494D33181412AF
:100690007F1027454545393C4A49493141211109D7
:1006A000073649494936464949291E0000140000C9
:1006B00000403400000008142241141414141400E3
:1006C0004122140802015909063E415D594E7C122F
:1006D00011127C7F494949363E414141227F4141C7
:1006E000413E7F494949417F090909013E41415144
:1006F000737F0808087F00417F41002040413F018F
:100700007F081422417F404040407F021C027F7FCF
:100710000408107F3E4141413E7F090909063E41E0
:1007200051215E7F09192946264949493203017F33
:1007300001033F4040403F1F2040201F3F403840C2
:100740003F631408146303047804036159494D435B
:10075000007F4141410204081020004141417F04D3
:1007600002010204404040404000030708002054BA
:100770005478407F2844443838444444283844441A
:10078000287F385454541800087E090218A4A49CE9
:10079000787F0804047800447D40002040403D00FC
:1007A0007F1028440000417F40007C047804787C5E
:1007B000080404783844444438FC182424181824C5
:1007C0002418FC7C08040408485454542404043FAE
:1007D00044243C4040207C1C2040201C3C403040B5
:1007E0003C44281028444C9090907C4464544C44E1
:1007F0000008364100000077000000413608000282
:10080000010204023C2623263C1EA1A161123A40AB
:1008100040207A3854545559215555794122545421
:100820007842215554784020545579400C1E52721C
:1008300012395555555939545454593955545458F9
:100840000000457C410002457D420001457C407D21
:100850001211127DF0282528F07C545545002054B3
:10086000547C547C0A097F4932494949323A44440C
:10087000443A324A4848303A4141217A3A4240208B
:1008800078009DA0A07D3D4242423D3D4040403D1C
:100890003C24FF2424487E4943662B2FFC2F2BFF4A
:1008A0000929F620C0887E090320545479410000AC
:1008B000447D413048484A32384040227A007A0A22
:1008C0000A727D0D19317D2629292F2826292929EB
:1008D0002630484D4020380808080808080808381D
:1008E0002F10C8ACBA2F102834FA00007B00000883
:1008F000142A142222142A14085500550055AA550A
:10090000AA55AAFF55FF55FF000000FF0010101068
:10091000FF00141414FF001010FF00FF1010F0105F
:10092000F0141414FC001414F700FF0000FF00FF83
:100930001414F404FC141417101F10101F101F14AB
:1009400014141F00101010F0000000001F101010F1
:10095000101F10101010F010000000FF10101010E9
:100960001010101010FF10000000FF140000FF0016
:10097000FF00001F10170000FC04F41414171017D8
:100980001414F404F40000FF00F7141414141414E5
:1009900014F700F7141414171410101F101F141458
:1009A00014F4141010F010F000001F101F000000CD
:1009B0001F14000000FC140000F010F01010FF10D5
:1009C000FF141414FF141010101F00000000F0108A
:1009D000FFFFFFFFFFF0F0F0F0F0FFFFFF0000006F
:1009E0000000FFFF0F0F0F0F0F3844443844FC4A3C
:1009F0004A4A347E02020606027E027E026355499E
:100A000041633844443C04407E201E2006027E029E
:100A10000299A5E7A5991C2A492A1C4C7201724C1F
:100A2000304A4D4D303048784830BC625A463D3EE1
:100A3000494949007E0101017E2A2A2A2A2A444482
:100A40005F444440514A444040444A51400000FF02
:100A50000103E080FF000008086B6B0836123624A3
:100A600036060F090F0600001818000000101000CD
:100A70003040FF0101001F01011E00191D17120067
:100A80003C3C3C3C0000000000006426821C112419
:100A90001FBECFEFD8E0DEBFCDBF11E0A0E0B1E0D8
:100AA000E4E5FFE502C005900D92AE3EB107D9F72F
:100AB00024E0AEEEB1E001C01D92A939B207E1F722
:100AC00015E0C6E4D5E004C02197FE010E94662C23
:100AD000C534D107C9F70E94F01C0C949D2F0C94CB
:100AE000000085ED8093BC008091BC0084FDFCCFAC
:100AF00010929402089540910E02262F30E0240FA8
:100B0000311D21323105DCF4209194022430C9F4E6
:100B1000FC0180E090E0861758F430910E0221919C
:100B2000DC01A251BE4FA30FB11D2C930196F3CF50
:100B300080910E02680F60930E0280E0089581E0BC
:100B4000089582E00895089508950895E0914C0273
:100B500080914B02E81730F4F0E0E35BFD4F8081B9
:100B600090E008958FEF9FEF089590914C0280914F
:100B70004B02981750F4E92FF0E0E35BFD4F208122
:100B800030E09F5F90934C0202C02FEF3FEFC9010E
:100B9000089580914B0290E020914C02821B9109B4
:100BA0000895CF92DF92EF92FF920F931F93CF930E
:100BB000DF937C01CB018A0120919502222389F0E9
:100BC000EB016B01C40ED51ECC15DD0569F06991F2
:100BD000D701ED91FC910190F081E02DC7010995BD
:100BE000F3CF642F0E947B05C801DF91CF911F9145
:100BF0000F91FF90EF90DF90CF900895CF93DF9308
:100C00001F92CDB7DEB76983209195022223D1F0E0
:100C10002091B802203240F021E030E0FC01338323
:100C2000228380E090E015C080919602E82FF0E0EA
:100C3000E956FD4F998190838F5F80939602809350
:100C4000B80205C061E0CE0101960E947B0581E0FB
:100C500090E00F90DF91CF9108950895FC016370AB
:100C6000658B8481958126813781613039F06330CD
:100C700029F09187808733872287089531872087DD
:100C80009387828708956F927F928F929F92AF92FF
:100C9000BF92CF92DF92EF92FF920F931F93CF9369
:100CA000DF93EC014B015A0169013801E881F981B8
:100CB0000284F385E02D0995E881F9810288F389A2
:100CC000E02D87019601A501B401CE010995A5018A
:100CD000460D571D41505109E881F9810288F38979
:100CE000E02D9601B401CE010995E881F9810088D3
:100CF000F189E02D9301A501B401CE010995C80C3D
:100D0000D91CB60161507109E881F9810088F18927
:100D1000E02D9301A501CE010995E881F9810688AE
:100D2000F789E02DCE01DF91CF911F910F91FF90B8
:100D3000EF90DF90CF90BF90AF909F908F907F907B
:100D40006F9009948F929F92AF92BF92CF92DF9251
:100D5000EF92FF920F931F93CF93DF934C016B01A0
:100D60005A01E901DC01ED91FC916217730781F4EE
:100D70000417150724F48B2D5801042F182F0A1976
:100D80001B0998012F5F3F4F048CF58DE02D12C099
:100D90004017510709F52617370724F48D2D6901EF
:100DA000C62FD82F9E012C193D092F5F3F4F068C6F
:100DB000F78DE02D8701A501B601C4010995DF91EA
:100DC000CF911F910F91FF90EF90DF90CF90BF9048
:100DD000AF909F908F9008950284F385E02D099540
:100DE000D401ED91FC910488F589E02D9E01A501C7
:100DF000B601C4010995D401ED91FC910688F789EB
:100E0000E02DC401DF91CF911F910F91FF90EF90E2
:100E1000DF90CF90BF90AF909F908F900994EF920A
:100E2000FF920F931F93DC011A960D911C911B9753
:100E300018962D913C911997ED91FC9100A0F1A18C
:100E4000E02D7B0140E050E060E070E009951F91EB
:100E50000F91FF90EF9008954F925F926F927F9263
:100E60008F929F92AF92BF92CF92DF92EF92FF92BA
:100E70000F931F93CF93DF936C012B015A0139011C
:100E80004801DC01ED91FC910284F385E02D099588
:100E9000E201640C751CD601ED91FC91C615D705D5
:100EA0005CF40088F189E02D87019401A501BE0161
:100EB000C60109952196EFCF0688F789E02DC60176
:100EC000DF91CF911F910F91FF90EF90DF90CF9026
:100ED000BF90AF909F908F907F906F905F904F905A
:100EE00009948F929F92AF92BF92CF92DF92EF922E
:100EF000FF920F931F93CF93DF93EC015B014A01A5
:100F00006901E881F9810284F385E02D0995950155
:100F10002C0D3D1D21503109E881F9810488F589A6
:100F2000E02D78018401A401B501CE010995E88185
:100F3000F9810688F789E02DCE01DF91CF911F91CD
:100F40000F91FF90EF90DF90CF90BF90AF909F9068
:100F50008F9009948F929F92AF92BF92CF92DF921F
:100F6000EF92FF920F931F93CF93DF93EC015B01FE
:100F70004A0169017801E881F9810284F385E02D55
:100F80000995C80CD91C860101501109E881F98125
:100F90000488F589E02D9501A401B501CE010995DC
:100FA000E881F9810688F789E02DCE01DF91CF91A4
:100FB0001F910F91FF90EF90DF90CF90BF90AF9077
:100FC0009F908F900994EF92FF920F931F93DC01F3
:100FD000ED91FC9100A0F1A1E02D09951F910F91D9
:100FE000FF90EF9008950F931F93DC01ED91FC911A
:100FF000068CF78DE02D09951F910F9108950F93A1
:101000001F93DC01ED91FC91048CF58DE02D099589
:101010001F910F910895DC01ED91FC910084F18501
:10102000E02D09942F923F924F925F926F927F92A0
:101030008F929F92AF92BF92CF92DF92EF92FF92E8
:101040000F931F93CF93DF9300D000D000D0CDB784
:10105000DEB72C017E836D836A015901C801FC82D1
:10106000EB824801841A950A97FE03C091948194FB
:10107000910835012D813E81621A730A77FE03C003
:10108000719461947108681479045CF43A2D2B2DE5
:101090005C01832F922F3D812E81DE82CD82C32E73
:1010A000D22EAD81BE81AA16BB065CF43C2D2D2D3F
:1010B0006C01832F922F3D812E81BE82AD82A32EA3
:1010C000B22E85012D813E81021B130B1C012C18B1
:1010D0003D0837FE03C0319421943108780117FF91
:1010E00003C03FEFE31AF30AF594E794C816D90654
:1010F0002CF08FEF9FEF9A83898304C0A1E0B0E0CA
:10110000BA83A9832D813E81A216B30624F1D201B0
:10111000ED91FC910484F585E02D2B813C816814D0
:10112000790424F44D815E81B60103C0A6016D816E
:101130007E81C2010995E218F308F7FE06C02981F5
:101140003A81C20ED31EE00EF11E8D819E81019662
:101150009E838D83D7CF26960FB6F894DEBF0FBE41
:10116000CDBFDF91CF911F910F91FF90EF90DF9056
:10117000CF90BF90AF909F908F907F906F905F9037
:101180004F903F902F900895089580E090E008954B
:101190000895AF92BF92CF92EF92FF920F931F9359
:1011A000CF93DF93EC01262F888D998D009709F05E
:1011B00040C06A3059F41D861C862C898E859F8517
:1011C00038E0239F800D911D112441C06D3009F43A
:1011D000AAC08E898823C1F03C898C859D8546E014
:1011E000349F800D911D1124488559854817590752
:1011F0005CF41D861C868E859F8548E0349F800D9B
:10120000911D11249F878E87EA88FB880889198998
:101210004E855F856C857D85CC88CE010E946010EF
:101220002C898C859D8536E0239F800D911D11248E
:1012300042C06A3079F41D861C862C89FC013696E2
:10124000E4918E859F852E9F800D911D11249F878F
:101250008E8769C06D3009F466C0FC013496349104
:10126000631708F460C03196E491E61708F45BC098
:10127000FC01329665917491422F50E0431B510955
:1012800037E0349F5001359FB00C1124A60EB71ED5
:10129000F501329634913196E491332311F0E11146
:1012A0000DC0F5013496E4912C898C859D85E29FD3
:1012B000800D911D11249D878C8735C0F5013596D1
:1012C00044915E89552311F16C89E32FF0E0E40F1E
:1012D000F11D47FDFA956E9FD0016F9FB00D11244F
:1012E0004C855D854A0F5B1FE885F985E417F50796
:1012F0006CF41D861C86FC013696E4918E859F85D4
:101300006E9F800D911D11249F878E87EA88FB8830
:10131000088919894E855F856C857D85CC88CE01CD
:101320000E946010BECF81E090E0DF91CF911F91CD
:101330000F91FF90EF90CF90BF90AF9008950C94D5
:10134000232ECF9360EC70E00E943E2CC82F605C8F
:1013500089EB92E00E942A1560E46C0F89EB92E021
:10136000CF910C942A15CF92DF92EF92FF9262E018
:1013700089EB92E00E942A1520E030E048EC52E42C
:10138000609128047091290480912A0490912B0483
:101390000E94DA2A0E944B2D9B01AC01285D3C4D36
:1013A0004F4F5F4FA0E8BEE30E94B72B20E5C22E4F
:1013B00026E4D22EE12CF12CA70196010E94982B55
:1013C000C9010E94A10961E089EB92E00E942A15FF
:1013D00020E030E048EC52E460911C0470911D0460
:1013E00080911E0490911F040E94DA2A0E944B2DC6
:1013F0009B01AC01285D3C4D4F4F5F4FA0E8BEE321
:101400000E94B72BA70196010E94982BC901FF905B
:10141000EF90DF90CF900C94A1091F920F920FB61E
:101420000F9211242F933F934F935F936F937F936A
:101430008F939F93AF93BF93EF93FF938091B900E6
:10144000887F803609F49CC068F5883209F45BC057
:1014500090F4803109F454C038F4882309F4F6C0BC
:10146000883009F44DC0F6C0883109F44CC0803290
:1014700009F45DC0EFC0803409F468C048F48033DB
:1014800009F455C0883309F0E5C080939202D8C0B2
:10149000803509F44FC0883509F45DC0883409F0FF
:1014A000D9C0D6C0883909F4C7C0A8F4883709F470
:1014B00067C038F4883609F463C0803709F460C027
:1014C000C9C0883809F4B8C0803909F45FC08038D1
:1014D00009F0C0C05BC0803B09F486C038F4803A94
:1014E00009F466C0883A09F47FC0B4C0803C09F4AE
:1014F000A7C0883C09F4A4C0883B09F48AC0AAC0EC
:1015000080916F0210C09091910280919002981783
:1015100070F5E091910281E08E0F80939102F0E0EE
:10152000E059FD4F80818093BB0085EC86C080939D
:1015300092028EC0E091910281E08E0F8093910221
:101540008091BB00F0E0E059FD4F808390919102C3
:10155000809190026EC0E091910281E08E0F8093A5
:1015600091028091BB00F0E0E059FD4F80838091B3
:10157000930281116DC081E080936E0284EA61C0A4
:1015800083E08093940210923002CFCF809130029A
:10159000803208F051C0E091300281E08E0F8093DC
:1015A00030028091BB00F0E0E05FFD4F8083BDCF53
:1015B00085EC8093BC0010929402809130028032BE
:1015C00030F4E0913002F0E0E05FFD4F1082609176
:1015D000300270E0E0914702F091480280E192E031
:1015E00009951092300236C084E0809394021092E4
:1015F0000F0210920E02E0914902F0914A02099501
:1016000080910E02811105C081E080930E0210923C
:10161000EE01E0910F0281E08E0F80930F02F0E067
:10162000E251FE4F80818093BB0090910F02809128
:101630000E02981708F479CF85E88093BC000AC0A1
:1016400085EC8093BC001092940204C01092920228
:101650000E947105FF91EF91BF91AF919F918F9182
:101660007F916F915F914F913F912F910F900FBE9E
:101670000F901F90189581E0809395026093B702B8
:10168000109296021092B8020895EF92FF920F9373
:101690001F93CF93DF930E947B0F81E080936A04B6
:1016A00080936D0481E090E09093690480936804D6
:1016B000909367048093660410926304109262040E
:1016C000109265041092640488E394E00E94660F0F
:1016D0001092630410926204C8E0D0E0D0936504D5
:1016E000C093640482E394E00E94660F809131020B
:1016F0008823A1F08BE490E09093630480936204CC
:10170000D0936504C09364046091320270913302F7
:1017100080913402909135020E94550E55E0E52EDD
:10172000F12CF0926304E0926204C0E1D0E0D09327
:101730006504C09364046091180470911904809149
:101740001A0490911B040E94550E06E210E01093BB
:10175000630400936204D0936504C09364046091B1
:101760001C0470911D0480911E0490911F040E941E
:10177000550E80E590E09093630480936204D093CB
:101780006504C093640460912804709129048091D9
:101790002A0490912B040E94550EF0926304E0926B
:1017A0006204C8E1D0E0D0936504C0936404609102
:1017B00036027091370280913802909139020E946E
:1017C000550E1093630400936204D0936504C09394
:1017D000640460913A0270913B0280913C029091C6
:1017E0003D020E94550E8091720490917304892BE2
:1017F000D1F020918C0430918D0440918E04509151
:101800008F0460E074E284EF90E00E94012CDA0122
:10181000C9014097A109B109B695A79597958795F4
:101820008093B80016C08091700490917104892B48
:1018300031F080918A0490918B040E94F119E0911B
:101840008404F09185049081809189048095892396
:10185000808365E088E690E00E94A60D60915A04BE
:10186000615086E594E00E94931920915C043091C8
:101870005D04C901079697FD079633E09595879516
:101880003A95E1F720915A0430915B04829F8001E0
:10189000839F100D929F100D1124C0917404D0915C
:1018A000750480917204909173040C0F1D1F0097B2
:1018B00009F445C0609176040E943B0B809172044C
:1018C00090917304DC01ED91FC910190F081E02D89
:1018D00060E409957E01D1E08091720490917304D7
:1018E0000E151F0549F1D032B8F00E94991B609186
:1018F000760480917204909173040E943B0B809156
:10190000720490917304DC01ED91FC910190F081DF
:10191000E02D60E40995D1E0809172049091730408
:10192000F70161917F01DC01ED91FC910190F08163
:10193000E02D0995DF5FD0CF0E94991B41C0E09157
:101940008204F0918304908180918804892B8083A4
:10195000C017D107A9F189912091700430917104C9
:10196000232B19F00E948C19F3CF28E030E040E8D7
:10197000E0917E04F0917F0490918604582F5423C7
:1019800019F05081952B03C0508190959523908339
:10199000E0918004F0918104508190918704952B0F
:1019A0009083E0918004F0918104508190918704AC
:1019B000909595239083469521503109C9F6C8CF5B
:1019C0008091720490917304892BD1F0209190043E
:1019D00030919104409192045091930460E074E23C
:1019E00084EF90E00E94012CDA01C9014097A1091F
:1019F000B109B695A795979587958093B80017C0BC
:101A0000E0918404F0918504908180918904892B70
:101A100080838091700490917104892B41F0DF9153
:101A2000CF911F910F91FF90EF900C948B19DF9144
:101A3000CF911F910F91FF90EF9008950F931F93F7
:101A4000CF93DF93DC015D96ED91FC915E9730972B
:101A500081F0EC01ABA1BCA114960D911C911597DE
:101A600015969C938E9314970995EBA1FCA1158371
:101A70000483DF91CF911F910F9108950895CF9323
:101A8000DF9389EB92E00E94D014EC018034910541
:101A90002CF460E070EC89E794EC19C089EB92E0DB
:101AA0000E94D01480349105A4F3C054D10920ECD5
:101AB0002C9FB0012D9F700D112480549109680F47
:101AC000791F072E000C880B990B0E947B2ADF914F
:101AD000CF910895BC0182E394E00C9451183FB774
:101AE000F8948091430290914402A0914502B091F4
:101AF000460226B5A89B05C02F3F19F00196A11DEF
:101B0000B11D3FBFBA2FA92F982F8827820F911D93
:101B1000A11DB11DBC01CD0142E0660F771F881FDA
:101B2000991F4A95D1F70895009769F0FC0101903B
:101B30000020E9F73197AF01481B590BBC0186E53E
:101B400094E00C94971480E090E00895DF92EF9277
:101B5000FF920F931F93CF93DF93D82ED92FC62FC9
:101B60008091720490917304009709F44EC06091C3
:101B700076040E943B0B8091720490917304DC0107
:101B8000ED91FC910190F081E02D60E00995ED2C44
:101B9000FD2E11E08091720490917304CC2361F1C9
:101BA0001032B8F00E94991B609176048091720403
:101BB000909173040E943B0B809172049091730486
:101BC000DC01ED91FC910190F081E02D60E0099540
:101BD00011E08091720490917304F7016491DC012B
:101BE000ED91FC910190F081E02D09951F5FC150AE
:101BF000BFEFEB1AFB0ACECFDF91CF911F910F9170
:101C0000FF90EF90DF900C94991BE0918204F0918B
:101C100083049081809188048095892380830D2D91
:101C20001D2FCC2309F439C0F80184912091700450
:101C300030917104232B31F00E948C19C1500F5F39
:101C40001F4FEFCF28E030E040E8E0917E04F091B4
:101C50007F0490918604582F542319F05081952BBE
:101C600003C05081909595239083E0918004F0917A
:101C70008104508190918704952B9083E09180049A
:101C8000F0918104508190918704909595239083E1
:101C9000469521503109C9F6D1CFDF91CF911F91DF
:101CA0000F91FF90EF90DF9008952F923F924F9207
:101CB0005F926F927F928F929F92AF92BF92CF92DC
:101CC000DF92EF92FF920F931F93CF93DF93CDB7E5
:101CD000DEB7A4970FB6F894DEBF0FBECDBF4B01A1
:101CE0005C019B01AC010E94862D882319F081EDD7
:101CF00091E01AC075016401E894F7F82FEF3FEF07
:101D00004FE75FE7C701B6010E94862D811110C021
:101D10002FEF3FEF4FE75FE7C701B6010E94742A3C
:101D2000181634F485ED91E00E94940D8C01AFC03B
:101D30002FEF3FEF4FE75FE4C501B4010E94812D13
:101D400018161CF489ED91E0EFCF2FEF3FEF4FE72E
:101D50005FECC501B4010E94742A87FDF3CF20E037
:101D600030E0A901C501B4010E94742A87FF0BC0AD
:101D70006DE286E594E00E94C9086C01B7FAB09460
:101D8000B7F8B09402C0C12CD12C2AE037ED43EA59
:101D90005BE3C501B4010E946D2C4B015C010E9404
:101DA000522D2B013C010E94792A9B01AC01C501F7
:101DB000B4010E946C2C4B015C0119A27E0181E2EE
:101DC000E80EF11CEAA2FBA2C301B2012AE030E056
:101DD00040E050E00E94012C29013A01605DF701CA
:101DE00062937F01232B242B252B71F7CF010E94B7
:101DF000940D8C016EE286E594E00E94C908800F84
:101E0000911F8C010C0D1D1D83E0F82E9AE0292EE8
:101E1000312C412C512CFA94FF20C9F120E030E004
:101E200040E251E4C501B4010E94DA2A4B015C0191
:101E30000E94522D9B0140E050E019A26AA07BA0B5
:101E40006CA3C32ED42EE52ECA01B901A2019101C3
:101E50000E94012C605DF30162933F012115310561
:101E60004105510589F7CF010E94940D080F191FF4
:101E70006CA17C2D8D2D9E2D0E94792A9B01AC0199
:101E8000C501B4010E946C2C4B015C01C4CF8DEDE7
:101E900091E00E94940D800F911FA4960FB6F894C4
:101EA000DEBF0FBECDBFDF91CF911F910F91FF908D
:101EB000EF90DF90CF90BF90AF909F908F907F90EA
:101EC0006F905F904F903F902F900895CF93DF9346
:101ED000FC01448155816081718186E594E00E9416
:101EE0009714EC018DED91E00E94940D8C0F9D1FD5
:101EF000DF91CF91089520915C0430915D04C90178
:101F0000079697FD079623E0959587952A95E1F723
:101F100020915A0430915B04829FA001839F500D51
:101F2000929F500D112460E070E0809174049091B4
:101F300075040C94802F909194029111FCCF91E044
:101F400090939402909393022FEF20939202109219
:101F50009102260F2093900290936F0290916F024E
:101F6000880F892B80936F0280916E02813061F41B
:101F700010926E0280916F028093BB008091BC0032
:101F800083FDF8CF85EC01C085EE8093BC00809185
:101F900094028130E1F380919102861710F46091F0
:101FA0009102A0E7B2E0EDE4F2E080E0861721F0D4
:101FB0009D9191938F5FFACF08953F924F925F92D8
:101FC0006F927F928F929F92AF92BF92CF92DF9249
:101FD000EF92FF920F931F93CF93DF9300D000D027
:101FE00000D0CDB7DEB72C013B014A015901C90130
:101FF000079697FD07969C0193E0359527959A954E
:10200000E1F73C832B83C12CD12CE12CF12C312C1A
:10201000C3018E0D9F1D9A838983E016F106C4F5D6
:102020001E821D822D813E812A153B054CF5C9017A
:1020300087709927892B11F0330C0EC0ED81FE813A
:10204000F7FD379683E0F595E7958A95E1F7EC0D76
:10205000FD1DE80DF91D349037FE0CC021E030E085
:1020600049815A816D817E81640D751D86E594E0FC
:102070000E940B088D819E8101969E838D83D2CF15
:102080009FEFE91AF90A2B813C81C20ED31EC0CF03
:1020900026960FB6F894DEBF0FBECDBFDF91CF916D
:1020A0001F910F91FF90EF90DF90CF90BF90AF9076
:1020B0009F908F907F906F905F904F903F9008958A
:1020C0002F923F924F925F926F927F928F929F9248
:1020D000AF92BF92CF92DF92EF92FF920F931F9336
:1020E000CF93DF93CDB7DEB76B970FB6F894DEBF13
:1020F0000FBECDBF9B8F8A8F5B011A01D22E1F832B
:102100000E833701C982DC0158962D913C91599775
:102110002115310509F0E6C018968D919C9119970B
:10212000681779070CF0CDC11A968D919C911B9779
:10213000481759070CF0C5C18C2C912CFB0126E0E7
:10214000C29EE00DF11D1124FB87EA871E161F06B3
:102150000CF0B7C1A40183E0440F551F8A95E1F745
:102160005D874C87CA01820D931D181619060CF065
:10217000A8C157968C91811104C05FEA5D1508F4DF
:10218000D394AA8DBB8DED91FC9111970284F385B8
:10219000E02DCD010995B5E0DB9EC0011124F501CC
:1021A0003596FF87EE87BB82AA8225019C012A19FA
:1021B0003B09398B288BA101485F5F4F5B8B4A8BB2
:1021C000E889F989E40DF51DE757FA4F54915887CE
:1021D00061013D822C82888580FF13C0AA8DBB8D52
:1021E000ED91FC91B981B13031F40484F585E02D95
:1021F0002E813F8116C00684F785E02DEE80FF809A
:102200001AC0EE81FF81E615F705F1F0AA8DBB8DAE
:10221000ED91FC91B981B13051F40484F585E02D44
:102220009301A601B2018A8D9B8D09950DC006848C
:10223000F785E02D7301840194014C815D816A81F1
:102240007B818A8D9B8D0995E885E695E887FFEF70
:10225000CF1ADF0A2C813D81280D391D3D832C8347
:102260004A895B89C416D50609F0B5CF5FEF451AD8
:10227000550A8A819B81880D991D9B838A83AE852F
:10228000BF854A165B0609F09BCFEE81FF81E615FC
:10229000F70509F4F4C0EA8DFB8DA081B181F981C5
:1022A000F13079F4B5016B5F7F4F5096ED91FC9161
:1022B0005197830128E030E0A1018A8D9B8D09951B
:1022C000DEC06A857B85681979091E96ED91FC91BF
:1022D0001F9773010C851D859401A1018A8D9B8D2B
:1022E0000995CDC0F9013496E491DE1AF9013296D0
:1022F00085919491B7E0DB9E800D911D1124F90129
:10230000259134913B8B2A8BFC0125913491290135
:10231000FC013296C490319634913E8732961491E6
:102320003196D4904981423058F0612E012E000C34
:1023300077088D2D0D2C000C990B9987888704C088
:1023400019861886612C712CAA8DBB8DED91FC919C
:1023500011970284F385E02DCD010995B9818B2E6B
:10236000912C689CC001699C900D789C900D112463
:10237000FC01EA0DFB1DFD87EC871A82712C612C94
:10238000E12F110FFF0B95012E0F3F1F3B872A876F
:10239000AC0CB11CA5014E0F5F1F5F8B4E8BC101B2
:1023A0008D0D911DD7FC9A95998F888F9E85691602
:1023B00008F065C0862D90E048855985480F591F63
:1023C000489D9001499D300D589D300D1124D1013B
:1023D000A20FB31FB98BA88BEC85FD85FD83EC8321
:1023E000AA84BB84DA80FA85DF1A288D398D280FFC
:1023F000391F3D8B2C8B8D2D8A0D4E895F89A4163C
:10240000B506C1F1877041F4C2010196EA89FB89E2
:10241000E40DF51D74902C0177FE21C0AA8DBB8DB3
:10242000ED91FC91B981B13061F40484F585E02D22
:102430002E813F814C895D89B5018A8D9B8D0995DF
:102440000EC00684F785E02DEE80FF8084019401A4
:10245000488959896C817D818A8D9B8D0995770C7E
:10246000EFEFAE1ABE0A2C813D81280D391D3D8348
:102470002C83C1CF3A813C0D3A83639497CFAA8DC8
:10248000BB8DED91FC9111970688F789E02DCD0168
:102490006B960FB6F894DEBF0FBECDBFDF91CF9124
:1024A0001F910F91FF90EF90DF90CF90BF90AF9072
:1024B0009F908F907F906F905F904F903F902F9064
:1024C00009946B960FB6F894DEBF0FBECDBFDF91B7
:1024D000CF911F910F91FF90EF90DF90CF90BF9021
:1024E000AF909F908F907F906F905F904F903F90B4
:1024F0002F9008950F931F93CF93DF9377FF04C01E
:10250000260F371F60E070E0DC011496CD91DC915E
:102510001597FB01E20FF31FCE17DF071CF49E0196
:10252000261B370B121613060CF046C0FA0157FD96
:102530003796DF01E3E0B595A795EA95E1F7AC9F03
:10254000F001AD9FF00DBC9FF00D11246E0F7F1FA9
:10255000DC015E96ED91FC915F97E60FF71F4770E7
:10256000552781E090E001C0880F4A95EAF7482F8F
:102570000130110539F078F002301105E9F42E0F21
:102580003F1F13C02E0F3F1FE217F307A9F08081F2
:10259000842B8193F9CF80952E0F3F1FE217F3070D
:1025A00059F0908198239193F9CFE217F30721F026
:1025B000808184278193F9CFDF91CF911F910F9173
:1025C0000895EF92FF920F931F93CF93DF93EC0147
:1025D00077FDA5C0EC80FD806E157F050CF09FC0D7
:1025E00057FF04C0240F351F40E050E08E819F81CB
:1025F000FA01E20FF31F8E179F071CF49C01241BA6
:10260000350B121613060CF08AC0922F842F869574
:10261000869586958E9DD0018F9DB00D11246A0FF1
:102620007B1FAE8DBF8DA60FB71F4770B1F188E03D
:10263000841B482F682F70E0FB01EF57FA4FE4919D
:10264000281798F4621B71092FEF30E002C035950E
:1026500027956A95E2F7E2230130110549F078F0F9
:102660000230110509F05BC00EC00130110519F4EC
:102670008C91E82B0AC00130110508F049C0E095A3
:102680008C91E82302C08C91E827EC93941708F40E
:1026900046C02C813D81A20FB31FE92FE41BE83017
:1026A000F8F00230110561F48E2F9C9190959C9367
:1026B0002C813D81A20FB31F88508830B0F70FC026
:1026C00081E00115110509F480E081959E2F8C931E
:1026D0002C813D81A20FB31F98509830C0F7E7704E
:1026E000EE23E9F0F0E0E758FA4FE49101301105EC
:1026F00039F048F00230110591F48C91E82706C0BA
:102700008C91E82B03C0E0958C91E823EC9307C0F3
:102710000230110509F4B7CFAE0DBF1DBECFDF915A
:10272000CF911F910F91FF90EF90089590E0FC01E1
:10273000EB59FA4F2491FC01EF5AFA4F3491FC0106
:10274000E35CFA4FE491EE2309F43CC0222339F113
:10275000233091F038F42130A9F0223001F584B50E
:102760008F7D12C0273091F02830A1F02430B9F4C9
:10277000809180008F7D03C0809180008F7780934F
:1027800080000DC084B58F7784BD09C08091B000F2
:102790008F7703C08091B0008F7D8093B000F0E010
:1027A000EE0FFF1FED5CFA4FA591B4919FB7F8941F
:1027B000611104C08C913095382302C0EC913E2BFE
:1027C0003C939FBF089510924C0210924B021092BE
:1027D00096021092B8021092940281E080939302C4
:1027E00010926E0261E082E10E94961361E083E143
:1027F0000E949613E9EBF0E080818E7F80838081D8
:102800008D7F808388E48093B80085E48093BC004A
:1028100083EA95E090934A028093490284EA95E026
:1028200090934802809347020895CF93DF9390E0FE
:10283000FC01EF5AFA4F2491FC01E35CFA4F8491BA
:10284000882361F190E0880F991FFC01E75DFA4F42
:10285000C591D491FC01ED5CFA4FA591B491611141
:1028600009C09FB7F8948881209582238883EC91D2
:102870002E230BC0623061F49FB7F8948881322F09
:10288000309583238883EC912E2B2C939FBF06C019
:102890008FB7F894E8812E2B28838FBFDF91CF91DB
:1028A00008958F929F92AF92BF92CF92DF92EF9254
:1028B000FF926B017C010E946F0D4B015C01C11402
:1028C000D104E104F104F1F00E946F0DDC01CB01B1
:1028D00088199909AA09BB09883E9340A105B10549
:1028E00070F321E0C21AD108E108F10888EE880EE1
:1028F00083E0981EA11CB11CC114D104E104F104B1
:1029000019F7DDCFFF90EF90DF90CF90BF90AF90A1
:102910009F908F9008952FB7F89460913F02709127
:10292000400280914102909142022FBF0895CF92C0
:10293000DF92EF92FF920F931F93CF93DF936C017F
:102940007A018B01C0E0D0E0CE15DF0581F0D8011F
:102950006D918D01D601ED91FC910190F081E02DFA
:10296000C6010995892B11F02196EECF7E01C70192
:10297000DF91CF911F910F91FF90EF90DF90CF905B
:102980000895FC01538D448D252F30E0842F90E075
:10299000821B930B541710F0CF960895019708955A
:1029A000FC01918D828D981761F0828DDF01A80F57
:1029B000B11D5D968C91928D9F5F9F73928F90E079
:1029C00008958FEF9FEF0895FC01918D828D9817E8
:1029D00031F0828DE80FF11D858D90E008958FEF25
:1029E0009FEF0895FC01918D228D892F90E0805CEE
:1029F0009F4F821B91098F739927089589EB92E06D
:102A00000E94F21421E0892B09F420E0822F08951E
:102A1000FC01848DDF01A80FB11DA35ABF4F2C917B
:102A2000848D90E001968F739927848FA689B7894A
:102A30002C93A089B1898C91837080648C93938D41
:102A4000848D981306C00288F389E02D80818F7DE4
:102A500080830895EF92FF920F931F93CF93DF939C
:102A6000EC0181E0888F9B8D8C8D981305C0E889DF
:102A7000F989808185FD26C0F62E0B8D10E00F5F51
:102A80001F4F0F731127E02E8C8DE8120CC00FB66C
:102A900007FCFACFE889F989808185FFF5CFCE015F
:102AA0000E940815F1CF8B8DFE01E80FF11DE35A4E
:102AB000FF4FF0829FB7F8940B8FEA89FB898081E2
:102AC00080620AC09FB7F894EE89FF896083E88925
:102AD000F98980818370806480839FBF81E090E06A
:102AE000DF91CF911F910F91FF90EF900895CF93B9
:102AF000DF93EC01888D8823C9F0EA89FB89808106
:102B000085FD05C0A889B9898C9186FD0FC00FB6D7
:102B100007FCF5CF808185FFF2CFA889B9898C9118
:102B200085FFEDCFCE010E940815E7CFDF91CF9151
:102B3000089580E090E0892B29F00E94FE14811115
:102B40000C9400000895FC0177FDB9C08085918543
:102B5000681779070CF0B3C057FDB1C08285938523
:102B6000481759070CF008958589823079F48481DB
:102B70009581DC01A61BB70BBD01615071098681EF
:102B80009781DC01A41BB50BAD010EC0833009F0A9
:102B900084C064277527CA01862797276827792765
:102BA00046815781481B590B41505109213031054D
:102BB00031F048F12230310509F44AC00895CA01C4
:102BC00057FD07969C01A3E035952795AA95E1F757
:102BD000A481B5812A9FC0012B9F900D3A9F900D33
:102BE0001124680F791F068CF78DE02DE60FF71F73
:102BF0004770552781E090E001C0880F4A95EAF7B9
:102C00009081892B48C0CA0157FD07969C0193E02B
:102C1000359527959A95E1F7A481B5812A9FC00142
:102C20002B9F900D3A9F900D1124680F791F068CF1
:102C3000F78DE02DE60FF71F4770552781E090E0F4
:102C400001C0880F4A95EAF780959081892323C0B7
:102C5000CA0157FD07969C0183E0359527958A9513
:102C6000E1F7A481B5812A9FC0012B9F900D3A9F67
:102C7000900D1124680F791F068CF78DE02DE60F5B
:102C8000F71F4770552781E090E001C0880F4A95F3
:102C9000EAF79081892780830895813009F086CFF3
:102CA00064277527462757276427752784819581D0
:102CB000DC01A61BB70BBD016150710977CF0895E8
:102CC0000E94722F8F929F92AF92BF92CF92DF920B
:102CD000EF92FF920F931F93CF93DF93CDB7DEB7A1
:102CE00062970FB6F894DEBF0FBECDBF7C018B019B
:102CF00084E2DB011D928A95E9F784E290E0A0E08E
:102D0000B0E0FB0180839183A283B383F7018681C6
:102D10009781A085B185FB0184839583A683B783C2
:102D200083E090E0A0E0B0E080879187A287B3873E
:102D30000E948B14D80150966D937D938D939C9334
:102D40005397FE0131968CE0DF011D928A95E9F7D9
:102D50006E01BDE0CB0ED11C86E0F60111928A9582
:102D6000E9F7D70113966C91139714968D919C9166
:102D700015970E943B0BF70184819581DC01ED9151
:102D8000FC910190F081E02D6AE10995F7018481C1
:102D900095810E94991B66E0D70113968C910E9441
:102DA0009B0F10924C0280934B025E01B3E1AB0E7D
:102DB000B11CF70184819581DC01ED91FC910284C5
:102DC000F385E02D0995F60181936F01EA15FB0566
:102DD00081F76D857E85072E000C880B990B0E946C
:102DE0007B2A20E030E040E85DE30E94DA2A4B01D4
:102DF0005C016F857889072E000C880B990B0E9467
:102E00007B2A20E030E040E85DE30E94DA2A6B0193
:102E10007C0169897A89072E000C880B990B0E9426
:102E20007B2A20E030E040E85DE30E94DA2AD80106
:102E300054968D929D92AD92BC925797F801C08E98
:102E4000D18EE28EF38E5C966D937D938D939C93E1
:102E50005F9781E062960FB6F894DEBF0FBECDBFDC
:102E6000DF91CF911F910F91FF90EF90DF90CF9066
:102E7000BF90AF909F908F9008950F931F93CF9323
:102E8000DF938C01EB0188E2FB0111928A95E9F74F
:102E90004BE050E060EE71E0CE010E948E2F1B8669
:102EA00081E090E0A0E0B0E08C879D87AE87BF878F
:102EB000F80186819781A085B185888B998BAA8B33
:102EC000BB8B83E090E0A0E0B0E08C8B9D8BAE8B61
:102ED000BF8B1CA21DA21EA21FA2188E198E1A8EB5
:102EE0001B8E1C8E1D8E1E8E1F8E8AE097EDA3E218
:102EF000BCE388A399A3AAA3BBA3DF91CF911F91A1
:102F00000F9108950F931F93CF93DF93DC01559694
:102F1000EC915597E23071F0E330E9F0E13079F56A
:102F2000FB0114960D90BC91A02DA41BB50BA21B08
:102F3000B30B18C0EC01EC81FD81E61BF70BBF0160
:102F400061507109EE81FF81DF01A41BB50BAD015A
:102F5000421B530B14C0DA01EC01EE81FF81E61B2A
:102F6000F70B3197F7FD0DC0EC014E815F81E4173F
:102F7000F5073CF4AF01BD010E947A1202C00E9425
:102F8000E112DF91CF911F910F9108950F931F933D
:102F9000DC015596EC915597E23061F0E33009F190
:102FA000E13081F51496ED91FC911597E41BF50B3A
:102FB000319723C0DC011496ED91FC911597DF0148
:102FC000A61BB70BBD01DC011696ED91FC9117977E
:102FD000DF01A41BB50BAD0141505109621B730BFE
:102FE00011C0FA01DC0116964D915C911797DA0138
:102FF000A61BB70BBD01621B730BAB01BF010E9487
:10300000E1120CC057FD0AC0DC011696ED91FC914F
:1030100017974E175F0714F40E947A121F910F91B1
:103020000895EF92FF920F931F93CF93DF93EC01DC
:103030007B018A0188819981009729F02A813B814F
:1030400024173507F8F4B8016F5F7F4F0E94AC2E4C
:10305000009759F0998388831B830A832C813D81D3
:10306000232B81F4FC0110820DC088819981009787
:1030700011F00E94232E198218821D821C821B824D
:103080001A8207C01D830C83B701888199810E9431
:10309000872FCE01DF91CF911F910F91FF90EF907D
:1030A0000895CF93DF93EC016115710559F0FB0191
:1030B00001900020E9F73197AF01461B570B0E94A2
:1030C00011180CC088819981009711F00E94232E5D
:1030D000198218821D821C821B821A82CE01DF9106
:1030E000CF9108951F920F920FB60F9211242F9334
:1030F0003F934F935F936F937F938F939F93AF9380
:10310000BF93EF93FF9389EB92E00E940815FF9124
:10311000EF91BF91AF919F918F917F916F915F914F
:103120004F913F912F910F900FBE0F901F901895C8
:103130001F920F920FB60F9211242F938F939F938C
:10314000EF93FF93E091C902F091CA028081E09170
:10315000CF02F091D00282FD12C090818091D20204
:103160008F5F8F732091D302821751F0E091D202CA
:10317000F0E0E754FD4F958F8093D20201C080812B
:10318000FF91EF919F918F912F910F900FBE0F9014
:103190001F9018951F920F920FB60F9211242F9324
:1031A0003F934F935F936F937F938F939F93AF93CF
:1031B000BF93EF93FF9380916D0287FF05C010923C
:1031C0008500109284001BC020916D02022E000C1D
:1031D000330B80917A0390E02817390784F48091AB
:1031E0006D02082E000C990BFC01EE0FFF1F8E0FD5
:1031F0009F1FFC01EA5AFC4F808186FD15C080911B
:103200006D028F5F80936D0220916D02022E000C83
:10321000330B80917A0390E028173907C4F480912A
:103220006D028C3064F113C080916D02082E000C89
:10323000990BFC01EE0FFF1F8E0F9F1FFC01EA5A36
:10324000FC4F808160E08F730E949613D8CF8091ED
:10325000840090918500049680349C4918F480E4A1
:103260009CE905C08091840090918500049690931C
:103270008900809388008FEF80936D023BC020917E
:1032800084003091850080916D02082E000C990B0E
:10329000FC01EE0FFF1F8E0F9F1FFC01EA5AFC4F2F
:1032A00081819281820F931F90938900809388007F
:1032B00080916D02082E000C990BFC01EE0FFF1F90
:1032C0008E0F9F1FFC01EA5AFC4F808186FF12C0BF
:1032D00080916D02082E000C990BFC01EE0FFF1F70
:1032E0008E0F9F1FFC01EA5AFC4F808161E08F73B3
:1032F0000E949613FF91EF91BF91AF919F918F9193
:103300007F916F915F914F913F912F910F900FBEE1
:103310000F901F90189508958EBD00000DB407FE04
:10332000FDCF8EB508951F93CF93DF93FC01848D5D
:10333000958D009701F1162FEF0160A10E943B0BC4
:103340008C8D9D8DDC01ED91FC910190F081E02D43
:1033500060E009958C8D9D8DDC01ED91FC910190D3
:10336000F081E02D612F09958C8D9D8DDF91CF919E
:103370001F910C94991BA4A5B5A59C9182A9809539
:1033800089238C93828D938D892B31F0862FDF9149
:10339000CF911F910C948C1928E030E080E8A0A513
:1033A000B1A590A9462F482319F04C91942B03C046
:1033B0004C91909594239C93A2A5B3A54C9191A96F
:1033C000942B9C93A2A5B3A54C9191A9909594237D
:1033D0009C9386952150310911F7DF91CF911F9170
:1033E00008958CBD9DBD08951F93CF93DF93EC018D
:1033F000162F8C8D9D8D892BB1F02EA93FA948AD3C
:1034000059AD60E074E284EF90E00E94012CDA0193
:10341000C9014097A109B109B695A79597958795D8
:103420008093B8000FC08A8D9B8D892B21F08CA9C9
:103430009DA90E94F119EEA5FFA590818BA9809509
:1034400089238083111102C066EA01C067EACE01B8
:103450000E9493198C8D9D8D892BB1F02AAD3BADC7
:103460004CAD5DAD60E074E284EF90E00E94012C11
:10347000DA01C9014097A109B109B695A7959795B9
:1034800087958093B80006C0EEA5FFA590818BA913
:10349000892B8083DF91CF911F9108954F925F9286
:1034A0006F927F928F929F92AF92BF92CF92DF9254
:1034B000EF92FF920F931F93CF93DF9300D000D032
:1034C000CDB7DEB74B015C0129013A01E982FA82EE
:1034D0000B831C83D092F703C092F60381E0CA9459
:1034E000CD2809F080E0809317048092DC0390924D
:1034F000DD03A092DE03B092DF034092E00350921E
:10350000E1036092E2037092E30389819A81AB81C7
:10351000BC818093E4039093E503A093E603B0930A
:10352000E70360910A0470910B0480910C04909160
:103530000D040E94792A20E030E04AE754E40E941A
:10354000D92C6B017C018092E8039092E903A09250
:10355000EA03B092EB039B01AC01C301B2010E94EC
:10356000DA2A2B013C016093EC037093ED03809306
:10357000EE039093EF03A701960169817A818B8115
:103580009C810E94D92C6B017C016093F0037093A5
:10359000F1038093F2039093F3038091F4039091ED
:1035A000F503019769F5A501940160E070E0CB0196
:1035B0000E946C2C6093E8037093E9038093EA0304
:1035C0009093EB03A301920160E070E0CB010E94B5
:1035D0006C2C6093EC037093ED038093EE03909357
:1035E000EF03A701960160E070E0CB010E946C2C14
:1035F0006093F0037093F1038093F2039093F303CD
:103600000F900F900F900F90DF91CF911F910F911E
:10361000FF90EF90DF90CF90BF90AF909F908F90F2
:103620007F906F905F904F900895CF92DF92EF92CE
:10363000FF92DC01A03282E0B8070CF03EC0B7FD7B
:1036400006C0A53BB1052CF0A4EBB0E002C0A0E0A1
:10365000B0E08091CC0328E830E06901C81AD108B5
:1036600087FDD394CC0CDD1CCC0CDD1C0D2C000C88
:10367000EE08FF088091CD0328E532E0281B3109D0
:1036800087FD3395220F331F220F331FA901330FFC
:10369000660B770B9A01AB012C193D094E095F09A6
:1036A0000E94C22B24EB30E040E050E00E94982BB7
:1036B000C20ED31EE41EF51ED6019091CB039C30A2
:1036C00098F58091CC0348E850E0481B510987FDEC
:1036D0005395440F551F440F551FA417B5078CF081
:1036E0008091CD0328E532E0281B310987FD339511
:1036F000220F331F220F331FAD012A173B070CF493
:10370000A90142505109440F551F2FB7F894892F32
:1037100090E0FC01EE0FFF1F8E0F9F1FFC01EA5A85
:10372000FC4F528341832FBFFF90EF90DF90CF90EB
:1037300008953091B802313208F04BC08091940264
:103740008111FCCF9091B70222E02093940221E0F6
:10375000209393022FEF20939202109291023093C4
:103760009002E7E9F2E0A0E7B2E020E0321721F0B2
:1037700041914D932F5FFACF10926F0220916F020B
:10378000990F922B90936F0290916E02913061F499
:1037900010926E0290916F029093BB009091BC00CA
:1037A00093FDF8CF95EC01C095EE9093BC009091FD
:1037B00094029230E1F3909192029F3F79F08091D0
:1037C0009202803241F080919202803331F084E0A5
:1037D00005C081E003C082E001C083E01092960240
:1037E0001092B8021092950208951F920F920FB690
:1037F0000F9211242F933F938F939F93AF93BF9377
:1038000080913F0290914002A0914102B09142020A
:103810003091940423E0230F2D3720F40196A11D4D
:10382000B11D05C026E8230F0296A11DB11D2093EE
:10383000940480933F0290934002A0934102B0937E
:1038400042028091430290914402A0914502B091BE
:1038500046020196A11DB11D80934302909344023C
:10386000A0934502B0934602BF91AF919F918F9173
:103870003F912F910F900FBE0F901F901895CF93EF
:10388000DF93EC01988188818E7F888388818D7F8A
:10389000888390FF03C0CE010E941E0D8BA19CA1C6
:1038A000009769F11CA21BA2EF8DF8A1A9A1BAA1F2
:1038B000309799F4109749F4DC0111961C921E92EE
:1038C00013961C921E9212971AC090961C921E92EA
:1038D0005F97FC01B183A08312C0109741F412A23C
:1038E00011A2DC011396FC93EE93129708C0B2A3C9
:1038F000A1A3A9A1BAA19096FC93EE935F97DF9143
:10390000CF91089581E893E00E943F1C86EA93E0FE
:103910000E943F1C80913204909133040E94232E18
:1039200080913804909139040E94232E8EE291E018
:103930009093570480935604809174049091750479
:10394000009711F00C94232E08950F931F93CF939B
:10395000DF93FC01A3A1B4A11097E9F1EC01158A52
:10396000168A178A108E038CF48DE02D309779F12A
:10397000888181FD2CC014960D911C911597159688
:10398000DC93CE931497888182608883099598810F
:1039900080FB90F9988388818D7F8883EBA1FCA1BF
:1039A000158304830E948B1409811A812B813C8129
:1039B0000D831E832F833887DC01CB01801B910B85
:1039C000A20BB30B89879A87AB87BC8704C0888119
:1039D00081608883E7CFDF91CF911F910F91089588
:1039E000CF93DF93CDB7DEB7E1970FB6F894DEBF84
:1039F0000FBECDBF789484B5826084BD84B58160EC
:103A000084BD85B5826085BD85B5816085BD8091A9
:103A10006E00816080936E00109281008091810021
:103A20008260809381008091810081608093810019
:103A3000809180008160809380008091B1008460DB
:103A40008093B1008091B00081608093B00080913C
:103A50007A00846080937A0080917A0082608093FB
:103A60007A0080917A00816080937A0080917A0058
:103A7000806880937A001092C10062E082E00E9428
:103A800015148091740490917504892B11F520917F
:103A90005C0430915D04C901079697FD0796B3E079
:103AA00095958795BA95E1F720915A0430915B047A
:103AB000AC01429FC001439F900D529F900D112475
:103AC0000E948B2D9093750480937404892B09F4C4
:103AD000FFCF0E947B0F20915C0430915D048091A8
:103AE0005A0490915B0421323105A4F0B90160546D
:103AF000710977FF02C06F5F7F4F7595679582559B
:103B0000910997FD019600E410E022E530E049E6D6
:103B100052E013C0B9016052710977FF02C06F5FB4
:103B20007F4F759567958357910997FD019600E240
:103B300010E023E730E049E850E0959587950E9432
:103B4000DD0F82E08093770480917204909173047A
:103B5000892B31F08CE3809376040E94E313BEC07E
:103B600061E080917B040E94151461E080917C04E7
:103B70000E94151480917B04082E000C990BFC0107
:103B8000E35CFA4FE491F0E0EE0FFF1FED5CFA4FBB
:103B9000259134913093830420938204FC01EF5AE1
:103BA000FA4FE491E093880480917C04082E000C85
:103BB000990BFC01E35CFA4FE491F0E0EE0FFF1F7C
:103BC000ED5CFA4FA591B491B0938504A093840461
:103BD000FC01EF5AFA4FE491E09389048C91E82BB1
:103BE000EC938091700490917104892B09F434C096
:103BF0001FB7F89480913E02811127C0E7E4F5E0F9
:103C00008491EBE5F5E09491E82FF0E0EE0FFF1FD3
:103C1000E75DFA4FA591B491EC91E92321F461E0BD
:103C20008AE00E94961361E08AE00E9415148CB528
:103C300080618CBD8CB580648CBD61E08DE00E949C
:103C4000151461E08BE00E94151480913E028F5F95
:103C500080933E021FBF42C061E0809179040E94C0
:103C6000151461E080917A040E9415148091790402
:103C7000082E000C990BFC01E35CFA4FE491F0E094
:103C8000EE0FFF1FED5CFA4F2591349130937F04C6
:103C900020937E04FC01EF5AFA4FE491E0938604EE
:103CA00080917A04082E000C990BFC01E35CFA4F1A
:103CB000E491F0E0EE0FFF1FED5CFA4FA591B49197
:103CC000B0938104A0938004FC01EF5AFA4FE49171
:103CD000E09387048C91E095E823EC9380917D0438
:103CE00087FD1EC061E00E94151461E080917D0493
:103CF0000E94961361E070E080E090E00E94511411
:103D000060E080917D040E9496136AE070E080E09C
:103D100090E00E94511461E080917D040E9496130E
:103D20008091720490917304892BD1F020918C04BE
:103D300030918D0440918E0450918F0460E074E2C4
:103D400084EF90E00E94012CDA01C9014097A1099B
:103D5000B109B695A795979587958093B80016C039
:103D60008091700490917104892B31F080918A04C4
:103D700090918B040E94F119E0918404F0918504E4
:103D800090818091890480958923808364E085E80F
:103D900090E00E94A60D60915C04615086E594E07D
:103DA0000E94931964E081E890E00E94A60D809142
:103DB0007704813011F064E101C060E186E594E0B0
:103DC0000E94931964E08DE790E00E94A60D809117
:103DD0005A0490915B0480389105E9F480915C0469
:103DE00090915D048032910531F464E089E790E0C0
:103DF0000E94A60D29C08034910531F563E086E765
:103E000090E00E94A60D80917704813011F06FEC54
:103E100017C06FE915C080369105B1F480915C043C
:103E200090915D04409781F463E083E790E00E9405
:103E3000A60D80917704813011F06FEA01C060E136
:103E400086E594E00E94931969ED86E594E00E946E
:103E5000931980917704813011F061EF01C062E223
:103E600086E594E00E94931966E08DE690E00E945A
:103E7000A60D8091720490917304892BD1F020914A
:103E8000900430919104409192045091930460E029
:103E900074E284EF90E00E94012CDA01C90140979E
:103EA000A109B109B695A795979587958093B80014
:103EB00011C0E0918404F09185049081809189047F
:103EC000892B80838091700490917104892B11F06B
:103ED0000E948B1967EB71E088E394E00E9451180F
:103EE0000E94450B8CEB91E00E946A0D0E94450BED
:103EF000E091C902F091CA0282E08083E091C5029C
:103F0000F091C6021082E091C702F091C80280E1F0
:103F100080831092D102E091CD02F091CE0286E032
:103F20008083E091CB02F091CC028081806180831C
:103F3000E091CB02F091CC02808188608083E09197
:103F4000CB02F091CC02808180688083E091CB022B
:103F5000F091CC0280818F7D808388EC91E00E947B
:103F60006A0D0E94450B0E94E3130E942A26803AA4
:103F700059F068EE73E080E090E00E9451140E94D6
:103F80002A26803A09F09BC080E090E00E945526E6
:103F900060E28FE390E00E94FF250E942A26803A8B
:103FA00039F06AE070E080E090E00E945114F5CFB3
:103FB00062E370E080E090E00E94511460E08EE3E4
:103FC00090E00E94FF256AE070E080E090E00E94AF
:103FD000511460E087E090E00E94FF2560E08FE3ED
:103FE00090E00E94FF256AE070E080E090E00E948F
:103FF00051148CE090E00E94552664E170E080E06E
:1040000090E00E94511468EE73E080E090E00E941E
:104010005114009148041091490480E090E00E94FE
:10402000552669E170E080E090E00E94511460E064
:1040300087E090E00E94FF2560E88FE390E00E9417
:10404000FF256AE070E080E090E00E945114C80112
:104050000E94552664E170E080E090E00E945114D7
:1040600082E791E00E946A0D0E94450B1091CE03F9
:104070008091CB038C3008F055C061E0812F0E9405
:1040800015148091CB03E82FF0E09F01220F331F1E
:10409000E20FF31FEA5AFC4F1F739081907C192B9B
:1040A00010831092CC031092CD036CE00E94322C4E
:1040B0005CE0859FB001112440E050E006C0FFCFD6
:1040C0004F5F5F4F4C30510579F09B01240F351F36
:1040D000F901EE0FFF1F2E0F3F1FF901EA5AFC4FA7
:1040E000908196FFEDCF11C081110FC0109280001A
:1040F00082E0809381001092850010928400B19A32
:1041000080916F00826080936F00E091CB03F0E0BC
:10411000CF01880F991FE80FF91FEA5AFC4F8081E1
:10412000806480838AE590E00E94151B10927C03D6
:1041300010927B0310927E0310927D0310928003F5
:1041400010927F0381E893E02091A4033091A503AE
:104150002B573340B1F02BE733E03093A503209386
:10416000A40390937C0380937B031092A10310928D
:10417000A0031092A3031092A20390937E03809356
:104180007D0381E893E00E94A51C86EA93E02091DC
:10419000C9033091CA032B57334049F12BE733E071
:1041A0003093CA032093C90320917B0330917C0391
:1041B000232B49F490937C0380937B031092C603D6
:1041C0001092C5030AC0E0917D03F0917E03F09345
:1041D000C603E093C50392A381A31092C803109273
:1041E000C70386EA93E090937E0380937D0386EA7B
:1041F00093E00E94A51C62E871E088E394E00E94CD
:1042000051188FED91E00E946A0D80917B0390918F
:104210007C039093800380937F03E0917F03F09170
:104220008003309709F475C001A112A1808180FF3D
:104230006BC085859685A785B089892B8A2B8B2BAA
:1042400069F4908180818E7F808380818D7F8083DF
:1042500090FF5AC0CF010E941E0D56C00E948B14C1
:10426000E0917F03F09180034180528063807480ED
:1042700081849284A384B484C580D680E780F0844E
:10428000DC01CB0188199909AA09BB098C159D0588
:10429000AE05BF05C8F185859685A785B089181636
:1042A00019061A061B065CF485859685A785B089D4
:1042B0000197A109B10985879687A787B08B858962
:1042C0009689A789B08D0196A11DB11D858B968B0E
:1042D000A78BB08FC580D680E780F08481859285DA
:1042E000A385B4858C0D9D1DAE1DBF1D8187928752
:1042F000A387B4874582568267827086018CF28DCF
:10430000E02D309709F009951093800300937F0307
:1043100084CF89EB92E00E94F21403970CF400C260
:1043200089EB92E00E94D0141C01803491050CF0BE
:10433000F7C1019709F056C00E943F0D0E944B2D16
:104340009B01AC01A0E1B7E20E94B72B20E83EE35D
:1043500040E050E00E94982BCA01B9010E947B2ADC
:1043600020E030E048EC52E40E94D92C20E030E01C
:1043700048E452E40E946C2C609318047093190472
:1043800080931A0490931B040E943F0D6B017C01E3
:1043900020E030EC49E754EC0E94742A882309F4A9
:1043A00076C1C701B6010E944B2D9B01AC01A4EB65
:1043B000B0E00E94B72B20E83EE340E050E00E94CE
:1043C000982BCA01B9016A557109810991090E94A6
:1043D0007B2A609336027093370280933802909361
:1043E000390255C182E02816310409F077C00E94D5
:1043F0003F0D0E944B2D9B01AC01A0E1B7E20E9452
:10440000B72B20E83EE340E050E00E94982BCA0121
:10441000B9010E947B2A20E030E048EC52E40E947F
:10442000D92C4B015C016093D0037093D10380932E
:10443000D2039093D3034090D4035090D50360905F
:10444000D6037090D70320E030E0A9010E94742ABF
:1044500087FD2CC020E030E0A901C301B2010E9419
:10446000742A87FD23C08091D8039091D903A0912D
:10447000DA03B091DB038DA39EA3AFA3B8A720E01E
:1044800030E0A901BC01CD010E94742A87FD0EC055
:10449000C090F603D090F703EDA0FEA00FA118A5E1
:1044A000A3019201C501B4010E944E1A8AE891E06D
:1044B0000E946A0D8091DC039091DD03A091DE03E0
:1044C000B091DF038093320290933302A0933402C1
:1044D000B093350291E090933102D9C0A3E02A163F
:1044E000310409F06EC00E943F0D0E944B2D9B01CC
:1044F000AC01A0E1B7E20E94B72B20E83EE340E028
:1045000050E00E94982BCA01B9010E947B2A20E04A
:1045100030E048EC52E40E94D92C4B015C016093DE
:10452000D4037093D5038093D6039093D703409020
:10453000D0035090D1036090D2037090D30320E059
:1045400030E0A901C301B2010E94742A87FD2CC08A
:1045500020E030E0A901C501B4010E94742A87FD62
:1045600023C08091D8039091D903A091DA03B09130
:10457000DB038DA39EA3AFA3B8A720E030E0A90181
:10458000BC01CD010E94742A87FD0EC0C090F603C5
:10459000D090F703EDA0FEA00FA118A5A5019401EE
:1045A000C301B2010E944E1A81E991E00E946A0D96
:1045B0008091E0039091E103A091E203B091E303C5
:1045C00055C094E02916310409F05CC00E943F0DEB
:1045D0006B017C0120E030E0A9010E94812D87FD64
:1045E0009FC0C701B6010E944B2D9B01AC01A0E109
:1045F000B7E20E94B72B20E83EE340E050E00E9483
:10460000982BCA01B9010E947B2A20E030E048ECD7
:1046100052E40E94D92C4B015C016093D803709343
:10462000D9038093DA039093DB038091D0039091B8
:10463000D103A091D203B091D3038DA39EA3AFA3C6
:10464000B8A720E030E0A901BC01CD010E94742A86
:1046500087FF67C288E991E00E946A0D8091E403B8
:104660009091E503A091E603B091E70380933202B5
:1046700090933302A0933402B093350291E090936B
:1046800031024EC0A6E02A16310409F473C247E095
:104690002416310409F044C00E943F0D6B017C01D7
:1046A00020E030E0A9010E94812D87FD39C0C701BB
:1046B000B6010E944B2D9B01AC01A0E5B6E40E941F
:1046C000B72B20E83EE340E050E00E94982BCA015F
:1046D000B9010E947B2A20E030E048EC52E40E94BD
:1046E000D92C0E944B2D70933104609330048BEAD7
:1046F00091E00E946A0D6091300470913104072EA0
:10470000000C880B990B0E947B2A609332027093F5
:104710003302809334029093350251E0509331027A
:10472000BE016F5F7F4F8EE394E00E946216C98CDA
:10473000DA8CEB8CFC8CA701960160911C047091C3
:104740001D0480911E0490911F040E94742A8111FF
:1047500010C020913A0230913B0240913C025091AE
:104760003D026D8D7E8D8F8D98A10E94742A8823C5
:10477000A1F0C0921C04D0921D04E0921E04F0929D
:104780001F048D8D9E8DAF8DB8A180933A029093BA
:104790003B02A0933C02B0933D0280911604882313
:1047A00009F43FC10E948B146DA37EA38FA398A729
:1047B0008091FE039091FF03A0910004B091010449
:1047C0004DA15EA16FA178A5481B590B6A0B7B0B0D
:1047D00080910A0490910B04A0910C04B0910D04F7
:1047E000481759076A077B0708F41BC1E091F803D3
:1047F000F091F90380809180A280B380E091FC0366
:10480000F091FD03A5019401608171818281938102
:104810000E946C2C2B013C0120910604309107046E
:104820004091080450910904C501B4010E946C2C08
:1048300069A77AA78BA79CA72091EC033091ED0381
:104840004091EE035091EF03C301B2010E94DA2AB6
:104850002091020430910304409104045091050416
:104860000E946D2C6B017C01609302047093030421
:104870008093040490930504809117048DA78111FF
:104880001CC02091E8033091E9034091EA03509164
:10489000EB0369A57AA58BA59CA50E94DA2A9B014A
:1048A000AC01C701B6010E946C2C609302047093A6
:1048B00003048093040490930504C0900204D090F4
:1048C0000304E0900404F09005043090120420905A
:1048D00013041091140400911504232D322D412F3F
:1048E000502FC701B6010E94812D18162CF4832D7C
:1048F000922DA12FB02F18C080910E0490910F041B
:10490000A0911004B09111048EA79FA7A8ABB9ABDA
:104910009C01AD01C701B6010E94742A87FF0CC03B
:104920008EA59FA5A8A9B9A980930204909303041A
:10493000A0930404B09305049DA5992379F02091D8
:10494000E8033091E9034091EA035091EB03C3017E
:10495000B2010E94DA2A6B017C0103C0C12CD12C68
:1049600076012091F0033091F1034091F2035091D0
:10497000F30369A57AA58BA59CA50E94DA2A9B0161
:10498000AC01609102047091030480910404909141
:1049900005040E946C2CA70196010E946D2C6B01EE
:1049A0007C019B01AC01632D722D812F902F0E9401
:1049B000742A87FD16C030900E0420900F041091C9
:1049C000100400911104232D322D412F502FB601D8
:1049D000C7010E94742A87FD04C03C2C2D2C1E2D7B
:1049E0000F2DE091FA03F091FB03832D922DA12F5F
:1049F000B02F80839183A283B38380920604909228
:104A00000704A0920804B09209048DA19EA1AFA151
:104A1000B8A58093FE039093FF03A0930004B09386
:104A20000104C0902004D0902104E0902204F09072
:104A300023048090240490902504A0902604B09034
:104A40002704A5019401C701B6010E94812D181603
:104A50007CF0A501940160E070E0CB010E946C2C19
:104A60009B01AC01C701B6010E94742A87FF3BC0BD
:104A700020E030E0A901C701B6010E94812D18167F
:104A8000A4F4A701960160912C0470912D048091EB
:104A90002E0490912F040E946D2C60932804709333
:104AA000290480932A0490932B0420E030E0A9018C
:104AB000C701B6010E94742A87FF1DC020912C04F3
:104AC00030912D0440912E0450912F04C701B6015E
:104AD0000E946C2C609328047093290480932A040C
:104AE00090932B0408C0109228041092290410926D
:104AF0002A0410922B04209128043091290440911B
:104B00002A0450912B0460E070E084EB92E40E9450
:104B10006C2C0E944B2DCB010E94151B0E949915F5
:104B200074CB4090D4035090D5036090D60370901E
:104B3000D70320E030E0A901C301B2010E94742A2A
:104B400087FD88CD20E030E0A901C501B4010E94B5
:104B5000742A87FD7FCDC090F603D090F7038501BE
:104B60007401A30192016DA17EA18FA198A50E945D
:104B70004E1A70CD0E943F0D6B017C0120E030E0A9
:104B8000A9010E94812D87FDCBCDC701B6010E94EE
:104B90004B2D9B01AC01A0E1B7E20E94B72B20E8AE
:104BA0003EE340E050E00E94982BCA01B9010E9408
:104BB0007B2A20E030E048EC52E40E94D92C60933C
:104BC0002C0470932D0480932E0490932F048FE96E
:104BD00091E00E946A0D80912C0490912D04A09187
:104BE0002E04B0912F048093320290933302A0934D
:104BF0003402B0933502B1E0B093310291CD0F93FE
:104C00001F93CF93DF93082F162FCEE3D4E06B8151
:104C10008C819D810E943B0B8C819D81DC01ED91FB
:104C2000FC910190F081E02D602F09958C819D8190
:104C3000DC01ED91FC910190F081E02D612F09954F
:104C40008C819D810E94991B81E0DF91CF911F9102
:104C50000F910895CF93DF93CEE3D4E06B818C81E5
:104C60009D810E943B0B8C819D81DC01ED91FC912B
:104C70000190F081E02D60E009958C819D810E947A
:104C8000991B61E08B810E949B0F10924C028093D4
:104C90004B028C819D81DC01ED91FC910284F385B6
:104CA000E02D0995DF91CF910895EEE3F4E082873E
:104CB0009387682F8DE390E00E94FF256EE170E0FE
:104CC00080E090E00C9451144F925F926F927F922B
:104CD0008F929F92AF92BF92CF92DF92EF92FF920C
:104CE0000F931F93CF93DF9300D000D000D0CDB7A8
:104CF000DEB71092BC021092BB0248EE53E060E0B7
:104D000070E04093BD025093BE026093BF02709367
:104D1000C0028AE091E09093BA028093B90285ECD8
:104D200090E09093C6028093C50284EC90E090934B
:104D3000C8028093C70280EC90E09093CA028093EF
:104D4000C90281EC90E09093CC028093CB0282EC7C
:104D500090E09093CE028093CD0286EC90E0909309
:104D6000D0028093CF021092D2021092D3021092FE
:104D7000D4021092D5028AE494E010924D0410926D
:104D80004C0440934E0450934F046093500470932E
:104D900051042CE131E030934B0420934A041092EB
:104DA00059041092580440E850E050935B0440933B
:104DB0005A0420E230E030935D0420935C04509369
:104DC0005F0440935E04309361042093600410926A
:104DD0006B041092630410926204109265041092A6
:104DE000640421E020936A044FEF5FEF509369045D
:104DF00040936804509367044093660420936C04C6
:104E000010926D0410926F0410926E042EE231E045
:104E1000309357042093560410927104109270043A
:104E2000909373048093720410927504109274042A
:104E30002FEF2093790420937A0420937B0420930E
:104E40007C0424E020937D0420E520938A041092C2
:104E50008B0440E85AE166E070E040938C04509384
:104E60008D0460938E0470938F0440EA56E861E0ED
:104E700070E0409390045093910460939204709377
:104E8000930428E631E030933F0420933E0441E050
:104E900050E060E070E04093440450934504609318
:104EA00046047093470428E22093410490934304FE
:104EB00080934204109239041092380410923B04FB
:104EC00010923A0410923D0410923C0446E050E0E7
:104ED00067EE71E088E394E00E94111810923304A9
:104EE0001092320410923504109234041092370458
:104EF0001092360440E050E06FED71E082E394E000
:104F00000E94111880917A038C30A0F491E0980FE0
:104F100090937A038093CB0390E0FC01EE0FFF1F88
:104F20008E0F9F1FFC01EA5AFC4F88EB9BE0928397
:104F3000818303C03FEF3093CB031092D0031092D4
:104F4000D1031092D2031092D3031092D403109283
:104F5000D5031092D6031092D7031092D803109263
:104F6000D9031092DA031092DB0380E294E090936D
:104F7000FB038093FA038CE194E09093F903809310
:104F8000F80388E194E09093FD038093FC03109272
:104F9000160410920E0410920F0410921004109236
:104FA000110480E090E0AFE7B3E4809312049093A3
:104FB0001304A0931404B093150484E690E0A0E0D9
:104FC000B0E080930A0490930B04A0930C04B09378
:104FD0000D041092F5031092F403CC24C394D12C49
:104FE000E12CF12C8701A8019701C801B7010E94AB
:104FF0004E1A0E948B1420910A0430910B044091A8
:105000000C0450910D0429833A834B835C83DC01AB
:10501000CB01821B930BA40BB50B8093FE039093E3
:10502000FF03A0930004B0930104E0921804F092EF
:10503000190400931A0410931B04E0921C04F092CC
:105040001D0400931E0410931F04E0922004F092AC
:10505000210400932204109323048AE999E9A9E129
:10506000BEE38093240490932504A0932604B09378
:105070002704E0922804F092290400932A04109354
:105080002B04E0922C04F0922D0400932E04109334
:105090002F048AE590E0909331048093300486E0F9
:1050A00090E09093CF038093CE03812C912C3CE829
:1050B000A32E32ECB32E80920E0490920F04A09295
:1050C0001004B0921104412C512C4CE8642E42E49F
:1050D000742E409212045092130460921404709241
:1050E0001504809116044091FA035091FB035E83EE
:1050F0004D83882309F455C0FA01C080D180E28035
:10510000F380A3019201C701B6010E94812D1816F8
:105110003CF4ED81FE81408251826282738210C034
:1051200020E030E04CE852ECC701B6010E94742A3E
:1051300087FF06C0ED81FE8180829182A282B382C8
:105140008090020490900304A0900404B0900504A1
:10515000C0901204D0901304E0901404F090150451
:10516000A7019601C501B4010E94812D181684F093
:10517000C0900E04D0900F04E0901004F090110441
:10518000A7019601C501B4010E94742A87FF3AC0A5
:10519000C0920204D0920304E0920404F092050449
:1051A00031C0ED81FE81C080D180E280F380C09269
:1051B0000204D0920304E0920404F0920504E0910A
:1051C000F803F091F90380819181A281B3818093EA
:1051D000060490930704A0930804B093090420E008
:1051E00030E04CE852E4C701B6010E94812D181648
:1051F0000CF067C1409202045092030460920404D0
:105200007092050481E08093160469817A818B8114
:105210009C810E94792A9B01AC0160E070E088ECDF
:1052200092E40E94D92C6B017C019B01AC0160913E
:10523000EC037091ED038091EE039091EF030E94D7
:10524000DA2A6093EC037093ED038093EE0390935E
:10525000EF03A70196016091F0037091F103809133
:10526000F2039091F3030E94D92C6093F0037093A2
:10527000F1038093F2039093F30384E690E0A0E0BF
:10528000B0E080930A0490930B04A0930C04B093B5
:105290000D048091A6038E7F8093A6038091A603C0
:1052A0008D7F8093A6031092AF031092B0031092EB
:1052B000B1031092B2031092AB031092AC031092A0
:1052C000AD031092AE031092A7031092A8031092A0
:1052D000A9031092AA031092C6031092C50310925C
:1052E000C8031092C7031092CA031092C903109208
:1052F000BB031092BC031092BD031092BE0383EB5C
:1053000099E09093C0038093BF031092C203109260
:10531000C1031092C4031092C30388EC882E912C11
:10532000A12CB12C8092A7039092A803A092A9036C
:10533000B092AA038091A7039091A803A091A9031A
:10534000B091AA038093AB039093AC03A093AD03F9
:10535000B093AE030E948B146093AF037093B003BD
:105360008093B1039093B203CC24CA94DC2C7601D1
:10537000C092B303D092B403E092B503F092B603A7
:10538000C092B703D092B803E092B903F092BA0387
:10539000809181038E7F80938103809181038D7F33
:1053A0008093810310928A0310928B0310928C03D6
:1053B00010928D0310928603109287031092880337
:1053C0001092890310928203109283031092840337
:1053D000109285031092A1031092A0031092A303D0
:1053E0001092A2031092A5031092A40310929603A8
:1053F00010929703109298031092990385E49BE012
:1054000090939B0380939A0310929D0310929C03A8
:1054100010929F0310929E038092820390928303C6
:10542000A0928403B09285038091820390918303BC
:10543000A0918403B09185038093860390938703A2
:10544000A0938803B09389030E948B1460938A030E
:1054500070938B0380938C0390938D03C0928E0383
:10546000D0928F03E0929003F0929103C092920346
:10547000D0929303E0929403F092950310927C03F0
:1054800010927B0310927E0310927D031092800392
:1054900010927F0326960FB6F894DEBF0FBECDBFE5
:1054A000DF91CF911F910F91FF90EF90DF90CF9000
:1054B000BF90AF909F908F907F906F905F904F9034
:1054C000089520E030E04CE852ECC701B6010E949C
:1054D000742A87FF97CE8092020490920304A092D0
:1054E0000404B09205048ECE0E94B62A08F481E02E
:1054F0000895E89409C097FB3EF4909580957095C7
:1055000061957F4F8F4F9F4F9923A9F0F92F96E90F
:10551000BB279395F695879577956795B795F11184
:10552000F8CFFAF4BB0F11F460FF1BC06F5F7F4F21
:105530008F4F9F4F16C0882311F096E911C0772333
:1055400021F09EE8872F762F05C0662371F096E83C
:10555000862F70E060E02AF09A95660F771F881F0B
:10556000DAF7880F9695879597F90895990F0008AF
:10557000550FAA0BE0E8FEEF16161706E807F90725
:10558000C0F012161306E407F50798F0621B730BC0
:10559000840B950B39F40A2661F0232B242B252B41
:1055A00021F408950A2609F4A140A6958FEF811DE4
:1055B000811D08950E94ED2A0C945E2B0E94502BB1
:1055C00038F00E94572B20F0952311F00C94472BB4
:1055D0000C944D2B11240C94922B0E946F2B70F382
:1055E000959FC1F3950F50E0551F629FF001729F88
:1055F000BB27F00DB11D639FAA27F00DB11DAA1F97
:10560000649F6627B00DA11D661F829F2227B00DE3
:10561000A11D621F739FB00DA11D621F839FA00D6E
:10562000611D221F749F3327A00D611D231F849FBE
:10563000600D211D822F762F6A2F11249F57504015
:105640009AF0F1F088234AF0EE0FFF1FBB1F661F90
:10565000771F881F91505040A9F79E3F510580F059
:105660000C94472B0C94922B5F3FE4F3983ED4F3B9
:10567000869577956795B795F795E7959F5FC1F7FD
:10568000FE2B880F911D9695879597F9089597F9A8
:105690009F6780E870E060E008959FEF80EC0895D8
:1056A00000240A9416161706180609060895002401
:1056B0000A9412161306140605060895092E03947B
:1056C000000C11F4882352F0BB0F40F4BF2B11F4EF
:1056D00060FF04C06F5F7F4F8F4F9F4F089557FD4E
:1056E0009058440F551F59F05F3F71F04795880F50
:1056F00097FB991F61F09F3F79F0879508951216E7
:1057000013061406551FF2CF4695F1DF08C0161692
:1057100017061806991FF1CF869571056105089443
:105720000895E894BB2766277727CB0197F908955A
:10573000052E97FB1EF400940E94AF2B57FD07D057
:105740000E94012C07FC03D04EF40C94AF2B509513
:105750004095309521953F4F4F4F5F4F089590955D
:105760008095709561957F4F8F4F9F4F08950E9450
:10577000232CA59F900DB49F900DA49F800D911D8B
:1057800011240895B7FF0C94B72B0E94B72B821BEE
:10579000930B08952F923F924F925F926F927F9258
:1057A0008F929F92AF92BF92CF92DF92EF92FF9231
:1057B0000F931F93CF93DF93CDB7DEB7CA1BDB0BDD
:1057C0000FB6F894DEBF0FBECDBF09942A88398882
:1057D00048885F846E847D848C849B84AA84B98489
:1057E000C884DF80EE80FD800C811B81AA81B98195
:1057F000CE0FD11D0FB6F894DEBF0FBECDBFED01A9
:105800000895A1E21A2EAA1BBB1BFD010DC0AA1F01
:10581000BB1FEE1FFF1FA217B307E407F50720F019
:10582000A21BB30BE40BF50B661F771F881F991F94
:105830001A9469F760957095809590959B01AC01DD
:10584000BD01CF010895A29FB001B39FC001A39FE6
:10585000700D811D1124911DB29F700D811D1124A9
:10586000911D0895991B79E004C0991F961708F0BF
:10587000961B881F7A95C9F78095089597FB072E88
:1058800016F4009407D077FD09D00E94522C07FC33
:1058900005D03EF4909581959F4F08957095619540
:1058A0007F4F0895AA1BBB1B51E107C0AA1FBB1F56
:1058B000A617B70710F0A61BB70B881F991F5A959C
:1058C000A9F780959095BC01CD010895EE0FFF1FBB
:1058D0000590F491E02D09945058BB27AA270E9407
:1058E000842C0C945E2B0E94502B38F00E94572B76
:1058F00020F039F49F3F19F426F40C944D2B0EF44C
:10590000E095E7FB0C94472BE92F0E946F2B58F38F
:10591000BA17620773078407950720F079F4A6F594
:105920000C94912B0EF4E0950B2EBA2FA02D0B01A9
:10593000B90190010C01CA01A0011124FF27591BD4
:1059400099F0593F50F4503E68F11A16F040A22FDA
:10595000232F342F4427585FF3CF4695379527954B
:10596000A795F0405395C9F77EF41F16BA0B620B4A
:10597000730B840BBAF09150A1F0FF0FBB1F661F91
:10598000771F881FC2F70EC0BA0F621F731F841FD4
:1059900048F4879577956795B795F7959E3F08F0FA
:1059A000B0CF9395880F08F09927EE0F97958795BC
:1059B00008950E94ED2C0C945E2B0E94572B58F0FA
:1059C0000E94502B40F029F45F3F29F00C94472BA4
:1059D00051110C94922B0C944D2B0E946F2B68F359
:1059E0009923B1F3552391F3951B550BBB27AA2798
:1059F00062177307840738F09F5F5F4F220F331FD2
:105A0000441FAA1FA9F335D00E2E3AF0E0E832D099
:105A100091505040E695001CCAF72BD0FE2F29D09C
:105A2000660F771F881FBB1F261737074807AB076E
:105A3000B0E809F0BB0B802DBF01FF2793585F4FE3
:105A40003AF09E3F510578F00C94472B0C94922B22
:105A50005F3FE4F3983ED4F3869577956795B795C5
:105A6000F7959F5FC9F7880F911D9695879597F9D0
:105A70000895E1E0660F771F881FBB1F6217730749
:105A80008407BA0720F0621B730B840BBA0BEE1F5E
:105A900088F7E09508950E94522D6894B1110C94F6
:105AA000922B08950E94772B88F09F5798F0B92F7A
:105AB0009927B751B0F0E1F0660F771F881F991F43
:105AC0001AF0BA95C9F714C0B13091F00E94912B29
:105AD000B1E008950C94912B672F782F8827B85F39
