:100000000C9447050C946F050C946F050C946F05C8
:100010000C946F050C946F050C946F050C946F0590
:100020000C946F050C946F050C946F050C9498114B
:100030000C946F050C946F050C946F050C946F0570
:100040000C94001C0C946F050C9466110C944011D8
:100050000C946F050C946F050C946F050C946F0550
:100060000C94030A0C946F052200FF2100DB40A4CE
:10007000A62EAFDA0281DA1281DA02818F2000A186
:10008000C8D300408DAED580A800006000000000FD
:1000900000000000000000000000E0000000000080
:1000A000000000000000000001E00000000000006F
:1000B0000000000000000001F0000000000000004F
:1000C00000000000000003F000000000000000003D
:1000D000000000000007F000000000000000000029
:1000E0000000000007F80000000000000000000011
:1000F0000000000FF800000003C0007E000001E0D7
:10010000007F0FF800000003C000FE000001E000C7
:10011000FFEFF800000003C000FE000001E000FF58
:10012000FFF800000003C000F00000000F007FFE99
:100130007FC0000003C000F00000000F003FFE7F02
:10014000F83FF1FBCFFCFEF3BC3DEFE01FFE7FFF6D
:100150007FFBFFDFFEFEFFBC3DEFE01FC6FFFF7F22
:10016000FBFFDFFEFEFFBC3DEFE00FE3C7FE787B49
:10017000C3DE1EF0FFBC3DEF0007FF87FC787BC3AA
:10018000DE1EF0F83C3DEF0001FFFFF0007BC3C036
:100190001EF0F03C3DEF0001F37FE03FFBC3CFFEDC
:1001A000F0F03C3DEF0003E33F807FFBC3DFFEF058
:1001B000F03C3DEF0007E73C00787BC3DE1EF0F02B
:1001C0003C3DEF0007FFBE00787BC3DE1EF0F03C35
:1001D0003DEF0007FFFE00787BC3DE1EF0F03C3DE4
:1001E000EF000FFFFE007FFBFFDFFEF0F03FFDEFB3
:1001F000E00FFFFF007FFBFFDFFEF0F03FFDEFE0D1
:100200000FF9FF003E79F9CF9EF0F01F3DE7E01FA8
:10021000F1FF0000000000000000000000001F804F
:10022000FF007FFFFFFFFFFFFFFFFFFFE01C007FDE
:10023000007FFFFFFFFEB46D888D18E000001F00F7
:100240007FFFFFFFFE95AD7DB577E000000F007FDB
:10025000FFFFFFFEA5AD9D8D19E0000006007FFFAA
:10026000FFFFFEB5ADEDB57EE000000000000180AF
:1002700000000000000000000003800000000000FB
:100280000000000007C000000000000000000007A0
:10029000C00000000000000000000FC000000000CF
:1002A00000000000001FE00000000000000000004F
:1002B0001FE00000000000000000003FE000000020
:1002C0000000000000003FF00000000000000000FF
:1002D000007FF0000000000000001FF87FF0000029
:1002E00000000000003FFE7FF00000000000000062
:1002F0003FFF7FF0000000000000001FFFFBE00058
:100300000000000000000FFFF9FFC0000000000027
:10031000000FFFF9FFF800000000000007FFF1FFE9
:10032000FF00000000000003FC73FFFF80000000DE
:10033000000001FE3FFFFF80000000000000FF1EE4
:100340000FFF000000000000007FFE1FFC00000007
:10035000000000003FFFFFF8000000000000000F59
:10036000DFFFE0000000000000001F19FFC00000D8
:1003700000000000003F3CFF000000000000000003
:100380007E7CF800000000000000007FFE7C000082
:10039000000000000000FFFFFC0000000000000063
:1003A00000FFFFFE0000000000000000FFFFFE0055
:1003B00000000000000001FFEFFE00000000000050
:1003C0000001FFCFFE0000000000000003FF07FE59
:1003D0000000000000000003FC07FE000000000019
:1003E000000003F003FE0000000000000001800098
:1003F000FE000000000000000000007E0000000081
:100400000000000000003E000000000000000000AE
:10041000000C000000000000078000FC000003C08A
:10042000000000078001FC000003C00000000780FE
:1004300001FC000003C0000000078001E000000094
:100440001E000000078001E00000001E007FE3F7AF
:100450009FF9FDE7787BDFC0FFF7FFBFFDFDFF7869
:100460007BDFC0FFF7FFBFFDFDFF787BDFC0F0F74C
:1004700087BC3DE1FF787BDE00F0F787BC3DE1F013
:10048000787BDE0000F787803DE1E0787BDE007F4F
:10049000F7879FFDE1E0787BDE00FFF787BFFDE196
:1004A000E0787BDE00F0F787BC3DE1E0787BDE00A2
:1004B000F0F787BC3DE1E0787BDE00F0F787BC3DDC
:1004C000E1E0787BDE00FFF7FFBFFDE1E07FFBDFCF
:1004D000C0FFF7FFBFFDE1E07FFBDFC07CF3F39FD0
:1004E0003DE1E03E7BCFC0000000000000000000C6
:1004F0000000FFFFFFFFFFFFFFFFFFFFC0FFFFFF49
:10050000FFFD68DB111A31C0FFFFFFFFFD2B5AFB17
:100510006AEFC0FFFFFFFFFD4B5B3B1A33C0FFFFDD
:10052000FFFFFD6B5BDB6AFDC000000000240027BD
:10053000002A0000000000250028002B000404040D
:10054000040404040402020202020203030303037C
:100550000301020408102040800102040810200159
:10056000020408102000000008000201000003043B
:10057000070000000000000000000103070F1F3FFC
:100580007F0080C0E0F0F8FCFE00000000003E5B51
:100590004F5B3E3E6B4F6B3E1C3E7C3E1C183C7ED0
:1005A0003C181C577D571C1C5E7F5E1C00183C18B5
:1005B00000FFE7C3E7FF0018241800FFE7DBE7FFB1
:1005C00030483A060E2629792926407F050507403E
:1005D0007F05253F5A3CE73C5A7F3E1C1C08081CFF
:1005E0001C3E7F14227F22145F5F005F5F06097F3D
:1005F000017F006689956A606060606094A2FFA2D6
:100600009408047E040810207E201008082A1C0884
:10061000081C2A08081E101010100C1E0C1E0C308E
:10062000383E3830060E3E0E060000000000000086
:100630005F00000007000700147F147F14242A7F46
:100640002A12231308646236495620500008070313
:1006500000001C2241000041221C002A1C7F1C2A91
:1006600008083E08080080703000080808080800E4
:100670000060600020100804023E5149453E0042DF
:100680007F400072494949462141494D33181412AF
:100690007F1027454545393C4A49493141211109D7
:1006A000073649494936464949291E0000140000C9
:1006B00000403400000008142241141414141400E3
:1006C0004122140802015909063E415D594E7C122F
:1006D00011127C7F494949363E414141227F4141C7
:1006E000413E7F494949417F090909013E41415144
:1006F000737F0808087F00417F41002040413F018F
:100700007F081422417F404040407F021C027F7FCF
:100710000408107F3E4141413E7F090909063E41E0
:1007200051215E7F09192946264949493203017F33
:1007300001033F4040403F1F2040201F3F403840C2
:100740003F631408146303047804036159494D435B
:10075000007F4141410204081020004141417F04D3
:1007600002010204404040404000030708002054BA
:100770005478407F2844443838444444283844441A
:10078000287F385454541800087E090218A4A49CE9
:10079000787F0804047800447D40002040403D00FC
:1007A0007F1028440000417F40007C047804787C5E
:1007B000080404783844444438FC182424181824C5
:1007C0002418FC7C08040408485454542404043FAE
:1007D00044243C4040207C1C2040201C3C403040B5
:1007E0003C44281028444C9090907C4464544C44E1
:1007F0000008364100000077000000413608000282
:10080000010204023C2623263C1EA1A161123A40AB
:1008100040207A3854545559215555794122545421
:100820007842215554784020545579400C1E52721C
:1008300012395555555939545454593955545458F9
:100840000000457C410002457D420001457C407D21
:100850001211127DF0282528F07C545545002054B3
:10086000547C547C0A097F4932494949323A44440C
:10087000443A324A4848303A4141217A3A4240208B
:1008800078009DA0A07D3D4242423D3D4040403D1C
:100890003C24FF2424487E4943662B2FFC2F2BFF4A
:1008A0000929F620C0887E090320545479410000AC
:1008B000447D413048484A32384040227A007A0A22
:1008C0000A727D0D19317D2629292F2826292929EB
:1008D0002630484D4020380808080808080808381D
:1008E0002F10C8ACBA2F102834FA00007B00000883
:1008F000142A142222142A14085500550055AA550A
:10090000AA55AAFF55FF55FF000000FF0010101068
:10091000FF00141414FF001010FF00FF1010F0105F
:10092000F0141414FC001414F700FF0000FF00FF83
:100930001414F404FC141417101F10101F101F14AB
:1009400014141F00101010F0000000001F101010F1
:10095000101F10101010F010000000FF10101010E9
:100960001010101010FF10000000FF140000FF0016
:10097000FF00001F10170000FC04F41414171017D8
:100980001414F404F40000FF00F7141414141414E5
:1009900014F700F7141414171410101F101F141458
:1009A00014F4141010F010F000001F101F000000CD
:1009B0001F14000000FC140000F010F01010FF10D5
:1009C000FF141414FF141010101F00000000F0108A
:1009D000FFFFFFFFFFF0F0F0F0F0FFFFFF0000006F
:1009E0000000FFFF0F0F0F0F0F3844443844FC4A3C
:1009F0004A4A347E02020606027E027E026355499E
:100A000041633844443C04407E201E2006027E029E
:100A10000299A5E7A5991C2A492A1C4C7201724C1F
:100A2000304A4D4D303048784830BC625A463D3EE1
:100A3000494949007E0101017E2A2A2A2A2A444482
:100A40005F444440514A444040444A51400000FF02
:100A50000103E080FF000008086B6B0836123624A3
:100A600036060F090F0600001818000000101000CD
:100A70003040FF0101001F01011E00191D17120067
:100A80003C3C3C3C000000000000B4268D1C1124BE
:100A90001FBECFEFD8E0DEBFCDBF12E0A0E0B1E0D7
:100AA000EEE9FFE502C005900D92A630B107D9F737
:100AB00024E0A6E0B2E001C01D92A23DB207E1F73A
:100AC00015E0C6E4D5E004C02197FE010E948B2CFE
:100AD000C534D107C9F70E94211D0C94C22F0C9474
:100AE000000085ED8093BC008091BC0084FDFCCFAC
:100AF00010928A02089540912602262F30E0240F9A
:100B0000311D21323105DCF420918A022430C9F4F0
:100B1000FC0180E090E0861758F430912602219184
:100B2000DC01AA5FBD4FA30FB11D2C930196F3CF3B
:100B300080912602680F6093260280E0089581E08C
:100B4000089582E00895089508950895E091AC0411
:100B50008091AB04E81730F4F0E0E355FB4F80815F
:100B600090E008958FEF9FEF08959091AC048091ED
:100B7000AB04981750F4E92FF0E0E355FB4F2081C8
:100B800030E09F5F9093AC0402C02FEF3FEFC901AC
:100B900008958091AB0490E02091AC04821B9109F0
:100BA0000895CF92DF92EF92FF920F931F93CF930E
:100BB000DF937C01CB018A0120918B02222389F0F3
:100BC000EB016B01C40ED51ECC15DD0569F06991F2
:100BD000D701ED91FC910190F081E02DC7010995BD
:100BE000F3CF642F0E947B05C801DF91CF911F9145
:100BF0000F91FF90EF90DF90CF900895CF93DF9308
:100C00001F92CDB7DEB7698320918B022223D1F0EA
:100C10002091AE02203240F021E030E0FC0133832D
:100C2000228380E090E015C080918C02E82FF0E0F4
:100C3000E357FD4F998190838F5F80938C0280935F
:100C4000AE0205C061E0CE0101960E947B0581E005
:100C500090E00F90DF91CF9108950895FC016370AB
:100C6000658B8481958126813781613039F06330CD
:100C700029F09187808733872287089531872087DD
:100C80009387828708956F927F928F929F92AF92FF
:100C9000BF92CF92DF92EF92FF920F931F93CF9369
:100CA000DF93EC014B015A0169013801E881F981B8
:100CB0000284F385E02D0995E881F9810288F389A2
:100CC000E02D87019601A501B401CE010995A5018A
:100CD000460D571D41505109E881F9810288F38979
:100CE000E02D9601B401CE010995E881F9810088D3
:100CF000F189E02D9301A501B401CE010995C80C3D
:100D0000D91CB60161507109E881F9810088F18927
:100D1000E02D9301A501CE010995E881F9810688AE
:100D2000F789E02DCE01DF91CF911F910F91FF90B8
:100D3000EF90DF90CF90BF90AF909F908F907F907B
:100D40006F9009948F929F92AF92BF92CF92DF9251
:100D5000EF92FF920F931F93CF93DF934C016B01A0
:100D60005A01E901DC01ED91FC916217730781F4EE
:100D70000417150724F48B2D5801042F182F0A1976
:100D80001B0998012F5F3F4F048CF58DE02D12C099
:100D90004017510709F52617370724F48D2D6901EF
:100DA000C62FD82F9E012C193D092F5F3F4F068C6F
:100DB000F78DE02D8701A501B601C4010995DF91EA
:100DC000CF911F910F91FF90EF90DF90CF90BF9048
:100DD000AF909F908F9008950284F385E02D099540
:100DE000D401ED91FC910488F589E02D9E01A501C7
:100DF000B601C4010995D401ED91FC910688F789EB
:100E0000E02DC401DF91CF911F910F91FF90EF90E2
:100E1000DF90CF90BF90AF909F908F900994EF920A
:100E2000FF920F931F93DC011A960D911C911B9753
:100E300018962D913C911997ED91FC9100A0F1A18C
:100E4000E02D7B0140E050E060E070E009951F91EB
:100E50000F91FF90EF9008954F925F926F927F9263
:100E60008F929F92AF92BF92CF92DF92EF92FF92BA
:100E70000F931F93CF93DF936C012B015A0139011C
:100E80004801DC01ED91FC910284F385E02D099588
:100E9000E201640C751CD601ED91FC91C615D705D5
:100EA0005CF40088F189E02D87019401A501BE0161
:100EB000C60109952196EFCF0688F789E02DC60176
:100EC000DF91CF911F910F91FF90EF90DF90CF9026
:100ED000BF90AF909F908F907F906F905F904F905A
:100EE00009948F929F92AF92BF92CF92DF92EF922E
:100EF000FF920F931F93CF93DF93EC015B014A01A5
:100F00006901E881F9810284F385E02D0995950155
:100F10002C0D3D1D21503109E881F9810488F589A6
:100F2000E02D78018401A401B501CE010995E88185
:100F3000F9810688F789E02DCE01DF91CF911F91CD
:100F40000F91FF90EF90DF90CF90BF90AF909F9068
:100F50008F9009948F929F92AF92BF92CF92DF921F
:100F6000EF92FF920F931F93CF93DF93EC015B01FE
:100F70004A0169017801E881F9810284F385E02D55
:100F80000995C80CD91C860101501109E881F98125
:100F90000488F589E02D9501A401B501CE010995DC
:100FA000E881F9810688F789E02DCE01DF91CF91A4
:100FB0001F910F91FF90EF90DF90CF90BF90AF9077
:100FC0009F908F900994EF92FF920F931F93DC01F3
:100FD000ED91FC9100A0F1A1E02D09951F910F91D9
:100FE000FF90EF9008950F931F93DC01ED91FC911A
:100FF000068CF78DE02D09951F910F9108950F93A1
:101000001F93DC01ED91FC91048CF58DE02D099589
:101010001F910F910895DC01ED91FC910084F18501
:10102000E02D09942F923F924F925F926F927F92A0
:101030008F929F92AF92BF92CF92DF92EF92FF92E8
:101040000F931F93CF93DF9300D000D000D0CDB784
:10105000DEB72C017E836D836A015901C801FC82D1
:10106000EB824801841A950A97FE03C091948194FB
:10107000910835012D813E81621A730A77FE03C003
:10108000719461947108681479045CF43A2D2B2DE5
:101090005C01832F922F3D812E81DE82CD82C32E73
:1010A000D22EAD81BE81AA16BB065CF43C2D2D2D3F
:1010B0006C01832F922F3D812E81BE82AD82A32EA3
:1010C000B22E85012D813E81021B130B1C012C18B1
:1010D0003D0837FE03C0319421943108780117FF91
:1010E00003C03FEFE31AF30AF594E794C816D90654
:1010F0002CF08FEF9FEF9A83898304C0A1E0B0E0CA
:10110000BA83A9832D813E81A216B30624F1D201B0
:10111000ED91FC910484F585E02D2B813C816814D0
:10112000790424F44D815E81B60103C0A6016D816E
:101130007E81C2010995E218F308F7FE06C02981F5
:101140003A81C20ED31EE00EF11E8D819E81019662
:101150009E838D83D7CF26960FB6F894DEBF0FBE41
:10116000CDBFDF91CF911F910F91FF90EF90DF9056
:10117000CF90BF90AF909F908F907F906F905F9037
:101180004F903F902F900895089580E090E008954B
:101190000895AF92BF92CF92EF92FF920F931F9359
:1011A000CF93DF93EC01262F888D998D009709F05E
:1011B00040C06A3059F41D861C862C898E859F8517
:1011C00038E0239F800D911D112441C06D3009F43A
:1011D000AAC08E898823C1F03C898C859D8546E014
:1011E000349F800D911D1124488559854817590752
:1011F0005CF41D861C868E859F8548E0349F800D9B
:10120000911D11249F878E87EA88FB880889198998
:101210004E855F856C857D85CC88CE010E94C9177F
:101220002C898C859D8536E0239F800D911D11248E
:1012300042C06A3079F41D861C862C89FC013696E2
:10124000E4918E859F852E9F800D911D11249F878F
:101250008E8769C06D3009F466C0FC013496349104
:10126000631708F460C03196E491E61708F45BC098
:10127000FC01329665917491422F50E0431B510955
:1012800037E0349F5001359FB00C1124A60EB71ED5
:10129000F501329634913196E491332311F0E11146
:1012A0000DC0F5013496E4912C898C859D85E29FD3
:1012B000800D911D11249D878C8735C0F5013596D1
:1012C00044915E89552311F16C89E32FF0E0E40F1E
:1012D000F11D47FDFA956E9FD0016F9FB00D11244F
:1012E0004C855D854A0F5B1FE885F985E417F50796
:1012F0006CF41D861C86FC013696E4918E859F85D4
:101300006E9F800D911D11249F878E87EA88FB8830
:10131000088919894E855F856C857D85CC88CE01CD
:101320000E94C917BECF81E090E0DF91CF911F915D
:101330000F91FF90EF90CF90BF90AF9008950C94D5
:10134000482ECF9360EC70E00E94632CC82F605C45
:101350008FEA92E00E94F80D60E46C0F8FEA92E051
:10136000CF910C94F80D61E08FEA92E00E94F80DA5
:1013700020E030E048EC52E460915E0270915F0240
:1013800080916002909161020E94FF2A0E94702D5C
:101390009B01AC01285D3C4D4F4F5F4FA0E8BEE381
:1013A0000E94DC2B20E536E440E050E00E94BD2B9B
:1013B000C9010C94A10962E08FEA92E00E94F80D45
:1013C00020E030E048EC52E4609152027091530208
:1013D00080915402909155020E94FF2A0E94702D24
:1013E0009B01AC01285D3C4D4F4F5F4FA0E8BEE331
:1013F0000E94DC2B20E536E440E050E00E94BD2B4B
:10140000C9010C94A1091F920F920FB60F921124DB
:101410002F933F934F935F936F937F938F939F93FC
:10142000AF93BF93EF93FF938091B900887F80368D
:1014300009F49CC068F5883209F45BC090F48031EF
:1014400009F454C038F4882309F4F6C0883009F44C
:101450004DC0F6C0883109F44CC0803209F45DC03B
:10146000EFC0803409F468C048F4803309F455C0F3
:10147000883309F0E5C080938802D8C0803509F42C
:101480004FC0883509F45DC0883409F0D9C0D6C092
:10149000883909F4C7C0A8F4883709F467C038F45C
:1014A000883609F463C0803709F460C0C9C0883841
:1014B00009F4B8C0803909F45FC0803809F0C0C0B1
:1014C0005BC0803B09F486C038F4803A09F466C0FA
:1014D000883A09F47FC0B4C0803C09F4A7C0883CB6
:1014E00009F4A4C0883B09F48AC0AAC080916502AF
:1014F00010C09091870280918602981770F5E09154
:10150000870281E08E0F80938702F0E0EA59FD4F59
:1015100080818093BB0085EC86C0809388028EC05A
:10152000E091870281E08E0F809387028091BB005B
:10153000F0E0EA59FD4F8083909187028091860206
:101540006EC0E091870281E08E0F809387028091C8
:10155000BB00F0E0EA59FD4F808380918902811140
:101560006DC081E08093640284EA61C083E080936F
:101570008A0210924802CFCF80914802803208F050
:1015800051C0E091480281E08E0F80934802809123
:10159000BB00F0E0E85DFD4F8083BDCF85EC80931C
:1015A000BC0010928A0280914802803230F4E091AF
:1015B0004802F0E0E85DFD4F10826091480270E063
:1015C000E091A704F091A80488E292E009951092B6
:1015D000480236C084E080938A021092270210925B
:1015E0002602E091A904F091AA04099580912602AF
:1015F000811105C081E08093260210920602E091DD
:10160000270281E08E0F80932702F0E0EA5FFD4F12
:1016100080818093BB0090912702809126029817C9
:1016200008F479CF85E88093BC000AC085EC8093EC
:10163000BC0010928A0204C0109288020E947105B8
:10164000FF91EF91BF91AF919F918F917F916F919A
:101650005F914F913F912F910F900FBE0F901F9070
:10166000189581E080938B026093AD0210928C02FA
:101670001092AE020895EF92FF920F931F93CF93B3
:10168000DF930E945F1581E0809375048093780456
:1016900081E090E0909374048093730490937204BB
:1016A0008093710410926E0410926D041092700475
:1016B00010926F0483E494E00E944A1510926E0425
:1016C00010926D04C8E0D0E0D0937004C0936F0412
:1016D0008DE394E00E944A15809149028823A1F08D
:1016E0008BE490E090936E0480936D04D09370042B
:1016F000C0936F0460914A0270914B0280914C023A
:1017000090914D020E94391455E0E52EF12CF09293
:101710006E04E0926D04C0E1D0E0D0937004C093F9
:101720006F04609156027091570280915802909117
:1017300059020E94391406E210E010936E040093DF
:101740006D04D0937004C0936F0460915E02709139
:101750005F0280916002909161020E94391480E5DD
:1017600090E090936E0480936D04D0937004C093C6
:101770006F046091520270915302809154029091D3
:1017800055020E943914F0926E04E0926D04C8E193
:10179000D0E0D0937004C0936F0460914E027091BA
:1017A0004F0280915002909151020E94391410937F
:1017B0006E0400936D04D0937004C0936F04609125
:1017C0005A0270915B0280915C0290915D020E94CE
:1017D000391480917D0490917E04892BD1F0209161
:1017E0009704309198044091990450919A0460E0D4
:1017F00074E284EF90E00E94262CDA01C901409740
:10180000A109B109B695A795979587958093B800DA
:1018100016C080917B0490917C04892B31F08091DB
:101820009504909196040E94BF12E0918F04F0916C
:10183000900490818091940480958923808365E051
:1018400088E690E00E948A1360916504615081E609
:1018500094E00E9461122091670430916804C901EC
:10186000079697FD079633E0959587953A95E1F7AA
:101870002091650430916604829F8001839F100D42
:10188000929F100D1124C0917F04D091800480910B
:101890007D0490917E040C0F1D1F009709F445C034
:1018A000609181040E94310B80917D0490917E04AF
:1018B000DC01ED91FC910190F081E02D60E409954F
:1018C0007E01D1E080917D0490917E040E151F056C
:1018D00049F1D032B8F00E942E13609181048091BA
:1018E0007D0490917E040E94310B80917D04909143
:1018F0007E04DC01ED91FC910190F081E02D60E42B
:101900000995D1E080917D0490917E04F701619169
:101910007F01DC01ED91FC910190F081E02D0995B2
:10192000DF5FD0CF0E942E1341C0E0918D04F09173
:101930008E04908180919304892B8083C017D107F6
:10194000A9F1899120917B0430917C04232B19F01B
:101950000E945A12F3CF28E030E040E8E091890479
:10196000F0918A0490919104582F542319F05081DA
:10197000952B03C05081909595239083E0918B0423
:10198000F0918C04508190919204952B9083E0917A
:101990008B04F0918C045081909192049095952342
:1019A0009083469521503109C9F6C8CF80917D04B6
:1019B00090917E04892BD1F020919B0430919C045E
:1019C00040919D0450919E0460E074E284EF90E0A9
:1019D0000E94262CDA01C9014097A109B109B695E8
:1019E000A795979587958093B80017C0E0918F04CD
:1019F000F0919004908180919404892B8083809150
:101A00007B0490917C04892B41F0DF91CF911F9151
:101A10000F91FF90EF900C945912DF91CF911F918D
:101A20000F91FF90EF9008950F931F93CF93DF9343
:101A3000DC015D96ED91FC915E97309781F0EC01B1
:101A4000ABA1BCA114960D911C91159715969C9372
:101A50008E9314970995EBA1FCA115830483DF9164
:101A6000CF911F910F9108950895CF93DF938FEA3F
:101A700092E00E949E0DEC01803491052CF460E010
:101A800070EC89E794EC19C08FEA92E00E949E0DF9
:101A900080349105A4F3C054D10920EC2C9FB001EF
:101AA0002D9F700D112480549109680F791F072E06
:101AB000000C880B990B0E94A02ADF91CF9108950A
:101AC000BC018DE394E00C941F11CF92DF92EF9252
:101AD000FF920F931F93CF93DF936C017A018B01D9
:101AE000C0E0D0E0CE15DF0581F0D8016D918D0109
:101AF000D601ED91FC910190F081E02DC601099590
:101B0000892B11F02196EECF7E01C701DF91CF9195
:101B10001F910F91FF90EF90DF90CF900895FC01FF
:101B2000538D448D252F30E0842F90E0821B930B42
:101B3000541710F0CF96089501970895FC01918DE8
:101B4000828D981761F0828DDF01A80FB11D5D961F
:101B50008C91928D9F5F9F73928F90E008958FEF8D
:101B60009FEF0895FC01918D828D981731F0828D41
:101B7000E80FF11D858D90E008958FEF9FEF089598
:101B8000FC01918D228D892F90E0805C9F4F821BFC
:101B900091098F73992708958FEA92E00E94C00DF2
:101BA00021E0892B09F420E0822F0895FC01848D27
:101BB000DF01A80FB11DA35ABF4F2C91848D90E077
:101BC00001968F739927848FA689B7892C93A08952
:101BD000B1898C91837080648C93938D848D9813DC
:101BE00006C00288F389E02D80818F7D808308956F
:101BF000EF92FF920F931F93CF93DF93EC0181E05D
:101C0000888F9B8D8C8D981305C0E889F989808118
:101C100085FD26C0F62E0B8D10E00F5F1F4F0F7352
:101C20001127E02E8C8DE8120CC00FB607FCFACFFE
:101C3000E889F989808185FFF5CFCE010E94D60D14
:101C4000F1CF8B8DFE01E80FF11DE35AFF4FF082BB
:101C50009FB7F8940B8FEA89FB89808180620AC064
:101C60009FB7F894EE89FF896083E889F9898081BC
:101C70008370806480839FBF81E090E0DF91CF918B
:101C80001F910F91FF90EF900895CF93DF93EC0198
:101C9000888D8823C9F0EA89FB89808185FD05C08C
:101CA000A889B9898C9186FD0FC00FB607FCF5CFC6
:101CB000808185FFF2CFA889B9898C9185FFEDCF0E
:101CC000CE010E94D60DE7CFDF91CF91089580E03D
:101CD00090E0892B29F00E94CC0D81110C9400001A
:101CE0000895FC0177FDB9C0808591856817790753
:101CF0000CF0B3C057FDB1C08285938548175907D2
:101D00000CF008958589823079F484819581DC0115
:101D1000A61BB70BBD016150710986819781DC015B
:101D2000A41BB50BAD010EC0833009F084C064273D
:101D30007527CA0186279727682779274681578103
:101D4000481B590B415051092130310531F048F100
:101D50002230310509F44AC00895CA0157FD07969B
:101D60009C01A3E035952795AA95E1F7A481B5815B
:101D70002A9FC0012B9F900D3A9F900D1124680F50
:101D8000791F068CF78DE02DE60FF71F477055275A
:101D900081E090E001C0880F4A95EAF79081892B95
:101DA00048C0CA0157FD07969C0193E035952795D9
:101DB0009A95E1F7A481B5812A9FC0012B9F900DD0
:101DC0003A9F900D1124680F791F068CF78DE02D36
:101DD000E60FF71F4770552781E090E001C0880F9C
:101DE0004A95EAF780959081892323C0CA0157FD5F
:101DF00007969C0183E0359527958A95E1F7A481A4
:101E0000B5812A9FC0012B9F900D3A9F900D112400
:101E1000680F791F068CF78DE02DE60FF71F4770CE
:101E2000552781E090E001C0880F4A95EAF790813C
:101E3000892780830895813009F086CF642775272C
:101E4000462757276427752784819581DC01A61BC7
:101E5000B70BBD016150710977CF08950E94972F8C
:101E60008F929F92AF92BF92CF92DF92EF92FF92AA
:101E70000F931F93CF93DF93CDB7DEB762970FB663
:101E8000F894DEBF0FBECDBF7C018B0184E2DB0185
:101E90001D928A95E9F784E290E0A0E0B0E0FB01B2
:101EA00080839183A283B383F70186819781A08584
:101EB000B185FB0184839583A683B78383E090E09B
:101EC000A0E0B0E080879187A287B3870E94F41BCF
:101ED000D80150966D937D938D939C935397FE01FB
:101EE00031968CE0DF011D928A95E9F76E01BDE025
:101EF000CB0ED11C86E0F60111928A95E9F7D70145
:101F000013966C91139714968D919C9115970E943E
:101F1000310BF70184819581DC01ED91FC910190F9
:101F2000F081E02D6AE10995F701848195810E9495
:101F30002E1366E0D70113968C910E9428161092FA
:101F4000AC048093AB045E01B3E1AB0EB11CF701AE
:101F500084819581DC01ED91FC910284F385E02D73
:101F60000995F60181936F01EA15FB0581F76D85EF
:101F70007E85072E000C880B990B0E94A02A20E07A
:101F800030E040E85DE30E94FF2A4B015C016F8571
:101F90007889072E000C880B990B0E94A02A20E05C
:101FA00030E040E85DE30E94FF2A6B017C01698913
:101FB0007A89072E000C880B990B0E94A02A20E03A
:101FC00030E040E85DE30E94FF2AD80154968D92EC
:101FD0009D92AD92BC925797F801C08ED18EE28E41
:101FE000F38E5C966D937D938D939C935F9781E0C8
:101FF00062960FB6F894DEBF0FBECDBFDF91CF91D2
:102000001F910F91FF90EF90DF90CF90BF90AF9016
:102010009F908F9008950F931F93CF93DF938C0120
:10202000EB0188E2FB0111928A95E9F74BE050E061
:1020300069EE71E0CE010E94B32F1B8681E090E033
:10204000A0E0B0E08C879D87AE87BF87F8018681CE
:102050009781A085B185888B998BAA8BBB8B83E0F8
:1020600090E0A0E0B0E08C8B9D8BAE8BBF8B1CA270
:102070001DA21EA21FA2188E198E1A8E1B8E1C8ED8
:102080001D8E1E8E1F8E8AE097EDA3E2BCE388A30F
:1020900099A3AAA3BBA3DF91CF911F910F9108959C
:1020A0000F931F93CF93DF93DC015596EC915597D7
:1020B000E23071F0E330E9F0E13079F5FB0114969C
:1020C0000D90BC91A02DA41BB50BA21BB30B18C087
:1020D000EC01EC81FD81E61BF70BBF01615071093A
:1020E000EE81FF81DF01A41BB50BAD01421B530B39
:1020F00014C0DA01EC01EE81FF81E61BF70B31978A
:10210000F7FD0DC0EC014E815F81E417F5073CF44B
:10211000AF01BD010E94E31902C00E944A1ADF917B
:10212000CF911F910F9108950F931F93DC01559646
:10213000EC915597E23061F0E33009F1E13081F53F
:102140001496ED91FC911597E41BF50B319723C084
:10215000DC011496ED91FC911597DF01A61BB70BDE
:10216000BD01DC011696ED91FC911797DF01A41BD0
:10217000B50BAD0141505109621B730B11C0FA013F
:10218000DC0116964D915C911797DA01A61BB70BEF
:10219000BD01621B730BAB01BF010E944A1A0CC048
:1021A00057FD0AC0DC011696ED91FC9117974E176A
:1021B0005F0714F40E94E3191F910F910895EF92A5
:1021C000FF920F931F93CF93DF93EC017B018A0162
:1021D00088819981009729F02A813B81241735074E
:1021E000F8F4B8016F5F7F4F0E94D12E009759F02D
:1021F000998388831B830A832C813D81232B81F45F
:10220000FC0110820DC088819981009711F00E9415
:10221000482E198218821D821C821B821A8207C0D6
:102220001D830C83B701888199810E94AC2FCE0158
:10223000DF91CF911F910F91FF90EF900895CF9371
:10224000DF93EC016115710559F0FB01019000204D
:10225000E9F73197AF01461B570B0E94DF100CC006
:1022600088819981009711F00E94482E1982188266
:102270001D821C821B821A82CE01DF91CF910895AC
:102280001F920F920FB60F9211242F933F934F93EB
:102290005F936F937F938F939F93AF93BF93EF93CE
:1022A000FF938FEA92E00E94D60DFF91EF91BF91CC
:1022B000AF919F918F917F916F915F914F913F91DE
:1022C0002F910F900FBE0F901F9018951F920F9295
:1022D0000FB60F9211242F938F939F93EF93FF9339
:1022E000E091BF02F091C0028081E091C502F091BF
:1022F000C60282FD12C090818091C8028F5F8F73E9
:102300002091C902821751F0E091C802F0E0E15536
:10231000FD4F958F8093C80201C08081FF91EF919E
:102320009F918F912F910F900FBE0F901F90189536
:102330001F920F920FB60F9211242F933F934F933A
:102340005F936F937F938F939F93AF93BF93EF931D
:10235000FF938091630287FF05C010928500109261
:1023600084001BC020916302022E000C330B80916D
:10237000700390E02817390784F480916302082ED7
:10238000000C990BFC01EE0FFF1F8E0F9F1FFC012D
:10239000E45BFC4F808186FD15C0809163028F5FF6
:1023A0008093630220916302022E000C330B809114
:1023B000700390E028173907C4F4809163028C30D1
:1023C00064F113C080916302082E000C990BFC018C
:1023D000EE0FFF1F8E0F9F1FFC01E45BFC4F8081FF
:1023E00060E08F730E94FF1AD8CF80918400909193
:1023F0008500049680349C4918F480E49CE905C06B
:102400008091840090918500049690938900809338
:1024100088008FEF809363023BC02091840030914D
:10242000850080916302082E000C990BFC01EE0FD1
:10243000FF1F8E0F9F1FFC01E45BFC4F8181928187
:10244000820F931F9093890080938800809163028C
:10245000082E000C990BFC01EE0FFF1F8E0F9F1F23
:10246000FC01E45BFC4F808186FF12C08091630217
:10247000082E000C990BFC01EE0FFF1F8E0F9F1F03
:10248000FC01E45BFC4F808161E08F730E94FF1AC6
:10249000FF91EF91BF91AF919F918F917F916F913C
:1024A0005F914F913F912F910F900FBE0F901F9012
:1024B000189508958EBD00000DB407FEFDCF8EB5B2
:1024C00008951F93CF93DF93FC01848D958D009722
:1024D00001F1162FEF0160A10E94310B8C8D9D8DB3
:1024E000DC01ED91FC910190F081E02D60E0099517
:1024F0008C8D9D8DDC01ED91FC910190F081E02DA2
:10250000612F09958C8D9D8DDF91CF911F910C943A
:102510002E13A4A5B5A59C9182A9809589238C939F
:10252000828D938D892B31F0862FDF91CF911F9172
:102530000C945A1228E030E080E8A0A5B1A590A93B
:10254000462F482319F04C91942B03C04C91909541
:1025500094239C93A2A5B3A54C9191A9942B9C93F1
:10256000A2A5B3A54C9191A9909594239C9386958F
:102570002150310911F7DF91CF911F9108958CBD42
:102580009DBD08951F93CF93DF93EC01162F8C8D83
:102590009D8D892BB1F02EA93FA948AD59AD60E0C2
:1025A00074E284EF90E00E94262CDA01C901409782
:1025B000A109B109B695A795979587958093B8001D
:1025C0000FC08A8D9B8D892B21F08CA99DA90E941B
:1025D000BF12EEA5FFA590818BA9809589238083EA
:1025E000111102C066EA01C067EACE010E946112C1
:1025F0008C8D9D8D892BB1F02AAD3BAD4CAD5DAD81
:1026000060E074E284EF90E00E94262CDA01C901B8
:102610004097A109B109B695A7959795879580939D
:10262000B80006C0EEA5FFA590818BA9892B8083F9
:10263000DF91CF911F910895009769F0FC010190FF
:102640000020E9F73197AF01481B590BBC0181E627
:1026500094E00C94650D80E090E008953091AE0216
:10266000313208F04BC080918A028111FCCF9091E9
:10267000AD0222E020938A0221E0209389022FEF0D
:10268000209388021092870230938602EDE8F2E0F0
:10269000A6E6B2E020E0321721F041914D932F5F82
:1026A000FACF1092650220916502990F922B9093B8
:1026B000650290916402913061F4109264029091ED
:1026C00065029093BB009091BC0093FDF8CF95EC10
:1026D00001C095EE9093BC0090918A029230E1F394
:1026E000909188029F3F79F080918802803241F07A
:1026F00080918802803331F084E005C081E003C01E
:1027000082E001C083E010928C021092AE0210921F
:102710008B020895DF92EF92FF920F931F93CF9356
:10272000DF93D82ED92FC62F80917D0490917E04FF
:10273000009709F44EC0609181040E94310B809192
:102740007D0490917E04DC01ED91FC910190F0817B
:10275000E02D60E00995ED2CFD2E11E080917D04C7
:1027600090917E04CC2361F11032B8F00E942E13B8
:102770006091810480917D0490917E040E94310BD0
:1027800080917D0490917E04DC01ED91FC9101909B
:10279000F081E02D60E0099511E080917D04909139
:1027A0007E04F7016491DC01ED91FC910190F081D0
:1027B000E02D09951F5FC150BFEFEB1AFB0ACECF8A
:1027C000DF91CF911F910F91FF90EF90DF900C94CC
:1027D0002E13E0918D04F0918E04908180919304EA
:1027E0008095892380830D2D1D2FCC2309F439C0BA
:1027F000F801849120917B0430917C04232B31F0EB
:102800000E945A12C1500F5F1F4FEFCF28E030E0F7
:1028100040E8E0918904F0918A0490919104582F46
:10282000542319F05081952B03C050819095952326
:102830009083E0918B04F0918C04508190919204EC
:10284000952B9083E0918B04F0918C0450819091B2
:102850009204909595239083469521503109C9F6AD
:10286000D1CFDF91CF911F910F91FF90EF90DF902B
:1028700008952F923F924F925F926F927F928F9224
:102880009F92AF92BF92CF92DF92EF92FF920F93FF
:102890001F93CF93DF93CDB7DEB7A4970FB6F8940D
:1028A000DEBF0FBECDBF4B015C019B01AC010E949E
:1028B000AB2D882319F087EF91E01AC075016401F0
:1028C000E894F7F82FEF3FEF4FE75FE7C701B60156
:1028D0000E94AB2D811110C02FEF3FEF4FE75FE754
:1028E000C701B6010E94992A181634F48BEF91E0C3
:1028F0000E941C138C01AFC02FEF3FEF4FE75FE446
:10290000C501B4010E94A62D18161CF48FEF91E0AA
:10291000EFCF2FEF3FEF4FE75FECC501B4010E940F
:10292000992A87FDF3CF20E030E0A901C501B40169
:102930000E94992A87FF0BC06DE281E694E00E9415
:10294000C9086C01B7FAB094B7F8B09402C0C12CB2
:10295000D12C2AE037ED43EA5BE3C501B4010E94C4
:10296000922C4B015C010E94772D2B013C010E94AF
:102970009E2A9B01AC01C501B4010E94912C4B0120
:102980005C0119A27E0181E2E80EF11CEAA2FBA221
:10299000C301B2012AE030E040E050E00E94262C62
:1029A00029013A01605DF70162937F01232B242BFB
:1029B000252B71F7CF010E941C138C016EE281E67A
:1029C00094E00E94C908800F911F8C010C0D1D1D01
:1029D00083E0F82E9AE0292E312C412C512CFA94C8
:1029E000FF20C9F120E030E040E251E4C501B4012C
:1029F0000E94FF2A4B015C010E94772D9B0140E061
:102A000050E019A26AA07BA06CA3C32ED42EE52EA1
:102A1000CA01B901A20191010E94262C605DF30157
:102A200062933F01211531054105510589F7CF0119
:102A30000E941C13080F191F6CA17C2D8D2D9E2D3B
:102A40000E949E2A9B01AC01C501B4010E94912CF9
:102A50004B015C01C4CF83E092E00E941C13800F05
:102A6000911FA4960FB6F894DEBF0FBECDBFDF91C5
:102A7000CF911F910F91FF90EF90DF90CF90BF907B
:102A8000AF909F908F907F906F905F904F903F900E
:102A90002F900895CF93DF93FC014481558160818D
:102AA000718181E694E00E94650DEC0183E092E083
:102AB0000E941C138C0F9D1FDF91CF9108952091D0
:102AC000670430916804C901079697FD079623E0D3
:102AD000959587952A95E1F72091650430916604D4
:102AE000829FA001839F500D929F500D112460E0A2
:102AF00070E080917F04909180040C94A52FCF9278
:102B0000DF92EF92FF92DC01A03282E0B8070CF076
:102B10003EC0B7FD06C0A53BB1052CF0A4EBB0E06C
:102B200002C0A0E0B0E080913B0428E830E06901F9
:102B3000C81AD10887FDD394CC0CDD1CCC0CDD1C4D
:102B40000D2C000CEE08FF0880913C0428E532E0D3
:102B5000281B310987FD3395220F331F220F331FA6
:102B6000A901330F660B770B9A01AB012C193D09B4
:102B70004E095F090E94E72B24EB30E040E050E073
:102B80000E94BD2BC20ED31EE41EF51ED6019091ED
:102B90003A049C3098F580913B0448E850E0481B8B
:102BA000510987FD5395440F551F440F551FA41716
:102BB000B5078CF080913C0428E532E0281B3109F0
:102BC00087FD3395220F331F220F331FAD012A17C4
:102BD0003B070CF4A90142505109440F551F2FB770
:102BE000F894892F90E0FC01EE0FFF1F8E0F9F1FBE
:102BF000FC01E45BFC4F528341832FBFFF90EF90B9
:102C0000DF90CF9008953FB7F8948091A3049091FE
:102C1000A404A091A504B091A60426B5A89B05C064
:102C20002F3F19F00196A11DB11D3FBFBA2FA92F4B
:102C3000982F8827820F911DA11DB11DBC01CD01C8
:102C400042E0660F771F881F991F4A95D1F70895B4
:102C500090918A029111FCCF91E090938A02909317
:102C600089022FEF2093880210928702260F20936B
:102C700086029093650290916502880F892B80935C
:102C8000650280916402813061F410926402809147
:102C900065028093BB008091BC0083FDF8CF85EC7A
:102CA00001C085EE8093BC0080918A028130E1F3FF
:102CB00080918702861710F460918702A6E6B2E041
:102CC000EDEAF4E080E0861721F09D9191938F5F0B
:102CD000FACF08953F924F925F926F927F928F92B8
:102CE0009F92AF92BF92CF92DF92EF92FF920F939B
:102CF0001F93CF93DF9300D000D000D0CDB7DEB7C5
:102D00002C013B014A015901C901079697FD07961D
:102D10009C0193E0359527959A95E1F73C832B83A9
:102D2000C12CD12CE12CF12C312CC3018E0D9F1D17
:102D30009A838983E016F106C4F51E821D822D81D7
:102D40003E812A153B054CF5C90187709927892BCF
:102D500011F0330C0EC0ED81FE81F7FD379683E054
:102D6000F595E7958A95E1F7EC0DFD1DE80DF91D48
:102D7000349037FE0CC021E030E049815A816D81EA
:102D80007E81640D751D81E694E00E940B088D81A3
:102D90009E8101969E838D83D2CF9FEFE91AF90A17
:102DA0002B813C81C20ED31EC0CF26960FB6F8945D
:102DB000DEBF0FBECDBFDF91CF911F910F91FF906E
:102DC000EF90DF90CF90BF90AF909F908F907F90CB
:102DD0006F905F904F903F9008954F925F926F92E7
:102DE0007F928F929F92AF92BF92CF92DF92EF929B
:102DF000FF920F931F93CF93DF9300D000D0CDB7F6
:102E0000DEB74B015C0129013A016701780120E03E
:102E100030E0A9010E94992A87FDA6C020E030E099
:102E2000A901C301B2010E94992A87FD9DC020E03B
:102E300030E0A901C701B6010E94992A87FD94C01C
:102E400081E020910C0430910D042130310509F00E
:102E500080E080932D048092F2039092F303A0927D
:102E6000F403B092F5034092F6035092F703609298
:102E7000F8037092F903C092FA03D092FB03E09238
:102E8000FC03F092FD036091200470912104809175
:102E90002204909123040E949E2A20E030E04AE719
:102EA00054E40E94FE2C69837A838B839C838092F6
:102EB000FE039092FF03A0920004B09201049B01D4
:102EC000AC01C301B2010E94FF2A2B013C016093B7
:102ED00002047093030480930404909305042981F1
:102EE0003A814B815C81C701B6010E94FE2C6B01C7
:102EF0007C01609306047093070480930804909308
:102F0000090480910A0490910B04019769F5A501C9
:102F1000940160E070E0CB010E94912C6093FE036D
:102F20007093FF038093000490930104A301920126
:102F300060E070E0CB010E94912C609302047093DA
:102F400003048093040490930504A701960160E0B4
:102F500070E0CB010E94912C6093060470930704EB
:102F600080930804909309040F900F900F900F9096
:102F7000DF91CF911F910F91FF90EF90DF90CF9055
:102F8000BF90AF909F908F907F906F905F904F9089
:102F900008952F923F924F925F926F927F928F92FD
:102FA0009F92AF92BF92CF92DF92EF92FF920F93D8
:102FB0001F93CF93DF93CDB7DEB76B970FB6F8941F
:102FC000DEBF0FBECDBF9B8F8A8F5B011A01D22E51
:102FD0001F830E833701C982DC0158962D913C91E5
:102FE00059972115310509F0E6C018968D919C91ED
:102FF0001997681779070CF0CDC11A968D919C919D
:103000001B97481759070CF0C5C18C2C912CFB015C
:1030100026E0C29EE00DF11D1124FB87EA871E16F3
:103020001F060CF0B7C1A40183E0440F551F8A9519
:10303000E1F75D874C87CA01820D931D18161906AA
:103040000CF0A8C157968C91811104C05FEA5D1500
:1030500008F4D394AA8DBB8DED91FC911197028455
:10306000F385E02DCD010995B5E0DB9EC00111246B
:10307000F5013596FF87EE87BB82AA8225019C0168
:103080002A193B09398B288BA101485F5F4F5B8B65
:103090004A8BE889F989E40DF51DE757FA4F5491F9
:1030A000588761013D822C82888580FF13C0AA8DDC
:1030B000BB8DED91FC91B981B13031F40484F5857B
:1030C000E02D2E813F8116C00684F785E02DEE802D
:1030D000FF801AC0EE81FF81E615F705F1F0AA8D99
:1030E000BB8DED91FC91B981B13051F40484F5852B
:1030F000E02D9301A601B2018A8D9B8D09950DC02B
:103100000684F785E02D7301840194014C815D8173
:103110006A817B818A8D9B8D0995E885E695E88794
:10312000FFEFCF1ADF0A2C813D81280D391D3D8329
:103130002C834A895B89C416D50609F0B5CF5FEFA9
:10314000451A550A8A819B81880D991D9B838A8324
:10315000AE85BF854A165B0609F09BCFEE81FF81E5
:10316000E615F70509F4F4C0EA8DFB8DA081B18165
:10317000F981F13079F4B5016B5F7F4F5096ED9195
:10318000FC915197830128E030E0A1018A8D9B8D4D
:103190000995DEC06A857B85681979091E96ED91CF
:1031A000FC911F9773010C851D859401A1018A8DE7
:1031B0009B8D0995CDC0F9013496E491DE1AF90191
:1031C000329685919491B7E0DB9E800D911D11247C
:1031D000F901259134913B8B2A8BFC012591349187
:1031E0002901FC013296C490319634913E87329683
:1031F00014913196D4904981423058F0612E012EBD
:10320000000C77088D2D0D2C000C990B9987888761
:1032100004C019861886612C712CAA8DBB8DED9186
:10322000FC9111970284F385E02DCD010995B981B8
:103230008B2E912C689CC001699C900D789C900D00
:103240001124FC01EA0DFB1DFD87EC871A82712C0D
:10325000612CE12F110FFF0B95012E0F3F1F3B87B4
:103260002A87AC0CB11CA5014E0F5F1F5F8B4E8BE4
:10327000C1018D0D911DD7FC9A95998F888F9E85E0
:10328000691608F065C0862D90E048855985480F7D
:10329000591F489D9001499D300D589D300D1124B6
:1032A000D101A20FB31FB98BA88BEC85FD85FD83DF
:1032B000EC83AA84BB84DA80FA85DF1A288D398DE5
:1032C000280F391F3D8B2C8B8D2D8A0D4E895F89E0
:1032D000A416B506C1F1877041F4C2010196EA89CE
:1032E000FB89E40DF51D74902C0177FE21C0AA8D99
:1032F000BB8DED91FC91B981B13061F40484F58509
:10330000E02D2E813F814C895D89B5018A8D9B8D91
:1033100009950EC00684F785E02DEE80FF808401BC
:103320009401488959896C817D818A8D9B8D09958D
:10333000770CEFEFAE1ABE0A2C813D81280D391DA6
:103340003D832C83C1CF3A813C0D3A83639497CF60
:10335000AA8DBB8DED91FC9111970688F789E02D20
:10336000CD016B960FB6F894DEBF0FBECDBFDF91D7
:10337000CF911F910F91FF90EF90DF90CF90BF9072
:10338000AF909F908F907F906F905F904F903F9005
:103390002F9009946B960FB6F894DEBF0FBECDBF89
:1033A000DF91CF911F910F91FF90EF90DF90CF9021
:1033B000BF90AF909F908F907F906F905F904F9055
:1033C0003F902F9008950F931F93CF93DF9377FF34
:1033D00004C0260F371F60E070E0DC011496CD9129
:1033E000DC911597FB01E20FF31FCE17DF071CF4EA
:1033F0009E01261B370B121613060CF046C0FA016D
:1034000057FD3796DF01E3E0B595A795EA95E1F71B
:10341000AC9FF001AD9FF00DBC9FF00D11246E0F1D
:103420007F1FDC015E96ED91FC915F97E60FF71F21
:103430004770552781E090E001C0880F4A95EAF770
:10344000482F0130110539F078F002301105E9F408
:103450002E0F3F1F13C02E0F3F1FE217F307A9F0D7
:103460008081842B8193F9CF80952E0F3F1FE21727
:10347000F30759F0908198239193F9CFE217F3075E
:1034800021F0808184278193F9CFDF91CF911F9123
:103490000F910895EF92FF920F931F93CF93DF93B5
:1034A000EC0177FDA5C0EC80FD806E157F050CF06A
:1034B0009FC057FF04C0240F351F40E050E08E81AD
:1034C0009F81FA01E20FF31F8E179F071CF49C01E6
:1034D000241B350B121613060CF08AC0922F842F72
:1034E0008695869586958E9DD0018F9DB00D112471
:1034F0006A0F7B1FAE8DBF8DA60FB71F4770B1F14E
:1035000088E0841B482F682F70E0FB01EF57FA4FCB
:10351000E491281798F4621B71092FEF30E002C084
:10352000359527956A95E2F7E2230130110549F0B8
:1035300078F00230110509F05BC00EC001301105B2
:1035400019F48C91E82B0AC00130110508F049C02C
:10355000E0958C91E82302C08C91E827EC939417B6
:1035600008F446C02C813D81A20FB31FE92FE41B54
:10357000E830F8F00230110561F48E2F9C9190959F
:103580009C932C813D81A20FB31F88508830B0F7E7
:103590000FC081E00115110509F480E081959E2F8F
:1035A0008C932C813D81A20FB31F98509830C0F7A7
:1035B000E770EE23E9F0F0E0E758FA4FE4910130CC
:1035C000110539F048F00230110591F48C91E8278B
:1035D00006C08C91E82B03C0E0958C91E823EC9316
:1035E00007C00230110509F4B7CFAE0DBF1DBECF25
:1035F000DF91CF911F910F91FF90EF90089590E090
:10360000FC01EB59FA4F2491FC01EF5AFA4F349127
:10361000FC01E35CFA4FE491EE2309F43CC0222361
:1036200039F1233091F038F42130A9F0223001F53E
:1036300084B58F7D12C0273091F02830A1F024305E
:10364000B9F4809180008F7D03C0809180008F77D6
:10365000809380000DC084B58F7784BD09C08091B0
:10366000B0008F7703C08091B0008F7D8093B00051
:10367000F0E0EE0FFF1FED5CFA4FA591B4919FB7FC
:10368000F894611104C08C913095382302C0EC91FC
:103690003E2B3C939FBF08951092AC041092AB0454
:1036A00010928C021092AE0210928A0281E08093F6
:1036B00089021092640261E082E10E94FF1A61E0D7
:1036C00083E10E94FF1AE9EBF0E080818E7F808326
:1036D00080818D7F808388E48093B80085E4809327
:1036E000BC0083EA95E09093AA048093A90484EA3D
:1036F00095E09093A8048093A7040895CF93DF9357
:1037000090E0FC01EF5AFA4F2491FC01E35CFA4F80
:103710008491882361F190E0880F991FFC01E75D97
:10372000FA4FC591D491FC01ED5CFA4FA591B4918B
:10373000611109C09FB7F8948881209582238883FE
:10374000EC912E230BC0623061F49FB7F89488810E
:10375000322F309583238883EC912E2B2C939FBF9F
:1037600006C08FB7F894E8812E2B28838FBFDF9196
:10377000CF9108958F929F92AF92BF92CF92DF9296
:10378000EF92FF926B017C010E9403164B015C01DA
:10379000C114D104E104F104F1F00E940316DC012C
:1037A000CB0188199909AA09BB09883E9340A10554
:1037B000B10570F321E0C21AD108E108F10888EEE2
:1037C000880E83E0981EA11CB11CC114D104E10431
:1037D000F10419F7DDCFFF90EF90DF90CF90BF900D
:1037E000AF909F908F9008952FB7F89460919F04A9
:1037F0007091A0048091A1049091A2042FBF08951C
:103800001F920F920FB60F9211242F933F938F9315
:103810009F93AF93BF9380919F049091A004A09138
:10382000A104B091A2043091CD0423E0230F2D37E1
:1038300020F40196A11DB11D05C026E8230F0296B4
:10384000A11DB11D2093CD0480939F049093A004EB
:10385000A093A104B093A2048091A3049091A40426
:10386000A091A504B091A6040196A11DB11D80935D
:10387000A3049093A404A093A504B093A604BF91BD
:10388000AF919F918F913F912F910F900FBE0F900D
:103890001F901895CF93DF93EC01988188818E7FDC
:1038A000888388818D7F888390FF03C0CE010E942A
:1038B000140D8BA19CA1009769F11CA21BA2EF8D96
:1038C000F8A1A9A1BAA1309799F4109749F4DC01A5
:1038D00011961C921E9213961C921E9212971AC059
:1038E00090961C921E925F97FC01B183A08312C038
:1038F000109741F412A211A2DC011396FC93EE93EF
:10390000129708C0B2A3A1A3A9A1BAA19096FC9353
:10391000EE935F97DF91CF91089587E793E00E9440
:103920004A1C8CE993E00E944A1C81EC93E00E94BF
:103930004A1C80913D0490913E040E94482E809143
:103940004304909144040E94482E88E391E09093B0
:1039500062048093610480917F04909180040097B9
:1039600011F00C94482E08950F931F93CF93DF937B
:10397000EC018BA19CA181579340F9F081E793E082
:103980009CA38BA38091710390917203892B39F4CE
:10399000D0937203C093710318A21F8E08C0E091E8
:1039A0007303F0917403F8A3EF8FD2A3C1A31AA2FB
:1039B00019A2D0937403C0937303ABA1BCA1109759
:1039C000D9F11D8A1E8A1F8A188EEB8DFC8D3097C7
:1039D00079F1888181FD2CC014960D911C91159769
:1039E0001596DC93CE93149788818260888309951D
:1039F000988180FB90F9988388818D7F8883EBA1E3
:103A0000FCA1158304830E94F41B09811A812B8178
:103A10003C810D831E832F833887DC01CB01801B03
:103A2000910BA20BB30B89879A87AB87BC8704C025
:103A3000888181608883E7CFDF91CF911F910F91BB
:103A40000895CF93DF93CDB7DEB7E5970FB6F8941F
:103A5000DEBF0FBECDBF789484B5826084BD84B5CF
:103A6000816084BD85B5826085BD85B5816085BD79
:103A700080916E00816080936E0010928100809131
:103A800081008260809381008091810081608093B9
:103A90008100809180008160809380008091B100DE
:103AA00084608093B1008091B00081608093B00009
:103AB00080917A00846080937A0080917A0082609D
:103AC00080937A0080917A00816080937A0080915F
:103AD0007A00806880937A001092C10062E082E0F0
:103AE0000E947E1B80917F0490918004892B11F5A8
:103AF0002091670430916804C901079697FD0796E5
:103B0000B3E095958795BA95E1F7209165043091DA
:103B10006604AC01429FC001439F900D529F900DDF
:103B200011240E94B02D9093800480937F04892BF0
:103B300009F4FFCF0E945F1520916704309168045B
:103B4000809165049091660421323105A4F0B90199
:103B50006054710977FF02C06F5F7F4F759567955D
:103B60008255910997FD019600E410E022E530E0CE
:103B700049E652E013C0B9016052710977FF02C0F3
:103B80006F5F7F4F759567958357910997FD0196F4
:103B900000E210E023E730E049E850E09595879592
:103BA0000E946A1682E08093820480917D04909145
:103BB0007E04892B31F08CE3809381040E944C1B9E
:103BC000BEC061E0809186040E947E1B61E080910E
:103BD00087040E947E1B80918604082E000C990B9E
:103BE000FC01E35CFA4FE491F0E0EE0FFF1FED5CA7
:103BF000FA4F2591349130938E0420938D04FC016B
:103C0000EF5AFA4FE491E093930480918704082ED1
:103C1000000C990BFC01E35CFA4FE491F0E0EE0F2D
:103C2000FF1FED5CFA4FA591B491B0939004A0935F
:103C30008F04FC01EF5AFA4FE491E09394048C91C5
:103C4000E82BEC9380917B0490917C04892B09F400
:103C500034C01FB7F89480916202811127C0E7E455
:103C6000F5E08491EBE5F5E09491E82FF0E0EE0FBC
:103C7000FF1FE75DFA4FA591B491EC91E92321F480
:103C800061E08AE00E94FF1A61E08AE00E947E1BE8
:103C90008CB580618CBD8CB580648CBD61E08DE09D
:103CA0000E947E1B61E08BE00E947E1B809162027D
:103CB0008F5F809362021FBF42C061E080918404E5
:103CC0000E947E1B61E0809185040E947E1B809192
:103CD0008404082E000C990BFC01E35CFA4FE4917C
:103CE000F0E0EE0FFF1FED5CFA4F25913491309319
:103CF0008A0420938904FC01EF5AFA4FE491E0937F
:103D0000910480918504082E000C990BFC01E35C62
:103D1000FA4FE491F0E0EE0FFF1FED5CFA4FA59132
:103D2000B491B0938C04A0938B04FC01EF5AFA4F2A
:103D3000E491E09392048C91E095E823EC938091D8
:103D4000880487FD1EC061E00E947E1B61E08091B7
:103D500088040E94FF1A61E070E080E090E00E9419
:103D6000BA1B60E0809188040E94FF1A6AE070E04C
:103D700080E090E00E94BA1B61E0809188040E947C
:103D8000FF1A80917D0490917E04892BD1F02091BF
:103D90009704309198044091990450919A0460E0FE
:103DA00074E284EF90E00E94262CDA01C90140976A
:103DB000A109B109B695A795979587958093B80005
:103DC00016C080917B0490917C04892B31F0809106
:103DD0009504909196040E94BF12E0918F04F09197
:103DE000900490818091940480958923808364E07D
:103DF00085E890E00E948A1360916704615081E633
:103E000094E00E94611264E081E890E00E948A13CD
:103E100080918204813011F064E101C060E181E6AB
:103E200094E00E94611264E08DE790E00E948A13A2
:103E3000809165049091660480389105E9F4809141
:103E40006704909168048032910531F464E089E759
:103E500090E00E948A1329C08034910531F563E017
:103E600086E790E00E948A1380918204813011F0ED
:103E70006FEC17C06FE915C080369105B1F48091E1
:103E8000670490916804409781F463E083E790E0D1
:103E90000E948A1380918204813011F06FEA01C080
:103EA00060E181E694E00E94611269ED81E694E0B0
:103EB0000E94611280918204813011F061EF01C093
:103EC00062E281E694E00E94611266E08DE690E095
:103ED0000E948A1380917D0490917E04892BD1F0F9
:103EE00020919B0430919C0440919D0450919E042C
:103EF00060E074E284EF90E00E94262CDA01C901B0
:103F00004097A109B109B695A79597958795809394
:103F1000B80011C0E0918F04F091900490818091DD
:103F20009404892B808380917B0490917C04892B5D
:103F300011F00E9459126FEC71E083E494E00E944A
:103F40001F110E943B0B84ED91E00E94600D0E94C6
:103F50003B0BE091BF02F091C00282E08083E091D0
:103F6000BB02F091BC021082E091BD02F091BE0252
:103F700080E180831092C702E091C302F091C402F5
:103F800086E08083E091C102F091C202808180616D
:103F90008083E091C102F091C202808188608083B9
:103FA000E091C102F091C202808180688083E0913B
:103FB000C102F091C20280818F7D808380EE91E00A
:103FC0000E94600D0E943B0B0E944C1B0E945F2AC6
:103FD000803A59F068EE73E080E090E00E94BA1BEE
:103FE0000E945F2A803A09F098C080E090E00E9429
:103FF0008A2A60E28FE390E00E94342A0E945F2ABE
:10400000803A39F06AE070E080E090E00E94BA1BEC
:10401000F5CF62E370E080E090E00E94BA1B60E0C0
:104020008EE390E00E94342A6AE070E080E090E045
:104030000E94BA1B60E087E090E00E94342A60E0B2
:104040008FE390E00E94342A6AE070E080E090E024
:104050000E94BA1B8CE090E00E948A2A64E170E022
:1040600080E090E00E94BA1B68EE73E080E090E090
:104070000E94BA1B009153041091540480E090E018
:104080000E948A2A69E170E080E090E00E94BA1BF9
:1040900060E087E090E00E94342A60E88FE390E0DF
:1040A0000E94342A6AE070E080E090E00E94BA1B2F
:1040B000C8010E948A2A64E170E080E090E00E94DA
:1040C000BA1B8CE791E00E94600D0E943B0B80912F
:1040D0003A048C3008F054C061E086E00E947E1BF8
:1040E00080913A04E82FF0E09F01220F331FE20F86
:1040F000F31FE45BFC4F9081907C9660908310925C
:104100003B0410923C046CE00E94572C5CE0859FBD
:10411000B001112440E050E006C0FFCF4F5F5F4F79
:104120004C30510579F09B01240F351FF901EE0F3A
:10413000FF1F2E0F3F1FF901E45BFC4F908196FF9C
:10414000EDCF11C081110FC01092800082E08093EA
:1041500081001092850010928400B19A80916F00C6
:10416000826080936F00E0913A04F0E0CF01880F05
:10417000991FE80FF91FE45BFC4F80818064808306
:104180008AE590E00E947F151092EE031092EF03F3
:104190001092F0031092F1031092E6031092E703DD
:1041A0001092E8031092E903412C512C9CE8692EEF
:1041B00092EC792E409224045092250460922604B9
:1041C00070922704C12CD12C2CE8E22E22E4F22E8E
:1041D000C0922804D0922904E0922A04F0922B0481
:1041E00080912C040091100410911104D8018D903D
:1041F0009D90AD90BC90882309F44FC0A701960113
:10420000C501B4010E94A62D181634F4F801C0822D
:10421000D182E282F38210C020E030E04CE852EC20
:10422000C501B4010E94992A87FF06C0D8014D92AA
:104230005D926D927C92139780901804909019046F
:10424000A0901A04B0901B04C0902804D0902904B8
:10425000E0902A04F0902B04A7019601C501B40157
:104260000E94A62D181684F0C0902404D090250436
:10427000E0902604F0902704A7019601C501B4013F
:104280000E94992A87FF3DC0C0921804D092190459
:10429000E0921A04F0921B0434C0809218049092A9
:1042A0001904A0921A04B0921B04E0910E04F0913C
:1042B0000F0480819181A281B38180931C0490932B
:1042C0001D04A0931E04B0931F0420E030E04CE8CE
:1042D00052E4C501B4010E94A62D1816ACF220E0EC
:1042E00030E04CE852ECC501B4010E94992A87FFE6
:1042F00008C0409218045092190460921A047092F7
:104300001B0481E080932C046091200470912104AF
:1043100080912204909123040E949E2A9B01AC016B
:1043200060E070E088E493E40E94FE2C6B017C0165
:104330009B01AC016091020470910304809104041C
:10434000909105040E94FF2A609302047093030475
:104350008093040490930504A701960160910604DC
:104360007091070480910804909109040E94FE2C2A
:1043700060930604709307048093080490930904E3
:1043800088EC90E0A0E0B0E08093200490932104BA
:10439000A0932204B093230410927203109271032D
:1043A00010927403109273031092760310927503A7
:1043B00087E793E00E94B41C81EC93E00E94B41C58
:1043C0008CE993E00E94B41C6CE871E083E494E013
:1043D0000E941F1185E092E00E94600D80E8482E47
:1043E0008EE3582E612C712C809171039091720391
:1043F0009093760380937503E0917503F0917603B3
:10440000309709F475C001A112A1808180FF6BC0B3
:1044100085859685A785B089892B8A2B8B2B69F496
:10442000908180818E7F808380818D7F808390FFCB
:104430005AC0CF010E94140D56C00E94F41BE09197
:104440007503F09176032181328143815481818407
:104450009284A384B484C580D680E780F084DC0194
:10446000CB0188199909AA09BB098C159D05AE05D0
:10447000BF05C8F185859685A785B08918161906E8
:104480001A061B065CF485859685A785B089019779
:10449000A109B10985879687A787B08B85899689F9
:1044A000A789B08D0196A11DB11D858B968BA78B19
:1044B000B08FC580D680E780F08481859285A38502
:1044C000B4858C0D9D1DAE1DBF1D81879287A3876E
:1044D000B4872583368347835087018CF28DE02D86
:1044E000309709F00995109376030093750384CFF4
:1044F0008FEA92E00E94C00D03970CF49CC18FEAF2
:1045000092E00E949E0D6C01803491050CF093C1E5
:104510008130910509F052C00E94350D0E94702D26
:104520009B01AC01A0E1B7E20E94DC2BA301920148
:104530000E94BD2BCA01B9010E94A02A20E030E0F0
:1045400048EC52E40E94FE2C20E030E048E452E4C3
:104550000E94912C609356027093570280935802E8
:10456000909359020E94350D4B015C0120E030EC24
:1045700049E754EC0E94992A882309F4C3C0C50175
:10458000B4010E94702D9B01AC01A4EBB0E00E942D
:10459000DC2BA30192010E94BD2BCA01B9016A550F
:1045A0007109810991090E94A02A60934E027093BB
:1045B0004F028093500290935102A4C08230910523
:1045C00009F052C00E94350D0E94702D9B01AC0174
:1045D000A0E1B7E20E94DC2BA30192010E94BD2B57
:1045E000CA01B9010E94A02A20E030E048EC52E460
:1045F0000E94FE2C60932E0470932F04809330044D
:104600009093310484E991E00E94600D8091F2035F
:104610009091F303A091F403B091F50380934A02C3
:1046200090934B02A0934C02B0934D02E09036045D
:10463000F09037040091380410913904209132042D
:1046400030913304409134045091350460912E042C
:1046500070912F0480913004909131040E94ED16E6
:1046600041E0409349024EC08330910509F08CC06F
:104670000E94350D0E94702D9B01AC01A0E1B7E2B4
:104680000E94DC2BA30192010E94BD2BCA01B9013B
:104690000E94A02A20E030E048EC52E40E94FE2C68
:1046A0006093320470933304809334049093350400
:1046B0008BE991E00E94600D209132043091330427
:1046C000409134045091350420934A0230934B02B8
:1046D00040934C0250934D02E0903604F090370422
:1046E000009138041091390460912E0470912F04C8
:1046F00080913004909131040E94ED1681E0809306
:104700004902ECC2E6E0CE16D10409F0E7C20E94ED
:10471000350D6B017C0120E030E0A9010E94A62D3F
:1047200087FD89C0C701B6010E94702D9B01AC01B5
:10473000A0E1B7E20E94DC2BA30192010E94BD2BF5
:10474000CA01B9010E94A02A20E030E048EC52E4FE
:104750000E94FE2C6B017C0160930601709307019F
:10476000809308019093090187EB91E00E94600D0E
:10477000C0924A02D0924B02E0924C02F0924D025B
:10478000F1E0F093490257C0049709F070C20E940B
:10479000350D6B017C0120E030E0A9010E94A62DBF
:1047A00087FD49C0C701B6010E94702D9B01AC0175
:1047B000A0E1B7E20E94DC2BA30192010E94BD2B75
:1047C000CA01B9010E94A02A20E030E048EC52E47E
:1047D0000E94FE2C60933604709337048093380453
:1047E0009093390482EA91E00E94600DE0903604D3
:1047F000F09037040091380410913904E0924A0295
:10480000F0924B0200934C0210934D02209132041F
:1048100030913304409134045091350460912E045A
:1048200070912F0480913004909131040E94ED1614
:1048300091E090934902BE016F5F7F4F89E494E05D
:104840000E94300FC98CDA8CEB8CFC8C20915E02BC
:1048500030915F024091600250916102C701B60140
:104860000E94992A811110C020915A0230915B0256
:1048700040915C0250915D026D8D7E8D8F8D98A16F
:104880000E94992A8823E1F0C0925E02D0925F02D2
:10489000E0926002F09261028D8D9E8DAF8DB8A185
:1048A00080935A0290935B02A0935C02B0935D02E6
:1048B000C092EE03D092EF03E092F003F092F10386
:1048C0008091560290915702A0915802B0915902DE
:1048D0008093E6039093E703A093E803B093E90382
:1048E00080912C04882309F44DC10E94F41B6DA70C
:1048F0007EA78FA798AB8091140490911504A09186
:104900001604B09117044DA55EA56FA578A9481BA4
:10491000590B6A0B7B0B8091200490912104A0918C
:104920002204B0912304481759076A077B0708F44B
:1049300029C1E0910E04F0910F0480819181A28140
:10494000B38189A79AA7ABA7BCA7E0911204F09105
:1049500013049C01AD0160817181828193810E9469
:10496000912C4B015C0120911C0430911D0440915D
:104970001E0450911F0469A57AA58BA59CA50E94D1
:10498000912C6B017C012091020430910304409131
:10499000040450910504C501B4010E94FF2A20912E
:1049A00018043091190440911A0450911B040E947C
:1049B000922C6DA37EA38FA398A760931804709385
:1049C000190480931A0490931B0490912D0499ABC1
:1049D00091111CC02091FE033091FF03409100040F
:1049E00050910104C701B6010E94FF2A9B01AC014E
:1049F0006DA17EA18FA198A50E94912C60931804AF
:104A00007093190480931A0490931B0480911804E6
:104A100090911904A0911A04B0911B048DA39EA338
:104A2000AFA3B8A7109128040091290430902A045C
:104A300020902B04212F302F432D522DBC01CD016E
:104A40000E94A62D18162CF4812F902FA32DB22D85
:104A50001AC08091240490912504A0912604B0915D
:104A600027048AAB9BABACABBDAB9C01AD016DA188
:104A70007EA18FA198A50E94992A87FF0CC08AA9C0
:104A80009BA9ACA9BDA98093180490931904A09385
:104A90001A04B0931B0499A9992379F02091FE037D
:104AA0003091FF034091000450910104C501B4010D
:104AB0000E94FF2A4B015C0103C0812C912C540100
:104AC0002091060430910704409108045091090494
:104AD000C701B6010E94FF2A9B01AC016091180436
:104AE0007091190480911A0490911B040E94912CDA
:104AF000A50194010E94922C6B017C019B01AC01E9
:104B0000612F702F832D922D0E94992A87FD16C048
:104B1000109124040091250430902604209027044D
:104B2000212F302F432D522DB601C7010E94992A03
:104B300087FD04C01C2D0D2D3E2C2F2CE091100460
:104B4000F0911104812F902FA32DB22D808391839A
:104B5000A283B38389A59AA5ABA5BCA580931C04A9
:104B600090931D04A0931E04B0931F048DA59EA5D1
:104B7000AFA5B8A98093140490931504A0931604CC
:104B8000B0931704C090EA03D090EB03E090EC03DD
:104B9000F090ED032AE939E949E15EE3C701B60186
:104BA0000E94A62D181654F02AE939E949E15EEB76
:104BB000C701B6010E94992A87FF3BC020E030E080
:104BC000A901C701B6010E94A62D1816A4F4A701D9
:104BD0009601609106017091070180910801909102
:104BE00009010E94922C60935202709353028093A9
:104BF00054029093550220E030E0A901C701B601AC
:104C00000E94992A87FF1DC020910601309107015B
:104C10004091080150910901C701B6010E94912CF1
:104C20006093520270935302809354029093550202
:104C300008C0109252021092530210925402109225
:104C400055022091520230915302409154025091EA
:104C5000550260E070E084EB92E40E94912C0E9487
:104C6000702DCB010E947F150E94670EBDCBA5E081
:104C7000CA16D10409F046CD0E94350D0E94702D50
:104C80009B01AC01A0E1B7E20E94DC2BA3019201E1
:104C90000E94BD2BCA01B9010E94A02A20E030E089
:104CA00048EC52E40E94FE2C6B017C0160930201EF
:104CB00070930301809304019093050189EA91E0C8
:104CC0000E94600DC0924A02D0924B02E0924C02C8
:104CD000F0924D02B1E0B0934902ADCDE7E0CE16BF
:104CE000D10409F0A8CD0E94350D6B017C0120E0B4
:104CF00030E0A9010E94A62D87FD9DCDC701B60118
:104D00000E94702D9B01AC01A0E5B6E40E94DC2B53
:104D1000A30192010E94BD2BCA01B9010E94A02AE1
:104D200020E030E048EC52E40E94FE2C0E94702DFE
:104D30006B017C01709301016093000183EC91E0B1
:104D40000E94600DB601DD0C880B990B0E94A02A11
:104D500060934A0270934B0280934C0290934D02F1
:104D600041E04093490267CD4F925F926F927F92EC
:104D70008F929F92AF92BF92CF92DF92EF92FF926B
:104D8000CF931092B2021092B10248EE53E060E06D
:104D900070E04093B3025093B4026093B5027093F5
:104DA000B60284E191E09093B0028093AF0285EC6B
:104DB00090E09093BC028093BB0284EC90E09093CF
:104DC000BE028093BD0280EC90E09093C00280937D
:104DD000BF0281EC90E09093C2028093C10282EC0A
:104DE00090E09093C4028093C30286EC90E090938D
:104DF000C6028093C5021092C8021092C902109296
:104E0000CA021092CB0285E594E0109258041092E9
:104E100057044093590450935A0460935B04709371
:104E20005C0426E231E0309356042093550410923E
:104E300064041092630440E850E050936604409389
:104E4000650420E230E030936804209367045093B7
:104E50006A044093690430936C0420936B041092AD
:104E6000760410926E0410926D04109270041092E9
:104E70006F0421E0209375044FEF5FEF50937404AB
:104E80004093730450937204409371042093770409
:104E90001092780410927A041092790428E331E099
:104EA000309362042093610410927C0410927B047E
:104EB00090937E0480937D041092800410927F046E
:104EC000CFEFC0938404C0938504C0938604C0933D
:104ED000870424E02093880420E520939504109211
:104EE000960440E85AE166E070E0409397045093DE
:104EF00098046093990470939A0440EA56E861E03C
:104F000070E040939B0450939C0460939D047093C5
:104F10009E0422E731E030934A042093490441E0A3
:104F200050E060E070E040934F0450935004609371
:104F300051047093520428E220934C0490934E0441
:104F400080934D041092440410924304109246043E
:104F500010924504109248041092470446E050E035
:104F600060EF71E083E494E00E94DF1010923E0451
:104F700010923D041092400410923F04109242049B
:104F80001092410440E050E065E072E08DE394E06F
:104F90000E94DF10809170038C30A0F491E0980F94
:104FA0009093700380933A0490E0FC01EE0FFF1F92
:104FB0008E0F9F1FFC01E45BFC4F88EB9BE092830C
:104FC000818302C0C0933A04C0903604D090370465
:104FD000E0903804F09039048090320490903304CB
:104FE000A0903404B090350440902E0450902F04CB
:104FF00060903004709031048AEE93E09093110435
:10500000809310048EEE93E090930F0480930E042F
:1050100086EE93E0909313048093120410922C0474
:105020001092240410922504109226041092270452
:1050300080E090E0AFE7B3E48093280490932904E4
:10504000A0932A04B0932B0484E690E0A0E0B0E0A3
:105050008093200490932104A0932204B09323040E
:1050600010920B0410920A0420E030E0A901C30161
:10507000B2010E94992A87FD5AC020E030E0A901C0
:10508000C501B4010E94992A87FD51C020E030E09B
:10509000A901C701B6010E94992A87FD48C081E095
:1050A00090E090930D0480930C0480932D04409223
:1050B000F2035092F3036092F4037092F50380922E
:1050C000F6039092F703A092F803B092F903C0920E
:1050D000FA03D092FB03E092FC03F092FD034092AE
:1050E000FE035092FF0360920004709201042DECC5
:1050F0003CEC4CEC5DE3C501B4010E94FF2A6093D7
:1051000002047093030480930404909305042DEC2F
:105110003CEC4CEC5DE3C701B6010E94FE2C6093B1
:1051200006047093070480930804909309040E9476
:10513000F41BC0902004D0902104E0902204F09051
:105140002304DC01CB018C199D09AE09BF098093B2
:10515000140490931504A0931604B093170480913F
:10516000C1038E7F8093C1038091C1038D7F8093A3
:10517000C1031092CA031092CB031092CC03109279
:10518000CD031092C6031092C7031092C803109269
:10519000C9031092C2031092C3031092C403109269
:1051A000C5031092E1031092E0031092E303109202
:1051B000E2031092E5031092E4031092D6031092DA
:1051C000D7031092D8031092D90383EB99E0909300
:1051D000DB038093DA031092DD031092DC0310925C
:1051E000DF031092DE0388EC882E912CA12CB12CC9
:1051F0008092C2039092C303A092C403B092C503ED
:105200008091C2039091C303A091C403B091C503E0
:105210008093C6039093C703A093C803B093C903B8
:105220000E94F41B6093CA037093CB038093CC035A
:105230009093CD03CC24CA94DC2C7601C092CE038B
:10524000D092CF03E092D003F092D103C092D20368
:10525000D092D303E092D403F092D50380919C03C3
:105260008E7F80939C0380919C038D7F80939C0311
:105270001092A5031092A6031092A7031092A80300
:105280001092A1031092A2031092A3031092A40300
:1052900010929D0310929E0310929F031092A00300
:1052A0001092BC031092BB031092BE031092BD0378
:1052B0001092C0031092BF031092B1031092B20378
:1052C0001092B3031092B4038BED99E09093B60360
:1052D0008093B5031092B8031092B7031092BA03EB
:1052E0001092B90380929D0390929E03A0929F0317
:1052F000B092A00380919D0390919E03A0919F0383
:10530000B091A0038093A1039093A203A093A30361
:10531000B093A4030E94F41B6093A5037093A603AB
:105320008093A7039093A803C092A903D092AA03E5
:10533000E092AB03F092AC03C092AD03D092AE0307
:10534000E092AF03F092B003809177038E7F809359
:105350007703809177038D7F80937703109280038A
:1053600010928103109282031092830310927C03A7
:1053700010927D0310927E0310927F0310927803A7
:105380001092790310927A0310927B031092970384
:1053900010929603109299031092980310929B0317
:1053A00010929A0310928C0310928D0310928E0328
:1053B00010928F038BE39BE0909391038093900373
:1053C00010929303109292031092950310929403FB
:1053D0008092780390927903A0927A03B0927B0333
:1053E0008091780390917903A0917A03B0917B0327
:1053F00080937C0390937D03A0937E03B0937F03FF
:105400000E94F41B60938003709381038093820356
:1054100090938303C0928403D0928503E092860325
:10542000F0928703C0928803D0928903E0928A03A6
:10543000F0928B0310927203109271031092740316
:10544000109273031092760310927503CF91FF9020
:10545000EF90DF90CF90BF90AF909F908F907F9014
:105460006F905F904F9008950F931F93CF93DF93AA
:10547000082F162FC9E4D4E06B818C819D810E9496
:10548000310B8C819D81DC01ED91FC910190F081CB
:10549000E02D602F09958C819D81DC01ED91FC91BF
:1054A0000190F081E02D612F09958C819D810E94F2
:1054B0002E1381E0DF91CF911F910F910895CF932B
:1054C000DF93C9E4D4E06B818C819D810E94310B14
:1054D0008C819D81DC01ED91FC910190F081E02DAA
:1054E00060E009958C819D810E942E1361E08B8183
:1054F0000E9428161092AC048093AB048C819D818D
:10550000DC01ED91FC910284F385E02D0995DF919A
:10551000CF910895E9E4F4E082879387682F8DE3C3
:1055200090E00E94342A6EE170E080E090E00C94FC
:10553000BA1B0E94DB2A08F481E00895E89409C0B0
:1055400097FB3EF490958095709561957F4F8F4FB6
:105550009F4F9923A9F0F92F96E9BB279395F695CC
:10556000879577956795B795F111F8CFFAF4BB0F4A
:1055700011F460FF1BC06F5F7F4F8F4F9F4F16C0AE
:10558000882311F096E911C0772321F09EE8872F38
:10559000762F05C0662371F096E8862F70E060E0F4
:1055A0002AF09A95660F771F881FDAF7880F96956D
:1055B000879597F90895990F0008550FAA0BE0E811
:1055C000FEEF16161706E807F907C0F012161306C5
:1055D000E407F50798F0621B730B840B950B39F405
:1055E0000A2661F0232B242B252B21F408950A266B
:1055F00009F4A140A6958FEF811D811D08950E9499
:10560000122B0C94832B0E94752B38F00E947C2B5C
:1056100020F0952311F00C946C2B0C94722B112418
:105620000C94B72B0E94942B70F3959FC1F3950FA8
:1056300050E0551F629FF001729FBB27F00DB11D16
:10564000639FAA27F00DB11DAA1F649F6627B00DA6
:10565000A11D661F829F2227B00DA11D621F739F8F
:10566000B00DA11D621F839FA00D611D221F749F9D
:105670003327A00D611D231F849F600D211D822FE4
:10568000762F6A2F11249F5750409AF0F1F088230B
:105690004AF0EE0FFF1FBB1F661F771F881F915038
:1056A0005040A9F79E3F510580F00C946C2B0C9450
:1056B000B72B5F3FE4F3983ED4F3869577956795D3
:1056C000B795F795E7959F5FC1F7FE2B880F911D62
:1056D0009695879597F9089597F99F6780E870E008
:1056E00060E008959FEF80EC089500240A94161658
:1056F000170618060906089500240A9412161306C0
:10570000140605060895092E0394000C11F488234D
:1057100052F0BB0F40F4BF2B11F460FF04C06F5F69
:105720007F4F8F4F9F4F089557FD9058440F551F3F
:1057300059F05F3F71F04795880F97FB991F61F013
:105740009F3F79F087950895121613061406551F8A
:10575000F2CF4695F1DF08C0161617061806991FF6
:10576000F1CF86957105610508940895E894BB27EB
:1057700066277727CB0197F90895052E97FB1EF42E
:1057800000940E94D42B57FD07D00E94262C07FCC2
:1057900003D04EF40C94D42B509540953095219520
:1057A0003F4F4F4F5F4F089590958095709561954D
:1057B0007F4F8F4F9F4F08950E94482CA59F900DBB
:1057C000B49F900DA49F800D911D11240895B7FFE3
:1057D0000C94DC2B0E94DC2B821B930B08952F92E0
:1057E0003F924F925F926F927F928F929F92AF9271
:1057F000BF92CF92DF92EF92FF920F931F93CF93BE
:10580000DF93CDB7DEB7CA1BDB0B0FB6F894DEBF54
:105810000FBECDBF09942A88398848885F846E847A
:105820007D848C849B84AA84B984C884DF80EE80C4
:10583000FD800C811B81AA81B981CE0FD11D0FB6CD
:10584000F894DEBF0FBECDBFED010895A1E21A2E80
:10585000AA1BBB1BFD010DC0AA1FBB1FEE1FFF1F14
:10586000A217B307E407F50720F0A21BB30BE40B64
:10587000F50B661F771F881F991F1A9469F76095AB
:105880007095809590959B01AC01BD01CF01089565
:10589000A29FB001B39FC001A39F700D811D112471
:1058A000911DB29F700D811D1124911D0895991BAA
:1058B00079E004C0991F961708F0961B881F7A9507
:1058C000C9F78095089597FB072E16F4009407D02A
:1058D00077FD09D00E94772C07FC05D03EF4909507
:1058E00081959F4F0895709561957F4F0895AA1BEC
:1058F000BB1B51E107C0AA1FBB1FA617B70710F0BB
:10590000A61BB70B881F991F5A95A9F780959095EC
:10591000BC01CD010895EE0FFF1F0590F491E02D1D
:1059200009945058BB27AA270E94A92C0C94832BBA
:105930000E94752B38F00E947C2B20F039F49F3F99
:1059400019F426F40C94722B0EF4E095E7FB0C94FA
:105950006C2BE92F0E94942B58F3BA176207730738
:105960008407950720F079F4A6F50C94B62B0EF475
:10597000E0950B2EBA2FA02D0B01B90190010C015F
:10598000CA01A0011124FF27591B99F0593F50F477
:10599000503E68F11A16F040A22F232F342F4427CF
:1059A000585FF3CF469537952795A795F0405395C7
:1059B000C9F77EF41F16BA0B620B730B840BBAF097
:1059C0009150A1F0FF0FBB1F661F771F881FC2F702
:1059D0000EC0BA0F621F731F841F48F48795779516
:1059E0006795B795F7959E3F08F0B0CF9395880FD0
:1059F00008F09927EE0F9795879508950E94122D2C
:105A00000C94832B0E947C2B58F00E94752B40F045
:105A100029F45F3F29F00C946C2B51110C94B72B97
:105A20000C94722B0E94942B68F39923B1F35523A5
:105A300091F3951B550BBB27AA27621773078407A1
:105A400038F09F5F5F4F220F331F441FAA1FA9F337
:105A500035D00E2E3AF0E0E832D091505040E69525
:105A6000001CCAF72BD0FE2F29D0660F771F881F86
:105A7000BB1F261737074807AB07B0E809F0BB0B79
:105A8000802DBF01FF2793585F4F3AF09E3F51058D
:105A900078F00C946C2B0C94B72B5F3FE4F3983E9A
:105AA000D4F3869577956795B795F7959F5FC9F776
:105AB000880F911D9695879597F90895E1E0660FF7
:105AC000771F881FBB1F621773078407BA0720F070
:105AD000621B730B840BBA0BEE1F88F7E0950895D9
