:100000000C9459050C9481050C9481050C94B5133E
:100010000C94B5130C94B5130C9481050C948105C4
:100020000C9481050C9481050C9481050C94F412B8
:100030000C9481050C9481050C9481050C94810528
:100040000C94831D0C9481050C94C2120C949C1288
:100050000C9481050C9481050C9481050C94810508
:100060000C94F5090C9481052200FF2100DB40A4CB
:10007000A62EAFDA0281DA1281DA02818F2000A186
:10008000C8D300408DAED580A800006000000000FD
:1000900000000000000000000000E0000000000080
:1000A000000000000000000001E00000000000006F
:1000B0000000000000000001F0000000000000004F
:1000C00000000000000003F000000000000000003D
:1000D000000000000007F000000000000000000029
:1000E0000000000007F80000000000000000000011
:1000F0000000000FF800000003C0007E000001E0D7
:10010000007F0FF800000003C000FE000001E000C7
:10011000FFEFF800000003C000FE000001E000FF58
:10012000FFF800000003C000F00000000F007FFE99
:100130007FC0000003C000F00000000F003FFE7F02
:10014000F83FF1FBCFFCFEF3BC3DEFE01FFE7FFF6D
:100150007FFBFFDFFEFEFFBC3DEFE01FC6FFFF7F22
:10016000FBFFDFFEFEFFBC3DEFE00FE3C7FE787B49
:10017000C3DE1EF0FFBC3DEF0007FF87FC787BC3AA
:10018000DE1EF0F83C3DEF0001FFFFF0007BC3C036
:100190001EF0F03C3DEF0001F37FE03FFBC3CFFEDC
:1001A000F0F03C3DEF0003E33F807FFBC3DFFEF058
:1001B000F03C3DEF0007E73C00787BC3DE1EF0F02B
:1001C0003C3DEF0007FFBE00787BC3DE1EF0F03C35
:1001D0003DEF0007FFFE00787BC3DE1EF0F03C3DE4
:1001E000EF000FFFFE007FFBFFDFFEF0F03FFDEFB3
:1001F000E00FFFFF007FFBFFDFFEF0F03FFDEFE0D1
:100200000FF9FF003E79F9CF9EF0F01F3DE7E01FA8
:10021000F1FF0000000000000000000000001F804F
:10022000FF007FFFFFFFFFFFFFFFFFFFE01C007FDE
:10023000007FFFFFFFFEB46D888D18E000001F00F7
:100240007FFFFFFFFE95AD7DB577E000000F007FDB
:10025000FFFFFFFEA5AD9D8D19E0000006007FFFAA
:10026000FFFFFEB5ADEDB57EE000000000000180AF
:1002700000000000000000000003800000000000FB
:100280000000000007C000000000000000000007A0
:10029000C00000000000000000000FC000000000CF
:1002A00000000000001FE00000000000000000004F
:1002B0001FE00000000000000000003FE000000020
:1002C0000000000000003FF00000000000000000FF
:1002D000007FF0000000000000001FF87FF0000029
:1002E00000000000003FFE7FF00000000000000062
:1002F0003FFF7FF0000000000000001FFFFBE00058
:100300000000000000000FFFF9FFC0000000000027
:10031000000FFFF9FFF800000000000007FFF1FFE9
:10032000FF00000000000003FC73FFFF80000000DE
:10033000000001FE3FFFFF80000000000000FF1EE4
:100340000FFF000000000000007FFE1FFC00000007
:10035000000000003FFFFFF8000000000000000F59
:10036000DFFFE0000000000000001F19FFC00000D8
:1003700000000000003F3CFF000000000000000003
:100380007E7CF800000000000000007FFE7C000082
:10039000000000000000FFFFFC0000000000000063
:1003A00000FFFFFE0000000000000000FFFFFE0055
:1003B00000000000000001FFEFFE00000000000050
:1003C0000001FFCFFE0000000000000003FF07FE59
:1003D0000000000000000003FC07FE000000000019
:1003E000000003F003FE0000000000000001800098
:1003F000FE000000000000000000007E0000000081
:100400000000000000003E000000000000000000AE
:10041000000C000000000000078000FC000003C08A
:10042000000000078001FC000003C00000000780FE
:1004300001FC000003C0000000078001E000000094
:100440001E000000078001E00000001E007FE3F7AF
:100450009FF9FDE7787BDFC0FFF7FFBFFDFDFF7869
:100460007BDFC0FFF7FFBFFDFDFF787BDFC0F0F74C
:1004700087BC3DE1FF787BDE00F0F787BC3DE1F013
:10048000787BDE0000F787803DE1E0787BDE007F4F
:10049000F7879FFDE1E0787BDE00FFF787BFFDE196
:1004A000E0787BDE00F0F787BC3DE1E0787BDE00A2
:1004B000F0F787BC3DE1E0787BDE00F0F787BC3DDC
:1004C000E1E0787BDE00FFF7FFBFFDE1E07FFBDFCF
:1004D000C0FFF7FFBFFDE1E07FFBDFC07CF3F39FD0
:1004E0003DE1E03E7BCFC0000000000000000000C6
:1004F0000000FFFFFFFFFFFFFFFFFFFFC0FFFFFF49
:10050000FFFD68DB111A31C0FFFFFFFFFD2B5AFB17
:100510006AEFC0FFFFFFFFFD4B5B3B1A33C0FFFFDD
:10052000FFFFFD6B5BDB6AFDC05353443133303654
:1005300020616C6C6F636174696F6E206661696CB9
:10054000656400000103070F1F3F7F0080C0E0F0DB
:10055000F8FCFE00000000003E5B4F5B3E3E6B4F30
:100560006B3E1C3E7C3E1C183C7E3C181C577D5745
:100570001C1C5E7F5E1C00183C1800FFE7C3E7FFF1
:100580000018241800FFE7DBE7FF30483A060E2684
:1005900029792926407F050507407F05253F5A3CDC
:1005A000E73C5A7F3E1C1C08081C1C3E7F14227F1F
:1005B00022145F5F005F5F06097F017F00668995F7
:1005C0006A606060606094A2FFA29408047E0408E0
:1005D00010207E201008082A1C08081C2A08081E63
:1005E000101010100C1E0C1E0C30383E3830060E49
:1005F0003E0E06000000000000005F000000070043
:100600000700147F147F14242A7F2A1223130864FE
:100610006236495620500008070300001C224100A2
:100620000041221C002A1C7F1C2A08083E080800E2
:100630008070300008080808080000606000201082
:100640000804023E5149453E00427F40007249493C
:1006500049462141494D331814127F10274545451D
:10066000393C4A494931412111090736494949363E
:10067000464949291E0000140000004034000000D3
:100680000814224114141414140041221408020105
:100690005909063E415D594E7C1211127C7F494931
:1006A00049363E414141227F4141413E7F494949CE
:1006B000417F090909013E414151737F0808087FC4
:1006C00000417F41002040413F017F081422417FCB
:1006D000404040407F021C027F7F0408107F3E4163
:1006E00041413E7F090909063E4151215E7F0919BA
:1006F0002946264949493203017F01033F404040D2
:100700003F1F2040201F3F4038403F6314081463C0
:1007100003047804036159494D43007F414141027C
:1007200004081020004141417F04020102044040BE
:10073000404040000307080020545478407F28447C
:1007400044383844444428384444287F3854545466
:100750001800087E090218A4A49C787F0804047875
:1007600000447D40002040403D007F1028440000B0
:10077000417F40007C047804787C08040478384485
:10078000444438FC1824241818242418FC7C080439
:100790000408485454542404043F44243C4040205A
:1007A0007C1C2040201C3C4030403C442810284405
:1007B0004C9090907C4464544C44000836410000B6
:1007C00000770000004136080002010204023C26C6
:1007D00023263C1EA1A161123A4040207A3854548D
:1007E0005559215555794122545478422155547810
:1007F0004020545579400C1E5272123955555559A6
:10080000395454545939555454580000457C4100CA
:1008100002457D420001457C407D1211127DF02889
:100820002528F07C545545002054547C547C0A09FA
:100830007F4932494949323A4444443A324A484865
:10084000303A4141217A3A42402078009DA0A07D73
:100850003D4242423D3D4040403D3C24FF2424482F
:100860007E4943662B2FFC2F2BFF0929F620C088D9
:100870007E090320545479410000447D41304848AA
:100880004A32384040227A007A0A0A727D0D1931C4
:100890007D2629292F28262929292630484D402020
:1008A000380808080808080808382F10C8ACBA2FFC
:1008B000102834FA00007B000008142A14222214A5
:1008C0002A14085500550055AA55AA55AAFF55FFE8
:1008D00055FF000000FF00101010FF00141414FF5B
:1008E000001010FF00FF1010F010F0141414FC00A2
:1008F0001414F700FF0000FF00FF1414F404FC14AC
:100900001417101F10101F101F1414141F001010A4
:1009100010F0000000001F101010101F1010101019
:10092000F010000000FF101010101010101010FF39
:1009300010000000FF140000FF00FF00001F101750
:100940000000FC04F414141710171414F404F40039
:1009500000FF00F714141414141414F700F71414FF
:1009600014171410101F101F141414F4141010F086
:1009700010F000001F101F0000001F14000000FCFA
:10098000140000F010F01010FF10FF141414FF14E6
:100990001010101F00000000F010FFFFFFFFFFF01D
:1009A000F0F0F0F0FFFFFF0000000000FFFF0F0F6E
:1009B0000F0F0F3844443844FC4A4A4A347E02023E
:1009C0000606027E027E0263554941633844443C78
:1009D00004407E201E2006027E020299A5E7A5990A
:1009E0001C2A492A1C4C7201724C304A4D4D303041
:1009F00048784830BC625A463D3E494949007E012C
:100A000001017E2A2A2A2A2A44445F444440514A4A
:100A1000444040444A51400000FF0103E080FF0091
:100A20000008086B6B083612362436060F090F06CD
:100A3000000018180000001010003040FF010100F5
:100A40001F01011E00191D1712003C3C3C3C000018
:100A50000000000000000023002600290000000024
:100A600000250028002B00040404040404040402EC
:100A7000020202020203030303030301020408103B
:100A80002040800102040810200102040810200008
:100A9000000000240027002A0000000008000201D6
:100AA0000000030407000000000000000000972879
:100AB000101E11241FBECFEFD8E0DEBFCDBF12E065
:100AC000A0E0B1E0E8E8F2E602C005900D92A43B98
:100AD000B107D9F725E0A4EBB2E001C01D92AA3B13
:100AE000B207E1F715E0C8E5D5E004C02197FE01A3
:100AF0000E94002EC735D107C9F70E94991E0C9499
:100B000037310C9400000895FC016370658B84817B
:100B1000958126813781613039F0633029F09187E2
:100B2000808733872287089531872087938782873C
:100B300008956F927F928F929F92AF92BF92CF92C1
:100B4000DF92EF92FF920F931F93CF93DF93EC010D
:100B50004B015A0169013801E881F9810284F3856A
:100B6000E02D0995E881F9810288F389E02D87015C
:100B70009601A501B401CE010995A501460D571DA9
:100B800041505109E881F9810288F389E02D9601ED
:100B9000B401CE010995E881F9810088F189E02D41
:100BA0009301A501B401CE010995C80CD91CB60169
:100BB00061507109E881F9810088F189E02D930184
:100BC000A501CE010995E881F9810688F789E02D14
:100BD000CE01DF91CF911F910F91FF90EF90DF90A9
:100BE000CF90BF90AF909F908F907F906F9009941F
:100BF0008F929F92AF92BF92CF92DF92EF92FF922D
:100C00000F931F93CF93DF934C016B015A01E901BE
:100C1000DC01ED91FC916217730781F4041715074D
:100C200024F48B2D5801042F182F0A191B09980141
:100C30002F5F3F4F048CF58DE02D12C040175107F8
:100C400009F52617370724F48D2D6901C62FD82FF3
:100C50009E012C193D092F5F3F4F068CF78DE02D2B
:100C60008701A501B601C4010995DF91CF911F91BC
:100C70000F91FF90EF90DF90CF90BF90AF909F903B
:100C80008F9008950284F385E02D0995D401ED91AC
:100C9000FC910488F589E02D9E01A501B601C401EF
:100CA0000995D401ED91FC910688F789E02DC401E6
:100CB000DF91CF911F910F91FF90EF90DF90CF9038
:100CC000BF90AF909F908F900994EF92FF920F93F7
:100CD0001F93DC011A960D911C911B9718962D916C
:100CE0003C911997ED91FC9100A0F1A1E02D7B01C1
:100CF00040E050E060E070E009951F910F91FF9097
:100D0000EF9008954F925F926F927F928F929F9291
:100D1000AF92BF92CF92DF92EF92FF920F931F9309
:100D2000CF93DF936C012B015A0139014801DC019B
:100D3000ED91FC910284F385E02D0995E201640CAC
:100D4000751CD601ED91FC91C615D7055CF40088A1
:100D5000F189E02D87019401A501BE01C601099525
:100D60002196EFCF0688F789E02DC601DF91CF915C
:100D70001F910F91FF90EF90DF90CF90BF90AF90B9
:100D80009F908F907F906F905F904F9009948F927B
:100D90009F92AF92BF92CF92DF92EF92FF920F930A
:100DA0001F93CF93DF93EC015B014A016901E88156
:100DB000F9810284F385E02D099595012C0D3D1DE7
:100DC00021503109E881F9810488F589E02D780105
:100DD0008401A401B501CE010995E881F981068855
:100DE000F789E02DCE01DF91CF911F910F91FF90F8
:100DF000EF90DF90CF90BF90AF909F908F9009942D
:100E00008F929F92AF92BF92CF92DF92EF92FF921A
:100E10000F931F93CF93DF93EC015B014A016901AC
:100E20007801E881F9810284F385E02D0995C80CE9
:100E3000D91C860101501109E881F9810488F589DE
:100E4000E02D9501A401B501CE010995E881F98154
:100E50000688F789E02DCE01DF91CF911F910F9188
:100E6000FF90EF90DF90CF90BF90AF909F908F90CA
:100E70000994EF92FF920F931F93DC01ED91FC9187
:100E800000A0F1A1E02D09951F910F91FF90EF9027
:100E900008950F931F93DC01ED91FC91068CF78D63
:100EA000E02D09951F910F9108950F931F93DC0179
:100EB000ED91FC91048CF58DE02D09951F910F911A
:100EC0000895DC01ED91FC910084F185E02D0994F9
:100ED0002F923F924F925F926F927F928F929F924A
:100EE000AF92BF92CF92DF92EF92FF920F931F9338
:100EF000CF93DF9300D000D000D0CDB7DEB72C0168
:100F00007E836D836A015901C801FC82EB8248012E
:100F1000841A950A97FE03C0919481949108350133
:100F20002D813E81621A730A77FE03C07194619429
:100F30007108681479045CF43A2D2B2D5C01832F21
:100F4000922F3D812E81DE82CD82C32ED22EAD81A5
:100F5000BE81AA16BB065CF43C2D2D2D6C01832F9F
:100F6000922F3D812E81BE82AD82A32EB22E8501AD
:100F70002D813E81021B130B1C012C183D0837FEEE
:100F800003C0319421943108780117FF03C03FEF6B
:100F9000E31AF30AF594E794C816D9062CF08FEFFC
:100FA0009FEF9A83898304C0A1E0B0E0BA83A9834C
:100FB0002D813E81A216B30624F1D201ED91FC9160
:100FC0000484F585E02D2B813C816814790424F498
:100FD0004D815E81B60103C0A6016D817E81C20193
:100FE0000995E218F308F7FE06C029813A81C20E7E
:100FF000D31EE00EF11E8D819E8101969E838D830E
:10100000D7CF26960FB6F894DEBF0FBECDBFDF91C7
:10101000CF911F910F91FF90EF90DF90CF90BF90F5
:10102000AF909F908F907F906F905F904F903F9088
:101030002F90089585ED8093BC008091BC0084FDC5
:10104000FCCF1092A20308954091D402262F30E0E5
:10105000240F311D21323105DCF42091A20324300C
:10106000C9F4FC0180E090E0861758F43091D40276
:101070002191DC01AC54BD4FA30FB11D2C930196FF
:10108000F3CF8091D402680F6093D40280E008957A
:1010900081E0089582E0089508950895E0915B034A
:1010A00080915A03E81730F4F0E0E45AFC4F808155
:1010B00090E008958FEF9FEF089590915B038091EA
:1010C0005A03981750F4E92FF0E0E45AFC4F2081BE
:1010D00030E09F5F90935B0302C02FEF3FEFC901A9
:1010E000089580915A0390E020915B03821B91093F
:1010F0000895CF92DF92EF92FF920F931F93CF93B9
:10110000DF937C01CB018A012091A303222389F084
:10111000EB016B01C40ED51ECC15DD0569F069919C
:10112000D701ED91FC910190F081E02DC701099567
:10113000F3CF642F0E942408C801DF91CF911F9143
:101140000F91FF90EF90DF90CF900895CF93DF93B2
:101150001F92CDB7DEB769832091A3032223D1F07C
:101160002091C603203240F021E030E0FC013383BF
:10117000228380E090E015C08091A403E82FF0E086
:10118000EB55FC4F998190838F5F8093A4038093EC
:10119000C60305C061E0CE0101960E94240881E0EB
:1011A00090E00F90DF91CF910895089580E090E056
:1011B00008950895AF92BF92CF92EF92FF920F934E
:1011C0001F93CF93DF93EC01262F888D998D009785
:1011D00009F040C06A3059F41D861C862C898E8522
:1011E0009F8538E0239F800D911D112441C06D30F3
:1011F00009F4AAC08E898823C1F03C898C859D851D
:1012000046E0349F800D911D11244885598548176B
:1012100059075CF41D861C868E859F8548E0349FA7
:10122000800D911D11249F878E87EA88FB8808898D
:1012300019894E855F856C857D85CC88CE010E949D
:10124000FD182C898C859D8536E0239F800D911D8E
:10125000112442C06A3079F41D861C862C89FC0159
:101260003696E4918E859F852E9F800D911D1124C9
:101270009F878E8769C06D3009F466C0FC01349683
:101280003491631708F460C03196E491E61708F4CE
:101290005BC0FC01329665917491422F50E0431B74
:1012A000510937E0349F5001359FB00C1124A60E30
:1012B000B71EF501329634913196E491332311F043
:1012C000E1110DC0F5013496E4912C898C859D8542
:1012D000E29F800D911D11249D878C8735C0F501FB
:1012E000359644915E89552311F16C89E32FF0E026
:1012F000E40FF11D47FDFA956E9FD0016F9FB00D71
:1013000011244C855D854A0F5B1FE885F985E4173C
:10131000F5076CF41D861C86FC013696E4918E85DB
:101320009F856E9F800D911D11249F878E87EA886F
:10133000FB88088919894E855F856C857D85CC88F9
:10134000CE010E94FD18BECF81E090E0DF91CF91E9
:101350001F910F91FF90EF90CF90BF90AF900895A5
:101360000C94BD2FCF9361E087EC93E00E943A0E7E
:1013700020E030E048EC52E46091100370911103DA
:1013800080911203909113030E94742C0E94E52E09
:101390009B01AC01285D3C4D4F4F5F4FA0E8BEE381
:1013A0000E94512D20E536E440E050E00E94322DAD
:1013B000C90160EC70E00E94D82DC82F605C87ECFA
:1013C00093E00E943A0E60E46C0F87EC93E0CF91BB
:1013D0000C943A0E08958EBD00000DB407FEFDCFAB
:1013E0008EB508958CBD9DBD08951F920F920FB6C6
:1013F0000F9211242F933F934F935F936F937F939B
:101400008F939F93AF93BF93EF93FF938091B90016
:10141000887F803609F49CC068F5883209F45BC087
:1014200090F4803109F454C038F4882309F4F6C0EC
:10143000883009F44DC0F6C0883109F44CC08032C0
:1014400009F45DC0EFC0803409F468C048F480330B
:1014500009F455C0883309F0E5C08093A003D8C0D3
:10146000803509F44FC0883509F45DC0883409F02F
:10147000D9C0D6C0883909F4C7C0A8F4883709F4A0
:1014800067C038F4883609F463C0803709F460C057
:10149000C9C0883809F4B8C0803909F45FC0803801
:1014A00009F0C0C05BC0803B09F486C038F4803AC4
:1014B00009F466C0883A09F47FC0B4C0803C09F4DE
:1014C000A7C0883C09F4A4C0883B09F48AC0AAC01C
:1014D00080917D0310C090919F0380919E03981787
:1014E00070F5E0919F0381E08E0F80939F03F0E001
:1014F000E258FC4F80818093BB0085EC86C08093CE
:10150000A0038EC0E0919F0381E08E0F80939F0324
:101510008091BB00F0E0E258FC4F808390919F03E4
:1015200080919E036EC0E0919F0381E08E0F8093B7
:101530009F038091BB00F0E0E258FC4F80838091D4
:10154000A10381116DC081E080937C0384EA61C0B6
:1015500083E08093A2031092F602CFCF8091F6022F
:10156000803208F051C0E091F60281E08E0F809346
:10157000F6028091BB00F0E0EA52FD4F8083BDCFC0
:1015800085EC8093BC001092A2038091F602803219
:1015900030F4E091F602F0E0EA52FD4F10826091E3
:1015A000F60270E0E0915603F091570386ED92E069
:1015B00009951092F60236C084E08093A20310923F
:1015C000D5021092D402E0915803F0915903099585
:1015D0008091D402811105C081E08093D4021092E1
:1015E000B402E091D50281E08E0F8093D502F0E045
:1015F000EC54FD4F80818093BB009091D502809187
:10160000D402981708F479CF85E88093BC000AC00B
:1016100085EC8093BC001092A20304C01092A0033A
:101620000E941A08FF91EF91BF91AF919F918F9106
:101630007F916F915F914F913F912F910F900FBECE
:101640000F901F90189581E08093A3036093C503CA
:101650001092A4031092C60308951F93CF93DF93B3
:10166000FC01848D958D009701F1162FEF0160A18B
:101670000E94230B8C8D9D8DDC01ED91FC910190DE
:10168000F081E02D60E009958C8D9D8DDC01ED9160
:10169000FC910190F081E02D612F09958C8D9D8D3D
:1016A000DF91CF911F910C94331CA4A5B5A59C91FB
:1016B00082A9809589238C93828D938D892B31F01B
:1016C000862FDF91CF911F910C94EB0928E030E039
:1016D00080E8A0A5B1A590A9462F482319F04C9108
:1016E000942B03C04C91909594239C93A2A5B3A5F1
:1016F0004C9191A9942B9C93A2A5B3A54C9191A92F
:10170000909594239C9386952150310911F7DF9190
:10171000CF911F910895EF92FF920F931F93CF9354
:10172000DF930E940E1681E08093830580938605E7
:1017300081E090E0909382058093810590938005ED
:1017400080937F0510927C0510927B0510927E0598
:1017500010927D0582E395E00E94F71510927C05BA
:1017600010927B05C8E0D0E0D0937E05C0937D0544
:101770008CE295E00E94F7158091FB028823A1F08E
:101780008BE490E090937C0580937B05D0937E055D
:10179000C0937D056091FC027091FD028091FE0274
:1017A0009091FF020E94DE1455E0E52EF12CF0929C
:1017B0007C05E0927B05C0E1D0E0D0937E05C0932C
:1017C0007D05609108037091090380910A0390914F
:1017D0000B030E94DE1406E210E010937C050093D8
:1017E0007B05D0937E05C0937D05609110037091B9
:1017F000110380911203909113030E94DE1480E57F
:1018000090E090937C0580937B05D0937E05C093F8
:101810007D0560910403709105038091060390910A
:1018200007030E94DE14F0927C05E0927B05C8E17C
:10183000D0E0D0937E05C0937D0560910003709148
:10184000010380910203909103030E94DE14109320
:101850007C0500937B05D0937E05C0937D05609148
:101860000C0370910D0380910E0390910F030E9461
:10187000DE1480918B0590918C05892BD1F02091FD
:10188000A5053091A6054091A7055091A80560E0F7
:1018900074E284EF90E00E949B2DDA01C901409729
:1018A000A109B109B695A795979587958093B8003A
:1018B00016C08091890590918A05892B31F080911D
:1018C000A3059091A4050E94F209E0919D05F09175
:1018D0009E0590818091A20580958923808365E093
:1018E00088E690E00E942F146091730561508FE6A6
:1018F00095E00E942D0B2091750530917605C90168
:10190000079697FD079633E0959587953A95E1F709
:101910002091730530917405829F8001839F100D83
:10192000929F100D1124C0918D05D0918E0580914C
:101930008B0590918C050C0F1D1F009709F445C075
:1019400060918F050E94230B80918B0590918C05EF
:10195000DC01ED91FC910190F081E02D60E40995AE
:101960007E01D1E080918B0590918C050E151F05AD
:1019700049F1D032B8F00E94331C60918F058091FC
:101980008B0590918C050E94230B80918B05909183
:101990008C05DC01ED91FC910190F081E02D60E47B
:1019A0000995D1E080918B0590918C05F7016191AB
:1019B0007F01DC01ED91FC910190F081E02D099512
:1019C000DF5FD0CF0E94331C41C0E0919B05F091B6
:1019D0009C0590818091A105892B80830C171D07A0
:1019E000A9F189912091890530918A05232B19F05D
:1019F0000E94EB09F3CF28E030E040E8E091970542
:101A0000F091980590919F05582F542319F050811B
:101A1000952B03C05081909595239083E091990573
:101A2000F0919A0550819091A005952B9083E091BB
:101A30009905F0919A0550819091A0059095952374
:101A40009083469521503109C9F6C8CF80918B0506
:101A500090918C05892BD1F02091A9053091AA0590
:101A60004091AB055091AC0560E074E284EF90E0EA
:101A70000E949B2DDA01C9014097A109B109B695D1
:101A8000A795979587958093B80009C0E0919D052B
:101A9000F0919E0590818091A205892B8083DF9132
:101AA000CF911F910F91FF90EF9008950F931F9387
:101AB000CF93DF93DC015D96ED91FC915E973097BB
:101AC00081F0EC01ABA1BCA114960D911C9115976E
:101AD00015969C938E9314970995EBA1FCA1158301
:101AE0000483DF91CF911F910F9108950895CF93B3
:101AF000DF9387EC93E00E94E00DEC0180349105C8
:101B00002CF460E070EC89E794EC19C087EC93E06A
:101B10000E94E00D80349105A4F3C054D10920EC5B
:101B20002C9FB0012D9F700D112480549109680FD6
:101B3000791F072E000C880B990B0E94152CDF9142
:101B4000CF910895BC018CE295E00C946612CF927F
:101B5000DF92EF92FF920F931F93CF93DF936C016D
:101B60007A018B01C0E0D0E0CE15DF0581F0D8010D
:101B70006D918D01D601ED91FC910190F081E02DE8
:101B8000C6010995892B11F02196EECF7E01C70180
:101B9000DF91CF911F910F91FF90EF90DF90CF9049
:101BA0000895FC01538D448D252F30E0842F90E063
:101BB000821B930B541710F0CF9608950197089548
:101BC000FC01918D828D981761F0828DDF01A80F45
:101BD000B11D5D968C91928D9F5F9F73928F90E067
:101BE00008958FEF9FEF0895FC01918D828D9817D6
:101BF00031F0828DE80FF11D858D90E008958FEF13
:101C00009FEF0895FC01918D228D892F90E0805CDB
:101C10009F4F821B91098F739927089587EC93E05A
:101C20000E94020E21E0892B09F420E0822F089502
:101C3000FC01848DDF01A80FB11DA35ABF4F2C9169
:101C4000848D90E001968F739927848FA689B78938
:101C50002C93A089B1898C91837080648C93938D2F
:101C6000848D981306C00288F389E02D80818F7DD2
:101C700080830895EF92FF920F931F93CF93DF938A
:101C8000EC0181E0888F9B8D8C8D981305C0E889CD
:101C9000F989808185FD26C0F62E0B8D10E00F5F3F
:101CA0001F4F0F731127E02E8C8DE8120CC00FB65A
:101CB00007FCFACFE889F989808185FFF5CFCE014D
:101CC0000E94180EF1CF8B8DFE01E80FF11DE35A33
:101CD000FF4FF0829FB7F8940B8FEA89FB898081D0
:101CE00080620AC09FB7F894EE89FF896083E88913
:101CF000F98980818370806480839FBF81E090E058
:101D0000DF91CF911F910F91FF90EF900895CF93A6
:101D1000DF93EC01888D8823C9F0EA89FB898081F3
:101D200085FD05C0A889B9898C9186FD0FC00FB6C5
:101D300007FCF5CF808185FFF2CFA889B9898C9106
:101D400085FFEDCFCE010E94180EE7CFDF91CF9136
:101D5000089580E090E0892B29F00E940E0E8111F9
:101D60000C94000008952091F9023091FA0228178E
:101D7000390771F49091F7028091F802981741F0B9
:101D8000E091F702F0E0EB5EFC4F808190E0089577
:101D90008FEF9FEF089508951F93CF93DF93DC019A
:101DA0005C968D919C915D97009739F421E030E02D
:101DB00013963C932E9312973BC05196ED91FC9154
:101DC000529750962C915097322F30951FB75E96B0
:101DD0004C915E97742F727041FD6095F89440812C
:101DE000772311F0422B01C043234083EC0121975C
:101DF000F1F748E0508160FF02C0522B01C053232D
:101E00005083EC012197F1F76695415099F7808155
:101E1000772319F08323808302C0282B20831FBFE0
:101E20005C968D919C915D970197F1F781E090E030
:101E3000DF91CF911F9108952091F9023091FA021C
:101E40002817390771F48091F8022091F70290E089
:101E5000805C9F4F821B910960E470E00E94D82D46
:101E6000089580E090E008952091F9023091FA02FF
:101E700028173907B9F49091F7028091F802981762
:101E800089F0E091F702F0E0EB5EFC4F8081209159
:101E9000F70230E02F5F3F4F2F7333272093F70275
:101EA00090E008958FEF9FEF0895FC0177FDB9C092
:101EB00080859185681779070CF0B3C057FDB1C0D4
:101EC00082859385481759070CF0089585898230DB
:101ED00079F484819581DC01A61BB70BBD016150AB
:101EE000710986819781DC01A41BB50BAD010EC081
:101EF000833009F084C064277527CA018627972795
:101F00006827792746815781481B590B4150510951
:101F10002130310531F048F12230310509F44AC051
:101F20000895CA0157FD07969C01A3E035952795B2
:101F3000AA95E1F7A481B5812A9FC0012B9F900D3E
:101F40003A9F900D1124680F791F068CF78DE02DB4
:101F5000E60FF71F4770552781E090E001C0880F1A
:101F60004A95EAF79081892B48C0CA0157FD079628
:101F70009C0193E0359527959A95E1F7A481B58169
:101F80002A9FC0012B9F900D3A9F900D1124680F3E
:101F9000791F068CF78DE02DE60FF71F4770552748
:101FA00081E090E001C0880F4A95EAF78095908122
:101FB000892323C0CA0157FD07969C0183E035950C
:101FC00027958A95E1F7A481B5812A9FC0012B9FAF
:101FD000900D3A9F900D1124680F791F068CF78D94
:101FE000E02DE60FF71F4770552781E090E001C014
:101FF000880F4A95EAF79081892780830895813078
:1020000009F086CF64277527462757276427752749
:1020100084819581DC01A61BB70BBD01615071095C
:1020200077CF08950E940C318F929F92AF92BF920A
:10203000CF92DF92EF92FF920F931F93CF93DF9394
:10204000CDB7DEB762970FB6F894DEBF0FBECDBF37
:102050007C018B0184E2DB011D928A95E9F784E221
:1020600090E0A0E0B0E0FB0180839183A283B38382
:10207000F70186819781A085B185FB0184839583D3
:10208000A683B78383E090E0A0E0B0E080879187EB
:10209000A287B3870E94771DD80150966D937D93D8
:1020A0008D939C935397FE0131968CE0DF011D9236
:1020B0008A95E9F76E01BDE0CB0ED11C86E0F601F2
:1020C00011928A95E9F7D70113966C91139714969C
:1020D0008D919C9115970E94230BF7018481958126
:1020E000DC01ED91FC910190F081E02D6AE1099510
:1020F000F701848195810E94331C66E0D701139615
:102100008C910E94FF1610925B0380935A035E012C
:10211000B3E1AB0EB11CF70184819581DC01ED9137
:10212000FC910284F385E02D0995F60181936F01FE
:10213000EA15FB0581F76D857E85072E000C880B5F
:10214000990B0E94152C20E030E040E85DE30E94EE
:10215000742C4B015C016F857889072E000C880B6D
:10216000990B0E94152C20E030E040E85DE30E94CE
:10217000742C6B017C0169897A89072E000C880B0D
:10218000990B0E94152C20E030E040E85DE30E94AE
:10219000742CD80154968D929D92AD92BC92579713
:1021A000F801C08ED18EE28EF38E5C966D937D9396
:1021B0008D939C935F9781E062960FB6F894DEBF93
:1021C0000FBECDBFDF91CF911F910F91FF90EF9088
:1021D000DF90CF90BF90AF909F908F9008950F9316
:1021E0001F93CF93DF938C01EB0188E2FB011192E7
:1021F0008A95E9F74BE050E069E972E0CE010E9470
:1022000028311B8681E090E0A0E0B0E08C879D87BC
:10221000AE87BF87F80186819781A085B185888BBD
:10222000998BAA8BBB8B83E090E0A0E0B0E08C8B15
:102230009D8BAE8BBF8B1CA21DA21EA21FA2188E4F
:10224000198E1A8E1B8E1C8E1D8E1E8E1F8E8AE07E
:1022500097EDA3E2BCE388A399A3AAA3BBA3DF9154
:10226000CF911F910F9108951F93CF93DF93EC01AE
:10227000162F8C8D9D8D892BB1F02EA93FA948ADCD
:1022800059AD60E074E284EF90E00E949B2DDA018A
:10229000C9014097A109B109B695A795979587956A
:1022A0008093B8000FC08A8D9B8D892B21F08CA95B
:1022B0009DA90E94F209EEA5FFA590818BA98095AA
:1022C00089238083111102C066EA01C067EACE014A
:1022D0000E942D0B8C8D9D8D892BB1F02AAD3BADCD
:1022E0004CAD5DAD60E074E284EF90E00E949B2D08
:1022F000DA01C9014097A109B109B695A79597954B
:1023000087958093B8000FC0EEA5FFA590818BA99B
:10231000892B80838A8D9B8D892B29F0DF91CF912A
:102320001F910C94EA09DF91CF911F9108950F93AB
:102330001F93CF93DF93DC015596EC915597E230D4
:1023400071F0E330E9F0E13079F5FB0114960D907E
:10235000BC91A02DA41BB50BA21BB30B18C0EC01A4
:10236000EC81FD81E61BF70BBF0161507109EE8125
:10237000FF81DF01A41BB50BAD01421B530B14C041
:10238000DA01EC01EE81FF81E61BF70B3197F7FDD7
:102390000DC0EC014E815F81E417F5073CF4AF01FD
:1023A000BD010E94171B02C00E947E1BDF91CF91CE
:1023B0001F910F9108950F931F93DC015596EC9197
:1023C0005597E23061F0E33009F1E13081F5149680
:1023D000ED91FC911597E41BF50B319723C0DC01BF
:1023E0001496ED91FC911597DF01A61BB70BBD016B
:1023F000DC011696ED91FC911797DF01A41BB50B3C
:10240000AD0141505109621B730B11C0FA01DC018F
:1024100016964D915C911797DA01A61BB70BBD017B
:10242000621B730BAB01BF010E947E1B0CC057FDEA
:102430000AC0DC011696ED91FC9117974E175F07C5
:1024400014F40E94171B1F910F910895EF92FF92B1
:102450000F931F93CF93DF93EC017B018A01888157
:102460009981009729F02A813B8124173507F8F4D8
:10247000B8016F5F7F4F0E944630009759F09983F3
:1024800088831B830A832C813D81232B81F4FC01EB
:1024900010820DC088819981009711F00E94BD2F94
:1024A000198218821D821C821B821A8207C01D831A
:1024B0000C83B701888199810E942131CE01DF917F
:1024C000CF911F910F91FF90EF900895CF93DF93DD
:1024D000EC016115710559F0FB0101900020E9F74D
:1024E0003197AF01461B570B0E9426120CC0888102
:1024F0009981009711F00E94BD2F198218821D82C8
:102500001C821B821A82CE01DF91CF910895611542
:10251000710579F0FB0101900020E9F73197AF01D7
:10252000461B570BDC01ED91FC910280F381E02DFD
:10253000099480E090E008951F920F920FB60F92D9
:1025400011242F933F934F935F936F937F938F93B8
:102550009F93AF93BF93EF93FF9387EC93E00E9419
:10256000180EFF91EF91BF91AF919F918F917F9145
:102570006F915F914F913F912F910F900FBE0F90F0
:102580001F9018951F920F920FB60F9211242F9340
:102590008F939F93EF93FF93E091D703F091D8032C
:1025A0008081E091DD03F091DE0382FD12C0908115
:1025B0008091E0038F5F8F732091E103821751F0C8
:1025C000E091E003F0E0E953FC4F958F8093E00346
:1025D00001C08081FF91EF919F918F912F910F907A
:1025E0000FBE0F901F9018951F920F920FB60F926B
:1025F00011242F933F934F935F936F937F938F9308
:102600009F93AF93BF93EF93FF938091550387FF01
:1026100005C010928500109284001BC020915503C4
:10262000022E000C330B8091880490E028173907A4
:1026300084F480915503082E000C990BFC01EE0FD9
:10264000FF1F8E0F9F1FFC01EC59FB4F808186FD01
:1026500015C0809155038F5F8093550320915503DA
:10266000022E000C330B8091880490E02817390764
:10267000C4F4809155038C3064F113C080915503EC
:10268000082E000C990BFC01EE0FFF1F8E0F9F1FF1
:10269000FC01EC59FB4F808160E08F730E94B41CF9
:1026A000D8CF8091840090918500049680349C4915
:1026B00018F480E49CE905C0809184009091850025
:1026C000049690938900809388008FEF8093550340
:1026D0003BC0209184003091850080915503082EE5
:1026E000000C990BFC01EE0FFF1F8E0F9F1FFC01CA
:1026F000EC59FB4F81819281820F931F9093890047
:102700008093880080915503082E000C990BFC01E2
:10271000EE0FFF1F8E0F9F1FFC01EC59FB4F8081B6
:1027200086FF12C080915503082E000C990BFC0106
:10273000EE0FFF1F8E0F9F1FFC01EC59FB4F808196
:1027400061E08F730E94B41CFF91EF91BF91AF9134
:102750009F918F917F916F915F914F913F912F91B9
:102760000F900FBE0F901F9018951F920F920FB6EB
:102770000F9211242F933F934F935F936F937F9307
:102780008F939F93AF93BF93EF93FF93E091F902E1
:10279000F091FA02309709F451C0968DA685B7855D
:1027A000858591FF04C09C91892329F447C09C91A1
:1027B000892309F043C0A389B4899C9185898095B8
:1027C00089238C93868997890197F1F7608D718DA4
:1027D000A685B785558538E020E0CB010197F1F754
:1027E000822F90E095958795282F4C91452309F0ED
:1027F0002068315091F7868D81FD20958091F802F7
:1028000090E001968F7399273091F702381749F0BD
:10281000A091F802B0E0AB5EBC4F2C938093F8021D
:1028200003C0868D8160868F828D938D0197F1F72D
:10283000A389B4899C918589892B8C93FF91EF9111
:10284000BF91AF919F918F917F916F915F914F91C8
:102850003F912F910F900FBE0F901F901895DF9210
:10286000EF92FF920F931F93CF93DF93D82ED92F20
:10287000C62F80918B0590918C05009709F44EC06E
:1028800060918F050E94230B80918B0590918C05A0
:10289000DC01ED91FC910190F081E02D60E0099563
:1028A000ED2CFD2E11E080918B0590918C05CC23B1
:1028B00061F11032B8F00E94331C60918F05809155
:1028C0008B0590918C050E94230B80918B05909134
:1028D0008C05DC01ED91FC910190F081E02D60E030
:1028E000099511E080918B0590918C05F701649119
:1028F000DC01ED91FC910190F081E02D09951F5FC5
:10290000C150BFEFEB1AFB0ACECFDF91CF911F91E1
:102910000F91FF90EF90DF900C94331CE0919B059A
:10292000F0919C0590818091A105809589238083F9
:102930000D2D1D2FCC2309F439C0F801849120916D
:10294000890530918A05232B31F00E94EB09C15093
:102950000F5F1F4FEFCF28E030E040E8E091970590
:10296000F091980590919F05582F542319F05081AC
:10297000952B03C05081909595239083E091990504
:10298000F0919A0550819091A005952B9083E0914C
:102990009905F0919A0550819091A0059095952305
:1029A0009083469521503109C9F6D1CFDF91CF915F
:1029B0001F910F91FF90EF90DF9008952F923F921B
:1029C0004F925F926F927F928F929F92AF92BF923F
:1029D000CF92DF92EF92FF920F931F93CF93DF93EB
:1029E000CDB7DEB7A4970FB6F894DEBF0FBECDBF4C
:1029F0004B015C019B01AC010E94202F882319F040
:102A000060EA72E01AC075016401E894F7F82FEFEC
:102A10003FEF4FE75FE7C701B6010E94202F81110A
:102A200012C02FEF3FEF4FE75FE7C701B6010E94EB
:102A30000E2C181644F464EA72E08FE695E00E94CA
:102A400087128C01B3C02FEF3FEF4FE75FE4C50162
:102A5000B4010E941B2F18161CF468EA72E0EDCF37
:102A60002FEF3FEF4FE75FECC501B4010E940E2C42
:102A700087FDF3CF20E030E0A901C501B4010E9439
:102A80000E2C87FF0BC06DE28FE695E00E94DA08FE
:102A90006C01B7FAB094B7F8B09402C0C12CD12C35
:102AA0002AE037ED43EA5BE3C501B4010E94072E3B
:102AB0004B015C010E94EC2E2B013C010E94132C67
:102AC0009B01AC01C501B4010E94062E4B015C01C3
:102AD00019A27E0181E2E80EF11CEAA2FBA2C30169
:102AE000B2012AE030E040E050E00E949B2D290135
:102AF0003A01605DF70162937F01232B242B252B84
:102B000071F7BF018FE695E00E9487128C016EE29B
:102B10008FE695E00E94DA08800F911F8C010C0D62
:102B20001D1D83E0F82E9AE0292E312C412C512CCA
:102B3000FA94FF20D9F120E030E040E251E4C501F1
:102B4000B4010E94742C4B015C010E94EC2E9B018D
:102B500040E050E019A26AA07BA06CA3C32ED42E43
:102B6000E52ECA01B901A20191010E949B2D605D71
:102B7000F30162933F01211531054105510589F7A4
:102B8000BF018FE695E00E948712080F191F6CA104
:102B90007C2D8D2D9E2D0E94132C9B01AC01C50117
:102BA000B4010E94062E4B015C01C2CF6DEA71E0B8
:102BB0008FE695E00E948712800F911FA4960FB6B2
:102BC000F894DEBF0FBECDBFDF91CF911F910F9163
:102BD000FF90EF90DF90CF90BF90AF909F908F903D
:102BE0007F906F905F904F903F902F900895CF937C
:102BF000DF93FC0144815581608171818FE695E00E
:102C00000E94A70DEC016DEA71E08FE695E00E944D
:102C100087128C0F9D1FDF91CF910895209175052C
:102C200030917605C901079697FD079623E09595A3
:102C300087952A95E1F72091730530917405829F5D
:102C4000A001839F500D929F500D112460E070E011
:102C500080918D0590918E050C941A31CF93DF935E
:102C6000BC0184E495E00E948712EC016DEA71E0FA
:102C700084E495E00E9487128C0F9D1FDF91CF9115
:102C80000895CF92DF92EF92FF92DC01A03282E0B2
:102C9000B8070CF03EC0B7FD06C0A53BB1052CF04F
:102CA000A4EBB0E002C0A0E0B0E080912A0528E8E3
:102CB00030E06901C81AD10887FDD394CC0CDD1C23
:102CC000CC0CDD1C0D2C000CEE08FF0880912B05B0
:102CD00028E532E0281B310987FD3395220F331F89
:102CE000220F331FA901330F660B770B9A01AB013B
:102CF0002C193D094E095F090E945C2D24EB30E040
:102D000040E050E00E94322DC20ED31EE41EF51E9C
:102D1000D601909129059C3098F580912A0548E8C4
:102D200050E0481B510987FD5395440F551F440F30
:102D3000551FA417B5078CF080912B0528E532E0CC
:102D4000281B310987FD3395220F331F220F331FB4
:102D5000AD012A173B070CF4A90142505109440F59
:102D6000551F2FB7F894892F90E0FC01EE0FFF1F3D
:102D70008E0F9F1FFC01EC59FB4F528341832FBFE5
:102D8000FF90EF90DF90CF9008950F931F93CF9314
:102D9000DF93082F162FC8E3D5E06B818C819D81CE
:102DA0000E94230B8C819D81DC01ED91FC910190AF
:102DB000F081E02D602F09958C819D81DC01ED91E2
:102DC000FC910190F081E02D612F09958C819D810E
:102DD0000E94331C81E0DF91CF911F910F910895E4
:102DE000E8E3F5E082879387682F8DE390E00E9407
:102DF000C5166EE170E080E090E00C943D1D90916E
:102E0000A2039111FCCF91E09093A2039093A103B0
:102E10002FEF2093A00310929F03260F20939E0371
:102E200090937D0390917D03880F892B80937D0380
:102E300080917C03813061F410927C0380917D034A
:102E40008093BB008091BC0083FDF8CF85EC01C06E
:102E500085EE8093BC008091A2038130E1F38091E4
:102E60009F03861710F460919F03AEE7B3E0ECE593
:102E7000F3E080E0861721F09D9191938F5FFACF68
:102E80000895CF93DF93C8E3D5E06B818C819D815A
:102E90000E94230B8C819D81DC01ED91FC910190BE
:102EA000F081E02D60E009958C819D810E94331CAA
:102EB00061E08B810E94FF1610925B0380935A039E
:102EC0008C819D81DC01ED91FC910284F385E02DE4
:102ED0000995DF91CF91089510925B0310925A03E8
:102EE0001092A4031092C6031092A20381E0809373
:102EF000A10310927C0361E082E10E94B41C61E0B6
:102F000083E10E94B41CE9EBF0E080818E7F808336
:102F100080818D7F808388E48093B80085E48093EE
:102F2000BC008CE498E090935903809358038DE49F
:102F300098E0909357038093560308953F924F92E1
:102F40005F926F927F928F929F92AF92BF92CF9239
:102F5000DF92EF92FF920F931F93CF93DF9300D0F6
:102F600000D000D0CDB7DEB72C013B014A0159019A
:102F7000C901079697FD07969C0193E03595279523
:102F80009A95E1F73C832B83C12CD12CE12CF12CB9
:102F9000312CC3018E0D9F1D9A838983E016F106A3
:102FA000C4F51E821D822D813E812A153B054CF5FC
:102FB000C90187709927892B11F0330C0EC0ED8160
:102FC000FE81F7FD379683E0F595E7958A95E1F761
:102FD000EC0DFD1DE80DF91D349037FE0CC021E00D
:102FE00030E049815A816D817E81640D751D8FE6C7
:102FF00095E00E9461078D819E8101969E838D835D
:10300000D2CF9FEFE91AF90A2B813C81C20ED31E61
:10301000C0CF26960FB6F894DEBF0FBECDBFDF91AE
:10302000CF911F910F91FF90EF90DF90CF90BF90C5
:10303000AF909F908F907F906F905F904F903F9058
:1030400008954F925F926F927F928F929F92AF926C
:10305000BF92CF92DF92EF92FF920F931F93CF9385
:10306000DF9300D000D0CDB7DEB74B015C01290162
:103070003A016701780120E030E0A9010E940E2C9E
:1030800087FDA6C020E030E0A901C301B2010E9483
:103090000E2C87FD9DC020E030E0A901C701B601DC
:1030A0000E940E2C87FD94C081E02091FF04309196
:1030B00000052130310509F080E0809320058092E1
:1030C000E5049092E604A092E704B092E8044092EE
:1030D000E9045092EA046092EB047092EC04C0920E
:1030E000ED04D092EE04E092EF04F092F0046091CF
:1030F00013057091140580911505909116050E9495
:10310000132C20E030E04AE754E40E94732E6983D8
:103110007A838B839C838092F1049092F204A09234
:10312000F304B092F4049B01AC01C301B2010E940C
:10313000742C2B013C016093F5047093F60480938A
:10314000F7049093F80429813A814B815C81C7018F
:10315000B6010E94732E6B017C016093F904709399
:10316000FA048093FB049093FC048091FD049091F9
:10317000FE04019769F5A501940160E070E0CB01C0
:103180000E94062E6093F1047093F2048093F3047E
:103190009093F404A301920160E070E0CB010E94DF
:1031A000062E6093F5047093F6048093F7049093D1
:1031B000F804A701960160E070E0CB010E94062EA2
:1031C0006093F9047093FA048093FB049093FC04D9
:1031D0000F900F900F900F90DF91CF911F910F9153
:1031E000FF90EF90DF90CF90BF90AF909F908F9027
:1031F0007F906F905F904F9008952F923F924F92E3
:103200005F926F927F928F929F92AF92BF92CF9276
:10321000DF92EF92FF920F931F93CF93DF93CDB77F
:10322000DEB76B970FB6F894DEBF0FBECDBF9B8F96
:103230008A8F5B011A01D22E1F830E833701C98248
:10324000DC0158962D913C9159972115310509F0D3
:10325000E6C018968D919C911997681779070CF024
:10326000CDC11A968D919C911B97481759070CF068
:10327000C5C18C2C912CFB0126E0C29EE00DF11DF6
:103280001124FB87EA871E161F060CF0B7C1A401A4
:1032900083E0440F551F8A95E1F75D874C87CA018B
:1032A000820D931D181619060CF0A8C157968C9123
:1032B000811104C05FEA5D1508F4D394AA8DBB8D1B
:1032C000ED91FC9111970284F385E02DCD010995D4
:1032D000B5E0DB9EC0011124F5013596FF87EE872E
:1032E000BB82AA8225019C012A193B09398B288BB4
:1032F000A101485F5F4F5B8B4A8BE889F989E40D38
:10330000F51DED5AFA4F5491588761013D822C8288
:10331000888580FF13C0AA8DBB8DED91FC91B9818A
:10332000B13031F40484F585E02D2E813F8116C043
:103330000684F785E02DEE80FF801AC0EE81FF81C4
:10334000E615F705F1F0AA8DBB8DED91FC91B981E1
:10335000B13051F40484F585E02D9301A601B2014A
:103360008A8D9B8D09950DC00684F785E02D73012C
:10337000840194014C815D816A817B818A8D9B8D62
:103380000995E885E695E887FFEFCF1ADF0A2C81DB
:103390003D81280D391D3D832C834A895B89C416E4
:1033A000D50609F0B5CF5FEF451A550A8A819B8192
:1033B000880D991D9B838A83AE85BF854A165B065F
:1033C00009F09BCFEE81FF81E615F70509F4F4C003
:1033D000EA8DFB8DA081B181F981F13079F4B501DD
:1033E0006B5F7F4F5096ED91FC915197830128E0E0
:1033F00030E0A1018A8D9B8D0995DEC06A857B85B1
:10340000681979091E96ED91FC911F9773010C853F
:103410001D859401A1018A8D9B8D0995CDC0F9016F
:103420003496E491DE1AF901329685919491B7E0D1
:10343000DB9E800D911D1124F901259134913B8B68
:103440002A8BFC01259134912901FC013296C4900C
:10345000319634913E87329614913196D4904981B9
:10346000423058F0612E012E000C77088D2D0D2C66
:10347000000C990B9987888704C019861886612CDF
:10348000712CAA8DBB8DED91FC9111970284F3856F
:10349000E02DCD010995B9818B2E912C689CC0013E
:1034A000699C900D789C900D1124FC01EA0DFB1D88
:1034B000FD87EC871A82712C612CE12F110FFF0B15
:1034C00095012E0F3F1F3B872A87AC0CB11CA5012D
:1034D0004E0F5F1F5F8B4E8BC1018D0D911DD7FC71
:1034E0009A95998F888F9E85691608F065C0862DFC
:1034F00090E048855985480F591F489D9001499D86
:10350000300D589D300D1124D101A20FB31FB98B7E
:10351000A88BEC85FD85FD83EC83AA84BB84DA80CF
:10352000FA85DF1A288D398D280F391F3D8B2C8B9A
:103530008D2D8A0D4E895F89A416B506C1F187705D
:1035400041F4C2010196EA89FB89E40DF51D7490EE
:103550002C0177FE21C0AA8DBB8DED91FC91B98124
:10356000B13061F40484F585E02D2E813F814C89D2
:103570005D89B5018A8D9B8D09950EC00684F785FE
:10358000E02DEE80FF8084019401488959896C8187
:103590007D818A8D9B8D0995770CEFEFAE1ABE0A5F
:1035A0002C813D81280D391D3D832C83C1CF3A816B
:1035B0003C0D3A83639497CFAA8DBB8DED91FC911E
:1035C00011970688F789E02DCD016B960FB6F89418
:1035D000DEBF0FBECDBFDF91CF911F910F91FF9046
:1035E000EF90DF90CF90BF90AF909F908F907F90A3
:1035F0006F905F904F903F902F9009946B960FB60D
:10360000F894DEBF0FBECDBFDF91CF911F910F9118
:10361000FF90EF90DF90CF90BF90AF909F908F90F2
:103620007F906F905F904F903F902F9008950F93F1
:103630001F93CF93DF9377FF04C0260F371F60E0FF
:1036400070E0DC011496CD91DC911597FB01E20F3F
:10365000F31FCE17DF071CF49E01261B370B121633
:1036600013060CF046C0FA0157FD3796DF01E3E080
:10367000B595A795EA95E1F7AC9FF001AD9FF00DE8
:10368000BC9FF00D11246E0F7F1FDC015E96ED9143
:10369000FC915F97E60FF71F4770552781E090E098
:1036A00001C0880F4A95EAF7482F0130110539F01B
:1036B00078F002301105E9F42E0F3F1F13C02E0FD2
:1036C0003F1FE217F307A9F08081842B8193F9CF84
:1036D00080952E0F3F1FE217F30759F09081982332
:1036E0009193F9CFE217F30721F08081842781932A
:1036F000F9CFDF91CF911F910F910895EF92FF9233
:103700000F931F93CF93DF93EC0177FDA5C0EC805F
:10371000FD806E157F050CF09FC057FF04C0240F7D
:10372000351F40E050E08E819F81FA01E20FF31FC8
:103730008E179F071CF49C01241B350B12161306D1
:103740000CF08AC0922F842F8695869586958E9D43
:10375000D0018F9DB00D11246A0F7B1FAE8DBF8DE0
:10376000A60FB71F4770B1F188E0841B482F682F60
:1037700070E0FB01E55BFA4FE491281798F4621BB7
:1037800071092FEF30E002C0359527956A95E2F771
:10379000E2230130110549F078F00230110509F0FB
:1037A0005BC00EC00130110519F48C91E82B0AC0E2
:1037B0000130110508F049C0E0958C91E82302C062
:1037C0008C91E827EC93941708F446C02C813D8136
:1037D000A20FB31FE92FE41BE830F8F00230110507
:1037E00061F48E2F9C9190959C932C813D81A20F2A
:1037F000B31F88508830B0F70FC081E00115110564
:1038000009F480E081959E2F8C932C813D81A20F3D
:10381000B31F98509830C0F7E770EE23E9F0F0E05E
:10382000ED5BFA4FE4910130110539F048F00230B8
:10383000110591F48C91E82706C08C91E82B03C008
:10384000E0958C91E823EC9307C00230110509F450
:10385000B7CFAE0DBF1DBECFDF91CF911F910F919E
:10386000FF90EF9008953091C603313208F04BC0BD
:103870008091A2038111FCCF9091C50322E0209397
:10388000A20321E02093A1032FEF2093A003109225
:103890009F0330939E03E5EAF3E0AEE7B3E020E058
:1038A000321721F041914D932F5FFACF10927D0393
:1038B00020917D03990F922B90937D0390917C032F
:1038C000913061F410927C0390917D039093BB0042
:1038D0009091BC0093FDF8CF95EC01C095EE9093CC
:1038E000BC009091A2039230E1F39091A0039F3F1E
:1038F00079F08091A003803241F08091A003803361
:1039000031F084E005C081E003C082E001C083E0C3
:103910001092A4031092C6031092A30308953FB718
:10392000F8948091B2059091B305A091B405B0913F
:10393000B50526B5A89B05C02F3F19F00196A11D1E
:10394000B11D3FBFBA2FA92F982F8827820F911D35
:10395000A11DB11DBC01CD0142E0660F771F881F7C
:10396000991F4A95D1F7089590E0FC01E756F54F6D
:103970002491FC01E558F54F3491FC01E959F54FCC
:10398000E491EE2309F43CC0222339F1233091F075
:1039900038F42130A9F0223001F584B58F7D12C0B2
:1039A000273091F02830A1F02430B9F480918000C4
:1039B0008F7D03C0809180008F77809380000DC041
:1039C00084B58F7784BD09C08091B0008F7703C024
:1039D0008091B0008F7D8093B000F0E0EE0FFF1F6C
:1039E000E35AF54FA591B4919FB7F894611104C0C3
:1039F0008C913095382302C0EC913E2B3C939FBFB5
:103A00000895CF93DF9390E0FC01E558F54F2491A2
:103A1000FC01E959F54F8491882361F190E0880F0A
:103A2000991FFC01E157F54FC591D491FC01E35A70
:103A3000F54FA591B491611109C09FB7F8948881A1
:103A4000209582238883EC912E230BC0623061F491
:103A50009FB7F8948881322F309583238883EC9127
:103A60002E2B2C939FBF06C08FB7F894E8812E2B86
:103A700028838FBFDF91CF9108958F929F92AF924D
:103A8000BF92CF92DF92EF92FF926B017C010E9476
:103A90008F1C4B015C01C114D104E104F104F1F06D
:103AA0000E948F1CDC01CB0188199909AA09BB0966
:103AB000883E9340A105B10570F321E0C21AD108F8
:103AC000E108F10888EE880E83E0981EA11CB11C65
:103AD000C114D104E104F10419F7DDCFFF90EF9098
:103AE000DF90CF90BF90AF909F908F9008952FB7A9
:103AF000F8946091AE057091AF058091B0059091FA
:103B0000B1052FBF08951F920F920FB60F92112487
:103B10002F933F938F939F93AF93BF938091AE0565
:103B20009091AF05A091B005B091B1053091AD0570
:103B300023E0230F2D3720F40196A11DB11D05C0F0
:103B400026E8230F0296A11DB11D2093AD05809399
:103B5000AE059093AF05A093B005B093B1058091E9
:103B6000B2059091B305A091B405B091B505019649
:103B7000A11DB11D8093B2059093B305A093B40528
:103B8000B093B505BF91AF919F918F913F912F91C8
:103B90000F900FBE0F901F901895CF93DF93EC01FD
:103BA000988188818E7F888388818D7F888390FF2C
:103BB00003C0CE010E94560D8BA19CA1009769F114
:103BC0001CA21BA2EF8DF8A1A9A1BAA1309799F46C
:103BD000109749F4DC0111961C921E9213961C92C8
:103BE0001E9212971AC090961C921E925F97FC012B
:103BF000B183A08312C0109741F412A211A2DC017C
:103C00001396FC93EE93129708C0B2A3A1A3A9A1A7
:103C1000BAA19096FC93EE935F97DF91CF910895B0
:103C20008FE894E00E94CD1D84EB94E00E94CD1DAE
:103C300080912C0590912D050E94BD2F8091320519
:103C4000909133050E94BD2F84E391E09093450548
:103C5000809344058091F9029091FA028454954032
:103C600071F4E0915705F0915805908180915905C4
:103C70008095892380831092FA021092F90286E4DB
:103C800091E09093700580936F0580918D059091E0
:103C90008E05009711F00C94BD2F08950F931F937C
:103CA000CF93DF93FC01A3A1B4A11097E9F1EC013C
:103CB000158A168A178A108E038CF48DE02D3097A2
:103CC00079F1888181FD2CC014960D911C91159776
:103CD0001596DC93CE93149788818260888309952A
:103CE000988180FB90F9988388818D7F8883EBA1F0
:103CF000FCA1158304830E94771D09811A812B8101
:103D00003C810D831E832F833887DC01CB01801B10
:103D1000910BA20BB30B89879A87AB87BC8704C032
:103D2000888181608883E7CFDF91CF911F910F91C8
:103D30000895CF93DF93CDB7DEB7E5970FB6F8942C
:103D4000DEBF0FBECDBF789484B5826084BD84B5DC
:103D5000816084BD85B5826085BD85B5816085BD86
:103D600080916E00816080936E001092810080913E
:103D700081008260809381008091810081608093C6
:103D80008100809180008160809380008091B100EB
:103D900084608093B1008091B00081608093B00016
:103DA00080917A00846080937A0080917A008260AA
:103DB00080937A0080917A00816080937A0080916C
:103DC0007A00806880937A001092C10010925F059B
:103DD00010925E0510925D0510925C0510925B05D5
:103DE00010925A058DE991E09093610580936005EA
:103DF00090915005963108F058C02DEB30E030938B
:103E00005B0520935A052BE931E030935D05209343
:103E10005C052CE231E030935F0520935E05409114
:103E20006800983058F031E09E3008F430E021E02E
:103E3000822F01C0880F3A95EAF701C084E0842BF5
:103E400080936800983038F09E3040F0963148F00A
:103E500020E030E008C02DE630E005C02BE630E081
:103E600002C02CE630E03093580520935705983077
:103E700030F481E001C0880F9A95EAF70EC0292F2F
:103E800030E09E3018F42850310902C02E5031091C
:103E900081E001C0880F2A95EAF780935905809147
:103EA0006005909161050197F1F780915E05909111
:103EB0005F05892B49F1E091F902F091FA0245E0A2
:103EC000E434F40709F1309739F0A389B4899C915F
:103ED0008589809589238C93809162058E7F80935C
:103EE00062051092F8021092F70284E495E0909334
:103EF000FA028093F902E0915705F09158059081FC
:103F000080915905892B80838AE891E00E942E16C2
:103F100062E082E00E94011D6BE971E084E495E0BB
:103F20000E94871280918D0590918E05892BC1F595
:103F30002091750530917605C901079697FD079682
:103F4000B3E095958795BA95E1F720917305309187
:103F50007405DC01A29FC001A39F900DB29F900D3C
:103F600011240E94252F90938E0580938D05892B17
:103F7000B9F409E215E0F8016491611107C06DEA36
:103F800071E084E495E00E94871209C084E495E022
:103F90000E94CC0E0F5F1F4F892B69F7F0CFFFCF28
:103FA0000E940E162091750530917605809173055B
:103FB0009091740521323105A4F0B9016054710962
:103FC00077FF02C06F5F7F4F7595679582559109A6
:103FD00097FD019600E410E022E530E049E652E06A
:103FE00013C0B9016052710977FF02C06F5F7F4F44
:103FF000759567958357910997FD019600E210E04A
:1040000023E730E049E850E0959587950E949E1798
:1040100082E08093900580918B0590918C05892B8F
:1040200031F08CE380938F050E946C17BEC061E075
:10403000809194050E94011D61E0809195050E9488
:10404000011D80919405082E000C990BFC01E95983
:10405000F54FE491F0E0EE0FFF1FE35AF54F259185
:10406000349130939C0520939B05FC01E558F54F56
:10407000E491E093A10580919505082E000C990B21
:10408000FC01E959F54FE491F0E0EE0FFF1FE35A10
:10409000F54FA591B491B0939E05A0939D05FC01A9
:1040A000E558F54FE491E093A2058C91E82BEC9351
:1040B0008091890590918A05892B09F434C01FB736
:1040C000F89480911403811127C0E1E7FAE084910C
:1040D000E5E8FAE09491E82FF0E0EE0FFF1FE157DA
:1040E000F54FA591B491EC91E92321F461E08AE0C8
:1040F0000E94B41C61E08AE00E94011D8CB58061C1
:104100008CBD8CB580648CBD61E08DE00E94011D8A
:1041100061E08BE00E94011D809114038F5F80930A
:1041200014031FBF42C061E0809192050E94011DEF
:1041300061E0809193050E94011D80919205082EF7
:10414000000C990BFC01E959F54FE491F0E0EE0FFA
:10415000FF1FE35AF54F2591349130939805209332
:104160009705FC01E558F54FE491E0939F05809198
:104170009305082E000C990BFC01E959F54FE491C9
:10418000F0E0EE0FFF1FE35AF54FA591B491B09305
:104190009A05A0939905FC01E558F54FE491E09349
:1041A000A0058C91E095E823EC938091960587FD1E
:1041B0001EC061E00E94011D61E0809196050E9491
:1041C000B41C61E070E080E090E00E943D1D60E082
:1041D000809196050E94B41C6AE070E080E090E057
:1041E0000E943D1D61E0809196050E94B41C809163
:1041F0008B0590918C05892BD1F02091A5053091EC
:10420000A6054091A7055091A80560E074E284EFEF
:1042100090E00E949B2DDA01C9014097A109B109E4
:10422000B695A795979587958093B80016C080910D
:10423000890590918A05892B31F08091A305909191
:10424000A4050E94F209E0919D05F0919E059081E0
:104250008091A20580958923808364E085E890E0C1
:104260000E942F146091750561508FE695E00E94C1
:104270002D0B64E081E890E00E942F14809190055E
:10428000813011F064E101C060E18FE695E00E94A9
:104290002D0B64E08DE790E00E942F148091730550
:1042A0009091740580389105E9F48091750590919D
:1042B00076058032910531F464E089E790E00E9450
:1042C0002F1429C08034910531F563E086E790E032
:1042D0000E942F1480919005813011F06FEC17C06F
:1042E0006FE915C080369105B1F480917505909104
:1042F0007605409781F463E083E790E00E942F14F5
:1043000080919005813011F06FEA01C060E18FE685
:1043100095E00E942D0B69ED8FE695E00E942D0B34
:1043200080919005813011F061EF01C062E28FE66B
:1043300095E00E942D0B66E08DE690E00E942F1420
:1043400080918B0590918C05892BD1F02091A90546
:104350003091AA054091AB055091AC0560E074E244
:1043600084EF90E00E949B2DDA01C9014097A109DA
:10437000B109B695A795979587958093B80011C018
:10438000E0919D05F0919E0590818091A205892B79
:1043900080838091890590918A05892B11F00E9474
:1043A000EA0964E372E082E395E00E9466120E94EB
:1043B0008B0B80EC91E00E942E1689E392E00E9424
:1043C000A20D0E948B0BE091D703F091D80382E0FD
:1043D0008083E091D303F091D4031082E091D50360
:1043E000F091D60380E180831092DF03E091DB033C
:1043F000F091DC0386E08083E091D903F091DA0349
:10440000808180618083E091D903F091DA0380811B
:1044100088608083E091D903F091DA03808180681D
:104420008083E091D903F091DA0380818F7D8083CE
:1044300085E492E00E94A20D0E948B0B6EE472E074
:1044400084E495E00E9487120E946C170E94411735
:10445000803A59F068EE73E080E090E00E943D1DE4
:104460000E944117803A09F016C680E090E00E9451
:10447000F01660E28FE390E00E94C5160E9441179B
:10448000803A39F06AE070E080E090E00E943D1DE3
:10449000F5CF62E370E080E090E00E943D1D60E0B7
:1044A0008EE390E00E94C5166AE070E080E090E044
:1044B0000E943D1D60E087E090E00E94C51660E02C
:1044C0008FE390E00E94C5166AE070E080E090E023
:1044D0000E943D1D8CE090E00E94F01664E170E0C7
:1044E00080E090E00E943D1D68EE73E080E090E087
:1044F0000E943D1D009142051091430580E090E02F
:104500000E94F01669E170E080E090E00E943D1D9D
:1045100060E087E090E00E94C51660E88FE390E0DD
:104520000E94C5166AE070E080E090E00E943D1DA8
:10453000C8010E94F01664E170E080E090E00E9403
:104540003D1D80EB91E00E94A20D0E948B0B80EC40
:1045500091E00E942E1663EC71E084E495E00E94E5
:104560008712809129058C3008F051C061E086E007
:104570000E94011D80912905E82FF0E09F01220F84
:10458000331FE20FF31FEC59FB4F9081907C966034
:10459000908310922A0510922B056CE00E94CC2D7E
:1045A000FCE08F9FB001112440E050E09B01240FFC
:1045B000351FF901EE0FFF1F2E0F3F1FF901EC59B8
:1045C000FB4F908196FD16C04F5F5F4F4C305105F9
:1045D00069F781110FC01092800082E08093810002
:1045E0001092850010928400B19A80916F008260D1
:1045F00080936F00E0912905F0E0CF01880F991FAB
:10460000E80FF91FEC59FB4F8081806480838AE5B5
:1046100090E00E94411680EC91E00E942E1664ED1D
:1046200071E084E495E00E9487121092E1041092F8
:10463000E2041092E3041092E4041092D904109260
:10464000DA041092DB041092DC04412C512C94EB20
:10465000692E92EC792E40921705509218056092BF
:10466000190570921A05C12CD12C24EBE22E22E4FC
:10467000F22EC0921B05D0921C05E0921D05F0920F
:104680001E0580911F050091030510910405D801B6
:104690008D909D90AD90BC90882309F44FC0A701E8
:1046A0009601C501B4010E941B2F181634F4F801BD
:1046B000C082D182E282F38210C020E030E044EB7D
:1046C00052ECC501B4010E940E2C87FF06C0D80130
:1046D0004D925D926D927C92139780900B05909015
:1046E0000C05A0900D05B0900E05C0901B05D09054
:1046F0001C05E0901D05F0901E05A7019601C5015F
:10470000B4010E941B2F181684F0C0901705D0909A
:104710001805E0901905F0901A05A7019601C5014A
:10472000B4010E940E2C87FF3DC0C0920B05D092B1
:104730000C05E0920D05F0920E0534C080920B0539
:1047400090920C05A0920D05B0920E05E091010526
:10475000F091020580819181A281B38180930F0540
:1047600090931005A0931105B093120520E030E05E
:1047700044EB52E4C501B4010E941B2F1816ACF2A1
:1047800020E030E044EB52ECC501B4010E940E2C55
:1047900087FF08C040920B0550920C0560920D05F2
:1047A00070920E0581E080931F0560911305709152
:1047B000140580911505909116050E94132C9B01FC
:1047C000AC0160E070E088E493E40E94732E6B011A
:1047D0007C019B01AC016091F5047091F60480911D
:1047E000F7049091F8040E94742C6093F504709380
:1047F000F6048093F7049093F804A7019601609162
:10480000F9047091FA048091FB049091FC040E94D9
:10481000732E6093F9047093FA048093FB049093D1
:10482000FC0488EC90E0A0E0B0E080931305909346
:104830001405A0931505B093160580EC91E00E9435
:104840002E1662EE71E084E495E00E9487121092C9
:104850008A041092890410928C0410928B04109296
:104860008E0410928D048FE894E02091B204309170
:10487000B30429583440B1F029E834E03093B3044C
:104880002093B20490938A04809389041092AF0419
:104890001092AE041092B1041092B00490938C0464
:1048A00080938B048FE894E00E944E1E84EB94E08A
:1048B0002091D7043091D8042958344049F129E88F
:1048C00034E03093D8042093D704209189043091A8
:1048D0008A04232B49F490938A04809389041092CC
:1048E000D4041092D3040AC0E0918B04F0918C049C
:1048F000F093D404E093D30492A381A31092D6043E
:104900001092D50484EB94E090938C0480938B04F4
:1049100084EB94E00E944E1E80EC91E00E942E16E3
:104920008BEF91E00E942E166BE072E082E395E03F
:104930000E9466128FEA91E00E94A20D80E8482E44
:104940008EE3582E612C712C8091890490918A04F9
:1049500090938E0480938D04E0918D04F0918E04E9
:10496000309709F475C001A112A1808180FF6BC04E
:1049700085859685A785B089892B8A2B8B2B69F431
:10498000908180818E7F808380818D7F808390FF66
:104990005AC0CF010E94560D56C00E94771DE0916B
:1049A0008D04F0918E042181328143815481818470
:1049B0009284A384B484C580D680E780F084DC012F
:1049C000CB0188199909AA09BB098C159D05AE056B
:1049D000BF05C8F185859685A785B0891816190683
:1049E0001A061B065CF485859685A785B089019714
:1049F000A109B10985879687A787B08B8589968994
:104A0000A789B08D0196A11DB11D858B968BA78BB3
:104A1000B08FC580D680E780F08481859285A3859C
:104A2000B4858C0D9D1DAE1DBF1D81879287A38708
:104A3000B4872583368347835087018CF28DE02D20
:104A4000309709F0099510938E0400938D0484CF5C
:104A500087EC93E00E94020E03970CF457C187EC99
:104A600093E00E94E00D803491050CF04FC181303D
:104A7000910509F062C00E94770D6B017C0120E076
:104A800030EC49E754EC0E940E2C882321F1C70139
:104A9000B6010E94E52E9B01AC01A0E5B6E40E94A0
:104AA000512DA30192010E94322DCA01B901685211
:104AB0007342810991090E94152C20E030E048ECF6
:104AC00052E40E94732E609308037093090380934D
:104AD0000A0390930B030E94770D6B017C0120E089
:104AE00030EC49E754EC0E940E2C882309F40EC1E7
:104AF000C701B6010E94E52E9B01AC01A0E5B6E41A
:104B00000E94512DA30192010E94322DCA01B901C8
:104B100068527342810991090E94152C20E030E00F
:104B200048EC52E40E94732E6093000370930103DB
:104B30008093020390930303E9C08230910509F04A
:104B40004AC00E94770D0E94E52E9B01AC01A0E1B6
:104B5000B7E20E94512DA30192010E94322DCA0199
:104B6000B9010E94152C20E030E048EC52E40E948C
:104B7000732E60930201709303018093040190935C
:104B8000050183E192E00E94A20D60910201709103
:104B9000030180910401909105016093FC027093E0
:104BA000FD028093FE029093FF02E0902505F090B5
:104BB00026050091270510912805209121053091A7
:104BC000220540912305509124050E942118F1E00F
:104BD000F093FB029BC08330910509F04AC00E940C
:104BE000770D0E94E52E9B01AC01A0E1B7E20E9487
:104BF000512DA30192010E94322DCA01B9010E94D8
:104C0000152C20E030E048EC52E40E94732E6093B3
:104C100021057093220580932305909324058AE152
:104C200092E00E94A20D2091210530912205409131
:104C30002305509124052093FC023093FD024093FC
:104C4000FE025093FF02E0902505F09026050091AA
:104C50002705109128056091020170910301809150
:104C60000401909105010E94211841E04093FB024C
:104C70004DC08430910509F013C20E94770D0E9447
:104C8000E52E9B01AC01A0E1B7E20E94512DA301EA
:104C900092010E94322DCA01B9010E94152C20E018
:104CA00030E048EC52E40E94732E60932505709327
:104CB0002605809327059093280581E292E00E94C3
:104CC000A20DE0902505F090260500912705109192
:104CD0002805E092FC02F092FD020093FE02109380
:104CE000FF0220912105309122054091230550912A
:104CF000240560910201709103018091040190915B
:104D000005010E94211851E05093FB02BE016F5F24
:104D10007F4F88E395E00E941410C98CDA8CEB8CED
:104D2000FC8C20911003309111034091120350919B
:104D30001303C701B6010E940E2C811110C02091EF
:104D40000C0330910D0340910E0350910F036D8DB4
:104D50007E8D8F8D98A10E940E2C8823E1F0C09249
:104D60001003D0921103E0921203F09213038D8D81
:104D70009E8DAF8DB8A180930C0390930D03A093EB
:104D80000E03B0930F03C092E104D092E204E092CC
:104D9000E304F092E4048091080390910903A09148
:104DA0000A03B0910B038093D9049093DA04A09383
:104DB000DB04B093DC0480911F05882309F44DC106
:104DC0000E94771D6DA77EA78FA798AB80910705DE
:104DD00090910805A0910905B0910A054DA55EA521
:104DE0006FA578A9481B590B6A0B7B0B80911305A3
:104DF00090911405A0911505B09116054817590713
:104E00006A077B0708F429C1E0910105F0910205CA
:104E100080819181A281B38189A79AA7ABA7BCA702
:104E2000E0910505F09106059C01AD01608171815D
:104E3000828193810E94062E4B015C0120910F0517
:104E400030911005409111055091120569A57AA580
:104E50008BA59CA50E94062E6B017C012091F50478
:104E60003091F6044091F7045091F804C501B40163
:104E70000E94742C20910B0530910C0540910D057A
:104E800050910E050E94072E6DA37EA38FA398A7B5
:104E900060930B0570930C0580930D0590930E05A0
:104EA0009091200599AB91111CC02091F104309193
:104EB000F2044091F3045091F404C701B6010E943A
:104EC000742C9B01AC016DA17EA18FA198A50E94BD
:104ED000062E60930B0570930C0580930D0590933F
:104EE0000E0580910B0590910C05A0910D05B091D8
:104EF0000E058DA39EA3AFA3B8A710911B0500912B
:104F00001C0530901D0520901E05212F302F432DAC
:104F1000522DBC01CD010E941B2F18162CF4812F9D
:104F2000902FA32DB22D1AC08091170590911805CE
:104F3000A0911905B0911A058AAB9BABACABBDAB88
:104F40009C01AD016DA17EA18FA198A50E940E2CA0
:104F500087FF0CC08AA99BA9ACA9BDA980930B05AA
:104F600090930C05A0930D05B0930E0599A9992374
:104F700079F02091F1043091F2044091F3045091C2
:104F8000F404C501B4010E94742C4B015C0103C000
:104F9000812C912C54012091F9043091FA04409114
:104FA000FB045091FC04C701B6010E94742C9B01C4
:104FB000AC0160910B0570910C0580910D059091ED
:104FC0000E050E94062EA50194010E94072E6B017A
:104FD0007C019B01AC01612F702F832D922D0E94CB
:104FE0000E2C87FD16C01091170500911805309002
:104FF000190520901A05212F302F432D522DB6016F
:10500000C7010E940E2C87FD04C01C2D0D2D3E2CC7
:105010002F2CE0910305F0910405812F902FA32DF3
:10502000B22D80839183A283B38389A59AA5ABA572
:10503000BCA580930F0590931005A0931105B09324
:1050400012058DA59EA5AFA5B8A9809307059093DD
:105050000805A0930905B0930A056091DD047091DD
:10506000DE048091DF049091E00460930403709368
:105070000503809306039093070320E030E044EBA0
:1050800052E40E94072E0E94E52ECB010E94411699
:105090000E94A90E59CC8CE592E00E942E16FFCFFB
:1050A000059709F033CE0E94770D6B017C0120E05B
:1050B00030EC49E754EC0E940E2C8823F1F0C70134
:1050C000B6010E94E52E9B01AC01A8E2B3E20E946A
:1050D000512DA30192010E94322DCA01B9010E94F3
:1050E000152C20E030E048EC52E40E94732E0E9420
:1050F000E52E709301016093000188E292E00E9426
:10510000A20D6091000170910101072E000C880B27
:10511000990B0E94152C6093FC027093FD02809302
:10512000FE029093FF0281E08093FB02EFCD4F924D
:105130005F926F927F928F929F92AF92BF92CF9227
:10514000DF92EF92FF921092CA031092C90348EEC9
:10515000C42E43E0D42EE12CF12CC092CB03D0928C
:10516000CC03E092CD03F092CE0380E191E09093E6
:10517000C8038093C70385EC90E09093D403809399
:10518000D30384EC90E09093D6038093D50380EC16
:1051900090E09093D8038093D70381EC90E09093B4
:1051A000DA038093D90382EC90E09093DC03809340
:1051B000DB0386EC90E09093DE038093DD03109296
:1051C000E0031092E1031092E2031092E3031092C5
:1051D000660510926505C0926705D0926805E09259
:1051E0006905F0926A0582E291E0909364058093EC
:1051F0006305109272051092710520E830E030933B
:1052000074052093730580E290E090937605809377
:105210007505309378052093770590937A058093F0
:1052200079051092840510927C0510927B051092EE
:105230007E0510927D0561E0609383058FEF9FEFFF
:1052400090938205809381059093800580937F05DC
:105250006093850510928605109288051092870547
:1052600086E491E09093700580936F0510928A0513
:105270001092890583E695E090938C0580938B05C9
:1052800010928E0510928D058FEF8093920580937A
:105290009305809394058093950584E0809396050B
:1052A00080E58093A3051092A40580E89AE1A6E02A
:1052B000B0E08093A5059093A605A093A705B093B1
:1052C000A80580EA96E8A1E0B0E08093A905909354
:1052D000AA05A093AB05B093AC05109247051092B8
:1052E0004605C0924805D0924905E0924A05F092E1
:1052F0004B0584E391E0909345058093440510921B
:105300005B0510925A0510925D0510925C05109293
:105310005F0510925E051092610510926005809104
:1053200062058E7F8D7F80936205869581706827E8
:105330008BE00E94B41C61E08BE00E94011DE6E856
:10534000FAE0E491E0935405E2E7FAE0E491F0E05A
:10535000EE0FFF1FE35AF54F8591949190935605F8
:105360008093550560E08AE00E94011D80916205EE
:1053700081FD04C061E08AE00E94B41C8AE0809351
:105380005005E5E8FAE0E491E0935105E1E7FAE041
:10539000E491F0E0EE0FFF1FED5AF54F85919491E7
:1053A000909353058093520580E891E090933905DE
:1053B0008093380587E390E0A0E0B0E080933E055D
:1053C00090933F05A0934005B093410588E28093F8
:1053D0003B0583E695E090933D0580933C05109254
:1053E0003305109232051092350510923405109253
:1053F00037051092360546E050E06CEA72E082E331
:1054000095E00E94261210922D0510922C05109204
:105410002F0510922E05109231051092300540E0B4
:1054200050E06FEA71E08CE295E00E9426128091D4
:1054300088048C30A0F491E0980F909388048093B6
:10544000290590E0FC01EE0FFF1F8E0F9F1FFC014E
:10545000EC59FB4F88EB9BE09283818303C08FEF75
:1054600080932905C0902505D0902605E09027055A
:10547000F09028058090210590902205A0902305AA
:10548000B090240540900201509003016090040107
:10549000709005018DED94E09093040580930305D1
:1054A00081EE94E0909302058093010589ED94E0EC
:1054B000909306058093050510921F05109217051D
:1054C000109218051092190510921A0580E090E0CC
:1054D000AFE7B3E480931B0590931C05A0931D05D3
:1054E000B0931E0584E690E0A0E0B0E08093130541
:1054F00090931405A0931505B09316051092FE0421
:105500001092FD0420E030E0A901C301B2010E9425
:105510000E2C87FD5AC020E030E0A901C501B4017E
:105520000E940E2C87FD51C020E030E0A901C70188
:10553000B6010E940E2C87FD48C081E090E0909358
:1055400000058093FF04809320054092E50450926B
:10555000E6046092E7047092E8048092E904909275
:10556000EA04A092EB04B092EC04C092ED04D09255
:10557000EE04E092EF04F092F0044092F1045092B5
:10558000F2046092F3047092F4042DEC3CEC4CECC9
:105590005DE3C501B4010E94742C6093F50470931F
:1055A000F6048093F7049093F8042DEC3CEC4CEC5B
:1055B0005DE3C701B6010E94732E6093F9047093F6
:1055C000FA048093FB049093FC040E94771DC09022
:1055D0001305D0901405E0901505F0901605DC0138
:1055E000CB018C199D09AE09BF09809307059093E3
:1055F0000805A0930905B0930A058091B4048E7F35
:105600008093B4048091B4048D7F8093B40410928D
:10561000BD041092BE041092BF041092C0041092F8
:10562000B9041092BA041092BB041092BC041092F8
:10563000B5041092B6041092B7041092B8041092F8
:10564000D4041092D3041092D6041092D504109270
:10565000D8041092D7041092C9041092CA04109270
:10566000CB041092CC0482EB99E09093CE0480930B
:10567000CD041092D0041092CF041092D204109254
:10568000D10484E190E0A0E0B0E08093B504909371
:10569000B604A093B704B093B8048091B504909178
:1056A000B604A091B704B091B8048093B904909364
:1056B000BA04A093BB04B093BC040E94771D60930E
:1056C000BD047093BE048093BF049093C004CC24A7
:1056D000CA94DC2C7601C092C104D092C204E0923C
:1056E000C304F092C404C092C504D092C604E092F0
:1056F000C704F092C80480918F048E7F80938F043A
:1057000080918F048D7F80938F0410929804109263
:10571000990410929A0410929B041092940410928F
:10572000950410929604109297041092900410928F
:10573000910410929204109293041092AF0410926C
:10574000AE041092B1041092B0041092B3041092FF
:10575000B2041092A4041092A5041092A604109210
:10576000A7048BE89BE09093A9048093A80410926F
:10577000AB041092AA041092AD041092AC0488EC11
:1057800090E0A0E0B0E08093900490939104A09307
:105790009204B09393048091900490919104A0910D
:1057A0009204B09193048093940490939504A093F1
:1057B0009604B09397040E94771D609398047093A9
:1057C000990480939A0490939B04C0929C04D09275
:1057D0009D04E0929E04F0929F04C092A004D09297
:1057E000A104E092A204F092A30410928A04109201
:1057F000890410928C0410928B0410928E041092E3
:105800008D04FF90EF90DF90CF90BF90AF909F906E
:105810008F907F906F905F904F9008950E94502CD2
:1058200008F481E00895E89409C097FB3EF4909550
:105830008095709561957F4F8F4F9F4F9923A9F069
:10584000F92F96E9BB279395F695879577956795F8
:10585000B795F111F8CFFAF4BB0F11F460FF1BC03C
:105860006F5F7F4F8F4F9F4F16C0882311F096E9CF
:1058700011C0772321F09EE8872F762F05C066237D
:1058800071F096E8862F70E060E02AF09A95660F36
:10589000771F881FDAF7880F9695879597F90895EF
:1058A000990F0008550FAA0BE0E8FEEF1616170631
:1058B000E807F907C0F012161306E407F50798F099
:1058C000621B730B840B950B39F40A2661F0232BB2
:1058D000242B252B21F408950A2609F4A140A6952E
:1058E0008FEF811D811D08950E94872C0C94F82C48
:1058F0000E94EA2C38F00E94F12C20F0952311F040
:105900000C94E12C0C94E72C11240C942C2D0E9467
:10591000092D70F3959FC1F3950F50E0551F629FBD
:10592000F001729FBB27F00DB11D639FAA27F00DF8
:10593000B11DAA1F649F6627B00DA11D661F829F1F
:105940002227B00DA11D621F739FB00DA11D621F04
:10595000839FA00D611D221F749F3327A00D611D21
:10596000231F849F600D211D822F762F6A2F112403
:105970009F5750409AF0F1F088234AF0EE0FFF1F36
:10598000BB1F661F771F881F91505040A9F79E3F8D
:10599000510580F00C94E12C0C942C2D5F3FE4F326
:1059A000983ED4F3869577956795B795F795E795E3
:1059B0009F5FC1F7FE2B880F911D9695879597F9EC
:1059C000089597F99F6780E870E060E008959FEF81
:1059D00080EC089500240A94161617061806090686
:1059E000089500240A941216130614060506089555
:1059F000092E0394000C11F4882352F0BB0F40F4DD
:105A0000BF2B11F460FF04C06F5F7F4F8F4F9F4F1C
:105A1000089557FD9058440F551F59F05F3F71F09E
:105A20004795880F97FB991F61F09F3F79F0879505
:105A30000895121613061406551FF2CF4695F1DF8E
:105A400008C0161617061806991FF1CF869571051E
:105A5000610508940895E894BB2766277727CB0152
:105A600097F90895052E97FB1EF400940E94492D86
:105A700057FD07D00E949B2D07FC03D04EF40C94D9
:105A8000492D50954095309521953F4F4F4F5F4F91
:105A9000089590958095709561957F4F8F4F9F4F9A
:105AA00008950E94BD2DA59F900DB49F900DA49FB9
:105AB000800D911D11240895B7FF0C94512D0E9463
:105AC000512D821B930B08952F923F924F925F921C
:105AD0006F927F928F929F92AF92BF92CF92DF92FE
