:100000000C9459050C9481050C9481050C946A1389
:100010000C946A130C946A130C9481050C9481055A
:100020000C9481050C9481050C9481050C943F0877
:100030000C9481050C9481050C9481050C94810528
:100040000C943D1C0C9481050C9475120C944F1269
:100050000C9481050C9481050C9481050C94810508
:100060000C9400090C948105DB40A4A62EAFDA02A3
:1000700081DA1281DA02818F2000A1C8D300408D7D
:10008000AED580A800006000000000000000000065
:100090000000000000E00000000000000000000080
:1000A00000000001E000000000000000000000006F
:1000B000000001F00000000000000000000000004F
:1000C0000003F0000000000000000000000000003D
:1000D00007F0000000000000000000000000000722
:1000E000F8000000000000000000000000000FF811
:1000F00000000003C0007E000001E0007F0FF80058
:10010000000003C000FE000001E000FFEFF8000067
:100110000003C000FE000001E000FFFFF800000047
:1001200003C000F00000000F007FFE7FC00000034E
:10013000C000F00000000F003FFE7FF83FF1FBCF52
:10014000FCFEF3BC3DEFE01FFE7FFF7FFBFFDFFE09
:10015000FEFFBC3DEFE01FC6FFFF7FFBFFDFFEFEA3
:10016000FFBC3DEFE00FE3C7FE787BC3DE1EF0FF70
:10017000BC3DEF0007FF87FC787BC3DE1EF0F83C38
:100180003DEF0001FFFFF0007BC3C01EF0F03C3DDF
:10019000EF0001F37FE03FFBC3CFFEF0F03C3DEF0B
:1001A0000003E33F807FFBC3DFFEF0F03C3DEF0048
:1001B00007E73C00787BC3DE1EF0F03C3DEF000714
:1001C000FFBE00787BC3DE1EF0F03C3DEF0007FF72
:1001D000FE00787BC3DE1EF0F03C3DEF000FFFFE1B
:1001E000007FFBFFDFFEF0F03FFDEFE00FFFFF00C1
:1001F0007FFBFFDFFEF0F03FFDEFE00FF9FF003E79
:1002000079F9CF9EF0F01F3DE7E01FF1FF000000FD
:100210000000000000000000001F80FF007FFFFFC3
:10022000FFFFFFFFFFFFFFE01C007F007FFFFFFFDE
:10023000FEB46D888D18E000001F007FFFFFFFFEF9
:1002400095AD7DB577E000000F007FFFFFFFFEA5B5
:10025000AD9D8D19E0000006007FFFFFFFFEB5ADEC
:10026000EDB57EE00000000000018000000000000D
:1002700000000000038000000000000000000007F4
:10028000C000000000000000000007C000000000E7
:1002900000000000000FC00000000000000000008F
:1002A0001FE00000000000000000001FE000000050
:1002B0000000000000003FE000000000000000001F
:1002C000003FF00000000000000000007FF0000090
:1002D00000000000001FF87FF00000000000000098
:1002E0003FFE7FF0000000000000003FFF7FF000B5
:1002F0000000000000001FFFFBE000000000000005
:10030000000FFFF9FFC00000000000000FFFF9FF21
:10031000F800000000000007FFF1FFFF00000000F0
:10032000000003FC73FFFF80000000000001FE3F9F
:10033000FFFF80000000000000FF1E0FFF00000014
:10034000000000007FFE1FFC000000000000003FD6
:10035000FFFFF8000000000000000FDFFFE00000DA
:1003600000000000001F19FFC00000000000000096
:100370003F3CFF00000000000000007E7CF8000011
:100380000000000000007FFE7C0000000000000074
:1003900000FFFFFC0000000000000000FFFFFE0067
:1003A00000000000000000FFFFFE00000000000051
:1003B0000001FFEFFE0000000000000001FFCFFE83
:1003C0000000000000000003FF07FE000000000026
:1003D000000003FC07FE0000000000000003F00323
:1003E000FE00000000000000018000FE0000000090
:1003F0000000000000007E0000000000000000007F
:10040000003E000000000000000000000C000000A2
:10041000000000078000FC000003C000000007800F
:1004200001FC000003C0000000078001FC00000385
:10043000C0000000078001E00000001E000000076F
:100440008001E00000001E007FE3F79FF9FDE778E0
:100450007BDFC0FFF7FFBFFDFDFF787BDFC0FFF74D
:10046000FFBFFDFDFF787BDFC0F0F787BC3DE1FFFC
:10047000787BDE00F0F787BC3DE1F0787BDE0000A2
:10048000F787803DE1E0787BDE007FF7879FFDE125
:10049000E0787BDE00FFF787BFFDE1E0787BDE00E0
:1004A000F0F787BC3DE1E0787BDE00F0F787BC3DEC
:1004B000E1E0787BDE00F0F787BC3DE1E0787BDEB1
:1004C00000FFF7FFBFFDE1E07FFBDFC0FFF7FFBFED
:1004D000FDE1E07FFBDFC07CF3F39F3DE1E03E7B8D
:1004E000CFC00000000000000000000000FFFFFF80
:1004F000FFFFFFFFFFFFFFC0FFFFFFFFFD68DB11F6
:100500001A31C0FFFFFFFFFD2B5AFB6AEFC0FFFF50
:10051000FFFFFD4B5B3B1A33C0FFFFFFFFFD6B5B33
:10052000DB6AFDC05353443133303620616C6C6F4D
:10053000636174696F6E206661696C656400220096
:10054000FF21000000000023002600290000000019
:1005500000250028002B0004040404040404040201
:100560000202020202030303030303010204081050
:10057000204080010204081020010204081020001D
:10058000000000240027002A0000000008000201EB
:100590000000030407000000000000000000010349
:1005A000070F1F3F7F0080C0E0F0F8FCFE00000056
:1005B00000003E5B4F5B3E3E6B4F6B3E1C3E7C3E05
:1005C0001C183C7E3C181C577D571C1C5E7F5E1C13
:1005D00000183C1800FFE7C3E7FF0018241800FFCD
:1005E000E7DBE7FF30483A060E2629792926407FC7
:1005F000050507407F05253F5A3CE73C5A7F3E1CD6
:100600001C08081C1C3E7F14227F22145F5F005FC1
:100610005F06097F017F006689956A60606060609F
:1006200094A2FFA29408047E040810207E201008E3
:10063000082A1C08081C2A08081E101010100C1E7E
:100640000C1E0C30383E3830060E3E0E0600000000
:10065000000000005F00000007000700147F147F07
:1006600014242A7F2A122313086462364956205024
:100670000008070300001C2241000041221C002A40
:100680001C7F1C2A08083E080800807030000808FB
:10069000080808000060600020100804023E51496C
:1006A000453E00427F400072494949462141494D3B
:1006B000331814127F1027454545393C4A494931C2
:1006C00041211109073649494936464949291E0041
:1006D00000140000004034000000081422411414EB
:1006E000141414004122140802015909063E415D08
:1006F000594E7C1211127C7F494949363E41414195
:10070000227F4141413E7F494949417F0909090111
:100710003E414151737F0808087F00417F4100201E
:1007200040413F017F081422417F404040407F020A
:100730001C027F7F0408107F3E4141413E7F090932
:1007400009063E4151215E7F09192946264949493A
:100750003203017F01033F4040403F1F2040201FE4
:100760003F4038403F631408146303047804036176
:1007700059494D43007F4141410204081020004186
:1007800041417F0402010204404040404000030711
:10079000080020545478407F284444383844444466
:1007A00028384444287F385454541800087E0902DD
:1007B00018A4A49C787F0804047800447D4000209D
:1007C00040403D007F1028440000417F40007C04F1
:1007D0007804787C080404783844444438FC1824AD
:1007E000241818242418FC7C080404084854545481
:1007F0002404043F44243C4040207C1C2040201C16
:100800003C4030403C44281028444C9090907C441C
:1008100064544C4400083641000000770000004159
:1008200036080002010204023C2623263C1EA1A138
:1008300061123A4040207A3854545559215555791F
:1008400041225454784221555478402054557940DF
:100850000C1E527212395555555939545454593940
:10086000555454580000457C410002457D4200012A
:10087000457C407D1211127DF0282528F07C5455CE
:1008800045002054547C547C0A097F493249494927
:10089000323A4444443A324A4848303A4141217A53
:1008A0003A42402078009DA0A07D3D4242423D3D1D
:1008B0004040403D3C24FF2424487E4943662B2F82
:1008C000FC2F2BFF0929F620C0887E0903205454F1
:1008D00079410000447D413048484A323840402246
:1008E0007A007A0A0A727D0D19317D2629292F286E
:1008F000262929292630484D4020380808080808AC
:10090000080808382F10C8ACBA2F102834FA000095
:100910007B000008142A142222142A1408550055BA
:100920000055AA55AA55AAFF55FF55FF000000FF24
:1009300000101010FF00141414FF001010FF00FF2F
:100940001010F010F0141414FC001414F700FF0041
:1009500000FF00FF1414F404FC141417101F1010EF
:100960001F101F1414141F00101010F000000000BE
:100970001F101010101F10101010F010000000FFBA
:10098000101010101010101010FF10000000FF14B5
:100990000000FF00FF00001F10170000FC04F4140B
:1009A000141710171414F404F40000FF00F71414C3
:1009B0001414141414F700F7141414171410101F3F
:1009C000101F141414F4141010F010F000001F1075
:1009D0001F0000001F14000000FC140000F010F0C5
:1009E0001010FF10FF141414FF141010101F00003B
:1009F0000000F010FFFFFFFFFFF0F0F0F0F0FFFF4E
:100A0000FF0000000000FFFF0F0F0F0F0F384444DE
:100A10003844FC4A4A4A347E02020606027E027EBE
:100A20000263554941633844443C04407E201E2003
:100A300006027E020299A5E7A5991C2A492A1C4CA8
:100A40007201724C304A4D4D303048784830BC62AB
:100A50005A463D3E494949007E0101017E2A2A2A23
:100A60002A2A44445F444440514A444040444A5145
:100A7000400000FF0103E080FF000008086B6B08E6
:100A80003612362436060F090F060000181800002B
:100A9000001010003040FF0101001F01011E00196D
:100AA0001D1712003C3C3C3C000000000000952556
:100AB0005F2511241FBECFEFD8E0DEBFCDBF12E00F
:100AC000A0E0B1E0E0E0FAE502C005900D92A234AA
:100AD000B107D9F724E0A2E4B2E001C01D92A03F23
:100AE000B207E1F715E0C8E5D5E004C02197FE01A3
:100AF0000E94BC29C735D107C9F70E94871C0C94F6
:100B0000F32C0C940000EF92FF920F931F93DC01E3
:100B10001A960D911C911B9718962D913C9119973F
:100B2000ED91FC9100A0F1A1E02D7B0140E050E0AF
:100B300060E070E009951F910F91FF90EF9008958C
:100B40004F925F926F927F928F929F92AF92BF92DD
:100B5000CF92DF92EF92FF920F931F93CF93DF9389
:100B60006C012B015A0139014801DC01ED91FC9126
:100B70000284F385E02D0995E201640C751CD60111
:100B8000ED91FC91C615D7055CF40088F189E02D44
:100B900087019401A501BE01C60109952196EFCFF9
:100BA0000688F789E02DC601DF91CF911F910F9143
:100BB000FF90EF90DF90CF90BF90AF909F908F907D
:100BC0007F906F905F904F9009948F929F92AF9219
:100BD000BF92CF92DF92EF92FF920F931F93CF932A
:100BE000DF93EC015B014A016901E881F98102842C
:100BF000F385E02D099595012C0D3D1D21503109FE
:100C0000E881F9810488F589E02D78018401A40147
:100C1000B501CE010995E881F9810688F789E02DB3
:100C2000CE01DF91CF911F910F91FF90EF90DF9058
:100C3000CF90BF90AF909F908F9009948F929F928A
:100C4000AF92BF92CF92DF92EF92FF920F931F93DA
:100C5000CF93DF93EC015B014A0169017801E881E0
:100C6000F9810284F385E02D0995C80CD91C860111
:100C700001501109E881F9810488F589E02D950179
:100C8000A401B501CE010995E881F9810688F789AB
:100C9000E02DCE01DF91CF911F910F91FF90EF904A
:100CA000DF90CF90BF90AF909F908F900994EF927C
:100CB000FF920F931F93DC01ED91FC9100A0F1A135
:100CC000E02D09951F910F91FF90EF9008950F93DC
:100CD0001F93DC01ED91FC91068CF78DE02D0995B9
:100CE0001F910F9108950F931F93DC01ED91FC91DB
:100CF000048CF58DE02D09951F910F910895DC016D
:100D0000ED91FC910084F185E02D09942F923F92A2
:100D10004F925F926F927F928F929F92AF92BF920B
:100D2000CF92DF92EF92FF920F931F93CF93DF93B7
:100D300000D000D000D0CDB7DEB72C017E836D830C
:100D40006A015901C801FC82EB824801841A950AA4
:100D500097FE03C091948194910835012D813E81C5
:100D6000621A730A77FE03C0719461947108681463
:100D700079045CF43A2D2B2D5C01832F922F3D8159
:100D80002E81DE82CD82C32ED22EAD81BE81AA16E7
:100D9000BB065CF43C2D2D2D6C01832F922F3D81E1
:100DA0002E81BE82AD82A32EB22E85012D813E8181
:100DB000021B130B1C012C183D0837FE03C0319495
:100DC00021943108780117FF03C03FEFE31AF30ABB
:100DD000F594E794C816D9062CF08FEF9FEF9A830D
:100DE000898304C0A1E0B0E0BA83A9832D813E814C
:100DF000A216B30624F1D201ED91FC910484F5858D
:100E0000E02D2B813C816814790424F44D815E81AE
:100E1000B60103C0A6016D817E81C2010995E21869
:100E2000F308F7FE06C029813A81C20ED31EE00EF8
:100E3000F11E8D819E8101969E838D83D7CF26964C
:100E40000FB6F894DEBF0FBECDBFDF91CF911F91DB
:100E50000F91FF90EF90DF90CF90BF90AF909F9059
:100E60008F907F906F905F904F903F902F9008955C
:100E700085ED8093BC008091BC0084FDFCCF109276
:100E80000A03089540918002262F30E0240F311D7F
:100E900021323105DCF420910A032430C9F4FC012D
:100EA00080E090E0861758F4309180022191DC01B7
:100EB000A05ABD4FA30FB11D2C930196F3CF809183
:100EC0008002680F6093800280E0089581E00895B9
:100ED00082E0089508950895E091C6048091C504C4
:100EE000E81730F4F0E0E953FB4F808190E008957B
:100EF0008FEF9FEF08959091C6048091C5049817D5
:100F000050F4E92FF0E0E953FB4F208130E09F5F80
:100F10009093C60402C02FEF3FEFC901089580915E
:100F2000C50490E02091C604821B91090895CF92D8
:100F3000DF92EF92FF920F931F93CF93DF937C0189
:100F4000CB018A0120910B03222389F0EB016B0175
:100F5000C40ED51ECC15DD0569F06991D701ED9160
:100F6000FC910190F081E02DC7010995F3CF642F2A
:100F70000E944207C801DF91CF911F910F91FF900E
:100F8000EF90DF90CF900895CF93DF931F92CDB76E
:100F9000DEB7698320910B032223D1F020912E0329
:100FA000203240F021E030E0FC013383228380E0F6
:100FB00090E015C080910C03E82FF0E0E35FFC4F58
:100FC000998190838F5F80930C0380932E0305C0DB
:100FD00061E0CE0101960E94420781E090E00F900F
:100FE000DF91CF910895089580E090E008950895ED
:100FF0000F931F93CF93DF938C01EB0188E2FB01EA
:1010000011928A95E9F74BE050E067E272E0CE0179
:101010000E94E42C1B8681E090E0A0E0B0E08C8789
:101020009D87AE87BF87F80186819781A085B185AE
:10103000888B998BAA8BBB8B83E090E0A0E0B0E01B
:101040008C8B9D8BAE8BBF8B1CA21DA21EA21FA2E0
:10105000188E198E1A8E1B8E1C8E1D8E1E8E1F8E44
:101060008AE097EDA3E2BCE388A399A3AAA3BBA35C
:10107000DF91CF911F910F9108950C94792B1F92BE
:101080000F920FB60F9211242F933F934F935F93BC
:101090006F937F938F939F93AF93BF93EF93FF9340
:1010A0008091A30287FF05C01092850010928400F2
:1010B0001BC02091A302022E000C330B8091F4037D
:1010C00090E02817390784F48091A302082E000CC1
:1010D000990BFC01EE0FFF1F8E0F9F1FFC01E053C9
:1010E000FC4F808186FD15C08091A3028F5F8093A5
:1010F000A3022091A302022E000C330B8091F40373
:1011000090E028173907C4F48091A3028C3064F171
:1011100013C08091A302082E000C990BFC01EE0F66
:10112000FF1F8E0F9F1FFC01E053FC4F808160E08A
:101130008F730E94141BD8CF8091840090918500FA
:10114000049680349C4918F480E49CE905C08091A1
:101150008400909185000496909389008093880084
:101160008FEF8093A3023BC02091840030918500D3
:101170008091A302082E000C990BFC01EE0FFF1FBB
:101180008E0F9F1FFC01E053FC4F81819281820FE3
:10119000931F90938900809388008091A302082E6A
:1011A000000C990BFC01EE0FFF1F8E0F9F1FFC011F
:1011B000E053FC4F808186FF12C08091A302082E6D
:1011C000000C990BFC01EE0FFF1F8E0F9F1FFC01FF
:1011D000E053FC4F808161E08F730E94141BFF91EC
:1011E000EF91BF91AF919F918F917F916F915F919F
:1011F0004F913F912F910F900FBE0F901F90189518
:101200001F920F920FB60F9211242F933F934F937B
:101210005F936F937F938F939F93AF93BF93EF935E
:10122000FF938091B900887F803609F49CC068F5EF
:10123000883209F45BC090F4803109F454C038F46A
:10124000882309F4F6C0883009F44DC0F6C088310F
:1012500009F44CC0803209F45DC0EFC0803409F459
:1012600068C048F4803309F455C0883309F0E5C0FC
:1012700080930803D8C0803509F44FC0883509F43D
:101280005DC0883409F0D9C0D6C0883909F4C7C018
:10129000A8F4883709F467C038F4883609F463C0C5
:1012A000803709F460C0C9C0883809F4B8C08039F3
:1012B00009F45FC0803809F0C0C05BC0803B09F40E
:1012C00086C038F4803A09F466C0883A09F47FC0D1
:1012D000B4C0803C09F4A7C0883C09F4A4C0883B92
:1012E00009F48AC0AAC08091E50210C0909107035A
:1012F00080910603981770F5E091070381E08E0F47
:1013000080930703F0E0EA51FD4F80818093BB009A
:1013100085EC86C0809308038EC0E091070381E0CE
:101320008E0F809307038091BB00F0E0EA51FD4FE0
:10133000808390910703809106036EC0E0910703BC
:1013400081E08E0F809307038091BB00F0E0EA51AB
:10135000FD4F80838091090381116DC081E08093EE
:10136000E40284EA61C083E080930A031092A2023F
:10137000CFCF8091A202803208F051C0E091A2024A
:1013800081E08E0F8093A2028091BB00F0E0EE57C7
:10139000FD4F8083BDCF85EC8093BC0010920A0383
:1013A0008091A202803230F4E091A202F0E0EE5788
:1013B000FD4F10826091A20270E0E091C104F091B3
:1013C000C20482E892E009951092A20236C084E03D
:1013D00080930A031092810210928002E091C3046C
:1013E000F091C404099580918002811105C081E0CB
:1013F0008093800210926002E091810281E08E0F62
:1014000080938102F0E0E05AFD4F80818093BB0021
:101410009091810280918002981708F479CF85E835
:101420008093BC000AC085EC8093BC0010920A0334
:1014300004C0109208030E943807FF91EF91BF91FA
:10144000AF919F918F917F916F915F914F913F915C
:101450002F910F900FBE0F901F90189581E08093F1
:101460000B0360932D0310920C0310922E0308952A
:101470008F929F92AF92BF92CF92DF92EF92FF92A4
:101480000F931F93CF93DF93CDB7DEB762970FB65D
:10149000F894DEBF0FBECDBF7C018B0184E2DB017F
:1014A0001D928A95E9F784E290E0A0E0B0E0FB01AC
:1014B00080839183A283B383F70186819781A0857E
:1014C000B185FB0184839583A683B78383E090E095
:1014D000A0E0B0E080879187A287B3872FB7F89408
:1014E0008091CC039091CD03A091CE03B091CF0316
:1014F0002FBF808B918BA28BB38BFE0131968CE03A
:10150000DF011D928A95E9F76E01BDE0CB0ED11C7B
:1015100086E0F60111928A95E9F7D70113966C914E
:10152000139714968D919C9115970E942E0AF7019E
:1015300084819581DC01ED91FC910190F081E02D99
:101540006AE10995F701848195810E94E41366E0C0
:10155000D70113968C910E94EE161092C6048093C8
:10156000C5045E01B3E1AB0EB11CF7018481958126
:10157000DC01ED91FC910284F385E02D0995F601E3
:1015800081936F01EA15FB0581F76D857E85072E36
:10159000000C880B990B0E94D12720E030E040E836
:1015A0005DE30E9430284B015C016F857889072E2E
:1015B000000C880B990B0E94D12720E030E040E816
:1015C0005DE30E9430286B017C0169897A89072ECE
:1015D000000C880B990B0E94D12720E030E040E8F6
:1015E0005DE30E943028D80154968D929D92AD9271
:1015F000BC925797F801C08ED18EE28EF38E5C9626
:101600006D937D938D939C935F9781E062960FB667
:10161000F894DEBF0FBECDBFDF91CF911F910F9128
:10162000FF90EF90DF90CF90BF90AF909F908F9002
:1016300008950895CF93DF938FE293E00E945E0DAB
:10164000EC01803491052CF460E070EC89E794ECB7
:1016500019C08FE293E00E945E0D80349105A4F3DF
:10166000C054D1092FE72C9FB0012D9F700D11247C
:1016700080549109680F791F072E000C880B990B75
:101680000E94D127DF91CF910895EF92FF920F939F
:101690001F93CF93DF930E941F1681E080939704DE
:1016A00080939A0481E090E090939604809395044F
:1016B00090939404809393041092900410928F045A
:1016C000109292041092910486E494E00E9408160D
:1016D0001092900410928F04C8E0D0E0D09392044E
:1016E000C093910480E494E00E9408168091460221
:1016F0008823A1F08BE490E09093900480938F0472
:10170000D0939204C0939104609147027091480273
:101710008091490290914A020E94EF1455E0E52E13
:10172000F12CF0929004E0928F04C0E1D0E0D093CD
:101730009204C0939104609153027091540280917D
:101740005502909156020E94EF1406E210E01093A9
:10175000900400938F04D0939204C09391046091FD
:101760005B0270915C0280915D0290915E020E942A
:10177000EF1480E590E09093900480938F04D093D1
:101780009204C093910460914F0270915002809135
:101790005102909152020E94EF14F0929004E09254
:1017A0008F04C8E1D0E0D0939204C093910460917B
:1017B0004B0270914C0280914D0290914E020E941A
:1017C000EF141093900400938F04D0939204C0936D
:1017D0009104609157027091580280915902909142
:1017E0005A020E94EF1480919F049091A004892BCB
:1017F000D1F02091B9043091BA044091BB045091CA
:10180000BC0460E074E284EF90E00E945729DA01A2
:10181000C9014097A109B109B695A79597958795F4
:101820008093B80016C080919D0490919E04892BEE
:1018300031F08091B7049091B8040E940D13E091AB
:10184000B104F091B20490818091B604809589230F
:10185000808365E08EE395E00E94401460918704E8
:10186000615083E894E00E94AF1220918904309186
:101870008A04C901079697FD079633E095958795E9
:101880003A95E1F72091870430918804829F800186
:10189000839F100D929F100D1124C091A104D0912F
:1018A000A20480919F049091A0040C0F1D1F00972B
:1018B00009F445C06091A3040E942E0A80919F0400
:1018C0009091A004DC01ED91FC910190F081E02D5C
:1018D00060E409957E01D1E080919F049091A0047D
:1018E0000E151F0549F1D032B8F00E94E413609143
:1018F000A30480919F049091A0040E942E0A8091DD
:101900009F049091A004DC01ED91FC910190F08185
:10191000E02D60E40995D1E080919F049091A004AE
:10192000F70161917F01DC01ED91FC910190F08163
:10193000E02D0995DF5FD0CF0E94E41341C0E09114
:10194000AF04F091B00490818091B504892B80831D
:10195000C017D107A9F1899120919D0430919E046F
:10196000232B19F00E94A812F3CF28E030E040E8C2
:10197000E091AB04F091AC049091B304582F542340
:1019800019F05081952B03C0508190959523908339
:10199000E091AD04F091AE0450819091B404952B88
:1019A0009083E091AD04F091AE0450819091B40425
:1019B000909595239083469521503109C9F6C8CF5B
:1019C00080919F049091A004892BD1F02091BD04B7
:1019D0003091BE044091BF045091C00460E074E2B5
:1019E00084EF90E00E945729DA01C9014097A109CC
:1019F000B109B695A795979587958093B80017C0BC
:101A0000E091B104F091B20490818091B604892BE9
:101A1000808380919D0490919E04892B41F0DF91F9
:101A2000CF911F910F91FF90EF900C94A712DF912F
:101A3000CF911F910F91FF90EF900895BC0180E42A
:101A400094E00E9419120C94450BCF92DF92EF9212
:101A5000FF920F931F93CF93DF936C017A018B0159
:101A6000C0E0D0E0CE15DF0581F0D8016D918D0189
:101A7000D601ED91FC910190F081E02DC601099510
:101A8000892B11F02196EECF7E01C701DF91CF9116
:101A90001F910F91FF90EF90DF90CF900895FC0180
:101AA000538D448D252F30E0842F90E0821B930BC3
:101AB000541710F0CF96089501970895FC01918D69
:101AC000828D981761F0828DDF01A80FB11D5D96A0
:101AD0008C91928D9F5F9F73928F90E008958FEF0E
:101AE0009FEF0895FC01918D828D981731F0828DC2
:101AF000E80FF11D858D90E008958FEF9FEF089519
:101B0000FC01918D228D892F90E0805C9F4F821B7C
:101B100091098F73992708958FE293E00E94800DB9
:101B200021E0892B09F420E0822F0895FC01848DA7
:101B3000DF01A80FB11DA35ABF4F2C91848D90E0F7
:101B400001968F739927848FA689B7892C93A089D2
:101B5000B1898C91837080648C93938D848D98135C
:101B600006C00288F389E02D80818F7D80830895EF
:101B7000EF92FF920F931F93CF93DF93EC0181E0DD
:101B8000888F9B8D8C8D981305C0E889F989808199
:101B900085FD26C0F62E0B8D10E00F5F1F4F0F73D3
:101BA0001127E02E8C8DE8120CC00FB607FCFACF7F
:101BB000E889F989808185FFF5CFCE010E94960DD5
:101BC000F1CF8B8DFE01E80FF11DE35AFF4FF0823C
:101BD0009FB7F8940B8FEA89FB89808180620AC0E5
:101BE0009FB7F894EE89FF896083E889F98980813D
:101BF0008370806480839FBF81E090E0DF91CF910C
:101C00001F910F91FF90EF900895CF93DF93EC0118
:101C1000888D8823C9F0EA89FB89808185FD05C00C
:101C2000A889B9898C9186FD0FC00FB607FCF5CF46
:101C3000808185FFF2CFA889B9898C9185FFEDCF8E
:101C4000CE010E94960DE7CFDF91CF91089580E0FD
:101C500090E0892B29F00E948C0D81110C940000DA
:101C60000895FC0177FDB9C08085918568177907D3
:101C70000CF0B3C057FDB1C0828593854817590752
:101C80000CF008958589823079F484819581DC0196
:101C9000A61BB70BBD016150710986819781DC01DC
:101CA000A41BB50BAD010EC0833009F084C06427BE
:101CB0007527CA0186279727682779274681578184
:101CC000481B590B415051092130310531F048F181
:101CD0002230310509F44AC00895CA0157FD07961C
:101CE0009C01A3E035952795AA95E1F7A481B581DC
:101CF0002A9FC0012B9F900D3A9F900D1124680FD1
:101D0000791F068CF78DE02DE60FF71F47705527DA
:101D100081E090E001C0880F4A95EAF79081892B15
:101D200048C0CA0157FD07969C0193E03595279559
:101D30009A95E1F7A481B5812A9FC0012B9F900D50
:101D40003A9F900D1124680F791F068CF78DE02DB6
:101D5000E60FF71F4770552781E090E001C0880F1C
:101D60004A95EAF780959081892323C0CA0157FDDF
:101D700007969C0183E0359527958A95E1F7A48124
:101D8000B5812A9FC0012B9F900D3A9F900D112481
:101D9000680F791F068CF78DE02DE60FF71F47704F
:101DA000552781E090E001C0880F4A95EAF79081BD
:101DB000892780830895813009F086CF64277527AD
:101DC000462757276427752784819581DC01A61B48
:101DD000B70BBD016150710977CF0895209144027E
:101DE000309145022817390771F490914202809191
:101DF0004302981741F0E0914202F0E0EC55FD4FAC
:101E0000808190E008958FEF9FEF089508951F93CC
:101E1000CF93DF93DC015C968D919C915D97009749
:101E200039F421E030E013963C932E9312973BC097
:101E30005196ED91FC91529750962C915097322FDC
:101E400030951FB75E964C915E97742F727041FD6E
:101E50006095F8944081772311F0422B01C0432311
:101E60004083EC012197F1F748E0508160FF02C008
:101E7000522B01C053235083EC012197F1F7669553
:101E8000415099F78081772319F08323808302C022
:101E9000282B20831FBF5C968D919C915D970197A5
:101EA000F1F781E090E0DF91CF911F9108952091AB
:101EB0004402309145022817390771F4809143029A
:101EC0002091420290E0805C9F4F821B910960E468
:101ED00070E00E949429089580E090E00895209198
:101EE00044023091450228173907B9F49091420213
:101EF00080914302981789F0E0914202F0E0EC559E
:101F0000FD4F80812091420230E02F5F3F4F2F73C1
:101F100033272093420290E008958FEF9FEF0895BA
:101F20000895FC016370658B8481958126813781DA
:101F3000613039F0633029F09187808733872287B9
:101F40000895318720879387828708956F927F92C3
:101F50008F929F92AF92BF92CF92DF92EF92FF92B9
:101F60000F931F93CF93DF93EC014B015A0169014B
:101F70003801E881F9810284F385E02D0995E88133
:101F8000F9810288F389E02D87019601A501B4014A
:101F9000CE010995A501460D571D41505109E88113
:101FA000F9810288F389E02D9601B401CE010995EB
:101FB000E881F9810088F189E02D9301A501B40140
:101FC000CE010995C80CD91CB60161507109E88190
:101FD000F9810088F189E02D9301A501CE010995D1
:101FE000E881F9810688F789E02DCE01DF91CF9154
:101FF0001F910F91FF90EF90DF90CF90BF90AF9027
:102000009F908F907F906F9009948F929F92AF9244
:10201000BF92CF92DF92EF92FF920F931F93CF93D5
:10202000DF934C016B015A01E901DC01ED91FC9158
:102030006217730781F40417150724F48B2D5801D8
:10204000042F182F0A191B0998012F5F3F4F048C8A
:10205000F58DE02D12C04017510709F526173707F7
:1020600024F48D2D6901C62FD82F9E012C193D090E
:102070002F5F3F4F068CF78DE02D8701A501B6013C
:10208000C4010995DF91CF911F910F91FF90EF90BF
:10209000DF90CF90BF90AF909F908F900895028473
:1020A000F385E02D0995D401ED91FC910488F58923
:1020B000E02D9E01A501B601C4010995D401ED9161
:1020C000FC910688F789E02DC401DF91CF911F9123
:1020D0000F91FF90EF90DF90CF90BF90AF909F90C7
:1020E0008F9009940E94C82C0F931F93CF93DF9376
:1020F000DC015596EC915597E23071F0E330E9F050
:10210000E13079F5FB0114960D90BC91A02DA41B34
:10211000B50BA21BB30B18C0EC01EC81FD81E61BD3
:10212000F70BBF0161507109EE81FF81DF01A41B34
:10213000B50BAD01421B530B14C0DA01EC01EE816B
:10214000FF81E61BF70B3197F7FD0DC0EC014E81C7
:102150005F81E417F5073CF4AF01BD010E94F81957
:1021600002C00E945F1ADF91CF911F910F910895D5
:102170000F931F93DC015596EC915597E23061F077
:10218000E33009F1E13081F51496ED91FC9115975A
:10219000E41BF50B319723C0DC011496ED91FC9103
:1021A0001597DF01A61BB70BBD01DC011696ED915B
:1021B000FC911797DF01A41BB50BAD0141505109EC
:1021C000621B730B11C0FA01DC0116964D915C91F4
:1021D0001797DA01A61BB70BBD01621B730BAB018E
:1021E000BF010E945F1A0CC057FD0AC0DC011696A1
:1021F000ED91FC9117974E175F0714F40E94F819A0
:102200001F910F910895AF92BF92CF92EF92FF92DC
:102210000F931F93CF93DF93EC01262F888D998D19
:10222000009709F040C06A3059F41D861C862C893D
:102230008E859F8538E0239F800D911D112441C01C
:102240006D3009F4AAC08E898823C1F03C898C8541
:102250009D8546E0349F800D911D11244885598548
:10226000481759075CF41D861C868E859F8548E0BB
:10227000349F800D911D11249F878E87EA88FB88EB
:10228000088919894E855F856C857D85CC88CE014E
:102290000E94DE172C898C859D8536E0239F800D5A
:1022A000911D112442C06A3079F41D861C862C8948
:1022B000FC013696E4918E859F852E9F800D911DA1
:1022C00011249F878E8769C06D3009F466C0FC01B8
:1022D00034963491631708F460C03196E491E617A0
:1022E00008F45BC0FC01329665917491422F50E076
:1022F000431B510937E0349F5001359FB00C112426
:10230000A60EB71EF501329634913196E49133232F
:1023100011F0E1110DC0F5013496E4912C898C8502
:102320009D85E29F800D911D11249D878C8735C06E
:10233000F501359644915E89552311F16C89E32F9F
:10234000F0E0E40FF11D47FDFA956E9FD0016F9FFD
:10235000B00D11244C855D854A0F5B1FE885F9851A
:10236000E417F5076CF41D861C86FC013696E49193
:102370008E859F856E9F800D911D11249F878E876E
:10238000EA88FB88088919894E855F856C857D857B
:10239000CC88CE010E94DE17BECF81E090E0DF91B5
:1023A000CF911F910F91FF90EF90CF90BF90AF9082
:1023B0000895EF92FF920F931F93CF93DF93EC0159
:1023C0007B018A0188819981009729F02A813B81CC
:1023D00024173507F8F4B8016F5F7F4F0E94022C75
:1023E000009759F0998388831B830A832C813D8150
:1023F000232B81F4FC0110820DC088819981009704
:1024000011F00E94792B198218821D821C821B8276
:102410001A8207C01D830C83B701888199810E94AD
:10242000DD2CCE01DF91CF911F910F91FF90EF90A6
:102430000895CF93DF93EC016115710559F0FB010D
:1024400001900020E9F73197AF01461B570B0E941E
:10245000D9110CC088819981009711F00E94792BC5
:10246000198218821D821C821B821A82CE01DF9182
:10247000CF9108956115710579F0FB01019000205D
:10248000E9F73197AF01461B570BDC01ED91FC9149
:102490000280F381E02D099480E090E008951F927E
:1024A0000F920FB60F9211242F933F934F935F9388
:1024B0006F937F938F939F93AF93BF93EF93FF930C
:1024C0008FE293E00E94960DFF91EF91BF91AF9143
:1024D0009F918F917F916F915F914F913F912F913C
:1024E0000F900FBE0F901F9018951F920F920FB66E
:1024F0000F9211242F938F939F93EF93FF93E0916B
:102500003F03F09140038081E0914503F091460341
:1025100082FD12C09081809148038F5F8F7320915C
:102520004903821751F0E0914803F0E0E15DFC4F70
:10253000958F8093480301C08081FF91EF919F9117
:102540008F912F910F900FBE0F901F9018950895A7
:102550008EBD00000DB407FEFDCF8EB508951F930C
:10256000CF93DF93FC01848D958D009701F1162F99
:10257000EF0160A10E942E0A8C8D9D8DDC01ED91F2
:10258000FC910190F081E02D60E009958C8D9D8D8E
:10259000DC01ED91FC910190F081E02D612F099516
:1025A0008C8D9D8DDF91CF911F910C94E413A4A588
:1025B000B5A59C9182A9809589238C93828D938D5A
:1025C000892B31F0862FDF91CF911F910C94A812A7
:1025D00028E030E080E8A0A5B1A590A9462F4823C7
:1025E00019F04C91942B03C04C91909594239C939B
:1025F000A2A5B3A54C9191A9942B9C93A2A5B3A598
:102600004C9191A9909594239C93869521503109E2
:1026100011F7DF91CF911F9108958CBD9DBD089555
:102620001F93CF93DF93EC01162F8C8D9D8D892BFB
:10263000B1F02EA93FA948AD59AD60E074E284EF36
:1026400090E00E945729DA01C9014097A109B10918
:10265000B695A795979587958093B8000FC08A8DFA
:102660009B8D892B21F08CA99DA90E940D13EEA5AD
:10267000FFA590818BA9809589238083111102C0C9
:1026800066EA01C067EACE010E94AF128C8D9D8D73
:10269000892BB1F02AAD3BAD4CAD5DAD60E074E28D
:1026A00084EF90E00E945729DA01C9014097A109FF
:1026B000B109B695A795979587958093B80006C000
:1026C000EEA5FFA590818BA9892B8083DF91CF9107
:1026D0001F9108951F920F920FB60F9211242F93FE
:1026E0003F934F935F936F937F938F939F93AF939A
:1026F000BF93EF93FF93E0914402F091450230972E
:1027000009F451C0968DA685B785858591FF04C0D3
:102710009C91892329F447C09C91892309F043C0E7
:10272000A389B4899C918589809589238C93868916
:1027300097890197F1F7608D718DA685B7855585CD
:1027400038E020E0CB010197F1F7822F90E09595DA
:102750008795282F4C91452309F02068315091F737
:10276000868D81FD20958091430290E001968F73C4
:10277000992730914202381749F0A0914302B0E006
:10278000AC55BD4F2C938093430203C0868D81606E
:10279000868F828D938D0197F1F7A389B4899C91DF
:1027A0008589892B8C93FF91EF91BF91AF919F9178
:1027B0008F917F916F915F914F913F912F910F90EA
:1027C0000FBE0F901F90189530912E03313208F0F4
:1027D0004BC080910A038111FCCF90912D0322E020
:1027E00020930A0321E0209309032FEF209308038D
:1027F0001092070330930603EDE0F3E0A6EEB2E09B
:1028000020E0321721F041914D932F5FFACF1092C3
:10281000E5022091E502990F922B9093E5029091A9
:10282000E402913061F41092E4029091E5029093F9
:10283000BB009091BC0093FDF8CF95EC01C095EEE4
:102840009093BC0090910A039230E1F390910803B9
:102850009F3F79F080910803803241F08091080316
:10286000803331F084E005C081E003C082E001C024
:1028700083E010920C0310922E0310920B03089524
:10288000DF92EF92FF920F931F93CF93DF93D82E97
:10289000D92FC62F80919F049091A004009709F42E
:1028A0004EC06091A3040E942E0A80919F049091D3
:1028B000A004DC01ED91FC910190F081E02D60E03D
:1028C0000995ED2CFD2E11E080919F049091A004BC
:1028D000CC2361F11032B8F00E94E4136091A3049C
:1028E00080919F049091A0040E942E0A80919F04E1
:1028F0009091A004DC01ED91FC910190F081E02D1C
:1029000060E0099511E080919F049091A004F70187
:102910006491DC01ED91FC910190F081E02D09952D
:102920001F5FC150BFEFEB1AFB0ACECFDF91CF91F3
:102930001F910F91FF90EF90DF900C94E413E091C2
:10294000AF04F091B00490818091B5048095892303
:1029500080830D2D1D2FCC2309F439C0F8018491FB
:1029600020919D0430919E04232B31F00E94A812E7
:10297000C1500F5F1F4FEFCF28E030E040E8E091FB
:10298000AB04F091AC049091B304582F542319F088
:102990005081952B03C05081909595239083E091B1
:1029A000AD04F091AE0450819091B404952B9083C6
:1029B000E091AD04F091AE0450819091B4049095F3
:1029C00095239083469521503109C9F6D1CFDF91E7
:1029D000CF911F910F91FF90EF90DF9008952F926C
:1029E0003F924F925F926F927F928F929F92AF929F
:1029F000BF92CF92DF92EF92FF920F931F93CF93EC
:102A0000DF93CDB7DEB7A4970FB6F894DEBF0FBE45
:102A1000CDBF4B015C019B01AC010E94DC2A8823E5
:102A200019F065E372E01AC075016401E894F7F8E3
:102A30002FEF3FEF4FE75FE7C701B6010E94DC2AA7
:102A4000811112C02FEF3FEF4FE75FE7C701B601DB
:102A50000E94CA27181644F469E372E083E894E000
:102A60000E943A128C01B3C02FEF3FEF4FE75FE4B3
:102A7000C501B4010E94D72A18161CF46DE372E058
:102A8000EDCF2FEF3FEF4FE75FECC501B4010E94A0
:102A9000CA2787FDF3CF20E030E0A901C501B401CA
:102AA0000E94CA2787FF0BC06DE283E894E00E9472
:102AB00003116C01B7FAB094B7F8B09402C0C12CFE
:102AC000D12C2AE037ED43EA5BE3C501B4010E9453
:102AD000C3294B015C010E94A82A2B013C010E94E2
:102AE000CF279B01AC01C501B4010E94C2294B0153
:102AF0005C0119A27E0181E2E80EF11CEAA2FBA2B0
:102B0000C301B2012AE030E040E050E00E945729C2
:102B100029013A01605DF70162937F01232B242B89
:102B2000252B71F7BF0183E894E00E943A128C01D3
:102B30006EE283E894E00E940311800F911F8C01E4
:102B40000C0D1D1D83E0F82E9AE0292E312C412C0E
:102B5000512CFA94FF20D9F120E030E040E251E41A
:102B6000C501B4010E9430284B015C010E94A82AD3
:102B70009B0140E050E019A26AA07BA06CA3C32E89
:102B8000D42EE52ECA01B901A20191010E94572954
:102B9000605DF30162933F01211531054105510547
:102BA00089F7BF0183E894E00E943A12080F191FC9
:102BB0006CA17C2D8D2D9E2D0E94CF279B01AC01F9
:102BC000C501B4010E94C2294B015C01C2CF6DEA6C
:102BD00071E083E894E00E943A12800F911FA4965E
:102BE0000FB6F894DEBF0FBECDBFDF91CF911F911E
:102BF0000F91FF90EF90DF90CF90BF90AF909F909C
:102C00008F907F906F905F904F903F902F9008959E
:102C1000CF93DF93FC01448155816081718183E80A
:102C200094E00E94250DEC016DEA71E083E894E0E8
:102C30000E943A128C0F9D1FDF91CF910895209131
:102C4000890430918A04C901079697FD079623E00D
:102C5000959587952A95E1F720918704309188040E
:102C6000829FA001839F500D929F500D112460E020
:102C700070E08091A1049091A2040C94D62CCF9284
:102C8000DF92EF92FF92DC01A03282E0B8070CF0F5
:102C90003EC0B7FD06C0A53BB1052CF0A4EBB0E0EB
:102CA00002C0A0E0B0E080913E0428E830E0690175
:102CB000C81AD10887FDD394CC0CDD1CCC0CDD1CCC
:102CC0000D2C000CEE08FF0880913F0428E532E04F
:102CD000281B310987FD3395220F331F220F331F25
:102CE000A901330F660B770B9A01AB012C193D0933
:102CF0004E095F090E94182924EB30E040E050E0C3
:102D00000E94EE28C20ED31EE41EF51ED60190913D
:102D10003D049C3098F580913E0448E850E0481B03
:102D2000510987FD5395440F551F440F551FA41794
:102D3000B5078CF080913F0428E532E0281B31096B
:102D400087FD3395220F331F220F331FAD012A1742
:102D50003B070CF4A90142505109440F551F2FB7EE
:102D6000F894892F90E0FC01EE0FFF1F8E0F9F1F3C
:102D7000FC01E053FC4F528341832FBFFF90EF9043
:102D8000DF90CF9008950F931F93CF93DF93082F79
:102D9000162FCCE4D4E06B818C819D810E942E0A99
:102DA0008C819D81DC01ED91FC910190F081E02D01
:102DB000602F09958C819D81DC01ED91FC91019042
:102DC000F081E02D612F09958C819D810E94E41393
:102DD00081E0DF91CF911F910F91089590910A03A7
:102DE0009111FCCF91E090930A03909309032FEF88
:102DF0002093080310920703260F20930603909355
:102E0000E5029091E502880F892B8093E50280917D
:102E1000E402813061F41092E4028091E502809333
:102E2000BB008091BC0083FDF8CF85EC01C085EE2E
:102E30008093BC0080910A038130E1F38091070305
:102E4000861710F460910703A6EEB2E0E7ECF4E019
:102E500080E0861721F09D9191938F5FFACF0895BE
:102E6000CF93DF93CCE4D4E06B818C819D810E9471
:102E70002E0A8C819D81DC01ED91FC910190F08105
:102E8000E02D60E009958C819D810E94E41361E052
:102E90008B810E94EE161092C6048093C5048C812B
:102EA0009D81DC01ED91FC910284F385E02D099573
:102EB000DF91CF9108953F924F925F926F927F92F0
:102EC0008F929F92AF92BF92CF92DF92EF92FF923A
:102ED0000F931F93CF93DF9300D000D000D0CDB7D6
:102EE000DEB72C013B014A015901C901079697FD44
:102EF00007969C0193E0359527959A95E1F73C83D9
:102F00002B83C12CD12CE12CF12C312CC3018E0D43
:102F10009F1D9A838983E016F106C4F51E821D82E7
:102F20002D813E812A153B054CF5C90187709927F3
:102F3000892B11F0330C0EC0ED81FE81F7FD379621
:102F400083E0F595E7958A95E1F7EC0DFD1DE80D19
:102F5000F91D349037FE0CC021E030E049815A81E0
:102F60006D817E81640D751D83E894E00E947F066B
:102F70008D819E8101969E838D83D2CF9FEFE91A2A
:102F8000F90A2B813C81C20ED31EC0CF26960FB604
:102F9000F894DEBF0FBECDBFDF91CF911F910F918F
:102FA000FF90EF90DF90CF90BF90AF909F908F9069
:102FB0007F906F905F904F903F9008952F923F9237
:102FC0004F925F926F927F928F929F92AF92BF9239
:102FD000CF92DF92EF92FF920F931F93CF93DF93E5
:102FE000CDB7DEB76B970FB6F894DEBF0FBECDBF7F
:102FF0009B8F8A8F5B011A01D22E1F830E833701AC
:10300000C982DC0158962D913C91599721153105C3
:1030100009F0E6C018968D919C9119976817790769
:103020000CF0CDC11A968D919C911B9748175907AA
:103030000CF0C5C18C2C912CFB0126E0C29EE00D4A
:10304000F11D1124FB87EA871E161F060CF0B7C17D
:10305000A40183E0440F551F8A95E1F75D874C87F3
:10306000CA01820D931D181619060CF0A8C15796B7
:103070008C91811104C05FEA5D1508F4D394AA8D88
:10308000BB8DED91FC9111970284F385E02DCD016C
:103090000995B5E0DB9EC0011124F5013596FF8747
:1030A000EE87BB82AA8225019C012A193B09398B34
:1030B000288BA101485F5F4F5B8B4A8BE889F989B8
:1030C000E40DF51DE355FA4F5491588761013D8297
:1030D0002C82888580FF13C0AA8DBB8DED91FC9159
:1030E000B981B13031F40484F585E02D2E813F8122
:1030F00016C00684F785E02DEE80FF801AC0EE81B1
:10310000FF81E615F705F1F0AA8DBB8DED91FC91DD
:10311000B981B13051F40484F585E02D9301A60105
:10312000B2018A8D9B8D09950DC00684F785E02D2F
:103130007301840194014C815D816A817B818A8D58
:103140009B8D0995E885E695E887FFEFCF1ADF0AA2
:103150002C813D81280D391D3D832C834A895B8953
:10316000C416D50609F0B5CF5FEF451A550A8A8116
:103170009B81880D991D9B838A83AE85BF854A16E6
:103180005B0609F09BCFEE81FF81E615F70509F498
:10319000F4C0EA8DFB8DA081B181F981F13079F421
:1031A000B5016B5F7F4F5096ED91FC915197830174
:1031B00028E030E0A1018A8D9B8D0995DEC06A85EB
:1031C0007B85681979091E96ED91FC911F97730113
:1031D0000C851D859401A1018A8D9B8D0995CDC01B
:1031E000F9013496E491DE1AF901329685919491B1
:1031F000B7E0DB9E800D911D1124F90125913491DA
:103200003B8B2A8BFC01259134912901FC013296DC
:10321000C490319634913E87329614913196D49071
:103220004981423058F0612E012E000C77088D2D17
:103230000D2C000C990B9987888704C01986188675
:10324000612C712CAA8DBB8DED91FC91119702849C
:10325000F385E02DCD010995B9818B2E912C689CC9
:10326000C001699C900D789C900D1124FC01EA0D21
:10327000FB1DFD87EC871A82712C612CE12F110F49
:10328000FF0B95012E0F3F1F3B872A87AC0CB11C0B
:10329000A5014E0F5F1F5F8B4E8BC1018D0D911DE0
:1032A000D7FC9A95998F888F9E85691608F065C01E
:1032B000862D90E048855985480F591F489D9001FB
:1032C000499D300D589D300D1124D101A20FB31F1F
:1032D000B98BA88BEC85FD85FD83EC83AA84BB8428
:1032E000DA80FA85DF1A288D398D280F391F3D8B3A
:1032F0002C8B8D2D8A0D4E895F89A416B506C1F1E0
:10330000877041F4C2010196EA89FB89E40DF51D3D
:1033100074902C0177FE21C0AA8DBB8DED91FC919C
:10332000B981B13061F40484F585E02D2E813F81AF
:103330004C895D89B5018A8D9B8D09950EC00684E7
:10334000F785E02DEE80FF8084019401488959893A
:103350006C817D818A8D9B8D0995770CEFEFAE1A7C
:10336000BE0A2C813D81280D391D3D832C83C1CFA0
:103370003A813C0D3A83639497CFAA8DBB8DED9132
:10338000FC9111970688F789E02DCD016B960FB659
:10339000F894DEBF0FBECDBFDF91CF911F910F918B
:1033A000FF90EF90DF90CF90BF90AF909F908F9065
:1033B0007F906F905F904F903F902F9009946B9605
:1033C0000FB6F894DEBF0FBECDBFDF91CF911F9136
:1033D0000F91FF90EF90DF90CF90BF90AF909F90B4
:1033E0008F907F906F905F904F903F902F900895B7
:1033F0000F931F93CF93DF9377FF04C0260F371FE0
:1034000060E070E0DC011496CD91DC911597FB0132
:10341000E20FF31FCE17DF071CF49E01261B370BAC
:10342000121613060CF046C0FA0157FD3796DF015D
:10343000E3E0B595A795EA95E1F7AC9FF001AD9F64
:10344000F00DBC9FF00D11246E0F7F1FDC015E9606
:10345000ED91FC915F97E60FF71F4770552781E0CC
:1034600090E001C0880F4A95EAF7482F0130110516
:1034700039F078F002301105E9F42E0F3F1F13C028
:103480002E0F3F1FE217F307A9F08081842B819351
:10349000F9CF80952E0F3F1FE217F30759F0908167
:1034A00098239193F9CFE217F30721F080818427C5
:1034B0008193F9CFDF91CF911F910F910895EF92F2
:1034C000FF920F931F93CF93DF93EC0177FDA5C07D
:1034D000EC80FD806E157F050CF09FC057FF04C087
:1034E000240F351F40E050E08E819F81FA01E20FEA
:1034F000F31F8E179F071CF49C01241B350B12161B
:1035000013060CF08AC0922F842F86958695869597
:103510008E9DD0018F9DB00D11246A0F7B1FAE8D43
:10352000BF8DA60FB71F4770B1F188E0841B482FED
:10353000682F70E0FB01EB55FA4FE491281798F4DF
:10354000621B71092FEF30E002C0359527956A950F
:10355000E2F7E2230130110549F078F0023011055D
:1035600009F05BC00EC00130110519F48C91E82BF5
:103570000AC00130110508F049C0E0958C91E8239C
:1035800002C08C91E827EC93941708F446C02C8174
:103590003D81A20FB31FE92FE41BE830F8F00230A1
:1035A000110561F48E2F9C9190959C932C813D8107
:1035B000A20FB31F88508830B0F70FC081E001150B
:1035C000110509F480E081959E2F8C932C813D811B
:1035D000A20FB31F98509830C0F7E770EE23E9F0C0
:1035E000F0E0E356FA4FE4910130110539F048F06C
:1035F0000230110591F48C91E82706C08C91E82BDC
:1036000003C0E0958C91E823EC9307C002301105CC
:1036100009F4B7CFAE0DBF1DBECFDF91CF911F9183
:103620000F91FF90EF90089590E0FC01E757FA4F5B
:103630002491FC01E559FA4F3491FC01E95AFA4F03
:10364000E491EE2309F43CC0222339F1233091F0B8
:1036500038F42130A9F0223001F584B58F7D12C0F5
:10366000273091F02830A1F02430B9F48091800007
:103670008F7D03C0809180008F77809380000DC084
:1036800084B58F7784BD09C08091B0008F7703C067
:103690008091B0008F7D8093B000F0E0EE0FFF1FAF
:1036A000E35BFA4FA591B4919FB7F894611104C000
:1036B0008C913095382302C0EC913E2B3C939FBFF8
:1036C00008951092C6041092C50410920C03109233
:1036D0002E0310920A0381E0809309031092E40202
:1036E00061E082E10E94141B61E083E10E94141BEF
:1036F000E9EBF0E080818E7F808380818D7F808305
:1037000088E48093B80085E48093BC008AE697E063
:103710009093C4048093C3048BE697E09093C20413
:103720008093C1040895CF93DF9390E0FC01E559A5
:10373000FA4F2491FC01E95AFA4F8491882361F1F0
:1037400090E0880F991FFC01E158FA4FC591D49180
:10375000FC01E35BFA4FA591B491611109C09FB7D9
:10376000F8948881209582238883EC912E230BC0C6
:10377000623061F49FB7F8948881322F30958323AB
:103780008883EC912E2B2C939FBF06C08FB7F894A3
:10379000E8812E2B28838FBFDF91CF9108958F92E0
:1037A0009F92AF92BF92CF92DF92EF92FF926B0106
:1037B0007C010E94181C4B015C01C114D104E1047E
:1037C000F104F1F00E94181CDC01CB018819990961
:1037D000AA09BB09883E9340A105B10570F321E019
:1037E000C21AD108E108F10888EE880E83E0981E1D
:1037F000A11CB11CC114D104E104F10419F7DDCFFF
:10380000FF90EF90DF90CF90BF90AF909F908F9000
:103810000895ECE4F4E082879387682F8DE390E0CD
:103820000E94C3166EE170E080E090E00C94CF1B24
:103830003FB7F8948091E8049091E904A091EA04DC
:10384000B091EB0426B5A89B05C02F3F19F0019657
:10385000A11DB11D3FBFBA2FA92F982F8827820F16
:10386000911DA11DB11DBC01CD0142E0660F771F66
:10387000881F991F4A95D1F708951F920F920FB68E
:103880000F9211242F933F938F939F93AF93BF93E6
:103890008091CC039091CD03A091CE03B091CF0342
:1038A0003091E70423E0230F2D3720F40196A11D6A
:1038B000B11D05C026E8230F0296A11DB11D20935E
:1038C000E7048093CC039093CD03A093CE03B093F1
:1038D000CF038091E8049091E904A091EA04B091AB
:1038E000EB040196A11DB11D8093E8049093E904B7
:1038F000A093EA04B093EB04BF91AF919F918F9195
:103900003F912F910F900FBE0F901F901895CF935E
:10391000DF93CDB7DEB7E5970FB6F894DEBF0FBEE5
:10392000CDBF789484B5826084BD84B5816084BD48
:1039300085B5826085BD85B5816085BD80916E004D
:10394000816080936E00109281008091810082607E
:1039500080938100809181008160809381008091BB
:1039600080008160809380008091B10084608093AA
:10397000B1008091B00081608093B00080917A00A6
:10398000846080937A0080917A00826080937A00CC
:1039900080917A00816080937A0080917A008068BB
:1039A00080937A001092C1001092730410927204F6
:1039B000109271041092700410926F0410926E04B1
:1039C0008DE991E090937504809374049091640460
:1039D000963108F058C02DEB30E030936F042093FF
:1039E0006E042BE931E030937104209370042CE2D3
:1039F00031E0309373042093720440916800983052
:103A000058F031E09E3008F430E021E0822F01C010
:103A1000880F3A95EAF701C084E0842B8093680010
:103A2000983038F09E3040F0963148F020E030E099
:103A300008C02DE630E005C02BE630E002C02CE6E1
:103A400030E030936C0420936B04983030F481E0C4
:103A500001C0880F9A95EAF70EC0292F30E09E30FA
:103A600018F42850310902C02E50310981E001C0FC
:103A7000880F2A95EAF780936D04809174049091E1
:103A800075040197F1F78091720490917304892B6A
:103A900049F1E0914402F091450224E0E835F20753
:103AA00009F1309739F0A389B4899C918589809573
:103AB00089238C93809176048E7F80937604109274
:103AC00043021092420288E594E09093450280936D
:103AD0004402E0916B04F0916C04908180916D043C
:103AE000892B80836CE971E088E594E00E943A12AA
:103AF0006DEA71E088E594E00E943A1262E082E0AB
:103B00000E94931B8091A1049091A204892BC1F57E
:103B10002091890430918A04C901079697FD079680
:103B2000B3E095958795BA95E1F720918704309198
:103B30008804AC01429FC001439F900D529F900D9D
:103B400011240E94E12A9093A2048093A104892B5E
:103B5000B9F404E215E0F8016491611107C06DEA5F
:103B600071E08FE293E00E943A1209C08FE293E085
:103B70000E94B80D0F5F1F4F892B69F7F0CFFFCF61
:103B80000E941F162091890430918A048091870435
:103B90009091880421323105A4F0B9016054710973
:103BA00077FF02C06F5F7F4F7595679582559109CA
:103BB00097FD019600E410E022E530E044E652E093
:103BC00013C0B9016052710977FF02C06F5F7F4F68
:103BD000759567958357910997FD019600E210E06E
:103BE00023E730E044E850E0959587950E945B1705
:103BF00082E08093A40480919F049091A004892B7B
:103C000031F08CE38093A3040E94611BBEC061E08D
:103C10008091A8040E94931B61E08091A9040E94F6
:103C2000931B8091A804082E000C990BFC01E95A03
:103C3000FA4FE491F0E0EE0FFF1FE35BFA4F25919E
:103C400034913093B0042093AF04FC01E559FA4F4E
:103C5000E491E093B5048091A904082E000C990B1F
:103C6000FC01E95AFA4FE491F0E0EE0FFF1FE35B2D
:103C7000FA4FA591B491B093B204A093B104FC01A2
:103C8000E559FA4FE491E093B6048C91E82BEC935C
:103C900080919D0490919E04892B09F434C01FB734
:103CA000F89480915F02811127C0E1E6F5E08491EC
:103CB000E5E7F5E09491E82FF0E0EE0FFF1FE15803
:103CC000FA4FA591B491EC91E92321F461E08AE0E7
:103CD0000E94141B61E08AE00E94931B8CB58061F6
:103CE0008CBD8CB580648CBD61E08DE00E94931B1F
:103CF00061E08BE00E94931B80915F028F5F809355
:103D00005F021FBF42C061E08091A6040E94931B26
:103D100061E08091A7040E94931B8091A604082E65
:103D2000000C990BFC01E95AFA4FE491F0E0EE0F18
:103D3000FF1FE35BFA4F259134913093AC0420933D
:103D4000AB04FC01E559FA4FE491E093B304809190
:103D5000A704082E000C990BFC01E95AFA4FE491D4
:103D6000F0E0EE0FFF1FE35BFA4FA591B491B09323
:103D7000AE04A093AD04FC01E559FA4FE491E09341
:103D8000B4048C91E095E823EC938091AA0487FD1C
:103D90001EC061E00E94931B61E08091AA040E9412
:103DA000141B61E070E080E090E00E94CF1B60E0B7
:103DB0008091AA040E94141B6AE070E080E090E009
:103DC0000E94CF1B61E08091AA040E94141B809185
:103DD0009F049091A004892BD1F02091B9043091D7
:103DE000BA044091BB045091BC0460E074E284EFDB
:103DF00090E00E945729DA01C9014097A109B10951
:103E0000B695A795979587958093B80016C0809131
:103E10009D0490919E04892B31F08091B70490917C
:103E2000B8040E940D13E091B104F091B2049081A6
:103E30008091B60480958923808364E080E890E0D7
:103E40000E94401460918904615083E894E00E94CC
:103E5000AF1264E08CE790E00E9440148091A404CB
:103E6000813011F064E101C060E183E894E00E94D8
:103E7000AF1264E088E790E00E94401480918704CC
:103E80009091880480389105E9F48091890490919B
:103E90008A048032910531F464E084E790E00E9466
:103EA000401429C08034910531F563E081E790E04A
:103EB0000E9440148091A404813011F06FEC17C06F
:103EC0006FE915C080369105B1F480918904909115
:103ED0008A04409781F463E08EE690E00E944014EB
:103EE0008091A404813011F06FEA01C060E183E8A1
:103EF00094E00E94AF1269ED83E894E00E94AF1253
:103F00008091A404813011F061EF01C062E283E886
:103F100094E00E94AF1266E088E690E00E944014B0
:103F200080919F049091A004892BD1F02091BD0431
:103F30003091BE044091BF045091C00460E074E22F
:103F400084EF90E00E945729DA01C9014097A10946
:103F5000B109B695A795979587958093B80011C03C
:103F6000E091B104F091B20490818091B604892B64
:103F7000808380919D0490919E04892B11F00E9472
:103F8000A7126DE072E086E494E00E9419120E948C
:103F9000450B82E192E00E941E0DE0913F03F091FB
:103FA000400382E08083E0913B03F0913C03108268
:103FB000E0913D03F0913E0380E18083109247033E
:103FC000E0914303F091440386E08083E091410354
:103FD000F0914203808180618083E0914103F09100
:103FE0004203808188608083E0914103F091420325
:103FF000808180688083E0914103F0914203808159
:104000008F7D80838EE192E00E941E0D0E94611BD5
:104010000E943017803A59F068EE73E080E090E03B
:104020000E94CF1B0E943017803A09F096C080E0B2
:1040300090E00E94091C60E28FE390E00E94C316AA
:104040000E943017803A39F06AE070E080E090E03A
:104050000E94CF1BF5CF62E370E080E090E00E9409
:10406000CF1B60E08EE390E00E94C3166AE070E030
:1040700080E090E00E94CF1B60E087E090E00E942B
:10408000C31660E08FE390E00E94C3166AE070E020
:1040900080E090E00E94CF1B8CE090E00E94091C21
:1040A00064E170E080E090E00E94CF1B80EB91E043
:1040B0000E941E0D68EE73E080E090E00E94CF1B2E
:1040C000009156041091570480E090E00E94091C72
:1040D00069E170E080E090E00E94CF1B60E087E043
:1040E00090E00E94C31660E88FE390E00E94C31640
:1040F0006AE070E080E090E00E94CF1BC8010E945F
:10410000091C64E170E080E090E00E94CF1B809188
:104110003D048C3008F054C061E086E00E94931B9F
:1041200080913D04E82FF0E09F01220F331FE20F42
:10413000F31FE053FC4F9081907C96609083109227
:104140003E0410923F046CE00E948829FCE08F9F9F
:10415000B001112440E050E006C0FFCF4F5F5F4F39
:104160004C30510579F09B01240F351FF901EE0FFA
:10417000FF1F2E0F3F1FF901E053FC4F908196FF68
:10418000EDCF11C081110FC01092800082E08093AA
:1041900081001092850010928400B19A80916F0086
:1041A000826080936F00E0913D04F0E0CF01880FC2
:1041B000991FE80FF91FE053FC4F808180648083D2
:1041C0008AE590E00E943F161092FD031092FE03D4
:1041D0001092FF03109200041092F5031092F60360
:1041E0001092F7031092F803412C512C94EB692E96
:1041F00092EC792E4092330450923404609235044C
:1042000070923604C12CD12C24EBE22E22E4F22E43
:10421000C0923704D0923804E0923904F0923A0404
:1042200080913B0400911F0410912004D8018D90CF
:104230009D90AD90BC90882309F44FC0A7019601D2
:10424000C501B4010E94D72A181634F4F801C082BF
:10425000D182E282F38210C020E030E044EB52ECE5
:10426000C501B4010E94CA2787FF06C0D8014D923C
:104270005D926D927C921397809027049090280411
:10428000A0902904B0902A04C0903704D09038043C
:10429000E0903904F0903A04A7019601C501B401F9
:1042A0000E94D72A181684F0C0903304D0903404AA
:1042B000E0903504F0903604A7019601C501B401E1
:1042C0000E94CA2787FF3DC0C0922704D0922804CD
:1042D000E0922904F0922A0434C08092270490923C
:1042E0002804A0922904B0922A04E0911D04F091C0
:1042F0001E0480819181A281B38180932B049093CD
:104300002C04A0932D04B0932E0420E030E044EB65
:1043100052E4C501B4010E94D72A1816ACF220E07D
:1043200030E044EB52ECC501B4010E94CA2787FF7C
:1043300008C0409227045092280460922904709289
:104340002A0481E080933B0463EC71E088E594E00B
:104350000E943A126DEA71E088E594E00E943A12F8
:1043600063ED71E086E494E00E9419120E94450B0F
:104370008FEA91E00E941E0D80E8882E8EE3982E31
:10438000A12CB12C8FE293E00E94800D892B09F4BF
:104390004AC18FE293E00E945E0D892B09F043C170
:1043A0008FE293E00E945E0D8130910509F062C0BA
:1043B0000E941A0B6B017C0120E030EC49E754ECC1
:1043C0000E94CA27882321F1C701B6010E94A12AB1
:1043D0009B01AC01A0E5B6E40E940D29A501940162
:1043E0000E94EE28CA01B9016852734281099109FD
:1043F0000E94D12720E030E048EC52E40E942F2AAE
:104400006093530270935402809355029093560226
:104410000E941A0B6B017C0120E030EC49E754EC60
:104420000E94CA27882309F4FCC0C701B6010E9474
:10443000A12A9B01AC01A0E5B6E40E940D29A501CB
:1044400094010E94EE28CA01B901685273428109A1
:1044500091090E94D12720E030E048EC52E40E940C
:104460002F2A60934B0270934C0280934D029093DD
:104470004E02D7C08230910509F044C00E941A0B49
:104480006B017C0120E030EC49E754EC0E94CA2724
:10449000882301F1C701B6010E94A12A9B01AC014A
:1044A000A8EEB3E00E940D29A50194010E94EE2818
:1044B000CA01B9010E94D12720E030E048EC52E463
:1044C0000E942F2A609308017093090180930A01CA
:1044D00090930B018BED91E00E941E0D80910801DD
:1044E00090910901A0910A01B0910B0180934702BC
:1044F00090934802A0934902B0934A02B1E0B0936E
:1045000046028FC08330910509F044C00E941A0B07
:104510006B017C0120E030EC49E754EC0E94CA2793
:10452000882301F1C701B6010E94A12A9B01AC01B9
:10453000A8E2B3E20E940D29A50194010E94EE2891
:10454000CA01B9010E94D12720E030E048EC52E4D2
:104550000E942F2A60930401709305018093060145
:104560009093070189EE91E00E941E0D8091040155
:1045700090910501A0910601B09107018093470237
:1045800090934802A0934902B0934A02E1E0E0937D
:10459000460247C08430910509F04AC20E941A0BB6
:1045A0006B017C0120E030EC49E754EC0E94CA2703
:1045B0008823F1F0C701B6010E94A12A9B01AC013A
:1045C000A8E2B3E20E940D29A50194010E94EE2801
:1045D000CA01B9010E94D12720E030E048EC52E442
:1045E0000E942F2A0E94A12A709303016093020166
:1045F00085EF91E00E941E0D609102017091030110
:10460000072E000C880B990B0E94D127609347025C
:10461000709348028093490290934A02F1E0F0932C
:1046200046020E94450BBE016F5F7F4F8CE494E011
:104630000E94380AC98CDA8CEB8CFC8C20915B02CE
:1046400030915C0240915D0250915E02C701B6015B
:104650000E94CA27811110C0209157023091580240
:104660004091590250915A026D8D7E8D8F8D98A187
:104670000E94CA278823F1F0C0925B02D0925C02AC
:10468000E0925D02F0925E028D8D9E8DAF8DB8A19D
:104690008093570290935802A0935902B0935A0204
:1046A000C092FD03D092FE03E092FF03F09200045B
:1046B0000E94450B8091530290915402A0915502A3
:1046C000B09156028093F5039093F603A093F703FD
:1046D000B093F80380913B04882309F450C18FB74D
:1046E000F8942091CC033091CD034091CE035091AA
:1046F000CF032AAB3BAB4CAB5DAB8FBF80912304A8
:1047000090912404A0912504B09126044AA95BA9A4
:104710006CA97DA9481B590B6A0B7B0B80912F0458
:1047200090913004A0913104B09132044817590798
:104730006A077B0708F423C1E0911D04F0911E0471
:1047400080819181A281B3818DA39EA3AFA3B8A7DD
:10475000E0912104F09122049C01AD0160817181FE
:10476000828193810E94C22969A77AA78BA79CA7FF
:1047700020912B0430912C0440912D0450912E0453
:104780006DA17EA18FA198A50E94C2296B017C0119
:10479000209111043091120440911304509114049B
:1047A00069A57AA58BA59CA50E9430282091270495
:1047B000309128044091290450912A040E94C32971
:1047C0002B013C01609327047093280480932904F3
:1047D00090932A0490913C049DA791111AC02091B6
:1047E0000D0430910E0440910F0450911004C70144
:1047F000B6010E9430289B01AC01C301B2010E94A6
:10480000C22960932704709328048093290490930D
:104810002A04409027045090280460902904709046
:104820002A04109137040091380430903904209004
:104830003A04212F302F432D522DC301B2010E9483
:10484000D72A18162CF4812F902FA32DB22D16C025
:104850002091330430913404409135045091360452
:104860002EA73FA748AB59ABC301B2010E94CA278C
:1048700087FF0CC08EA59FA5A8A9B9A9809327047E
:1048800090932804A0932904B0932A049DA599230A
:1048900089F020910D0430910E0440910F04509145
:1048A000100469A57AA58BA59CA50E9430282B0130
:1048B0003C0103C0412C512C320120911504309150
:1048C00016044091170450911804C701B6010E94C4
:1048D00030289B01AC0160912704709128048091DD
:1048E000290490912A040E94C229A30192010E94E6
:1048F000C3296B017C019B01AC01612F702F832DBB
:10490000922D0E94CA2787FD16C010913304009192
:1049100034043090350420903604212F302F432D5D
:10492000522DB601C7010E94CA2787FD04C01C2D65
:104930000D2D3E2C2F2CE0911F04F0912004812F8F
:10494000902FA32DB22D80839183A283B3832DA1B9
:104950003EA14FA158A520932B0430932C044093E3
:104960002D0450932E048AA99BA9ACA9BDA98093BC
:10497000230490932404A0932504B0932604C090AC
:10498000F903D090FA03E090FB03F090FC0320E0E1
:1049900030E042EB52ECC701B6010E94CA2787FD06
:1049A00009C0C0924F02D0925002E0925102F092A0
:1049B00052020CC080E090E0A2EBB2EC80934F0278
:1049C00090935002A0935102B093520220E030E045
:1049D00042EB52E460914F0270915002809151027B
:1049E000909152020E94D72A181664F480E090E059
:1049F000A2EBB2E480934F0290935002A093510235
:104A0000B093520220E030E044EB52E460914F0258
:104A10007091500280915102909152020E94C329DC
:104A20000E94A12ACB010E943F160E94270EAACC09
:104A3000059709F0F6CD0E941A0B6B017C0120E06E
:104A400030EC49E754EC0E94CA278823F1F0C701F3
:104A5000B6010E94A12A9B01AC01A8E2B3E20E9428
:104A60000D29A50194010E94EE28CA01B9010E94F6
:104A7000D12720E030E048EC52E40E942F2A0E9427
:104A8000A12A709301016093000181E092E00E94ED
:104A90001E0D6091000170910101072E000C880B22
:104AA000990B0E94D127609347027093480280932C
:104AB000490290934A0221E020934602B2CD8091B0
:104AC0004004909141040E94792B8091460490917A
:104AD00047040E94792B8AE391E0909359048093D4
:104AE000580480914402909145028855944071F495
:104AF000E0916B04F0916C04908180916D0480953D
:104B00008923808310924502109244028CE491E044
:104B100090938404809383048091A1049091A204D3
:104B2000009711F00C94792B08950F931F93109216
:104B300032031092310308EE13E020E030E00093DE
:104B4000330310933403209335033093360386E107
:104B500091E09093300380932F0385EC90E0909345
:104B60003C0380933B0384EC90E090933E0380935E
:104B70003D0380EC90E09093400380933F0381ECF1
:104B800090E0909342038093410382EC90E09093F5
:104B900044038093430386EC90E090934603809314
:104BA0004503109248031092490310924A03109251
:104BB0004B0310927A041092790400937B041093B3
:104BC0007C0420937D0430937E0488E291E09093EE
:104BD000780480937704109286041092850440E84C
:104BE00050E0509388044093870480E290E09093D3
:104BF0008A048093890450938C0440938B0490938F
:104C00008E0480938D041092980410929004109258
:104C10008F04109292041092910461E060939704C3
:104C20008FEF9FEF90939604809395049093940454
:104C3000809393046093990410929A0410929C04B8
:104C400010929B048CE491E09093840480938304FD
:104C500010929E0410929D0487E794E09093A00424
:104C600080939F041092A2041092A1048FEF80936E
:104C7000A6048093A7048093A8048093A90484E0E9
:104C80008093AA0480E58093B7041092B80480E86A
:104C90009AE1A6E0B0E08093B9049093BA04A0939F
:104CA000BB04B093BC0480EA96E8A1E0B0E0809336
:104CB000BD049093BE04A093BF04B093C0041092AF
:104CC0005B0410925A0400935C0410935D042093DB
:104CD0005E0430935F048AE391E0909359048093DB
:104CE000580410926F0410926E0410927104109286
:104CF0007004109273041092720410927504109252
:104D00007404809176048E7F8D7F809376048695DF
:104D1000817068278BE00E94141B61E08BE00E9489
:104D2000931BE6E7F5E0E491E0936804E2E6F5E042
:104D3000E491F0E0EE0FFF1FE35BFA4F8591949151
:104D400090936A048093690460E08AE00E94931B58
:104D50008091760481FD04C061E08AE00E94141B0A
:104D60008AE080936404E5E7F5E0E491E09365046C
:104D7000E1E6F5E0E491F0E0EE0FFF1FED5BFA4FA6
:104D800085919491909367048093660486E891E0FE
:104D900090934D0480934C0487E390E0A0E0B0E052
:104DA0008093520490935304A0935404B0935504F9
:104DB00088E280934F0487E794E0909351048093B6
:104DC0005004109247041092460410924904109225
:104DD000480410924B0410924A0446E050E06EE200
:104DE00072E086E494E00E94D9111092410410927E
:104DF0004004109243041092420410924504109211
:104E0000440440E050E06FEA71E080E494E00E94E6
:104E1000D9118091F4038C30A0F491E0980F909315
:104E2000F40380933D0490E0FC01EE0FFF1F8E0F12
:104E30009F1FFC01E053FC4F88EB9BE09283818332
:104E400003C08FEF80933D0489EF93E0909320049B
:104E500080931F048DEF93E090931E0480931D04B4
:104E600085EF93E0909322048093210410923B04F9
:104E700010923304109234041092350410923604C8
:104E800080E090E0AFE7B3E4809337049093380478
:104E9000A0933904B0933A0484E690E0A0E0B0E037
:104EA00080932F0490933004A0933104B093320484
:104EB00010921A041092190481E090E090931C045F
:104EC00080931B0480933C0480E090E0A0EEB0E46B
:104ED0008093010490930204A0930304B09304040C
:104EE00040E050E060E870E440930504509306040D
:104EF00060930704709308044DE35AE067E57EE38E
:104F00004093090450930A0460930B0470930C04BB
:104F100080930D0490930E04A0930F04B09310049B
:104F20008DEC9CECACECBEE38093110490931204E6
:104F3000A0931304B093140486E696E6A6E0B0E4CA
:104F40008093150490931604A0931704B09318044B
:104F50002FB7F8948091CC039091CD03A091CE030C
:104F6000B091CF032FBF40912F0450913004609136
:104F7000310470913204841B950BA60BB70B809300
:104F8000230490932404A0932504B09326041F9136
:104F90000F9108950E940C2808F481E00895E89488
:104FA00009C097FB3EF490958095709561957F4F71
:104FB0008F4F9F4F9923A9F0F92F96E9BB2793951F
:104FC000F695879577956795B795F111F8CFFAF42F
:104FD000BB0F11F460FF1BC06F5F7F4F8F4F9F4F60
:104FE00016C0882311F096E911C0772321F09EE8BE
:104FF000872F762F05C0662371F096E8862F70E024
:1050000060E02AF09A95660F771F881FDAF7880FFD
:105010009695879597F90895990F0008550FAA0B53
:10502000E0E8FEEF16161706E807F907C0F01216BB
:105030001306E407F50798F0621B730B840B950BBE
:1050400039F40A2661F0232B242B252B21F4089513
:105050000A2609F4A140A6958FEF811D811D0895B0
:105060000E9443280C94B4280E94A62838F00E947D
:10507000AD2820F0952311F00C949D280C94A328C2
:1050800011240C94E8280E94C52870F3959FC1F361
:10509000950F50E0551F629FF001729FBB27F00DE6
:1050A000B11D639FAA27F00DB11DAA1F649F66273B
:1050B000B00DA11D661F829F2227B00DA11D621F8A
:1050C000739FB00DA11D621F839FA00D611D221F44
:1050D000749F3327A00D611D231F849F600D211D28
:1050E000822F762F6A2F11249F5750409AF0F1F0AB
:1050F00088234AF0EE0FFF1FBB1F661F771F881F14
:1051000091505040A9F79E3F510580F00C949D2886
:105110000C94E8285F3FE4F3983ED4F386957795A6
:105120006795B795F795E7959F5FC1F7FE2B880FB9
:10513000911D9695879597F9089597F99F6780E84F
:1051400070E060E008959FEF80EC089500240A94D9
:105150001616170618060906089500240A94121652
:105160001306140605060895092E0394000C11F485
:10517000882352F0BB0F40F4BF2B11F460FF04C032
:105180006F5F7F4F8F4F9F4F089557FD9058440F8B
:10519000551F59F05F3F71F04795880F97FB991F96
:1051A00061F09F3F79F08795089512161306140653
:1051B000551FF2CF4695F1DF08C0161617061806E0
:1051C000991FF1CF86957105610508940895E894BB
:1051D000BB2766277727CB0197F90895052E97FB04
:1051E0001EF400940E94052957FD07D00E945729FC
:1051F00007FC03D04EF40C9405295095409530954A
:1052000021953F4F4F4F5F4F089590958095709532
:1052100061957F4F8F4F9F4F08950E947929A59FD9
:10522000900DB49F900DA49F800D911D11240895A1
:10523000B7FF0C940D290E940D29821B930B089532
:105240002F923F924F925F926F927F928F929F9296
:10525000AF92BF92CF92DF92EF92FF920F931F9384
:10526000CF93DF93CDB7DEB7CA1BDB0B0FB6F89435
:10527000DEBF0FBECDBF09942A88398848885F8475
:105280006E847D848C849B84AA84B984C884DF80E6
:10529000EE80FD800C811B81AA81B981CE0FD11DCA
:1052A0000FB6F894DEBF0FBECDBFED010895A1E2A9
:1052B0001A2EAA1BBB1BFD010DC0AA1FBB1FEE1F90
:1052C000FF1FA217B307E407F50720F0A21BB30BDB
:1052D000E40BF50B661F771F881F991F1A9469F757
:1052E00060957095809590959B01AC01BD01CF01B3
:1052F0000895A29FB001B39FC001A39F700D811DAF
:105300001124911DB29F700D811D1124911D0895CE
:10531000991B79E004C0991F961708F0961B881F07
:105320007A95C9F78095089597FB072E16F4009497
:1053300007D077FD09D00E94A82907FC05D03EF4CC
:10534000909581959F4F0895709561957F4F089531
:10535000AA1BBB1B51E107C0AA1FBB1FA617B7079B
:1053600010F0A61BB70B881F991F5A95A9F78095B7
:105370009095BC01CD010895EE0FFF1F0590F491AB
:10538000E02D09945058BB27AA270E94DA290C94D3
:10539000B4280E94A62838F00E94AD2820F039F4E5
:1053A0009F3F19F426F40C94A3280EF4E095E7FB34
:1053B0000C949D28E92F0E94C52858F3BA1762075C
:1053C00073078407950720F079F4A6F50C94E72875
:1053D0000EF4E0950B2EBA2FA02D0B01B901900110
:1053E0000C01CA01A0011124FF27591B99F0593F54
:1053F00050F4503E68F11A16F040A22F232F342F9C
:105400004427585FF3CF469537952795A795F040E9
:105410005395C9F77EF41F16BA0B620B730B840BFE
:10542000BAF09150A1F0FF0FBB1F661F771F881FB6
:10543000C2F70EC0BA0F621F731F841F48F487950E
:1054400077956795B795F7959E3F08F0B0CF939500
:10545000880F08F09927EE0F9795879508950E9479
:10546000432A0C94B4280E94AD2858F00E94A62824
:1054700040F029F45F3F29F00C949D2851110C94C1
:10548000E8280C94A3280E94C52868F39923B1F357
:10549000552391F3951B550BBB27AA27621773075A
:1054A000840738F09F5F5F4F220F331F441FAA1FEE
:1054B000A9F335D00E2E3AF0E0E832D091505040AA
:1054C000E695001CCAF72BD0FE2F29D0660F771F58
:1054D000881FBB1F261737074807AB07B0E809F03E
:1054E000BB0B802DBF01FF2793585F4F3AF09E3FC3
:1054F000510578F00C949D280C94E8285F3FE4F364
:10550000983ED4F3869577956795B795F7959F5F05
:10551000C9F7880F911D9695879597F90895E1E051
:10552000660F771F881FBB1F621773078407BA07B0
:1055300020F0621B730B840BBA0BEE1F88F7E0950B
:1055400008950E94A82A6894B1110C94E82808953F
:105550000E94CD2888F09F5798F0B92F9927B7510E
:10556000B0F0E1F0660F771F881F991F1AF0BA9507
:10557000C9F714C0B13091F00E94E728B1E0089556
:105580000C94E728672F782F8827B85F39F0B93F48
:10559000CCF3869577956795B395D9F73EF49095BA
:1055A0008095709561957F4F8F4F9F4F08950E9412
:1055B0000C2808F48FEF08950E940C28880B990B93
:1055C00008950F931F93CF93DF938230910510F4CA
:1055D00082E090E0E091EE04F091EF0420E030E012
:1055E000A0E0B0E0309719F1408151810281138130
:1055F00048175907C8F08417950769F4109731F0D8
:1056000012960C93129713961C9327C00093EE04E6
:105610001093EF0422C02115310519F042175307EA
:1056200018F49A01BD01EF01DF01F801DBCF21156C
:105630003105F9F0281B390B2430310580F48A81BB
:105640009B816115710521F0FB019383828304C066
:105650009093EF048093EE04FE01329644C0FE0165
:10566000E20FF31F819391932250310939832883EC
:105670003AC02091EC043091ED04232B41F42091A9
:105680000E0130910F013093ED042093EC04209132
:105690000C0130910D012115310541F42DB73EB7B4
:1056A0004091100150911101241B350BE091EC0445
:1056B000F091ED04E217F307A0F42E1B3F0B28171F
:1056C000390778F0AC014E5F5F4F2417350748F07B
:1056D0004E0F5F1F5093ED044093EC048193919320
:1056E00002C0E0E0F0E0CF01DF91CF911F910F9178
:1056F0000895CF93DF93009709F481C0FC0132979E
:1057000013821282A091EE04B091EF04109781F4FD
:1057100020813181820F931F2091EC043091ED04A0
:105720002817390751F5F093ED04E093EC0467C0B6
:10573000ED0120E030E0CE17DF0740F44A815B81C5
:105740009E0141155105F1F0EA01F5CFD383C283E3
:1057500040815181840F951FC817D90759F488815A
:105760009981840F951F0296918380838A819B8102
:10577000938382832115310529F4F093EF04E0939C
:10578000EE043DC0E901FB83EA8349915991C40FBE
:10579000D51FEC17FD0761F480819181840F951F5F
:1057A0000296E90199838883828193819B838A830E
:1057B000E0E0F0E012968D919C911397009719F01C
:1057C000FD01DC01F7CF8D919C9111979D012E5F1A
:1057D0003F4F820F931F2091EC043091ED04281766
:1057E000390769F4309729F41092EF041092EE040F
:1057F00002C013821282B093ED04A093EC04DF91F7
:10580000CF910895A0E0B0E0E8E0FCE20C942429F8
:10581000EC01009721F4CB010E94E12AB4C0FC0105
:10582000E60FF71F9C0122503109E217F30708F435
:10583000A8C0D9010D911C91119706171707B0F058
:105840000530110508F49BC0C80104978617970717
:1058500008F495C002501109061B170B0193119310
:105860006D937C93CF010E94792B89C05B01A01AB4
:10587000B10A4C01800E911EA091EE04B091EF048C
:10588000612C712CE12CF12C109709F446C08D91FC
:105890009C911197A815B905B1F56C0142E0C40EB1
:1058A000D11CCA14DB0478F14C018A189B086401EE
:1058B00042E0C40ED11C1296BC9012971396AC9184
:1058C000B5E0CB16D10440F0B282A38391828082EE
:1058D000D9016D937C9309C00E5F1F4F800F911FFC
:1058E000F90191838083EB2DFA2FE114F10431F05B
:1058F000D7011396FC93EE93129741C0F093EF04F7
:10590000E093EE043CC06816790608F43C017D0182
:1059100012960D90BC91A02DB7CF8091EC04909180
:10592000ED0488169906E1F466167706C8F48091AE
:105930000C0190910D01009741F48DB79EB74091F5
:10594000100150911101841B950BE817F907C8F459
:10595000F093ED04E093EC04F901718360830FC0D0
:10596000CB010E94E12A7C01009759F0A801BE01F9
:105970000E94CD2CCE010E94792BC70104C0CE011C
:1059800002C080E090E0CDB7DEB7EEE00C94402995
:1059900081E090E0F8940C94F32CFB01DC0102C050
:1059A00001900D9241505040D8F70895DC0101C09C
:1059B0006D9341505040E0F70895FB01DC010190E8
:1059C0000D920020E1F70895FB01DC0141505040A9
:1059D00048F001900D920020C9F701C01D9241507E
:1059E0005040E0F7089515E0C8E5D5E004C0FE0199
:1059F0000E94BC292196C935D107C9F7F894FFCF79
:105A0000120045000000A040CDCCCC3D0000F004C9
:105A1000800000000000B80D250D4F0D050E800D13
:105A20005E0D720D00000000C4079707F407060F13
:105A30008F077B076C0700000000070F250DF40798
:105A4000060F570F6F0FEE0E000000000311250D1B
:105A5000F407F307310E060F7F0657067306670635
:105A60008606060F910F10137410B810A005830559
:105A70000510A60F0000000000000000F7077210DC
:105A8000721000000000190B3D08F707380AF807EC
:105A90000000E040000080403D0A573E2D2D2D2D96
:105AA0002053455455505F5354415254000D0A0041
:105AB000696E697420626E6F202E2E776169746939
:105AC0006E67002D2D2D2D2053455455505F444FAA
:105AD0004E450052756E6E696E670078207468726C
