:100000000C9447050C946F050C946F050C946F05C8
:100010000C946F050C946F050C946F050C946F0590
:100020000C946F050C946F050C946F050C94881953
:100030000C946F050C946F050C946F050C946F0570
:100040000C94001C0C946F050C9456190C943019E8
:100050000C946F050C946F050C946F050C946F0550
:100060000C94ED090C946F052200FF2100DB40A4E5
:10007000A62EAFDA0281DA1281DA02818F2000A186
:10008000C8D300408DAED580A800006000000000FD
:1000900000000000000000000000E0000000000080
:1000A000000000000000000001E00000000000006F
:1000B0000000000000000001F0000000000000004F
:1000C00000000000000003F000000000000000003D
:1000D000000000000007F000000000000000000029
:1000E0000000000007F80000000000000000000011
:1000F0000000000FF800000003C0007E000001E0D7
:10010000007F0FF800000003C000FE000001E000C7
:10011000FFEFF800000003C000FE000001E000FF58
:10012000FFF800000003C000F00000000F007FFE99
:100130007FC0000003C000F00000000F003FFE7F02
:10014000F83FF1FBCFFCFEF3BC3DEFE01FFE7FFF6D
:100150007FFBFFDFFEFEFFBC3DEFE01FC6FFFF7F22
:10016000FBFFDFFEFEFFBC3DEFE00FE3C7FE787B49
:10017000C3DE1EF0FFBC3DEF0007FF87FC787BC3AA
:10018000DE1EF0F83C3DEF0001FFFFF0007BC3C036
:100190001EF0F03C3DEF0001F37FE03FFBC3CFFEDC
:1001A000F0F03C3DEF0003E33F807FFBC3DFFEF058
:1001B000F03C3DEF0007E73C00787BC3DE1EF0F02B
:1001C0003C3DEF0007FFBE00787BC3DE1EF0F03C35
:1001D0003DEF0007FFFE00787BC3DE1EF0F03C3DE4
:1001E000EF000FFFFE007FFBFFDFFEF0F03FFDEFB3
:1001F000E00FFFFF007FFBFFDFFEF0F03FFDEFE0D1
:100200000FF9FF003E79F9CF9EF0F01F3DE7E01FA8
:10021000F1FF0000000000000000000000001F804F
:10022000FF007FFFFFFFFFFFFFFFFFFFE01C007FDE
:10023000007FFFFFFFFEB46D888D18E000001F00F7
:100240007FFFFFFFFE95AD7DB577E000000F007FDB
:10025000FFFFFFFEA5AD9D8D19E0000006007FFFAA
:10026000FFFFFEB5ADEDB57EE000000000000180AF
:1002700000000000000000000003800000000000FB
:100280000000000007C000000000000000000007A0
:10029000C00000000000000000000FC000000000CF
:1002A00000000000001FE00000000000000000004F
:1002B0001FE00000000000000000003FE000000020
:1002C0000000000000003FF00000000000000000FF
:1002D000007FF0000000000000001FF87FF0000029
:1002E00000000000003FFE7FF00000000000000062
:1002F0003FFF7FF0000000000000001FFFFBE00058
:100300000000000000000FFFF9FFC0000000000027
:10031000000FFFF9FFF800000000000007FFF1FFE9
:10032000FF00000000000003FC73FFFF80000000DE
:10033000000001FE3FFFFF80000000000000FF1EE4
:100340000FFF000000000000007FFE1FFC00000007
:10035000000000003FFFFFF8000000000000000F59
:10036000DFFFE0000000000000001F19FFC00000D8
:1003700000000000003F3CFF000000000000000003
:100380007E7CF800000000000000007FFE7C000082
:10039000000000000000FFFFFC0000000000000063
:1003A00000FFFFFE0000000000000000FFFFFE0055
:1003B00000000000000001FFEFFE00000000000050
:1003C0000001FFCFFE0000000000000003FF07FE59
:1003D0000000000000000003FC07FE000000000019
:1003E000000003F003FE0000000000000001800098
:1003F000FE000000000000000000007E0000000081
:100400000000000000003E000000000000000000AE
:10041000000C000000000000078000FC000003C08A
:10042000000000078001FC000003C00000000780FE
:1004300001FC000003C0000000078001E000000094
:100440001E000000078001E00000001E007FE3F7AF
:100450009FF9FDE7787BDFC0FFF7FFBFFDFDFF7869
:100460007BDFC0FFF7FFBFFDFDFF787BDFC0F0F74C
:1004700087BC3DE1FF787BDE00F0F787BC3DE1F013
:10048000787BDE0000F787803DE1E0787BDE007F4F
:10049000F7879FFDE1E0787BDE00FFF787BFFDE196
:1004A000E0787BDE00F0F787BC3DE1E0787BDE00A2
:1004B000F0F787BC3DE1E0787BDE00F0F787BC3DDC
:1004C000E1E0787BDE00FFF7FFBFFDE1E07FFBDFCF
:1004D000C0FFF7FFBFFDE1E07FFBDFC07CF3F39FD0
:1004E0003DE1E03E7BCFC0000000000000000000C6
:1004F0000000FFFFFFFFFFFFFFFFFFFFC0FFFFFF49
:10050000FFFD68DB111A31C0FFFFFFFFFD2B5AFB17
:100510006AEFC0FFFFFFFFFD4B5B3B1A33C0FFFFDD
:10052000FFFFFD6B5BDB6AFDC0000103070F1F3F90
:100530007F0080C0E0F0F8FCFE00000000003E5BA1
:100540004F5B3E3E6B4F6B3E1C3E7C3E1C183C7E20
:100550003C181C577D571C1C5E7F5E1C00183C1805
:1005600000FFE7C3E7FF0018241800FFE7DBE7FF01
:1005700030483A060E2629792926407F050507408E
:100580007F05253F5A3CE73C5A7F3E1C1C08081C4F
:100590001C3E7F14227F22145F5F005F5F06097F8D
:1005A000017F006689956A606060606094A2FFA226
:1005B0009408047E040810207E201008082A1C08D5
:1005C000081C2A08081E101010100C1E0C1E0C30DF
:1005D000383E3830060E3E0E0600000000000000D7
:1005E0005F00000007000700147F147F14242A7F97
:1005F0002A12231308646236495620500008070364
:1006000000001C2241000041221C002A1C7F1C2AE1
:1006100008083E0808008070300008080808080034
:100620000060600020100804023E5149453E00422F
:100630007F400072494949462141494D33181412FF
:100640007F1027454545393C4A4949314121110927
:10065000073649494936464949291E000014000019
:100660000040340000000814224114141414140033
:100670004122140802015909063E415D594E7C127F
:1006800011127C7F494949363E414141227F414117
:10069000413E7F494949417F090909013E41415194
:1006A000737F0808087F00417F41002040413F01DF
:1006B0007F081422417F404040407F021C027F7F20
:1006C0000408107F3E4141413E7F090909063E4131
:1006D00051215E7F09192946264949493203017F84
:1006E00001033F4040403F1F2040201F3F40384013
:1006F0003F631408146303047804036159494D43AC
:10070000007F4141410204081020004141417F0423
:10071000020102044040404040000307080020540A
:100720005478407F2844443838444444283844446A
:10073000287F385454541800087E090218A4A49C39
:10074000787F0804047800447D40002040403D004C
:100750007F1028440000417F40007C047804787CAE
:10076000080404783844444438FC18242418182415
:100770002418FC7C08040408485454542404043FFE
:1007800044243C4040207C1C2040201C3C40304005
:100790003C44281028444C9090907C4464544C4431
:1007A00000083641000000770000004136080002D2
:1007B000010204023C2623263C1EA1A161123A40FC
:1007C00040207A3854545559215555794122545472
:1007D0007842215554784020545579400C1E52726D
:1007E000123955555559395454545939555454584A
:1007F0000000457C410002457D420001457C407D72
:100800001211127DF0282528F07C54554500205403
:10081000547C547C0A097F4932494949323A44445C
:10082000443A324A4848303A4141217A3A424020DB
:1008300078009DA0A07D3D4242423D3D4040403D6C
:100840003C24FF2424487E4943662B2FFC2F2BFF9A
:100850000929F620C0887E090320545479410000FC
:10086000447D413048484A32384040227A007A0A72
:100870000A727D0D19317D2629292F28262929293B
:100880002630484D4020380808080808080808386D
:100890002F10C8ACBA2F102834FA00007B000008D3
:1008A000142A142222142A14085500550055AA555A
:1008B000AA55AAFF55FF55FF000000FF00101010B9
:1008C000FF00141414FF001010FF00FF1010F010B0
:1008D000F0141414FC001414F700FF0000FF00FFD4
:1008E0001414F404FC141417101F10101F101F14FC
:1008F00014141F00101010F0000000001F10101042
:10090000101F10101010F010000000FF1010101039
:100910001010101010FF10000000FF140000FF0066
:10092000FF00001F10170000FC04F4141417101728
:100930001414F404F40000FF00F714141414141435
:1009400014F700F7141414171410101F101F1414A8
:1009500014F4141010F010F000001F101F0000001D
:100960001F14000000FC140000F010F01010FF1025
:10097000FF141414FF141010101F00000000F010DA
:10098000FFFFFFFFFFF0F0F0F0F0FFFFFF000000BF
:100990000000FFFF0F0F0F0F0F3844443844FC4A8C
:1009A0004A4A347E02020606027E027E02635549EE
:1009B00041633844443C04407E201E2006027E02EF
:1009C0000299A5E7A5991C2A492A1C4C7201724C70
:1009D000304A4D4D303048784830BC625A463D3E32
:1009E000494949007E0101017E2A2A2A2A2A4444D3
:1009F0005F444440514A444040444A51400000FF53
:100A00000103E080FF000008086B6B0836123624F3
:100A100036060F090F06000018180000001010001D
:100A20003040FF0101001F01011E00191D171200B7
:100A30003C3C3C3C0000000000000000002400277B
:100A4000002A0000000000250028002B00040404F8
:100A50000404040404020202020202030303030367
:100A60000301020408102040800102040810200144
:100A70000204081020000000080002010000030426
:100A8000070000000000000000003D268D1C11241E
:100A90001FBECFEFD8E0DEBFCDBF12E0A0E0B1E0D7
:100AA000EAE5F0E602C005900D92A030B107D9F753
:100AB00024E0A0E0B2E001C01D92AC3DB207E1F736
:100AC00015E0C6E4D5E004C02197FE010E94E92CA0
:100AD000C534D107C9F70E94211D0C9420300C9415
:100AE00000006F927F928F929F92AF92BF92CF92AF
:100AF000DF92EF92FF920F931F93CF93DF93EC015E
:100B00004B015A0169013801E881F9810284F385BA
:100B1000E02D0995E881F9810288F389E02D8701AC
:100B20009601A501B401CE010995A501460D571DF9
:100B300041505109E881F9810288F389E02D96013D
:100B4000B401CE010995E881F9810088F189E02D91
:100B50009301A501B401CE010995C80CD91CB601B9
:100B600061507109E881F9810088F189E02D9301D4
:100B7000A501CE010995E881F9810688F789E02D64
:100B8000CE01DF91CF911F910F91FF90EF90DF90F9
:100B9000CF90BF90AF909F908F907F906F9009946F
:100BA0008F929F92AF92BF92CF92DF92EF92FF927D
:100BB0000F931F93CF93DF934C016B015A01E9010F
:100BC000DC01ED91FC916217730781F4041715079E
:100BD00024F48B2D5801042F182F0A191B09980192
:100BE0002F5F3F4F048CF58DE02D12C04017510749
:100BF00009F52617370724F48D2D6901C62FD82F44
:100C00009E012C193D092F5F3F4F068CF78DE02D7B
:100C10008701A501B601C4010995DF91CF911F910C
:100C20000F91FF90EF90DF90CF90BF90AF909F908B
:100C30008F9008950284F385E02D0995D401ED91FC
:100C4000FC910488F589E02D9E01A501B601C4013F
:100C50000995D401ED91FC910688F789E02DC40136
:100C6000DF91CF911F910F91FF90EF90DF90CF9088
:100C7000BF90AF909F908F900994EF92FF920F9347
:100C80001F93DC011A960D911C911B9718962D91BC
:100C90003C911997ED91FC9100A0F1A1E02D7B0111
:100CA00040E050E060E070E009951F910F91FF90E7
:100CB000EF9008954F925F926F927F928F929F92E2
:100CC000AF92BF92CF92DF92EF92FF920F931F935A
:100CD000CF93DF936C012B015A0139014801DC01EC
:100CE000ED91FC910284F385E02D0995E201640CFD
:100CF000751CD601ED91FC91C615D7055CF40088F2
:100D0000F189E02D87019401A501BE01C601099575
:100D10002196EFCF0688F789E02DC601DF91CF91AC
:100D20001F910F91FF90EF90DF90CF90BF90AF9009
:100D30009F908F907F906F905F904F9009948F92CB
:100D40009F92AF92BF92CF92DF92EF92FF920F935A
:100D50001F93CF93DF93EC015B014A016901E881A6
:100D6000F9810284F385E02D099595012C0D3D1D37
:100D700021503109E881F9810488F589E02D780155
:100D80008401A401B501CE010995E881F9810688A5
:100D9000F789E02DCE01DF91CF911F910F91FF9048
:100DA000EF90DF90CF90BF90AF909F908F9009947D
:100DB0008F929F92AF92BF92CF92DF92EF92FF926B
:100DC0000F931F93CF93DF93EC015B014A016901FD
:100DD0007801E881F9810284F385E02D0995C80C3A
:100DE000D91C860101501109E881F9810488F5892F
:100DF000E02D9501A401B501CE010995E881F981A5
:100E00000688F789E02DCE01DF91CF911F910F91D8
:100E1000FF90EF90DF90CF90BF90AF909F908F901A
:100E200009940895EF92FF920F931F93DC01ED91C7
:100E3000FC9100A0F1A1E02D09951F910F91FF9069
:100E4000EF9008950F931F93DC01ED91FC91068CB8
:100E5000F78DE02D09951F910F9108950F931F9322
:100E6000DC01ED91FC91048CF58DE02D09951F912D
:100E70000F910895DC01ED91FC910084F185E02D46
:100E800009942F923F924F925F926F927F928F922E
:100E90009F92AF92BF92CF92DF92EF92FF920F9309
:100EA0001F93CF93DF9300D000D000D0CDB7DEB733
:100EB0002C017E836D836A015901C801FC82EB829B
:100EC0004801841A950A97FE03C091948194910871
:100ED00035012D813E81621A730A77FE03C0719439
:100EE00061947108681479045CF43A2D2B2D5C012F
:100EF000832F922F3D812E81DE82CD82C32ED22E72
:100F0000AD81BE81AA16BB065CF43C2D2D2D6C0173
:100F1000832F922F3D812E81BE82AD82A32EB22ED1
:100F200085012D813E81021B130B1C012C183D08ED
:100F300037FE03C0319421943108780117FF03C0B4
:100F40003FEFE31AF30AF594E794C816D9062CF09C
:100F50008FEF9FEF9A83898304C0A1E0B0E0BA834A
:100F6000A9832D813E81A216B30624F1D201ED9111
:100F7000FC910484F585E02D2B813C816814790473
:100F800024F44D815E81B60103C0A6016D817E818E
:100F9000C2010995E218F308F7FE06C029813A81DB
:100FA000C20ED31EE00EF11E8D819E8101969E839E
:100FB0008D83D7CF26960FB6F894DEBF0FBECDBF78
:100FC000DF91CF911F910F91FF90EF90DF90CF9025
:100FD000BF90AF909F908F907F906F905F904F9059
:100FE0003F902F90089585ED8093BC008091BC00C8
:100FF00084FDFCCF10929D02089540912002262F7F
:1010000030E0240F311D21323105DCF420919D02A6
:101010002430C9F4FC0180E090E0861758F4309148
:1010200020022191DC01A050BE4FA30FB11D2C93D3
:101030000196F3CF80912002680F6093200280E038
:10104000089581E0089582E0089508950895E0915B
:10105000560280915502E81730F4F0E0E95AFD4F4E
:10106000808190E008958FEF9FEF08959091560250
:1010700080915502981750F4E92FF0E0E95AFD4F9E
:10108000208130E09F5F9093560202C02FEF3FEF28
:10109000C90108958091550290E020915602821B6B
:1010A00091090895CF92DF92EF92FF920F931F93D1
:1010B000CF93DF937C01CB018A0120919E022223F2
:1010C00089F0EB016B01C40ED51ECC15DD0569F06E
:1010D0006991D701ED91FC910190F081E02DC7015C
:1010E0000995F3CF642F0E94FD07C801DF91CF91CE
:1010F0001F910F91FF90EF90DF90CF900895CF93C5
:10110000DF931F92CDB7DEB7698320919E02222321
:10111000D1F02091C102203240F021E030E0FC010A
:101120003383228380E090E015C080919F02E82FF6
:10113000F0E0E056FD4F998190838F5F80939F028E
:101140008093C10205C061E0CE0101960E94FD07B7
:1011500081E090E00F90DF91CF910895089580E0B5
:1011600090E008950895AF92BF92CF92EF92FF92D0
:101170000F931F93CF93DF93EC01262F888D998DCA
:10118000009709F040C06A3059F41D861C862C89EE
:101190008E859F8538E0239F800D911D112441C0CD
:1011A0006D3009F4AAC08E898823C1F03C898C85F2
:1011B0009D8546E0349F800D911D112448855985F9
:1011C000481759075CF41D861C868E859F8548E06C
:1011D000349F800D911D11249F878E87EA88FB889C
:1011E000088919894E855F856C857D85CC88CE01FF
:1011F0000E9409122C898C859D8536E0239F800DE5
:10120000911D112442C06A3079F41D861C862C89F8
:10121000FC013696E4918E859F852E9F800D911D51
:1012200011249F878E8769C06D3009F466C0FC0168
:1012300034963491631708F460C03196E491E61750
:1012400008F45BC0FC01329665917491422F50E026
:10125000431B510937E0349F5001359FB00C1124D6
:10126000A60EB71EF501329634913196E4913323E0
:1012700011F0E1110DC0F5013496E4912C898C85B3
:101280009D85E29F800D911D11249D878C8735C01F
:10129000F501359644915E89552311F16C89E32F50
:1012A000F0E0E40FF11D47FDFA956E9FD0016F9FAE
:1012B000B00D11244C855D854A0F5B1FE885F985CB
:1012C000E417F5076CF41D861C86FC013696E49144
:1012D0008E859F856E9F800D911D11249F878E871F
:1012E000EA88FB88088919894E855F856C857D852C
:1012F000CC88CE010E940912BECF81E090E0DF9140
:10130000CF911F910F91FF90EF90CF90BF90AF9032
:1013100008950C94A62ECF9360EC70E00E94C12C2F
:10132000C82F605C83EC92E00E94D21560E46C0FE1
:1013300083EC92E0CF910C94D21561E083EC92E0C3
:101340000E94D21520E030E048EC52E460910304A2
:101350007091040480910504909106040E945D2B15
:101360000E94CE2D9B01AC01285D3C4D4F4F5F4F3D
:10137000A0E8BEE30E943A2C20E536E440E050E0CD
:101380000E941B2CC9010C948B0962E083EC92E053
:101390000E94D21520E030E048EC52E460910F0446
:1013A0007091100480911104909112040E945D2BA1
:1013B0000E94CE2D9B01AC01285D3C4D4F4F5F4FED
:1013C000A0E8BEE30E943A2C20E536E440E050E07D
:1013D0000E941B2CC9010C948B091F920F920FB60F
:1013E0000F9211242F933F934F935F936F937F93AB
:1013F0008F939F93AF93BF93EF93FF938091B90027
:10140000887F803609F49CC068F5883209F45BC097
:1014100090F4803109F454C038F4882309F4F6C0FC
:10142000883009F44DC0F6C0883109F44CC08032D0
:1014300009F45DC0EFC0803409F468C048F480331B
:1014400009F455C0883309F0E5C080939B02D8C0E9
:10145000803509F44FC0883509F45DC0883409F03F
:10146000D9C0D6C0883909F4C7C0A8F4883709F4B0
:1014700067C038F4883609F463C0803709F460C067
:10148000C9C0883809F4B8C0803909F45FC0803811
:1014900009F0C0C05BC0803B09F486C038F4803AD4
:1014A00009F466C0883A09F47FC0B4C0803C09F4EE
:1014B000A7C0883C09F4A4C0883B09F48AC0AAC02C
:1014C0008091780210C090919A02809199029817A9
:1014D00070F5E0919A0281E08E0F80939A02F0E01D
:1014E000E758FD4F80818093BB0085EC86C08093D8
:1014F0009B028EC0E0919A0281E08E0F80939A0247
:101500008091BB00F0E0E758FD4F808390919A02F4
:10151000809199026EC0E0919A0281E08E0F8093D3
:101520009A028091BB00F0E0E758FD4F80838091E4
:101530009C0281116DC081E08093770284EA61C0D2
:1015400083E080939D0210924202CFCF80914202AD
:10155000803208F051C0E091420281E08E0F80930A
:1015600042028091BB00F0E0EE5DFD4F8083BDCF75
:1015700085EC8093BC0010929D02809142028032E3
:1015800030F4E0914202F0E0EE5DFD4F1082609198
:10159000420270E0E0915102F091520282E292E048
:1015A00009951092420236C084E080939D02109209
:1015B000210210922002E0915302F0915402099509
:1015C00080912002811105C081E080932002109259
:1015D0000002E091210281E08E0F80932102F0E071
:1015E000E050FE4F80818093BB009091210280915A
:1015F0002002981708F479CF85E88093BC000AC0D0
:1016000085EC8093BC0010929D0204C010929B0256
:101610000E94F307FF91EF91BF91AF919F918F913E
:101620007F916F915F914F913F912F910F900FBEDE
:101630000F901F90189581E080939E026093C002E6
:1016400010929F021092C1020895EF92FF920F93A1
:101650001F93CF93DF930E94161081E08093A5041F
:101660008093A80481E090E09093A4048093A30465
:101670009093A2048093A10410929E0410929D0462
:101680001092A00410929F0483E794E00E9401103E
:1016900010929E0410929D04C8E0D0E0D093A00464
:1016A000C0939F048DE694E00E9401108091430254
:1016B0008823A1F08BE490E090939E0480939D0496
:1016C000D093A004C0939F0460914402709145029E
:1016D00080914602909147020E94F00E55E0E52E5F
:1016E000F12CF0929E04E0929D04C0E1D0E0D093F2
:1016F000A004C0939F046091FF0370910004809147
:101700000104909102040E94F00E06E210E0109392
:101710009E0400939D04D093A004C0939F04609105
:1017200003047091040480910504909106040E94C2
:10173000F00E80E590E090939E0480939D04D093FA
:10174000A004C0939F0460910F04709110048091D5
:101750001104909112040E94F00EF0929E04E09207
:101760009D04C8E1D0E0D093A004C0939F04609191
:1017700048027091490280914A0290914B020E9466
:10178000F00E10939E0400939D04D093A004C09388
:101790009F0460914C0270914D0280914E02909195
:1017A0004F020E94F00E8091AD049091AE04892BFF
:1017B000D1F02091C7043091C8044091C9045091E0
:1017C000CA0460E074E284EF90E00E94842CDA01A5
:1017D000C9014097A109B109B695A7959795879535
:1017E0008093B80016C08091AB049091AC04892B13
:1017F00031F08091C5049091C6040E94AF1AE09127
:10180000BF04F091C00490818091C4048095892325
:10181000808365E088E690E00E94410E6091950427
:10182000615081E994E00E94511A2091970430910F
:101830009804C901079697FD079633E0959587951B
:101840003A95E1F72091950430919604829F8001AA
:10185000839F100D929F100D1124C091AF04D09161
:10186000B0048091AD049091AE040C0F1D1F009741
:1018700009F445C06091B1040E941B0B8091AD0436
:101880009091AE04DC01ED91FC910190F081E02D8E
:1018900060E409957E01D1E08091AD049091AE04A1
:1018A0000E151F0549F1D032B8F00E94E50D609188
:1018B000B1048091AD049091AE040E941B0B809105
:1018C000AD049091AE04DC01ED91FC910190F081AA
:1018D000E02D60E40995D1E08091AD049091AE04D3
:1018E000F70161917F01DC01ED91FC910190F081A4
:1018F000E02D0995DF5FD0CF0E94E50D41C0E0915A
:10190000BD04F091BE0490818091C304892B808333
:10191000C017D107A9F189912091AB043091AC0493
:10192000232B19F00E944A1AF3CF28E030E040E858
:10193000E091B904F091BA049091C104582F542356
:1019400019F05081952B03C0508190959523908379
:10195000E091BB04F091BC0450819091C204952B9E
:101960009083E091BB04F091BC0450819091C2043B
:10197000909595239083469521503109C9F6C8CF9B
:101980008091AD049091AE04892BD1F02091CB04CD
:101990003091CC044091CD045091CE0460E074E2CB
:1019A00084EF90E00E94842CDA01C9014097A109DC
:1019B000B109B695A795979587958093B80017C0FC
:1019C000E091BF04F091C00490818091C404892B00
:1019D00080838091AB049091AC04892B41F0DF911E
:1019E000CF911F910F91FF90EF900C94491ADF91C6
:1019F000CF911F910F91FF90EF9008950F931F9338
:101A0000CF93DF93DC015D96ED91FC915E9730976B
:101A100081F0EC01ABA1BCA114960D911C9115971E
:101A200015969C938E9314970995EBA1FCA11583B1
:101A30000483DF91CF911F910F9108950895CF9363
:101A4000DF9383EC92E00E947815EC0180349105DD
:101A50002CF460E070EC89E794EC19C083EC92E020
:101A60000E94781580349105A4F3C054D10920EC6C
:101A70002C9FB0012D9F700D112480549109680F87
:101A8000791F072E000C880B990B0E94FE2ADF910C
:101A9000CF910895BC018DE694E00C940F19009746
:101AA00069F0FC0101900020E9F73197AF01481B74
:101AB000590BBC0181E994E00C943F1580E090E063
:101AC0000895CF92DF92EF92FF92DC01A03282E084
:101AD000B8070CF03EC0B7FD06C0A53BB1052CF021
:101AE000A4EBB0E002C0A0E0B0E08091FB0328E8E6
:101AF00030E06901C81AD10887FDD394CC0CDD1CF5
:101B0000CC0CDD1C0D2C000CEE08FF088091FC03B2
:101B100028E532E0281B310987FD3395220F331F5A
:101B2000220F331FA901330F660B770B9A01AB010C
:101B30002C193D094E095F090E94452C24EB30E029
:101B400040E050E00E941B2CC20ED31EE41EF51E86
:101B5000D6019091FA039C3098F58091FB0348E8F8
:101B600050E0481B510987FD5395440F551F440F02
:101B7000551FA417B5078CF08091FC0328E532E0CF
:101B8000281B310987FD3395220F331F220F331F86
:101B9000AD012A173B070CF4A90142505109440F2B
:101BA000551F2FB7F894892F90E0FC01EE0FFF1F0F
:101BB0008E0F9F1FFC01E05AFC4F528341832FBFC1
:101BC000FF90EF90DF90CF9008953091C1023132B5
:101BD00008F04BC080919D028111FCCF9091C00212
:101BE00022E020939D0221E020939C022FEF20937E
:101BF0009B0210929A0230939902E0EAF2E0A9E780
:101C0000B2E020E0321721F041914D932F5FFACFDF
:101C10001092780220917802990F922B909378027B
:101C200090917702913061F410927702909178024E
:101C30009093BB009091BC0093FDF8CF95EC01C050
:101C400095EE9093BC0090919D029230E1F39091BB
:101C50009B029F3F79F080919B02803241F08091FE
:101C60009B02803331F084E005C081E003C082E054
:101C700001C083E010929F021092C10210929E0256
:101C80000895DF92EF92FF920F931F93CF93DF930C
:101C9000D82ED92FC62F8091AD049091AE04009715
:101CA00009F44EC06091B1040E941B0B8091AD04F9
:101CB0009091AE04DC01ED91FC910190F081E02D5A
:101CC00060E00995ED2CFD2E11E08091AD0490911E
:101CD000AE04CC2361F11032B8F00E94E50D6091A2
:101CE000B1048091AD049091AE040E941B0B8091D1
:101CF000AD049091AE04DC01ED91FC910190F08176
:101D0000E02D60E0099511E08091AD049091AE0462
:101D1000F7016491DC01ED91FC910190F081E02DDF
:101D200009951F5FC150BFEFEB1AFB0ACECFDF91C1
:101D3000CF911F910F91FF90EF90DF900C94E50DE4
:101D4000E091BD04F091BE0490818091C304809520
:101D5000892380830D2D1D2FCC2309F439C0F80170
:101D600084912091AB043091AC04232B31F00E947C
:101D70004A1AC1500F5F1F4FEFCF28E030E040E814
:101D8000E091B904F091BA049091C104582F542302
:101D900019F05081952B03C0508190959523908325
:101DA000E091BB04F091BC0450819091C204952B4A
:101DB0009083E091BB04F091BC0450819091C204E7
:101DC000909595239083469521503109C9F6D1CF3E
:101DD000DF91CF911F910F91FF90EF90DF900895C9
:101DE0002F923F924F925F926F927F928F929F922B
:101DF000AF92BF92CF92DF92EF92FF920F931F9319
:101E0000CF93DF93CDB7DEB7A4970FB6F894DEBFBC
:101E10000FBECDBF4B015C019B01AC010E94092E9E
:101E2000882319F083EE91E01AC075016401E894EB
:101E3000F7F82FEF3FEF4FE75FE7C701B6010E94CA
:101E4000092E811110C02FEF3FEF4FE75FE7C70169
:101E5000B6010E94F72A181634F487EE91E00E942A
:101E60004F0D8C01AFC02FEF3FEF4FE75FE4C5018F
:101E7000B4010E94042E18161CF48BEE91E0EFCFF3
:101E80002FEF3FEF4FE75FECC501B4010E94F72A47
:101E900087FDF3CF20E030E0A901C501B4010E9425
:101EA000F72A87FF0BC06DE281E994E00E94B30836
:101EB0006C01B7FAB094B7F8B09402C0C12CD12C21
:101EC0002AE037ED43EA5BE3C501B4010E94F02C40
:101ED0004B015C010E94D52D2B013C010E94FC2A84
:101EE0009B01AC01C501B4010E94EF2C4B015C01C8
:101EF00019A27E0181E2E80EF11CEAA2FBA2C30155
:101F0000B2012AE030E040E050E00E94842C290138
:101F10003A01605DF70162937F01232B242B252B6F
:101F200071F7CF010E944F0D8C016EE281E994E0C0
:101F30000E94B308800F911F8C010C0D1D1D83E0C2
:101F4000F82E9AE0292E312C412C512CFA94FF20A6
:101F5000C9F120E030E040E251E4C501B4010E9443
:101F60005D2B4B015C010E94D52D9B0140E050E0B0
:101F700019A26AA07BA06CA3C32ED42EE52ECA01A1
:101F8000B901A20191010E94842C605DF30162936A
:101F90003F01211531054105510589F7CF010E9407
:101FA0004F0D080F191F6CA17C2D8D2D9E2D0E94A9
:101FB000FC2A9B01AC01C501B4010E94EF2C4B012E
:101FC0005C01C4CF8FEE91E00E944F0D800F911FF6
:101FD000A4960FB6F894DEBF0FBECDBFDF91CF91B0
:101FE0001F910F91FF90EF90DF90CF90BF90AF9037
:101FF0009F908F907F906F905F904F903F902F9029
:102000000895CF93DF93FC014481558160817181F4
:1020100081E994E00E943F15EC018FEE91E00E946F
:102020004F0D8C0F9D1FDF91CF9108952091970444
:1020300030919804C901079697FD079623E095957E
:1020400087952A95E1F72091950430919604829F17
:10205000A001839F500D929F500D112460E070E00D
:102060008091AF049091B0040C94033090919D0244
:102070009111FCCF91E090939D0290939C022FEFE1
:1020800020939B0210929A02260F2093990290931C
:10209000780290917802880F892B80937802809142
:1020A0007702813061F410927702809178028093F8
:1020B000BB008091BC0083FDF8CF85EC01C085EEAC
:1020C0008093BC0080919D028130E1F380919A025F
:1020D000861710F460919A02A9E7B2E0E7E5F2E012
:1020E00080E0861721F09D9191938F5FFACF08953C
:1020F000109256021092550210929F021092C10245
:1021000010929D0281E080939C021092770261E020
:1021100082E10E94311B61E083E10E94311BE9EB07
:10212000F0E080818E7F808380818D7F808388E452
:102130008093B80085E48093BC0085E298E090939A
:1021400054028093530286E298E090935202809367
:10215000510208953F924F925F926F927F928F92B9
:102160009F92AF92BF92CF92DF92EF92FF920F9326
:102170001F93CF93DF9300D000D000D0CDB7DEB750
:102180002C013B014A015901C901079697FD0796A9
:102190009C0193E0359527959A95E1F73C832B8335
:1021A000C12CD12CE12CF12C312CC3018E0D9F1DA3
:1021B0009A838983E016F106C4F51E821D822D8163
:1021C0003E812A153B054CF5C90187709927892B5B
:1021D00011F0330C0EC0ED81FE81F7FD379683E0E0
:1021E000F595E7958A95E1F7EC0DFD1DE80DF91DD4
:1021F000349037FE0CC021E030E049815A816D8176
:102200007E81640D751D81E994E00E943A078D81FD
:102210009E8101969E838D83D2CF9FEFE91AF90AA2
:102220002B813C81C20ED31EC0CF26960FB6F894E8
:10223000DEBF0FBECDBFDF91CF911F910F91FF90F9
:10224000EF90DF90CF90BF90AF909F908F907F9056
:102250006F905F904F903F9008954F925F926F9272
:102260007F928F929F92AF92BF92CF92DF92EF9226
:10227000FF920F931F93CF93DF9300D000D0CDB781
:10228000DEB74B015C0129013A016701780120E0CA
:1022900030E0A9010E94F72A87FDA6C020E030E0C7
:1022A000A901C301B2010E94F72A87FD9DC020E069
:1022B00030E0A901C701B6010E94F72A87FD94C04A
:1022C00081E020914B0430914C042130310509F01C
:1022D00080E080936C048092310490923204A0924A
:1022E0003304B09234044092350450923604609224
:1022F000370470923804C0923904D0923A04E092C4
:102300003B04F0923C0460915F0470916004809102
:102310006104909162040E94FC2A20E030E04AE7C8
:1023200054E40E945C2D69837A838B839C83809222
:102330003D0490923E04A0923F04B09240049B0161
:10234000AC01C301B2010E945D2B2B013C016093E3
:102350004104709342048093430490934404298180
:102360003A814B815C81C701B6010E945C2D6B01F3
:102370007C016093450470934604809347049093D6
:1023800048048091490490914A04019769F5A50198
:10239000940160E070E0CB010E94EF2C60933D045B
:1023A00070933E0480933F0490934004A3019201F4
:1023B00060E070E0CB010E94EF2C609341047093C9
:1023C00042048093430490934404A701960160E083
:1023D00070E0CB010E94EF2C60934504709346049B
:1023E00080934704909348040F900F900F900F90A4
:1023F000DF91CF911F910F91FF90EF90DF90CF90E1
:10240000BF90AF909F908F907F906F905F904F9014
:1024100008952F923F924F925F926F927F928F9288
:102420009F92AF92BF92CF92DF92EF92FF920F9363
:102430001F93CF93DF93CDB7DEB76B970FB6F894AA
:10244000DEBF0FBECDBF9B8F8A8F5B011A01D22EDC
:102450001F830E833701C982DC0158962D913C9170
:1024600059972115310509F0E6C018968D919C9178
:102470001997681779070CF0CDC11A968D919C9128
:102480001B97481759070CF0C5C18C2C912CFB01E8
:1024900026E0C29EE00DF11D1124FB87EA871E167F
:1024A0001F060CF0B7C1A40183E0440F551F8A95A5
:1024B000E1F75D874C87CA01820D931D1816190636
:1024C0000CF0A8C157968C91811104C05FEA5D158C
:1024D00008F4D394AA8DBB8DED91FC9111970284E1
:1024E000F385E02DCD010995B5E0DB9EC0011124F7
:1024F000F5013596FF87EE87BB82AA8225019C01F4
:102500002A193B09398B288BA101485F5F4F5B8BF0
:102510004A8BE889F989E40DF51DE75CFA4F54917F
:10252000588761013D822C82888580FF13C0AA8D67
:10253000BB8DED91FC91B981B13031F40484F58506
:10254000E02D2E813F8116C00684F785E02DEE80B8
:10255000FF801AC0EE81FF81E615F705F1F0AA8D24
:10256000BB8DED91FC91B981B13051F40484F585B6
:10257000E02D9301A601B2018A8D9B8D09950DC0B6
:102580000684F785E02D7301840194014C815D81FF
:102590006A817B818A8D9B8D0995E885E695E88720
:1025A000FFEFCF1ADF0A2C813D81280D391D3D83B5
:1025B0002C834A895B89C416D50609F0B5CF5FEF35
:1025C000451A550A8A819B81880D991D9B838A83B0
:1025D000AE85BF854A165B0609F09BCFEE81FF8171
:1025E000E615F70509F4F4C0EA8DFB8DA081B181F1
:1025F000F981F13079F4B5016B5F7F4F5096ED9121
:10260000FC915197830128E030E0A1018A8D9B8DD8
:102610000995DEC06A857B85681979091E96ED915A
:10262000FC911F9773010C851D859401A1018A8D72
:102630009B8D0995CDC0F9013496E491DE1AF9011C
:10264000329685919491B7E0DB9E800D911D112407
:10265000F901259134913B8B2A8BFC012591349112
:102660002901FC013296C490319634913E8732960E
:1026700014913196D4904981423058F0612E012E48
:10268000000C77088D2D0D2C000C990B99878887ED
:1026900004C019861886612C712CAA8DBB8DED9112
:1026A000FC9111970284F385E02DCD010995B98144
:1026B0008B2E912C689CC001699C900D789C900D8C
:1026C0001124FC01EA0DFB1DFD87EC871A82712C99
:1026D000612CE12F110FFF0B95012E0F3F1F3B8740
:1026E0002A87AC0CB11CA5014E0F5F1F5F8B4E8B70
:1026F000C1018D0D911DD7FC9A95998F888F9E856C
:10270000691608F065C0862D90E048855985480F08
:10271000591F489D9001499D300D589D300D112441
:10272000D101A20FB31FB98BA88BEC85FD85FD836A
:10273000EC83AA84BB84DA80FA85DF1A288D398D70
:10274000280F391F3D8B2C8B8D2D8A0D4E895F896B
:10275000A416B506C1F1877041F4C2010196EA8959
:10276000FB89E40DF51D74902C0177FE21C0AA8D24
:10277000BB8DED91FC91B981B13061F40484F58594
:10278000E02D2E813F814C895D89B5018A8D9B8D1D
:1027900009950EC00684F785E02DEE80FF80840148
:1027A0009401488959896C817D818A8D9B8D099519
:1027B000770CEFEFAE1ABE0A2C813D81280D391D32
:1027C0003D832C83C1CF3A813C0D3A83639497CFEC
:1027D000AA8DBB8DED91FC9111970688F789E02DAC
:1027E000CD016B960FB6F894DEBF0FBECDBFDF9163
:1027F000CF911F910F91FF90EF90DF90CF90BF90FE
:10280000AF909F908F907F906F905F904F903F9090
:102810002F9009946B960FB6F894DEBF0FBECDBF14
:10282000DF91CF911F910F91FF90EF90DF90CF90AC
:10283000BF90AF909F908F907F906F905F904F90E0
:102840003F902F9008950F931F93CF93DF9377FFBF
:1028500004C0260F371F60E070E0DC011496CD91B4
:10286000DC911597FB01E20FF31FCE17DF071CF475
:102870009E01261B370B121613060CF046C0FA01F8
:1028800057FD3796DF01E3E0B595A795EA95E1F7A7
:10289000AC9FF001AD9FF00DBC9FF00D11246E0FA9
:1028A0007F1FDC015E96ED91FC915F97E60FF71FAD
:1028B0004770552781E090E001C0880F4A95EAF7FC
:1028C000482F0130110539F078F002301105E9F494
:1028D0002E0F3F1F13C02E0F3F1FE217F307A9F063
:1028E0008081842B8193F9CF80952E0F3F1FE217B3
:1028F000F30759F0908198239193F9CFE217F307EA
:1029000021F0808184278193F9CFDF91CF911F91AE
:102910000F910895EF92FF920F931F93CF93DF9340
:10292000EC0177FDA5C0EC80FD806E157F050CF0F5
:102930009FC057FF04C0240F351F40E050E08E8138
:102940009F81FA01E20FF31F8E179F071CF49C0171
:10295000241B350B121613060CF08AC0922F842FFD
:102960008695869586958E9DD0018F9DB00D1124FC
:102970006A0F7B1FAE8DBF8DA60FB71F4770B1F1D9
:1029800088E0841B482F682F70E0FB01EF5CFA4F52
:10299000E491281798F4621B71092FEF30E002C010
:1029A000359527956A95E2F7E2230130110549F044
:1029B00078F00230110509F05BC00EC0013011053E
:1029C00019F48C91E82B0AC00130110508F049C0B8
:1029D000E0958C91E82302C08C91E827EC93941742
:1029E00008F446C02C813D81A20FB31FE92FE41BE0
:1029F000E830F8F00230110561F48E2F9C9190952B
:102A00009C932C813D81A20FB31F88508830B0F772
:102A10000FC081E00115110509F480E081959E2F1A
:102A20008C932C813D81A20FB31F98509830C0F732
:102A3000E770EE23E9F0F0E0E75DFA4FE491013052
:102A4000110539F048F00230110591F48C91E82716
:102A500006C08C91E82B03C0E0958C91E823EC93A1
:102A600007C00230110509F4B7CFAE0DBF1DBECFB0
:102A7000DF91CF911F910F91FF90EF900895CF922A
:102A8000DF92EF92FF920F931F93CF93DF936C012E
:102A90007A018B01C0E0D0E0CE15DF0581F0D801CE
:102AA0006D918D01D601ED91FC910190F081E02DA9
:102AB000C6010995892B11F02196EECF7E01C70141
:102AC000DF91CF911F910F91FF90EF90DF90CF900A
:102AD0000895FC01538D448D252F30E0842F90E024
:102AE000821B930B541710F0CF9608950197089509
:102AF000FC01918D828D981761F0828DDF01A80F06
:102B0000B11D5D968C91928D9F5F9F73928F90E027
:102B100008958FEF9FEF0895FC01918D828D981796
:102B200031F0828DE80FF11D858D90E008958FEFD3
:102B30009FEF0895FC01918D228D892F90E0805C9C
:102B40009F4F821B91098F739927089583EC92E020
:102B50000E949A1521E0892B09F420E0822F089524
:102B6000FC01848DDF01A80FB11DA35ABF4F2C912A
:102B7000848D90E001968F739927848FA689B789F9
:102B80002C93A089B1898C91837080648C93938DF0
:102B9000848D981306C00288F389E02D80818F7D93
:102BA00080830895EF92FF920F931F93CF93DF934B
:102BB000EC0181E0888F9B8D8C8D981305C0E8898E
:102BC000F989808185FD26C0F62E0B8D10E00F5F00
:102BD0001F4F0F731127E02E8C8DE8120CC00FB61B
:102BE00007FCFACFE889F989808185FFF5CFCE010E
:102BF0000E94B015F1CF8B8DFE01E80FF11DE35A55
:102C0000FF4FF0829FB7F8940B8FEA89FB89808190
:102C100080620AC09FB7F894EE89FF896083E889D3
:102C2000F98980818370806480839FBF81E090E018
:102C3000DF91CF911F910F91FF90EF900895CF9367
:102C4000DF93EC01888D8823C9F0EA89FB898081B4
:102C500085FD05C0A889B9898C9186FD0FC00FB686
:102C600007FCF5CF808185FFF2CFA889B9898C91C7
:102C700085FFEDCFCE010E94B015E7CFDF91CF9158
:102C8000089580E090E0892B29F00E94A61581111B
:102C90000C9400000895FC0177FDB9C080859185F2
:102CA000681779070CF0B3C057FDB1C082859385D2
:102CB000481759070CF008958589823079F484818A
:102CC0009581DC01A61BB70BBD016150710986819E
:102CD0009781DC01A41BB50BAD010EC0833009F058
:102CE00084C064277527CA01862797276827792714
:102CF00046815781481B590B4150510921303105FC
:102D000031F048F12230310509F44AC00895CA0172
:102D100057FD07969C01A3E035952795AA95E1F705
:102D2000A481B5812A9FC0012B9F900D3A9F900DE1
:102D30001124680F791F068CF78DE02DE60FF71F21
:102D40004770552781E090E001C0880F4A95EAF767
:102D50009081892B48C0CA0157FD07969C0193E0DA
:102D6000359527959A95E1F7A481B5812A9FC001F1
:102D70002B9F900D3A9F900D1124680F791F068CA0
:102D8000F78DE02DE60FF71F4770552781E090E0A3
:102D900001C0880F4A95EAF780959081892323C066
:102DA000CA0157FD07969C0183E0359527958A95C2
:102DB000E1F7A481B5812A9FC0012B9F900D3A9F16
:102DC000900D1124680F791F068CF78DE02DE60F0A
:102DD000F71F4770552781E090E001C0880F4A95A2
:102DE000EAF79081892780830895813009F086CFA2
:102DF000642775274627572764277527848195817F
:102E0000DC01A61BB70BBD016150710977CF089596
:102E10000895FC016370658B8481958126813781DB
:102E2000613039F0633029F09187808733872287BA
:102E30000895318720879387828708950E94F52F10
:102E40008F929F92AF92BF92CF92DF92EF92FF92BA
:102E50000F931F93CF93DF93CDB7DEB762970FB673
:102E6000F894DEBF0FBECDBF7C018B0184E2DB0195
:102E70001D928A95E9F784E290E0A0E0B0E0FB01C2
:102E800080839183A283B383F70186819781A08594
:102E9000B185FB0184839583A683B78383E090E0AB
:102EA000A0E0B0E080879187A287B3870E94F41BDF
:102EB000D80150966D937D938D939C935397FE010B
:102EC00031968CE0DF011D928A95E9F76E01BDE035
:102ED000CB0ED11C86E0F60111928A95E9F7D70155
:102EE00013966C91139714968D919C9115970E944F
:102EF0001B0BF70184819581DC01ED91FC91019020
:102F0000F081E02D6AE10995F701848195810E94A5
:102F1000E50D66E0D70113968C910E943610109251
:102F20005602809355025E01B3E1AB0EB11CF7016E
:102F300084819581DC01ED91FC910284F385E02D83
:102F40000995F60181936F01EA15FB0581F76D85FF
:102F50007E85072E000C880B990B0E94FE2A20E02C
:102F600030E040E85DE30E945D2B4B015C016F8522
:102F70007889072E000C880B990B0E94FE2A20E00E
:102F800030E040E85DE30E945D2B6B017C016989C4
:102F90007A89072E000C880B990B0E94FE2A20E0EC
:102FA00030E040E85DE30E945D2BD80154968D929D
:102FB0009D92AD92BC925797F801C08ED18EE28E51
:102FC000F38E5C966D937D938D939C935F9781E0D8
:102FD00062960FB6F894DEBF0FBECDBFDF91CF91E2
:102FE0001F910F91FF90EF90DF90CF90BF90AF9027
:102FF0009F908F9008950F931F93CF93DF938C0131
:10300000EB0188E2FB0111928A95E9F74BE050E071
:1030100062EF71E0CE010E9411301B8681E090E0EA
:10302000A0E0B0E08C879D87AE87BF87F8018681DE
:103030009781A085B185888B998BAA8BBB8B83E008
:1030400090E0A0E0B0E08C8B9D8BAE8BBF8B1CA280
:103050001DA21EA21FA2188E198E1A8E1B8E1C8EE8
:103060001D8E1E8E1F8E8AE097EDA3E2BCE388A31F
:1030700099A3AAA3BBA3DF91CF911F910F910895AC
:103080000F931F93CF93DF93DC015596EC915597E7
:10309000E23071F0E330E9F0E13079F5FB011496AC
:1030A0000D90BC91A02DA41BB50BA21BB30B18C097
:1030B000EC01EC81FD81E61BF70BBF01615071094A
:1030C000EE81FF81DF01A41BB50BAD01421B530B49
:1030D00014C0DA01EC01EE81FF81E61BF70B31979A
:1030E000F7FD0DC0EC014E815F81E417F5073CF45C
:1030F000AF01BD010E94231402C00E948A14DF9117
:10310000CF911F910F9108950F931F93DC01559656
:10311000EC915597E23061F0E33009F1E13081F54F
:103120001496ED91FC911597E41BF50B319723C094
:10313000DC011496ED91FC911597DF01A61BB70BEE
:10314000BD01DC011696ED91FC911797DF01A41BE0
:10315000B50BAD0141505109621B730B11C0FA014F
:10316000DC0116964D915C911797DA01A61BB70BFF
:10317000BD01621B730BAB01BF010E948A140CC01E
:1031800057FD0AC0DC011696ED91FC9117974E177A
:103190005F0714F40E9423141F910F910895EF927A
:1031A000FF920F931F93CF93DF93EC017B018A0172
:1031B00088819981009729F02A813B81241735075E
:1031C000F8F4B8016F5F7F4F0E942F2F009759F0DE
:1031D000998388831B830A832C813D81232B81F46F
:1031E000FC0110820DC088819981009711F00E9426
:1031F000A62E198218821D821C821B821A8207C089
:103200001D830C83B701888199810E940A30CE0109
:10321000DF91CF911F910F91FF90EF900895CF9381
:10322000DF93EC016115710559F0FB01019000205D
:10323000E9F73197AF01461B570B0E94CF180CC01E
:1032400088819981009711F00E94A62E1982188218
:103250001D821C821B821A82CE01DF91CF910895BC
:103260001F920F920FB60F9211242F933F934F93FB
:103270005F936F937F938F939F93AF93BF93EF93DE
:10328000FF9383EC92E00E94B015FF91EF91BF9104
:10329000AF919F918F917F916F915F914F913F91EE
:1032A0002F910F900FBE0F901F9018951F920F92A5
:1032B0000FB60F9211242F938F939F93EF93FF9349
:1032C000E091D302F091D4028081E091D902F09193
:1032D000DA0282FD12C090818091DC028F5F8F73D1
:1032E0002091DD02821751F0E091DC02F0E0ED5315
:1032F000FD4F958F8093DC0201C08081FF91EF919B
:103300009F918F912F910F900FBE0F901F90189546
:103310001F920F920FB60F9211242F933F934F934A
:103320005F936F937F938F939F93AF93BF93EF932D
:10333000FF938091C20287FF05C010928500109212
:1033400084001BC02091C202022E000C330B80911E
:10335000840390E02817390784F48091C202082E74
:10336000000C990BFC01EE0FFF1F8E0F9F1FFC013D
:10337000E05AFC4F808186FD15C08091C2028F5FAC
:103380008093C2022091C202022E000C330B809166
:10339000840390E028173907C4F48091C2028C306E
:1033A00064F113C08091C202082E000C990BFC013D
:1033B000EE0FFF1F8E0F9F1FFC01E05AFC4F808114
:1033C00060E08F730E94311BD8CF80918400909170
:1033D0008500049680349C4918F480E49CE905C07B
:1033E0008091840090918500049690938900809349
:1033F00088008FEF8093C2023BC0209184003091FF
:1034000085008091C202082E000C990BFC01EE0F82
:10341000FF1F8E0F9F1FFC01E05AFC4F818192819C
:10342000820F931F90938900809388008091C2023D
:10343000082E000C990BFC01EE0FFF1F8E0F9F1F33
:10344000FC01E05AFC4F808186FF12C08091C202CD
:10345000082E000C990BFC01EE0FFF1F8E0F9F1F13
:10346000FC01E05AFC4F808161E08F730E94311BA8
:10347000FF91EF91BF91AF919F918F917F916F914C
:103480005F914F913F912F910F900FBE0F901F9022
:10349000189508958EBD00000DB407FEFDCF8EB5C2
:1034A00008951F93CF93DF93FC01848D958D009732
:1034B00001F1162FEF0160A10E941B0B8C8D9D8DD9
:1034C000DC01ED91FC910190F081E02D60E0099527
:1034D0008C8D9D8DDC01ED91FC910190F081E02DB2
:1034E000612F09958C8D9D8DDF91CF911F910C944B
:1034F000E50DA4A5B5A59C9182A9809589238C93FF
:10350000828D938D892B31F0862FDF91CF911F9182
:103510000C944A1A28E030E080E8A0A5B1A590A953
:10352000462F482319F04C91942B03C04C91909551
:1035300094239C93A2A5B3A54C9191A9942B9C9301
:10354000A2A5B3A54C9191A9909594239C9386959F
:103550002150310911F7DF91CF911F9108958CBD52
:103560009DBD08951F93CF93DF93EC01162F8C8D93
:103570009D8D892BB1F02EA93FA948AD59AD60E0D2
:1035800074E284EF90E00E94842CDA01C901409734
:10359000A109B109B695A795979587958093B8002D
:1035A0000FC08A8D9B8D892B21F08CA99DA90E942B
:1035B000AF1AEEA5FFA590818BA980958923808302
:1035C000111102C066EA01C067EACE010E94511AD9
:1035D0008C8D9D8D892BB1F02AAD3BAD4CAD5DAD91
:1035E00060E074E284EF90E00E94842CDA01C9016B
:1035F0004097A109B109B695A795979587958093AE
:10360000B80006C0EEA5FFA590818BA9892B808309
:10361000DF91CF911F9108953FB7F8948091D40422
:103620009091D504A091D604B091D70426B5A89B5B
:1036300005C02F3F19F00196A11DB11D3FBFBA2F44
:10364000A92F982F8827820F911DA11DB11DBC01A4
:10365000CD0142E0660F771F881F991F4A95D1F769
:10366000089590E0FC01EB58F54F2491FC01EF59CF
:10367000F54F3491FC01E35BF54FE491EE2309F43F
:103680003CC0222339F1233091F038F42130A9F0E5
:10369000223001F584B58F7D12C0273091F028309B
:1036A000A1F02430B9F4809180008F7D03C0809117
:1036B00080008F77809380000DC084B58F7784BDA4
:1036C00009C08091B0008F7703C08091B0008F7DDA
:1036D0008093B000F0E0EE0FFF1FED5BF54FA5917A
:1036E000B4919FB7F894611104C08C913095382340
:1036F00002C0EC913E2B3C939FBF0895CF93DF9384
:1037000090E0FC01EF59F54F2491FC01E35BF54F8C
:103710008491882361F190E0880F991FFC01E75C98
:10372000F54FC591D491FC01ED5BF54FA591B49196
:10373000611109C09FB7F8948881209582238883FE
:10374000EC912E230BC0623061F49FB7F89488810E
:10375000322F309583238883EC912E2B2C939FBF9F
:1037600006C08FB7F894E8812E2B28838FBFDF9196
:10377000CF9108958F929F92AF92BF92CF92DF9296
:10378000EF92FF926B017C010E940C1B4B015C01CC
:10379000C114D104E104F104F1F00E940C1BDC011E
:1037A000CB0188199909AA09BB09883E9340A10554
:1037B000B10570F321E0C21AD108E108F10888EEE2
:1037C000880E83E0981EA11CB11CC114D104E10431
:1037D000F10419F7DDCFFF90EF90DF90CF90BF900D
:1037E000AF909F908F9008952FB7F8946091D00478
:1037F0007091D1048091D2049091D3042FBF089589
:103800001F920F920FB60F9211242F933F938F9315
:103810009F93AF93BF938091D0049091D104A091D6
:10382000D204B091D3043091CF0423E0230F2D377D
:1038300020F40196A11DB11D05C026E8230F0296B4
:10384000A11DB11D2093CF048093D0049093D10487
:10385000A093D204B093D3048091D4049091D50462
:10386000A091D604B091D7040196A11DB11D8093FB
:10387000D4049093D504A093D604B093D704BF91F9
:10388000AF919F918F913F912F910F900FBE0F900D
:103890001F901895CF93DF93EC01988188818E7FDC
:1038A000888388818D7F888390FF03C0CE010E942A
:1038B000FE0C8BA19CA1009769F11CA21BA2EF8DAD
:1038C000F8A1A9A1BAA1309799F4109749F4DC01A5
:1038D00011961C921E9213961C921E9212971AC059
:1038E00090961C921E925F97FC01B183A08312C038
:1038F000109741F412A211A2DC011396FC93EE93EF
:10390000129708C0B2A3A1A3A9A1BAA19096FC9353
:10391000EE935F97DF91CF9108958BE893E00E943B
:103920004A1C80EB93E00E944A1C85ED93E00E94C4
:103930004A1C80916D0490916E040E94A62E809185
:103940007304909174040E94A62E82E391E09093F8
:103950009204809391048091AF049091B0040097F9
:1039600011F00C94A62E08950F931F93CF93DF931D
:10397000EC018BA19CA185589340F9F085E893E078
:103980009CA38BA38091850390918603892B39F4A6
:10399000D0938603C093850318A21F8E08C0E091C0
:1039A0008703F0918803F8A3EF8FD2A3C1A31AA2D3
:1039B00019A2D0938803C0938703ABA1BCA1109731
:1039C000D9F11D8A1E8A1F8A188EEB8DFC8D3097C7
:1039D00079F1888181FD2CC014960D911C91159769
:1039E0001596DC93CE93149788818260888309951D
:1039F000988180FB90F9988388818D7F8883EBA1E3
:103A0000FCA1158304830E94F41B09811A812B8178
:103A10003C810D831E832F833887DC01CB01801B03
:103A2000910BA20BB30B89879A87AB87BC8704C025
:103A3000888181608883E7CFDF91CF911F910F91BB
:103A40000895CF93DF93CDB7DEB7E5970FB6F8941F
:103A5000DEBF0FBECDBF789484B5826084BD84B5CF
:103A6000816084BD85B5826085BD85B5816085BD79
:103A700080916E00816080936E0010928100809131
:103A800081008260809381008091810081608093B9
:103A90008100809180008160809380008091B100DE
:103AA00084608093B1008091B00081608093B00009
:103AB00080917A00846080937A0080917A0082609D
:103AC00080937A0080917A00816080937A0080915F
:103AD0007A00806880937A001092C10062E082E0F0
:103AE0000E947E1B8091AF049091B004892B11F548
:103AF0002091970430919804C901079697FD079685
:103B0000B3E095958795BA95E1F7209195043091AA
:103B10009604AC01429FC001439F900D529F900DAF
:103B200011240E940E2E9093B0048093AF04892B31
:103B300009F4FFCF0E941610209197043091980449
:103B4000809195049091960421323105A4F0B90139
:103B50006054710977FF02C06F5F7F4F759567955D
:103B60008255910997FD019600E410E022E530E0CE
:103B700049E652E013C0B9016052710977FF02C0F3
:103B80006F5F7F4F759567958357910997FD0196F4
:103B900000E210E023E730E049E850E09595879592
:103BA0000E94AA1082E08093B2048091AD049091AB
:103BB000AE04892B31F08CE38093B1040E9478101D
:103BC000BEC061E08091B6040E947E1B61E08091DE
:103BD000B7040E947E1B8091B604082E000C990B3E
:103BE000FC01E35BF54FE491F0E0EE0FFF1FED5BAE
:103BF000F54F259134913093BE042093BD04FC0110
:103C0000EF59F54FE491E093C3048091B704082E77
:103C1000000C990BFC01E35BF54FE491F0E0EE0F33
:103C2000FF1FED5BF54FA591B491B093C004A09335
:103C3000BF04FC01EF59F54FE491E093C4048C916B
:103C4000E82BEC938091AB049091AC04892B09F4A0
:103C500034C01FB7F89480915002811127C0E7E566
:103C6000FAE08491EBE6FAE09491E82FF0E0EE0FB1
:103C7000FF1FE75CF54FA591B491EC91E92321F486
:103C800061E08AE00E94311B61E08AE00E947E1BB5
:103C90008CB580618CBD8CB580648CBD61E08DE09D
:103CA0000E947E1B61E08BE00E947E1B809150028F
:103CB0008F5F809350021FBF42C061E08091B404C7
:103CC0000E947E1B61E08091B5040E947E1B809162
:103CD000B404082E000C990BFC01E35BF54FE49152
:103CE000F0E0EE0FFF1FED5BF54F2591349130931F
:103CF000BA042093B904FC01EF59F54FE491E09325
:103D0000C1048091B504082E000C990BFC01E35B03
:103D1000F54FE491F0E0EE0FFF1FED5BF54FA5913D
:103D2000B491B093BC04A093BB04FC01EF59F54FD0
:103D3000E491E093C2048C91E095E823EC938091A8
:103D4000B80487FD1EC061E00E947E1B61E0809187
:103D5000B8040E94311B61E070E080E090E00E94B6
:103D6000BA1B60E08091B8040E94311B6AE070E0E9
:103D700080E090E00E94BA1B61E08091B8040E944C
:103D8000311B8091AD049091AE04892BD1F020912C
:103D9000C7043091C8044091C9045091CA0460E03E
:103DA00074E284EF90E00E94842CDA01C90140970C
:103DB000A109B109B695A795979587958093B80005
:103DC00016C08091AB049091AC04892B31F08091A6
:103DD000C5049091C6040E94AF1AE091BF04F0910F
:103DE000C00490818091C40480958923808364E01D
:103DF00085E890E00E94410E60919704615081E94E
:103E000094E00E94511A64E081E890E00E94410E23
:103E10008091B204813011F064E101C060E181E978
:103E200094E00E94511A64E08DE790E00E94410EF8
:103E3000809195049091960480389105E9F48091E1
:103E40009704909198048032910531F464E089E7F9
:103E500090E00E94410E29C08034910531F563E065
:103E600086E790E00E94410E8091B204813011F00B
:103E70006FEC17C06FE915C080369105B1F48091E1
:103E8000970490919804409781F463E083E790E071
:103E90000E94410E8091B204813011F06FEA01C09E
:103EA00060E181E994E00E94511A69ED81E994E0B2
:103EB0000E94511A8091B204813011F061EF01C06B
:103EC00062E281E994E00E94511A66E08DE690E09A
:103ED0000E94410E8091AD049091AE04892BD1F0E7
:103EE0002091CB043091CC044091CD045091CE046C
:103EF00060E074E284EF90E00E94842CDA01C90152
:103F00004097A109B109B695A79597958795809394
:103F1000B80011C0E091BF04F091C004908180917D
:103F2000C404892B80838091AB049091AC04892BCD
:103F300011F00E94491A69EC71E083E794E00E9455
:103F40000F190E94250B8EEC91E00E944A0D0E94F1
:103F5000250BE091D302F091D40282E08083E091BE
:103F6000CF02F091D0021082E091D102F091D20202
:103F700080E180831092DB02E091D702F091D802B9
:103F800086E08083E091D502F091D6028081806145
:103F90008083E091D502F091D60280818860808391
:103FA000E091D502F091D602808180688083E09113
:103FB000D502F091D60280818F7D80838AED91E0D9
:103FC0000E944A0D0E94250B0E9478100E94122622
:103FD000803A59F068EE73E080E090E00E94BA1BEE
:103FE0000E941226803A09F09BC080E090E00E9477
:103FF000032660E28FE390E00E94D8250E941226FB
:10400000803A39F06AE070E080E090E00E94BA1BEC
:10401000F5CF62E370E080E090E00E94BA1B60E0C0
:104020008EE390E00E94D8256AE070E080E090E0A6
:104030000E94BA1B60E087E090E00E94D82560E013
:104040008FE390E00E94D8256AE070E080E090E085
:104050000E94BA1B8CE090E00E94032664E170E0AD
:1040600080E090E00E94BA1B68EE73E080E090E090
:104070000E94BA1B009183041091840480E090E0B8
:104080000E94032669E170E080E090E00E94BA1B84
:1040900060E087E090E00E94D82560E88FE390E040
:1040A0000E94D8256AE070E080E090E00E94BA1B90
:1040B000C8010E94032664E170E080E090E00E9465
:1040C000BA1B86E791E00E944A0D0E94250B1091D1
:1040D000FD038091FA038C3008F055C061E0812F18
:1040E0000E947E1B8091FA03E82FF0E09F01220FCF
:1040F000331FE20FF31FE05AFC4F1F739081907C37
:10410000192B10831092FB031092FC036CE00E94A9
:10411000B52C5CE0859FB001112440E050E006C062
:10412000FFCF4F5F5F4F4C30510579F09B01240F5B
:10413000351FF901EE0FFF1F2E0F3F1FF901E05A47
:10414000FC4F908196FFEDCF11C081110FC01092EE
:10415000800082E08093810010928500109284009C
:10416000B19A80916F00826080936F00E091FA03B2
:10417000F0E0CF01880F991FE80FF91FE05AFC4FBC
:104180008081806480838AE590E00E94610D1092B6
:104190008603109285031092880310928703109271
:1041A0008A03109289038BE893E00E94B41C85ED8A
:1041B00093E00E94B41C80EB93E00E94B41C66E87C
:1041C00071E083E794E00E940F1981EF91E00E9473
:1041D0004A0D80E8482E8EE3582E612C712C809178
:1041E00085039091860390938A0380938903E091DD
:1041F0008903F0918A03309709F475C001A112A1D7
:10420000808180FF6BC085859685A785B089892BC5
:104210008A2B8B2B69F4908180818E7F80838081B3
:104220008D7F808390FF5AC0CF010E94FE0C56C044
:104230000E94F41BE0918903F0918A03218132816D
:104240004381548181849284A384B484C580D680C0
:10425000E780F084DC01CB0188199909AA09BB0920
:104260008C159D05AE05BF05C8F185859685A7858A
:10427000B089181619061A061B065CF48585968502
:10428000A785B0890197A109B10985879687A78776
:10429000B08B85899689A789B08D0196A11DB11D26
:1042A000858B968BA78BB08FC580D680E780F084F6
:1042B00081859285A385B4858C0D9D1DAE1DBF1D86
:1042C00081879287A387B487258336834783508766
:1042D000018CF28DE02D309709F0099510938A0337
:1042E0000093890384CF83EC92E00E949A15039790
:1042F0000CF4A8C183EC92E00E9478156C0180E474
:10430000C816D1040CF09EC191E0C916D10409F081
:1043100052C00E941F0D0E94CE2D9B01AC01A0E156
:10432000B7E20E943A2CA30192010E941B2CCA0101
:10433000B9010E94FE2A20E030E048EC52E40E94DD
:104340005C2D20E030E048E452E40E94EF2C6093C2
:10435000FF037093000480930104909302040E9471
:104360001F0D4B015C0120E030EC49E754EC0E944A
:10437000F72A882309F4C5C0C501B4010E94CE2DD7
:104380009B01AC01A4EBB0E00E943A2CA301920186
:104390000E941B2CCA01B9016A5571098109910952
:1043A0000E94FE2A609348027093490280934A0259
:1043B00090934B02A6C0A2E0CA16D10409F052C0E5
:1043C0000E941F0D0E94CE2D9B01AC01A0E1B7E21F
:1043D0000E943A2CA30192010E941B2CCA01B90130
:1043E0000E94FE2A20E030E048EC52E40E945C2D5E
:1043F0006093190470931A0480931B0490931C0417
:104400008EE891E00E944A0DE0902104F090220491
:10441000009123041091240420911D0430911E0466
:1044200040911F04509120046091190470911A0466
:1044300080911B0490911C040E942D1180913104E5
:1044400090913204A0913304B091340480934402DB
:1044500090934502A0934602B0934702B1E0B09317
:1044600043024FC043E0C416D10409F092C00E9439
:104470001F0D0E94CE2D9B01AC01A0E1B7E20E946E
:104480003A2CA30192010E941B2CCA01B9010E947F
:10449000FE2A20E030E048EC52E40E945C2D60935C
:1044A0001D0470931E0480931F049093200485E9DB
:1044B00091E00E944A0D20911D0430911E0440910C
:1044C0001F045091200420934402309345024093EE
:1044D000460250934702E0902104F090220400919C
:1044E0002304109124046091190470911A0480919E
:1044F0001B0490911C040E942D1151E05093430223
:104500000FC3B6E0CB16D10409F00AC30E941F0DF9
:104510006B017C0120E030E0A9010E94042E87FDA0
:1045200091C0C701B6010E94CE2D9B01AC01A0E154
:10453000B7E20E943A2CA30192010E941B2CCA01EF
:10454000B9010E94FE2A20E030E048EC52E40E94CB
:104550005C2D60931304709314048093150490935E
:10456000160481EB91E00E944A0D80911304909112
:104570001404A0911504B091160480934402909302
:104580004502A0934602B093470241E040934302A4
:1045900059C094E0C916D10409F08BC20E941F0DC6
:1045A0006B017C0120E030E0A9010E94042E87FD10
:1045B00049C0C701B6010E94CE2D9B01AC01A0E10C
:1045C000B7E20E943A2CA30192010E941B2CCA015F
:1045D000B9010E94FE2A20E030E048EC52E40E943B
:1045E0005C2D6093210470932204809323049093A4
:1045F00024048CE991E00E944A0DE0902104F0909F
:1046000022040091230410912404E0924402F092C9
:104610004502009346021093470220911D043091F9
:104620001E0440911F045091200460911904709160
:104630001A0480911B0490911C040E942D1181E0AA
:1046400080934302BE016F5F7F4F89E794E00E9431
:104650002017C98CDA8CEB8CFC8CA7019601609139
:1046600003047091040480910504909106040E9453
:10467000F72A811110C020914C0230914D024091D7
:104680004E0250914F026D8D7E8D8F8D98A10E94AC
:10469000F72A8823A1F0C0920304D0920404E09288
:1046A0000504F09206048D8D9E8DAF8DB8A1809388
:1046B0004C0290934D02A0934E02B0934F02809112
:1046C000030490910404A0910504B0910604809322
:1046D000290490932A04A0932B04B0932C04809176
:1046E000FF0390910004A0910104B0910204809313
:1046F000250490932604A0932704B0932804809166
:104700006B04882309F44DC10E94F41B6DA77EA79A
:104710008FA798AB8091530490915404A0915504B5
:10472000B09156044DA55EA56FA578A9481B590BFD
:104730006A0B7B0B80915F0490916004A0916104EF
:10474000B0916204481759076A077B0708F429C12A
:10475000E0914D04F0914E0480819181A281B3815A
:1047600089A79AA7ABA7BCA7E0915104F091520486
:104770009C01AD0160817181828193810E94EF2C47
:104780004B015C0120915B0430915C0440915D041D
:1047900050915E0469A57AA58BA59CA50E94EF2C7B
:1047A0006B017C012091410430914204409143040B
:1047B00050914404C501B4010E945D2B209157041F
:1047C000309158044091590450915A040E94F02CA1
:1047D0006DA37EA38FA398A760935704709358048A
:1047E0008093590490935A0490916C0499AB911161
:1047F0001CC020913D0430913E0440913F045091F3
:104800004004C701B6010E945D2B9B01AC016DA164
:104810007EA18FA198A50E94EF2C609357047093FE
:1048200058048093590490935A04809157049091AE
:104830005804A0915904B0915A048DA39EA3AFA32C
:10484000B8A7109167040091680430906904209023
:104850006A04212F302F432D522DBC01CD010E941F
:10486000042E18162CF4812F902FA32DB22D1AC0D0
:104870008091630490916404A0916504B0916604F2
:104880008AAB9BABACABBDAB9C01AD016DA17EA176
:104890008FA198A50E94F72A87FF0CC08AA99BA91F
:1048A000ACA9BDA98093570490935804A0935904D0
:1048B000B0935A0499A9992379F020913D0430913D
:1048C0003E0440913F0450914004C501B4010E9450
:1048D0005D2B4B015C0103C0812C912C5401209174
:1048E0004504309146044091470450914804C70163
:1048F000B6010E945D2B9B01AC0160915704709141
:1049000058048091590490915A040E94EF2CA501FB
:1049100094010E94F02C6B017C019B01AC01612F82
:10492000702F832D922D0E94F72A87FD16C01091BB
:104930006304009164043090650420906604212F84
:10494000302F432D522DB601C7010E94F72A87FD53
:1049500004C01C2D0D2D3E2C2F2CE0914F04F09106
:104960005004812F902FA32DB22D80839183A28399
:10497000B38389A59AA5ABA5BCA580935B0490934E
:104980005C04A0935D04B0935E048DA59EA5AFA5C5
:10499000B8A98093530490935404A0935504B09302
:1049A0005604C0902D04D0902E04E0902F04F09077
:1049B0003004C0920704D0920804E0920904F092F7
:1049C0000A0480900B0490900C04A0900D04B09009
:1049D0000E04A5019401C701B6010E94042E181609
:1049E0007CF0A501940160E070E0CB010E94EF2C07
:1049F0009B01AC01C701B6010E94F72A87FF3BC0AB
:104A000020E030E0A901C701B6010E94042E18166B
:104A1000A4F4A7019601609113047091140480918D
:104A20001504909116040E94F02C60930F0470936B
:104A30001004809311049093120420E030E0A90147
:104A4000C701B6010E94F72A87FF1DC020911304F9
:104A5000309114044091150450911604C701B60119
:104A60000E94EF2C60930F04709310048093110444
:104A70009093120408C010920F0410921004109228
:104A800011041092120420910F04309110044091EF
:104A900011045091120460E070E084EB92E40E94F3
:104AA000EF2C0E94CE2DCB010E94610D0E94411679
:104AB00096CB95E0C916D10409F023CD0E941F0DB5
:104AC0000E94CE2D9B01AC01A0E1B7E20E943A2CDE
:104AD000A30192010E941B2CCA01B9010E94FE2A67
:104AE00020E030E048EC52E40E945C2D6B017C0138
:104AF0006093000170930101809302019093030180
:104B000083EA91E00E944A0DC0924402D09245028D
:104B1000E0924602F0924702A1E0A093430292CDB8
:104B2000A7E0CA16D10409F08DCD0E941F0D6B01BC
:104B30007C0120E030E0A9010E94042E87FD82CD97
:104B4000C701B6010E94CE2D9B01AC01A0E5B6E4E1
:104B50000E943A2CA30192010E941B2CCA01B901A8
:104B60000E94FE2A20E030E048EC52E40E945C2DD6
:104B70000E94CE2D70931804609317048DEB91E082
:104B80000E944A0D6091170470911804072E000CC2
:104B9000880B990B0E94FE2A609344027093450291
:104BA000809346029093470251E0509343024ACDCE
:104BB0000F931F93CF93DF93082F162FC9E7D4E0ED
:104BC0006B818C819D810E941B0B8C819D81DC01FE
:104BD000ED91FC910190F081E02D602F09958C8181
:104BE0009D81DC01ED91FC910190F081E02D612F20
:104BF00009958C819D810E94E50D81E0DF91CF9127
:104C00001F910F910895E9E7F4E082879387682F59
:104C10008DE390E00E94D8256EE170E080E090E0A6
:104C20000C94BA1BCF93DF93C9E7D4E06B818C81DE
:104C30009D810E941B0B8C819D81DC01ED91FC917B
:104C40000190F081E02D60E009958C819D810E94AA
:104C5000E50D61E08B810E94361010925602809320
:104C600055028C819D81DC01ED91FC910284F385DC
:104C7000E02D0995DF91CF9108954F925F926F9249
:104C80007F928F929F92AF92BF92CF92DF92EF92DC
:104C9000FF92CF93DF9300D000D000D0CDB7DEB726
:104CA0001092C6021092C50248EE53E060E070E038
:104CB0004093C7025093C8026093C9027093CA021E
:104CC0008EE091E09093C4028093C30285EC90E063
:104CD0009093D0028093CF0284EC90E09093D20224
:104CE0008093D10280EC90E09093D4028093D30221
:104CF00081EC90E09093D6028093D50282EC90E014
:104D00009093D8028093D70286EC90E09093DA02D9
:104D10008093D9021092DC021092DD021092DE0222
:104D20001092DF0285E894E01092880410928704C4
:104D30004093890450938A0460938B0470938C048D
:104D400020E231E03093860420938504109294048D
:104D50001092930440E850E05093960440939504D9
:104D600020E230E0309398042093970450939A0403
:104D70004093990430939C0420939B041092A604C2
:104D800010929E0410929D041092A00410929F0411
:104D900021E02093A5044FEF5FEF5093A4044093CC
:104DA000A3045093A2044093A1042093A70410925B
:104DB000A8041092AA041092A90422E331E03093CF
:104DC0009204209391041092AC041092AB0490933F
:104DD000AE048093AD041092B0041092AF042FEF94
:104DE0002093B4042093B5042093B6042093B70411
:104DF00024E02093B80420E52093C5041092C60453
:104E000040E85AE166E070E04093C7045093C8045C
:104E10006093C9047093CA0440EA56E861E070E008
:104E20004093CB045093CC046093CD047093CE0494
:104E30002CE631E030937A042093790441E050E08D
:104E400060E070E040937F0450938004609381049D
:104E50007093820428E220937C0490937E048093D4
:104E60007D041092740410927304109276041092D0
:104E70007504109278041092770446E050E069EFD0
:104E800071E083E794E00E94CF1810926E041092B4
:104E90006D041092700410926F04109272041092BC
:104EA000710440E050E061EF71E08DE694E00E9413
:104EB000CF18809184038C30A0F491E0980F9093E8
:104EC00084038093FA0390E0FC01EE0FFF1F8E0F26
:104ED0009F1FFC01E05AFC4F88EB9BE0928381838B
:104EE00003C03FEF3093FA031092FF0310920004C7
:104EF0001092010410920204109203041092040410
:104F000010920504109206041092070410920804EF
:104F10001092090410920A048AE999E9A9E1BEE312
:104F200080930B0490930C04A0930D04B0930E0493
:104F300010920F0410921004109211041092120497
:104F40001092130410921404109215041092160477
:104F50008AE590E090931804809317041092190446
:104F600010921A0410921B0410921C0410921D043B
:104F700010921E0410921F0410922004109221041B
:104F80001092220410922304109224048DE294E0E3
:104F90009093500480934F0489E294E090934E04E0
:104FA00080934D0485E294E09093520480935104E1
:104FB00010926B04109263041092640410926504C2
:104FC0001092660480E090E0AFE7B3E4809367045A
:104FD00090936804A0936904B0936A0484E690E017
:104FE000A0E0B0E080935F0490936004A09361041C
:104FF000B093620410924A041092490481E090E058
:1050000090934C0480934B0480936C041092310471
:10501000109232041092330410923404109235042A
:10502000109236041092370410923804109239040A
:1050300010923A0410923B0410923C0410923D04EA
:1050400010923E0410923F041092400410924104CA
:1050500010924204109243041092440410924504AA
:105060001092460410924704109248040E94F41BC8
:1050700020915F043091600440916104509162047A
:1050800029833A834B835C83DC01CB01821B930B26
:10509000A40BB50B8093530490935404A093550430
:1050A000B093560486E090E09093FE038093FD0356
:1050B0001092290410922A0410922B0410922C04AE
:1050C00010922504109226041092270410922804AE
:1050D000812C912C2CE8A22E22ECB22E809263041B
:1050E00090926404A0926504B0926604412C512C05
:1050F0003CE8632E32E4732E4092670450926804B9
:105100006092690470926A0480916B0440914F042C
:10511000509150045E834D83882309F455C0FA01F1
:10512000C080D180E280F380A3019201C701B60163
:105130000E94042E18163CF4ED81FE8140825182BB
:105140006282738210C020E030E04CE852ECC7016C
:10515000B6010E94F72A87FF06C0ED81FE8180829A
:105160009182A282B3828090570490905804A090BC
:105170005904B0905A04C0906704D0906804E0903D
:105180006904F0906A04A7019601C501B4010E9468
:10519000042E181684F0C0906304D0906404E0904C
:1051A0006504F0906604A7019601C501B4010E9450
:1051B000F72A87FF3AC0C0925704D0925804E09271
:1051C0005904F0925A0431C0ED81FE81C080D18033
:1051D000E280F380C0925704D0925804E0925904C0
:1051E000F0925A04E0914D04F0914E048081918137
:1051F000A281B38180935B0490935C04A0935D04CF
:10520000B0935E0420E030E04CE852E4C701B60100
:105210000E94042E18160CF0D7C1409257045092E9
:1052200058046092590470925A0481E080936B0490
:1052300069817A818B819C810E94FC2A9B01AC014F
:1052400060E070E088E493E40E945C2D6B017C01D7
:105250009B01AC0160914104709142048091430430
:10526000909144040E945D2B60934104709342042A
:105270008093430490934404A701960160914504F0
:105280007091460480914704909148040E945C2DDF
:1052900060934504709346048093470490934804B8
:1052A00088EC882E912CA12CB12C80925F049092D6
:1052B0006004A0926104B09262048091D5038E7F55
:1052C0008093D5038091D5038D7F8093D503109271
:1052D000DE031092DF031092E0031092E1031092BC
:1052E000DA031092DB031092DC031092DD031092BC
:1052F000D6031092D7031092D8031092D9031092BC
:10530000F5031092F4031092F7031092F603109233
:10531000F9031092F8031092EA031092EB03109233
:10532000EC031092ED038DE999E09093EF038093E5
:10533000EE031092F1031092F0031092F303109217
:10534000F2038092D6039092D703A092D803B09232
:10535000D9038091D6039091D703A091D803B0913F
:10536000D9038093DA039093DB03A093DC03B0931B
:10537000DD030E94F41B6093DE037093DF038093D0
:10538000E0039093E103CC24CA94DC2C7601C09214
:10539000E203D092E303E092E403F092E503C092CB
:1053A000E603D092E703E092E803F092E9038091EC
:1053B000B0038E7F8093B0038091B0038D7F809384
:1053C000B0031092B9031092BA031092BB0310926B
:1053D000BC031092B5031092B6031092B70310925B
:1053E000B8031092B1031092B2031092B30310925B
:1053F000B4031092D0031092CF031092D2031092F4
:10540000D1031092D4031092D3031092C5031092CB
:10541000C6031092C7031092C80385EC99E09093DD
:10542000CA038093C9031092CC031092CB0310924D
:10543000CE031092CD038092B1039092B203A0925A
:10544000B303B092B4038091B1039091B203A091E1
:10545000B303B091B4038093B5039093B603A093C4
:10546000B703B093B8030E94F41B6093B903709321
:10547000BA038093BB039093BC03C092BD03D09248
:10548000BE03E092BF03F092C003C092C103D0926A
:10549000C203E092C303F092C40380918B038E7F1A
:1054A00080938B0380918B038D7F80938B0310926D
:1054B0009403109295031092960310929703109202
:1054C0009003109291031092920310929303109202
:1054D0008C0310928D0310928E0310928F03109202
:1054E000AB031092AA031092AD031092AC0310927A
:1054F000AF031092AE031092A0031092A10310927A
:10550000A2031092A30385E29BE09093A5038093EE
:10551000A4031092A7031092A6031092A90310925D
:10552000A80380928C0390928D03A0928E03B09278
:105530008F0380918C0390918D03A0918E03B09185
:105540008F038093900390939103A0939203B09361
:1055500093030E94F41B60939403709395038093CC
:10556000960390939703C0929803D0929903E09288
:105570009A03F0929B03C0929C03D0929D03E09209
:105580009E03F0929F03109286031092850310925F
:1055900088031092870310928A031092890326963B
:1055A0000FB6F894DEBF0FBECDBFDF91CF91FF9055
:1055B000EF90DF90CF90BF90AF909F908F907F90B3
:1055C0006F905F904F90089520E030E04CE852ECEF
:1055D000C701B6010E94F72A87FF27CE80925704A1
:1055E00090925804A0925904B0925A041ECE0E9480
:1055F000392B08F481E00895E89409C097FB3EF444
:1056000090958095709561957F4F8F4F9F4F99230F
:10561000A9F0F92F96E9BB279395F695879577958D
:105620006795B795F111F8CFFAF4BB0F11F460FF4D
:105630001BC06F5F7F4F8F4F9F4F16C0882311F0A5
:1056400096E911C0772321F09EE8872F762F05C0B9
:10565000662371F096E8862F70E060E02AF09A9554
:10566000660F771F881FDAF7880F9695879597F949
:105670000895990F0008550FAA0BE0E8FEEF1616E3
:105680001706E807F907C0F012161306E407F50736
:1056900098F0621B730B840B950B39F40A2661F0AA
:1056A000232B242B252B21F408950A2609F4A1404D
:1056B000A6958FEF811D811D08950E94702B0C947B
:1056C000E12B0E94D32B38F00E94DA2B20F0952397
:1056D00011F00C94CA2B0C94D02B11240C94152C83
:1056E0000E94F22B70F3959FC1F3950F50E0551F68
:1056F000629FF001729FBB27F00DB11D639FAA2727
:10570000F00DB11DAA1F649F6627B00DA11D661F75
:10571000829F2227B00DA11D621F739FB00DA11D96
:10572000621F839FA00D611D221F749F3327A00D50
:10573000611D231F849F600D211D822F762F6A2FEC
:1057400011249F5750409AF0F1F088234AF0EE0F51
:10575000FF1FBB1F661F771F881F91505040A9F77E
:105760009E3F510580F00C94CA2B0C94152C5F3F82
:10577000E4F3983ED4F3869577956795B795F795BA
:10578000E7959F5FC1F7FE2B880F911D9695879532
:1057900097F9089597F99F6780E870E060E00895B1
:1057A0009FEF80EC089500240A9416161706180639
:1057B0000906089500240A94121613061406050615
:1057C0000895092E0394000C11F4882352F0BB0FA6
:1057D00040F4BF2B11F460FF04C06F5F7F4F8F4F09
:1057E0009F4F089557FD9058440F551F59F05F3F44
:1057F00071F04795880F97FB991F61F09F3F79F0F3
:1058000087950895121613061406551FF2CF469574
:10581000F1DF08C0161617061806991FF1CF8695F6
:105820007105610508940895E894BB2766277727DA
:10583000CB0197F90895052E97FB1EF400940E9462
:10584000322C57FD07D00E94842C07FC03D04EF465
:105850000C94322C50954095309521953F4F4F4FE9
:105860005F4F089590958095709561957F4F8F4F0C
:105870009F4F08950E94A62CA59F900DB49F900D58
:10588000A49F800D911D11240895B7FF0C943A2C0C
:105890000E943A2C821B930B08952F923F924F92B5
:1058A0005F926F927F928F929F92AF92BF92CF92B0
:1058B000DF92EF92FF920F931F93CF93DF93CDB7B9
:1058C000DEB7CA1BDB0B0FB6F894DEBF0FBECDBF31
:1058D00009942A88398848885F846E847D848C8402
:1058E0009B84AA84B984C884DF80EE80FD800C810B
:1058F0001B81AA81B981CE0FD11D0FB6F894DEBFEE
:105900000FBECDBFED010895A1E21A2EAA1BBB1B4D
:10591000FD010DC0AA1FBB1FEE1FFF1FA217B3077B
:10592000E407F50720F0A21BB30BE40BF50B661F91
:10593000771F881F991F1A9469F760957095809555
:1059400090959B01AC01BD01CF010895A29FB001CC
:10595000B39FC001A39F700D811D1124911DB29FA3
:10596000700D811D1124911D0895991B79E004C0CB
:10597000991F961708F0961B881F7A95C9F780958E
:10598000089597FB072E16F4009407D077FD09D0F1
:105990000E94D52C07FC05D03EF4909581959F4F31
:1059A0000895709561957F4F0895AA1BBB1B51E127
:1059B00007C0AA1FBB1FA617B70710F0A61BB70B7F
:1059C000881F991F5A95A9F780959095BC01CD0124
:1059D0000895EE0FFF1F0590F491E02D09945058A3
:1059E000BB27AA270E94072D0C94E12B0E94D32BE2
:1059F00038F00E94DA2B20F039F49F3F19F426F496
:105A00000C94D02B0EF4E095E7FB0C94CA2BE92FF5
:105A10000E94F22B58F3BA176207730784079507A1
:105A200020F079F4A6F50C94142C0EF4E0950B2ECE
:105A3000BA2FA02D0B01B90190010C01CA01A001E0
:105A40001124FF27591B99F0593F50F4503E68F13B
:105A50001A16F040A22F232F342F4427585FF3CF7C
:105A6000469537952795A795F0405395C9F77EF44D
:105A70001F16BA0B620B730B840BBAF09150A1F096
:105A8000FF0FBB1F661F771F881FC2F70EC0BA0F1C
:105A9000621F731F841F48F4879577956795B795A4
:105AA000F7959E3F08F0B0CF9395880F08F099279F
:105AB000EE0F9795879508950E94702D0C94E12B19
:105AC0000E94DA2B58F00E94D32B40F029F45F3F5C
:105AD00029F00C94CA2B51110C94152C0C94D02B3A
