:100000000C9447050C946F050C946F050C946F05C8
:100010000C946F050C946F050C946F050C946F0590
:100020000C946F050C946F050C946F050C94C0181C
:100030000C946F050C946F050C946F050C946F0570
:100040000C94EB1B0C946F050C948E180C94681890
:100050000C946F050C946F050C946F050C946F0550
:100060000C94ED090C946F052200FF2100DB40A4E5
:10007000A62EAFDA0281DA1281DA02818F2000A186
:10008000C8D300408DAED580A800006000000000FD
:1000900000000000000000000000E0000000000080
:1000A000000000000000000001E00000000000006F
:1000B0000000000000000001F0000000000000004F
:1000C00000000000000003F000000000000000003D
:1000D000000000000007F000000000000000000029
:1000E0000000000007F80000000000000000000011
:1000F0000000000FF800000003C0007E000001E0D7
:10010000007F0FF800000003C000FE000001E000C7
:10011000FFEFF800000003C000FE000001E000FF58
:10012000FFF800000003C000F00000000F007FFE99
:100130007FC0000003C000F00000000F003FFE7F02
:10014000F83FF1FBCFFCFEF3BC3DEFE01FFE7FFF6D
:100150007FFBFFDFFEFEFFBC3DEFE01FC6FFFF7F22
:10016000FBFFDFFEFEFFBC3DEFE00FE3C7FE787B49
:10017000C3DE1EF0FFBC3DEF0007FF87FC787BC3AA
:10018000DE1EF0F83C3DEF0001FFFFF0007BC3C036
:100190001EF0F03C3DEF0001F37FE03FFBC3CFFEDC
:1001A000F0F03C3DEF0003E33F807FFBC3DFFEF058
:1001B000F03C3DEF0007E73C00787BC3DE1EF0F02B
:1001C0003C3DEF0007FFBE00787BC3DE1EF0F03C35
:1001D0003DEF0007FFFE00787BC3DE1EF0F03C3DE4
:1001E000EF000FFFFE007FFBFFDFFEF0F03FFDEFB3
:1001F000E00FFFFF007FFBFFDFFEF0F03FFDEFE0D1
:100200000FF9FF003E79F9CF9EF0F01F3DE7E01FA8
:10021000F1FF0000000000000000000000001F804F
:10022000FF007FFFFFFFFFFFFFFFFFFFE01C007FDE
:10023000007FFFFFFFFEB46D888D18E000001F00F7
:100240007FFFFFFFFE95AD7DB577E000000F007FDB
:10025000FFFFFFFEA5AD9D8D19E0000006007FFFAA
:10026000FFFFFEB5ADEDB57EE000000000000180AF
:1002700000000000000000000003800000000000FB
:100280000000000007C000000000000000000007A0
:10029000C00000000000000000000FC000000000CF
:1002A00000000000001FE00000000000000000004F
:1002B0001FE00000000000000000003FE000000020
:1002C0000000000000003FF00000000000000000FF
:1002D000007FF0000000000000001FF87FF0000029
:1002E00000000000003FFE7FF00000000000000062
:1002F0003FFF7FF0000000000000001FFFFBE00058
:100300000000000000000FFFF9FFC0000000000027
:10031000000FFFF9FFF800000000000007FFF1FFE9
:10032000FF00000000000003FC73FFFF80000000DE
:10033000000001FE3FFFFF80000000000000FF1EE4
:100340000FFF000000000000007FFE1FFC00000007
:10035000000000003FFFFFF8000000000000000F59
:10036000DFFFE0000000000000001F19FFC00000D8
:1003700000000000003F3CFF000000000000000003
:100380007E7CF800000000000000007FFE7C000082
:10039000000000000000FFFFFC0000000000000063
:1003A00000FFFFFE0000000000000000FFFFFE0055
:1003B00000000000000001FFEFFE00000000000050
:1003C0000001FFCFFE0000000000000003FF07FE59
:1003D0000000000000000003FC07FE000000000019
:1003E000000003F003FE0000000000000001800098
:1003F000FE000000000000000000007E0000000081
:100400000000000000003E000000000000000000AE
:10041000000C000000000000078000FC000003C08A
:10042000000000078001FC000003C00000000780FE
:1004300001FC000003C0000000078001E000000094
:100440001E000000078001E00000001E007FE3F7AF
:100450009FF9FDE7787BDFC0FFF7FFBFFDFDFF7869
:100460007BDFC0FFF7FFBFFDFDFF787BDFC0F0F74C
:1004700087BC3DE1FF787BDE00F0F787BC3DE1F013
:10048000787BDE0000F787803DE1E0787BDE007F4F
:10049000F7879FFDE1E0787BDE00FFF787BFFDE196
:1004A000E0787BDE00F0F787BC3DE1E0787BDE00A2
:1004B000F0F787BC3DE1E0787BDE00F0F787BC3DDC
:1004C000E1E0787BDE00FFF7FFBFFDE1E07FFBDFCF
:1004D000C0FFF7FFBFFDE1E07FFBDFC07CF3F39FD0
:1004E0003DE1E03E7BCFC0000000000000000000C6
:1004F0000000FFFFFFFFFFFFFFFFFFFFC0FFFFFF49
:10050000FFFD68DB111A31C0FFFFFFFFFD2B5AFB17
:100510006AEFC0FFFFFFFFFD4B5B3B1A33C0FFFFDD
:10052000FFFFFD6B5BDB6AFDC000000000240027BD
:10053000002A0000000000250028002B000404040D
:10054000040404040402020202020203030303037C
:100550000301020408102040800102040810200159
:10056000020408102000000008000201000003043B
:10057000070000000000000000000103070F1F3FFC
:100580007F0080C0E0F0F8FCFE00000000003E5B51
:100590004F5B3E3E6B4F6B3E1C3E7C3E1C183C7ED0
:1005A0003C181C577D571C1C5E7F5E1C00183C18B5
:1005B00000FFE7C3E7FF0018241800FFE7DBE7FFB1
:1005C00030483A060E2629792926407F050507403E
:1005D0007F05253F5A3CE73C5A7F3E1C1C08081CFF
:1005E0001C3E7F14227F22145F5F005F5F06097F3D
:1005F000017F006689956A606060606094A2FFA2D6
:100600009408047E040810207E201008082A1C0884
:10061000081C2A08081E101010100C1E0C1E0C308E
:10062000383E3830060E3E0E060000000000000086
:100630005F00000007000700147F147F14242A7F46
:100640002A12231308646236495620500008070313
:1006500000001C2241000041221C002A1C7F1C2A91
:1006600008083E08080080703000080808080800E4
:100670000060600020100804023E5149453E0042DF
:100680007F400072494949462141494D33181412AF
:100690007F1027454545393C4A49493141211109D7
:1006A000073649494936464949291E0000140000C9
:1006B00000403400000008142241141414141400E3
:1006C0004122140802015909063E415D594E7C122F
:1006D00011127C7F494949363E414141227F4141C7
:1006E000413E7F494949417F090909013E41415144
:1006F000737F0808087F00417F41002040413F018F
:100700007F081422417F404040407F021C027F7FCF
:100710000408107F3E4141413E7F090909063E41E0
:1007200051215E7F09192946264949493203017F33
:1007300001033F4040403F1F2040201F3F403840C2
:100740003F631408146303047804036159494D435B
:10075000007F4141410204081020004141417F04D3
:1007600002010204404040404000030708002054BA
:100770005478407F2844443838444444283844441A
:10078000287F385454541800087E090218A4A49CE9
:10079000787F0804047800447D40002040403D00FC
:1007A0007F1028440000417F40007C047804787C5E
:1007B000080404783844444438FC182424181824C5
:1007C0002418FC7C08040408485454542404043FAE
:1007D00044243C4040207C1C2040201C3C403040B5
:1007E0003C44281028444C9090907C4464544C44E1
:1007F0000008364100000077000000413608000282
:10080000010204023C2623263C1EA1A161123A40AB
:1008100040207A3854545559215555794122545421
:100820007842215554784020545579400C1E52721C
:1008300012395555555939545454593955545458F9
:100840000000457C410002457D420001457C407D21
:100850001211127DF0282528F07C545545002054B3
:10086000547C547C0A097F4932494949323A44440C
:10087000443A324A4848303A4141217A3A4240208B
:1008800078009DA0A07D3D4242423D3D4040403D1C
:100890003C24FF2424487E4943662B2FFC2F2BFF4A
:1008A0000929F620C0887E090320545479410000AC
:1008B000447D413048484A32384040227A007A0A22
:1008C0000A727D0D19317D2629292F2826292929EB
:1008D0002630484D4020380808080808080808381D
:1008E0002F10C8ACBA2F102834FA00007B00000883
:1008F000142A142222142A14085500550055AA550A
:10090000AA55AAFF55FF55FF000000FF0010101068
:10091000FF00141414FF001010FF00FF1010F0105F
:10092000F0141414FC001414F700FF0000FF00FF83
:100930001414F404FC141417101F10101F101F14AB
:1009400014141F00101010F0000000001F101010F1
:10095000101F10101010F010000000FF10101010E9
:100960001010101010FF10000000FF140000FF0016
:10097000FF00001F10170000FC04F41414171017D8
:100980001414F404F40000FF00F7141414141414E5
:1009900014F700F7141414171410101F101F141458
:1009A00014F4141010F010F000001F101F000000CD
:1009B0001F14000000FC140000F010F01010FF10D5
:1009C000FF141414FF141010101F00000000F0108A
:1009D000FFFFFFFFFFF0F0F0F0F0FFFFFF0000006F
:1009E0000000FFFF0F0F0F0F0F3844443844FC4A3C
:1009F0004A4A347E02020606027E027E026355499E
:100A000041633844443C04407E201E2006027E029E
:100A10000299A5E7A5991C2A492A1C4C7201724C1F
:100A2000304A4D4D303048784830BC625A463D3EE1
:100A3000494949007E0101017E2A2A2A2A2A444482
:100A40005F444440514A444040444A51400000FF02
:100A50000103E080FF000008086B6B0836123624A3
:100A600036060F090F0600001818000000101000CD
:100A70003040FF0101001F01011E00191D17120067
:100A80003C3C3C3C0000000000003626781C112451
:100A90001FBECFEFD8E0DEBFCDBF11E0A0E0B1E0D8
:100AA000ECEDFFE502C005900D92AE3EB107D9F71F
:100AB00024E0AEEEB1E001C01D92AE3BB207E1F71B
:100AC00015E0C6E4D5E004C02197FE010E94AA2CDF
:100AD000C534D107C9F70E940C1D0C94E12F0C946A
:100AE00000006F927F928F929F92AF92BF92CF92AF
:100AF000DF92EF92FF920F931F93CF93DF93EC015E
:100B00004B015A0169013801E881F9810284F385BA
:100B1000E02D0995E881F9810288F389E02D8701AC
:100B20009601A501B401CE010995A501460D571DF9
:100B300041505109E881F9810288F389E02D96013D
:100B4000B401CE010995E881F9810088F189E02D91
:100B50009301A501B401CE010995C80CD91CB601B9
:100B600061507109E881F9810088F189E02D9301D4
:100B7000A501CE010995E881F9810688F789E02D64
:100B8000CE01DF91CF911F910F91FF90EF90DF90F9
:100B9000CF90BF90AF909F908F907F906F9009946F
:100BA0008F929F92AF92BF92CF92DF92EF92FF927D
:100BB0000F931F93CF93DF934C016B015A01E9010F
:100BC000DC01ED91FC916217730781F4041715079E
:100BD00024F48B2D5801042F182F0A191B09980192
:100BE0002F5F3F4F048CF58DE02D12C04017510749
:100BF00009F52617370724F48D2D6901C62FD82F44
:100C00009E012C193D092F5F3F4F068CF78DE02D7B
:100C10008701A501B601C4010995DF91CF911F910C
:100C20000F91FF90EF90DF90CF90BF90AF909F908B
:100C30008F9008950284F385E02D0995D401ED91FC
:100C4000FC910488F589E02D9E01A501B601C4013F
:100C50000995D401ED91FC910688F789E02DC40136
:100C6000DF91CF911F910F91FF90EF90DF90CF9088
:100C7000BF90AF909F908F900994EF92FF920F9347
:100C80001F93DC011A960D911C911B9718962D91BC
:100C90003C911997ED91FC9100A0F1A1E02D7B0111
:100CA00040E050E060E070E009951F910F91FF90E7
:100CB000EF9008954F925F926F927F928F929F92E2
:100CC000AF92BF92CF92DF92EF92FF920F931F935A
:100CD000CF93DF936C012B015A0139014801DC01EC
:100CE000ED91FC910284F385E02D0995E201640CFD
:100CF000751CD601ED91FC91C615D7055CF40088F2
:100D0000F189E02D87019401A501BE01C601099575
:100D10002196EFCF0688F789E02DC601DF91CF91AC
:100D20001F910F91FF90EF90DF90CF90BF90AF9009
:100D30009F908F907F906F905F904F9009948F92CB
:100D40009F92AF92BF92CF92DF92EF92FF920F935A
:100D50001F93CF93DF93EC015B014A016901E881A6
:100D6000F9810284F385E02D099595012C0D3D1D37
:100D700021503109E881F9810488F589E02D780155
:100D80008401A401B501CE010995E881F9810688A5
:100D9000F789E02DCE01DF91CF911F910F91FF9048
:100DA000EF90DF90CF90BF90AF909F908F9009947D
:100DB0008F929F92AF92BF92CF92DF92EF92FF926B
:100DC0000F931F93CF93DF93EC015B014A016901FD
:100DD0007801E881F9810284F385E02D0995C80C3A
:100DE000D91C860101501109E881F9810488F5892F
:100DF000E02D9501A401B501CE010995E881F981A5
:100E00000688F789E02DCE01DF91CF911F910F91D8
:100E1000FF90EF90DF90CF90BF90AF909F908F901A
:100E200009940895EF92FF920F931F93DC01ED91C7
:100E3000FC9100A0F1A1E02D09951F910F91FF9069
:100E4000EF9008950F931F93DC01ED91FC91068CB8
:100E5000F78DE02D09951F910F9108950F931F9322
:100E6000DC01ED91FC91048CF58DE02D09951F912D
:100E70000F910895DC01ED91FC910084F185E02D46
:100E800009942F923F924F925F926F927F928F922E
:100E90009F92AF92BF92CF92DF92EF92FF920F9309
:100EA0001F93CF93DF9300D000D000D0CDB7DEB733
:100EB0002C017E836D836A015901C801FC82EB829B
:100EC0004801841A950A97FE03C091948194910871
:100ED00035012D813E81621A730A77FE03C0719439
:100EE00061947108681479045CF43A2D2B2D5C012F
:100EF000832F922F3D812E81DE82CD82C32ED22E72
:100F0000AD81BE81AA16BB065CF43C2D2D2D6C0173
:100F1000832F922F3D812E81BE82AD82A32EB22ED1
:100F200085012D813E81021B130B1C012C183D08ED
:100F300037FE03C0319421943108780117FF03C0B4
:100F40003FEFE31AF30AF594E794C816D9062CF09C
:100F50008FEF9FEF9A83898304C0A1E0B0E0BA834A
:100F6000A9832D813E81A216B30624F1D201ED9111
:100F7000FC910484F585E02D2B813C816814790473
:100F800024F44D815E81B60103C0A6016D817E818E
:100F9000C2010995E218F308F7FE06C029813A81DB
:100FA000C20ED31EE00EF11E8D819E8101969E839E
:100FB0008D83D7CF26960FB6F894DEBF0FBECDBF78
:100FC000DF91CF911F910F91FF90EF90DF90CF9025
:100FD000BF90AF909F908F907F906F905F904F9059
:100FE0003F902F90089585ED8093BC008091BC00C8
:100FF00084FDFCCF10929402089540910E02262F9A
:1010000030E0240F311D21323105DCF420919402AF
:101010002430C9F4FC0180E090E0861758F4309148
:101020000E022191DC01A251BE4FA30FB11D2C93E2
:101030000196F3CF80910E02680F60930E0280E05C
:10104000089581E0089582E0089508950895E0915B
:101050004C0280914B02E81730F4F0E0E35BFD4F67
:10106000808190E008958FEF9FEF089590914C025A
:1010700080914B02981750F4E92FF0E0E35BFD4FAD
:10108000208130E09F5F90934C0202C02FEF3FEF32
:10109000C901089580914B0290E020914C02821B7F
:1010A00091090895CF92DF92EF92FF920F931F93D1
:1010B000CF93DF937C01CB018A01209195022223FB
:1010C00089F0EB016B01C40ED51ECC15DD0569F06E
:1010D0006991D701ED91FC910190F081E02DC7015C
:1010E0000995F3CF642F0E94FD07C801DF91CF91CE
:1010F0001F910F91FF90EF90DF90CF900895CF93C5
:10110000DF931F92CDB7DEB769832091950222232A
:10111000D1F02091B802203240F021E030E0FC0113
:101120003383228380E090E015C080919602E82FFF
:10113000F0E0E956FD4F998190838F5F809396028E
:101140008093B80205C061E0CE0101960E94FD07C0
:1011500081E090E00F90DF91CF910895089580E0B5
:1011600090E008950895AF92BF92CF92EF92FF92D0
:101170000F931F93CF93DF93EC01262F888D998DCA
:10118000009709F040C06A3059F41D861C862C89EE
:101190008E859F8538E0239F800D911D112441C0CD
:1011A0006D3009F4AAC08E898823C1F03C898C85F2
:1011B0009D8546E0349F800D911D112448855985F9
:1011C000481759075CF41D861C868E859F8548E06C
:1011D000349F800D911D11249F878E87EA88FB889C
:1011E000088919894E855F856C857D85CC88CE01FF
:1011F0000E9440102C898C859D8536E0239F800DB0
:10120000911D112442C06A3079F41D861C862C89F8
:10121000FC013696E4918E859F852E9F800D911D51
:1012200011249F878E8769C06D3009F466C0FC0168
:1012300034963491631708F460C03196E491E61750
:1012400008F45BC0FC01329665917491422F50E026
:10125000431B510937E0349F5001359FB00C1124D6
:10126000A60EB71EF501329634913196E4913323E0
:1012700011F0E1110DC0F5013496E4912C898C85B3
:101280009D85E29F800D911D11249D878C8735C01F
:10129000F501359644915E89552311F16C89E32F50
:1012A000F0E0E40FF11D47FDFA956E9FD0016F9FAE
:1012B000B00D11244C855D854A0F5B1FE885F985CB
:1012C000E417F5076CF41D861C86FC013696E49144
:1012D0008E859F856E9F800D911D11249F878E871F
:1012E000EA88FB88088919894E855F856C857D852C
:1012F000CC88CE010E944010BECF81E090E0DF910B
:10130000CF911F910F91FF90EF90CF90BF90AF9032
:1013100008950C94672ECF9360EC70E00E94822CAD
:10132000C82F605C89EB92E00E940A1560E46C0FA4
:1013300089EB92E0CF910C940A1561E089EB92E081
:101340000E940A1520E030E048EC52E4609141042C
:101350007091420480914304909144040E941E2B9A
:101360000E948F2D9B01AC01285D3C4D4F4F5F4F7C
:10137000A0E8BEE30E94FB2B20E536E440E050E00D
:101380000E94DC2BC9010C948B0962E089EB92E08E
:101390000E940A1520E030E048EC52E460914D04D0
:1013A00070914E0480914F04909150040E941E2B26
:1013B0000E948F2D9B01AC01285D3C4D4F4F5F4F2C
:1013C000A0E8BEE30E94FB2B20E536E440E050E0BD
:1013D0000E94DC2BC9010C948B091F920F920FB64F
:1013E0000F9211242F933F934F935F936F937F93AB
:1013F0008F939F93AF93BF93EF93FF938091B90027
:10140000887F803609F49CC068F5883209F45BC097
:1014100090F4803109F454C038F4882309F4F6C0FC
:10142000883009F44DC0F6C0883109F44CC08032D0
:1014300009F45DC0EFC0803409F468C048F480331B
:1014400009F455C0883309F0E5C080939202D8C0F2
:10145000803509F44FC0883509F45DC0883409F03F
:10146000D9C0D6C0883909F4C7C0A8F4883709F4B0
:1014700067C038F4883609F463C0803709F460C067
:10148000C9C0883809F4B8C0803909F45FC0803811
:1014900009F0C0C05BC0803B09F486C038F4803AD4
:1014A00009F466C0883A09F47FC0B4C0803C09F4EE
:1014B000A7C0883C09F4A4C0883B09F48AC0AAC02C
:1014C00080916F0210C090919102809190029817C4
:1014D00070F5E091910281E08E0F80939102F0E02F
:1014E000E059FD4F80818093BB0085EC86C08093DE
:1014F00092028EC0E091910281E08E0F8093910262
:101500008091BB00F0E0E059FD4F80839091910203
:10151000809190026EC0E091910281E08E0F8093E5
:1015200091028091BB00F0E0E059FD4F80838091F3
:10153000930281116DC081E080936E0284EA61C0E4
:1015400083E08093940210923002CFCF80913002DA
:10155000803208F051C0E091300281E08E0F80931C
:1015600030028091BB00F0E0E05FFD4F8083BDCF93
:1015700085EC8093BC0010929402809130028032FE
:1015800030F4E0913002F0E0E05FFD4F10826091B6
:10159000300270E0E0914702F091480280E192E071
:1015A00009951092300236C084E080939402109224
:1015B0000F0210920E02E0914902F0914A02099541
:1015C00080910E02811105C081E080930E0210927D
:1015D000EE01E0910F0281E08E0F80930F02F0E0A8
:1015E000E251FE4F80818093BB0090910F02809169
:1015F0000E02981708F479CF85E88093BC000AC0E2
:1016000085EC8093BC001092940204C01092920268
:101610000E94F307FF91EF91BF91AF919F918F913E
:101620007F916F915F914F913F912F910F900FBEDE
:101630000F901F90189581E0809395026093B702F8
:10164000109296021092B8020895EF92FF920F93B3
:101650001F93CF93DF930E945B0F81E080938F04F1
:101660008093920481E090E090938E0480938D04A7
:1016700090938C0480938B041092880410928704BA
:1016800010928A04109289048DE594E00E94460F1E
:101690001092880410928704C8E0D0E0D0938A04A6
:1016A000C093890487E594E00E94460F809131023F
:1016B0008823A1F08BE490E09093880480938704C2
:1016C000D0938A04C09389046091320270913302EE
:1016D00080913402909135020E94350E55E0E52E3E
:1016E000F12CF0928804E0928704C0E1D0E0D0931E
:1016F0008A04C093890460913D0470913E048091F6
:101700003F04909140040E94350E06E210E01093D1
:10171000880400938704D0938A04C093890460915D
:1017200041047091420480914304909144040E94CA
:10173000350E80E590E09093880480938704D093E1
:101740008A04C093890460914D0470914E04809185
:101750004F04909150040E94350EF0928804E0925C
:101760008704C8E1D0E0D0938A04C09389046091D3
:1017700036027091370280913802909139020E94AE
:10178000350E1093880400938704D0938A04C09385
:10179000890460913A0270913B0280913C029091E1
:1017A0003D020E94350E8091970490919804892BF8
:1017B000D1F02091B1043091B2044091B304509122
:1017C000B40460E074E284EF90E00E94452CDA01FA
:1017D000C9014097A109B109B695A7959795879535
:1017E0008093B80016C08091950490919604892B3F
:1017F00031F08091AF049091B0040E94E719E0911C
:10180000A904F091AA0490818091AE048095892367
:10181000808365E088E690E00E94860D60917F04F9
:1018200061508BE794E00E948919209181043091E6
:101830008204C901079697FD079633E09595879531
:101840003A95E1F720917F0430918004829F8001D6
:10185000839F100D929F100D1124C0919904D09177
:101860009A0480919704909198040C0F1D1F009783
:1018700009F445C060919B040E941B0B8091970462
:1018800090919804DC01ED91FC910190F081E02DA4
:1018900060E409957E01D1E08091970490919804CD
:1018A0000E151F0549F1D032B8F00E948F1B6091D0
:1018B0009B0480919704909198040E941B0B809147
:1018C000970490919804DC01ED91FC910190F081D6
:1018D000E02D60E40995D1E08091970490919804FF
:1018E000F70161917F01DC01ED91FC910190F081A4
:1018F000E02D0995DF5FD0CF0E948F1B41C0E091A2
:10190000A704F091A80490818091AD04892B808375
:10191000C017D107A9F189912091950430919604BF
:10192000232B19F00E948219F3CF28E030E040E821
:10193000E091A304F091A4049091AB04582F542398
:1019400019F05081952B03C0508190959523908379
:10195000E091A504F091A60450819091AC04952BE0
:101960009083E091A504F091A60450819091AC047D
:10197000909595239083469521503109C9F6C8CF9B
:101980008091970490919804892BD1F02091B5040F
:101990003091B6044091B7045091B80460E074E20D
:1019A00084EF90E00E94452CDA01C9014097A1091B
:1019B000B109B695A795979587958093B80017C0FC
:1019C000E091A904F091AA0490818091AE04892B42
:1019D00080838091950490919604892B41F0DF914A
:1019E000CF911F910F91FF90EF900C948119DF918F
:1019F000CF911F910F91FF90EF9008950F931F9338
:101A0000CF93DF93DC015D96ED91FC915E9730976B
:101A100081F0EC01ABA1BCA114960D911C9115971E
:101A200015969C938E9314970995EBA1FCA11583B1
:101A30000483DF91CF911F910F9108950895CF9363
:101A4000DF9389EB92E00E94B014EC0180349105A1
:101A50002CF460E070EC89E794EC19C089EB92E01B
:101A60000E94B01480349105A4F3C054D10920EC35
:101A70002C9FB0012D9F700D112480549109680F87
:101A8000791F072E000C880B990B0E94BF2ADF914B
:101A9000CF910895BC0187E594E00C9447183FB7B7
:101AA000F8948091430290914402A0914502B09134
:101AB000460226B5A89B05C02F3F19F00196A11D2F
:101AC000B11D3FBFBA2FA92F982F8827820F911DD4
:101AD000A11DB11DBC01CD0142E0660F771F881F1B
:101AE000991F4A95D1F70895009769F0FC0101907C
:101AF0000020E9F73197AF01481B590BBC018BE778
:101B000094E00C94771480E090E00895DF92EF92D7
:101B1000FF920F931F93CF93DF93D82ED92FC62F09
:101B20008091970490919804009709F44EC06091B9
:101B30009B040E941B0B8091970490919804DC01F8
:101B4000ED91FC910190F081E02D60E00995ED2C84
:101B5000FD2E11E08091970490919804CC2361F1BF
:101B60001032B8F00E948F1B60919B048091970403
:101B7000909198040E941B0B809197049091980477
:101B8000DC01ED91FC910190F081E02D60E0099580
:101B900011E08091970490919804F7016491DC0121
:101BA000ED91FC910190F081E02D09951F5FC150EE
:101BB000BFEFEB1AFB0ACECFDF91CF911F910F91B0
:101BC000FF90EF90DF900C948F1BE091A704F091B1
:101BD000A80490818091AD048095892380830D2D88
:101BE0001D2FCC2309F439C0F8018491209195046C
:101BF00030919604232B31F00E948219C1500F5F5F
:101C00001F4FEFCF28E030E040E8E091A304F091CF
:101C1000A4049091AB04582F542319F05081952BB4
:101C200003C05081909595239083E091A504F09195
:101C3000A60450819091AC04952B9083E091A5046B
:101C4000F091A60450819091AC04909595239083D7
:101C5000469521503109C9F6D1CFDF91CF911F911F
:101C60000F91FF90EF90DF9008952F923F924F9247
:101C70005F926F927F928F929F92AF92BF92CF921C
:101C8000DF92EF92FF920F931F93CF93DF93CDB725
:101C9000DEB7A4970FB6F894DEBF0FBECDBF4B01E1
:101CA0005C019B01AC010E94CA2D882319F081EDD3
:101CB00091E01AC075016401E894F7F82FEF3FEF47
:101CC0004FE75FE7C701B6010E94CA2D811110C01E
:101CD0002FEF3FEF4FE75FE7C701B6010E94B82A39
:101CE000181634F485ED91E00E94740D8C01AFC09C
:101CF0002FEF3FEF4FE75FE4C501B4010E94C52D10
:101D000018161CF489ED91E0EFCF2FEF3FEF4FE76E
:101D10005FECC501B4010E94B82A87FDF3CF20E033
:101D200030E0A901C501B4010E94B82A87FF0BC0A9
:101D30006DE28BE794E00E94B3086C01B7FAB094AF
:101D4000B7F8B09402C0C12CD12C2AE037ED43EA99
:101D50005BE3C501B4010E94B12C4B015C010E9400
:101D6000962D2B013C010E94BD2A9B01AC01C501AF
:101D7000B4010E94B02C4B015C0119A27E0181E2EA
:101D8000E80EF11CEAA2FBA2C301B2012AE030E096
:101D900040E050E00E94452C29013A01605DF701C6
:101DA00062937F01232B242B252B71F7CF010E94F7
:101DB000740D8C016EE28BE794E00E94B308800FF3
:101DC000911F8C010C0D1D1D83E0F82E9AE0292E29
:101DD000312C412C512CFA94FF20C9F120E030E045
:101DE00040E251E4C501B4010E941E2B4B015C018D
:101DF0000E94962D9B0140E050E019A26AA07BA0B2
:101E00006CA3C32ED42EE52ECA01B901A201910103
:101E10000E94452C605DF30162933F01211531055D
:101E20004105510589F7CF010E94740D080F191F54
:101E30006CA17C2D8D2D9E2D0E94BD2A9B01AC0195
:101E4000C501B4010E94B02C4B015C01C4CF8DEDE3
:101E500091E00E94740D800F911FA4960FB6F89424
:101E6000DEBF0FBECDBFDF91CF911F910F91FF90CD
:101E7000EF90DF90CF90BF90AF909F908F907F902A
:101E80006F905F904F903F902F900895CF93DF9386
:101E9000FC0144815581608171818BE794E00E944F
:101EA0007714EC018DED91E00E94740D8C0F9D1F55
:101EB000DF91CF9108952091810430918204C9016E
:101EC000079697FD079623E0959587952A95E1F764
:101ED00020917F0430918004829FA001839F500D48
:101EE000929F500D112460E070E0809199049091D0
:101EF0009A040C94C42F909194029111FCCF91E01C
:101F000090939402909393022FEF20939202109259
:101F10009102260F2093900290936F0290916F028E
:101F2000880F892B80936F0280916E02813061F45B
:101F300010926E0280916F028093BB008091BC0072
:101F400083FDF8CF85EC01C085EE8093BC008091C5
:101F500094028130E1F380919102861710F4609130
:101F60009102A0E7B2E0EDE4F2E080E0861721F014
:101F70009D9191938F5FFACF08953F924F925F9218
:101F80006F927F928F929F92AF92BF92CF92DF9289
:101F9000EF92FF920F931F93CF93DF9300D000D067
:101FA00000D0CDB7DEB72C013B014A015901C90170
:101FB000079697FD07969C0193E0359527959A958E
:101FC000E1F73C832B83C12CD12CE12CF12C312C5B
:101FD000C3018E0D9F1D9A838983E016F106C4F517
:101FE0001E821D822D813E812A153B054CF5C901BB
:101FF00087709927892B11F0330C0EC0ED81FE817B
:10200000F7FD379683E0F595E7958A95E1F7EC0DB6
:10201000FD1DE80DF91D349037FE0CC021E030E0C5
:1020200049815A816D817E81640D751D8BE794E035
:102030000E943A078D819E8101969E838D83D2CF27
:102040009FEFE91AF90A2B813C81C20ED31EC0CF43
:1020500026960FB6F894DEBF0FBECDBFDF91CF91AD
:102060001F910F91FF90EF90DF90CF90BF90AF90B6
:102070009F908F907F906F905F904F903F900895CA
:102080002F923F924F925F926F927F928F929F9288
:10209000AF92BF92CF92DF92EF92FF920F931F9376
:1020A000CF93DF93CDB7DEB76B970FB6F894DEBF53
:1020B0000FBECDBF9B8F8A8F5B011A01D22E1F836B
:1020C0000E833701C982DC0158962D913C915997B6
:1020D0002115310509F0E6C018968D919C9119974C
:1020E000681779070CF0CDC11A968D919C911B97BA
:1020F000481759070CF0C5C18C2C912CFB0126E028
:10210000C29EE00DF11D1124FB87EA871E161F06F3
:102110000CF0B7C1A40183E0440F551F8A95E1F785
:102120005D874C87CA01820D931D181619060CF0A5
:10213000A8C157968C91811104C05FEA5D1508F41F
:10214000D394AA8DBB8DED91FC9111970284F385F8
:10215000E02DCD010995B5E0DB9EC0011124F5010C
:102160003596FF87EE87BB82AA8225019C012A193A
:102170003B09398B288BA101485F5F4F5B8B4A8BF2
:10218000E889F989E40DF51DE757FA4F549158870E
:1021900061013D822C82888580FF13C0AA8DBB8D92
:1021A000ED91FC91B981B13031F40484F585E02DD5
:1021B0002E813F8116C00684F785E02DEE80FF80DA
:1021C0001AC0EE81FF81E615F705F1F0AA8DBB8DEF
:1021D000ED91FC91B981B13051F40484F585E02D85
:1021E0009301A601B2018A8D9B8D09950DC00684CD
:1021F000F785E02D7301840194014C815D816A8132
:102200007B818A8D9B8D0995E885E695E887FFEFB0
:10221000CF1ADF0A2C813D81280D391D3D832C8387
:102220004A895B89C416D50609F0B5CF5FEF451A18
:10223000550A8A819B81880D991D9B838A83AE856F
:10224000BF854A165B0609F09BCFEE81FF81E6153C
:10225000F70509F4F4C0EA8DFB8DA081B181F98105
:10226000F13079F4B5016B5F7F4F5096ED91FC91A1
:102270005197830128E030E0A1018A8D9B8D09955B
:10228000DEC06A857B85681979091E96ED91FC91FF
:102290001F9773010C851D859401A1018A8D9B8D6B
:1022A0000995CDC0F9013496E491DE1AF901329610
:1022B00085919491B7E0DB9E800D911D1124F90169
:1022C000259134913B8B2A8BFC0125913491290176
:1022D000FC013296C490319634913E873296149127
:1022E0003196D4904981423058F0612E012E000C75
:1022F00077088D2D0D2C000C990B9987888704C0C9
:1023000019861886612C712CAA8DBB8DED91FC91DC
:1023100011970284F385E02DCD010995B9818B2EAB
:10232000912C689CC001699C900D789C900D1124A3
:10233000FC01EA0DFB1DFD87EC871A82712C612CD4
:10234000E12F110FFF0B95012E0F3F1F3B872A87AF
:10235000AC0CB11CA5014E0F5F1F5F8B4E8BC101F2
:102360008D0D911DD7FC9A95998F888F9E85691642
:1023700008F065C0862D90E048855985480F591FA3
:10238000489D9001499D300D589D300D1124D1017B
:10239000A20FB31FB98BA88BEC85FD85FD83EC8361
:1023A000AA84BB84DA80FA85DF1A288D398D280F3C
:1023B000391F3D8B2C8B8D2D8A0D4E895F89A4167C
:1023C000B506C1F1877041F4C2010196EA89FB8923
:1023D000E40DF51D74902C0177FE21C0AA8DBB8DF4
:1023E000ED91FC91B981B13061F40484F585E02D63
:1023F0002E813F814C895D89B5018A8D9B8D099520
:102400000EC00684F785E02DEE80FF8084019401E4
:10241000488959896C817D818A8D9B8D0995770CBE
:10242000EFEFAE1ABE0A2C813D81280D391D3D8388
:102430002C83C1CF3A813C0D3A83639497CFAA8D08
:10244000BB8DED91FC9111970688F789E02DCD01A8
:102450006B960FB6F894DEBF0FBECDBFDF91CF9164
:102460001F910F91FF90EF90DF90CF90BF90AF90B2
:102470009F908F907F906F905F904F903F902F90A4
:1024800009946B960FB6F894DEBF0FBECDBFDF91F7
:10249000CF911F910F91FF90EF90DF90CF90BF9061
:1024A000AF909F908F907F906F905F904F903F90F4
:1024B0002F9008950F931F93CF93DF9377FF04C05E
:1024C000260F371F60E070E0DC011496CD91DC919F
:1024D0001597FB01E20FF31FCE17DF071CF49E01D7
:1024E000261B370B121613060CF046C0FA0157FDD7
:1024F0003796DF01E3E0B595A795EA95E1F7AC9F44
:10250000F001AD9FF00DBC9FF00D11246E0F7F1FE9
:10251000DC015E96ED91FC915F97E60FF71F477027
:10252000552781E090E001C0880F4A95EAF7482FCF
:102530000130110539F078F002301105E9F42E0F61
:102540003F1F13C02E0F3F1FE217F307A9F0808132
:10255000842B8193F9CF80952E0F3F1FE217F3074D
:1025600059F0908198239193F9CFE217F30721F066
:10257000808184278193F9CFDF91CF911F910F91B3
:102580000895EF92FF920F931F93CF93DF93EC0187
:1025900077FDA5C0EC80FD806E157F050CF09FC017
:1025A00057FF04C0240F351F40E050E08E819F810B
:1025B000FA01E20FF31F8E179F071CF49C01241BE6
:1025C000350B121613060CF08AC0922F842F8695B5
:1025D000869586958E9DD0018F9DB00D11246A0F32
:1025E0007B1FAE8DBF8DA60FB71F4770B1F188E07E
:1025F000841B482F682F70E0FB01EF57FA4FE491DE
:10260000281798F4621B71092FEF30E002C035954E
:1026100027956A95E2F7E2230130110549F078F039
:102620000230110509F05BC00EC00130110519F42C
:102630008C91E82B0AC00130110508F049C0E095E3
:102640008C91E82302C08C91E827EC93941708F44E
:1026500046C02C813D81A20FB31FE92FE41BE83057
:10266000F8F00230110561F48E2F9C9190959C93A7
:102670002C813D81A20FB31F88508830B0F70FC066
:1026800081E00115110509F480E081959E2F8C935E
:102690002C813D81A20FB31F98509830C0F7E7708E
:1026A000EE23E9F0F0E0E758FA4FE491013011052C
:1026B00039F048F00230110591F48C91E82706C0FA
:1026C0008C91E82B03C0E0958C91E823EC9307C034
:1026D0000230110509F4B7CFAE0DBF1DBECFDF919B
:1026E000CF911F910F91FF90EF90089590E0FC0122
:1026F000EB59FA4F2491FC01EF5AFA4F3491FC0147
:10270000E35CFA4FE491EE2309F43CC0222339F153
:10271000233091F038F42130A9F0223001F584B54E
:102720008F7D12C0273091F02830A1F02430B9F409
:10273000809180008F7D03C0809180008F7780938F
:1027400080000DC084B58F7784BD09C08091B00032
:102750008F7703C08091B0008F7D8093B000F0E050
:10276000EE0FFF1FED5CFA4FA591B4919FB7F8945F
:10277000611104C08C913095382302C0EC913E2B3E
:102780003C939FBF089510924C0210924B021092FE
:1027900096021092B8021092940281E08093930204
:1027A00010926E0261E082E10E94761361E083E1A3
:1027B0000E947613E9EBF0E080818E7F8083808138
:1027C0008D7F808388E48093B80085E48093BC008B
:1027D00085E298E090934A028093490286E298E06D
:1027E00090934802809347020895CF93DF9390E03F
:1027F000FC01EF5AFA4F2491FC01E35CFA4F8491FB
:10280000882361F190E0880F991FFC01E75DFA4F82
:10281000C591D491FC01ED5CFA4FA591B491611181
:1028200009C09FB7F8948881209582238883EC9112
:102830002E230BC0623061F49FB7F8948881322F49
:10284000309583238883EC912E2B2C939FBF06C059
:102850008FB7F894E8812E2B28838FBFDF91CF911B
:1028600008958F929F92AF92BF92CF92DF92EF9294
:10287000FF926B017C010E944F0D4B015C01C11462
:10288000D104E104F104F1F00E944F0DDC01CB0111
:1028900088199909AA09BB09883E9340A105B10589
:1028A00070F321E0C21AD108E108F10888EE880E21
:1028B00083E0981EA11CB11CC114D104E104F104F1
:1028C00019F7DDCFFF90EF90DF90CF90BF90AF90E2
:1028D0009F908F9008952FB7F89460913F02709168
:1028E000400280914102909142022FBF0895CF9201
:1028F000DF92EF92FF920F931F93CF93DF936C01C0
:102900007A018B01C0E0D0E0CE15DF0581F0D8015F
:102910006D918D01D601ED91FC910190F081E02D3A
:10292000C6010995892B11F02196EECF7E01C701D2
:10293000DF91CF911F910F91FF90EF90DF90CF909B
:102940000895FC01538D448D252F30E0842F90E0B5
:10295000821B930B541710F0CF960895019708959A
:10296000FC01918D828D981761F0828DDF01A80F97
:10297000B11D5D968C91928D9F5F9F73928F90E0B9
:1029800008958FEF9FEF0895FC01918D828D981728
:1029900031F0828DE80FF11D858D90E008958FEF65
:1029A0009FEF0895FC01918D228D892F90E0805C2E
:1029B0009F4F821B91098F739927089589EB92E0AD
:1029C0000E94D21421E0892B09F420E0822F08957F
:1029D000FC01848DDF01A80FB11DA35ABF4F2C91BC
:1029E000848D90E001968F739927848FA689B7898B
:1029F0002C93A089B1898C91837080648C93938D82
:102A0000848D981306C00288F389E02D80818F7D24
:102A100080830895EF92FF920F931F93CF93DF93DC
:102A2000EC0181E0888F9B8D8C8D981305C0E8891F
:102A3000F989808185FD26C0F62E0B8D10E00F5F91
:102A40001F4F0F731127E02E8C8DE8120CC00FB6AC
:102A500007FCFACFE889F989808185FFF5CFCE019F
:102A60000E94E814F1CF8B8DFE01E80FF11DE35AAF
:102A7000FF4FF0829FB7F8940B8FEA89FB89808122
:102A800080620AC09FB7F894EE89FF896083E88965
:102A9000F98980818370806480839FBF81E090E0AA
:102AA000DF91CF911F910F91FF90EF900895CF93F9
:102AB000DF93EC01888D8823C9F0EA89FB89808146
:102AC00085FD05C0A889B9898C9186FD0FC00FB618
:102AD00007FCF5CF808185FFF2CFA889B9898C9159
:102AE00085FFEDCFCE010E94E814E7CFDF91CF91B3
:102AF000089580E090E0892B29F00E94DE14811176
:102B00000C9400000895FC0177FDB9C08085918583
:102B1000681779070CF0B3C057FDB1C08285938563
:102B2000481759070CF008958589823079F484811B
:102B30009581DC01A61BB70BBD016150710986812F
:102B40009781DC01A41BB50BAD010EC0833009F0E9
:102B500084C064277527CA018627972768277927A5
:102B600046815781481B590B41505109213031058D
:102B700031F048F12230310509F44AC00895CA0104
:102B800057FD07969C01A3E035952795AA95E1F797
:102B9000A481B5812A9FC0012B9F900D3A9F900D73
:102BA0001124680F791F068CF78DE02DE60FF71FB3
:102BB0004770552781E090E001C0880F4A95EAF7F9
:102BC0009081892B48C0CA0157FD07969C0193E06C
:102BD000359527959A95E1F7A481B5812A9FC00183
:102BE0002B9F900D3A9F900D1124680F791F068C32
:102BF000F78DE02DE60FF71F4770552781E090E035
:102C000001C0880F4A95EAF780959081892323C0F7
:102C1000CA0157FD07969C0183E0359527958A9553
:102C2000E1F7A481B5812A9FC0012B9F900D3A9FA7
:102C3000900D1124680F791F068CF78DE02DE60F9B
:102C4000F71F4770552781E090E001C0880F4A9533
:102C5000EAF79081892780830895813009F086CF33
:102C60006427752746275727642775278481958110
:102C7000DC01A61BB70BBD016150710977CF089528
:102C80000895FC016370658B84819581268137816D
:102C9000613039F0633029F091878087338722874C
:102CA0000895318720879387828708950E94B62FE1
:102CB0008F929F92AF92BF92CF92DF92EF92FF924C
:102CC0000F931F93CF93DF93CDB7DEB762970FB605
:102CD000F894DEBF0FBECDBF7C018B0184E2DB0127
:102CE0001D928A95E9F784E290E0A0E0B0E0FB0154
:102CF00080839183A283B383F70186819781A08526
:102D0000B185FB0184839583A683B78383E090E03C
:102D1000A0E0B0E080879187A287B3870E946B1400
:102D2000D80150966D937D938D939C935397FE019C
:102D300031968CE0DF011D928A95E9F76E01BDE0C6
:102D4000CB0ED11C86E0F60111928A95E9F7D701E6
:102D500013966C91139714968D919C9115970E94E0
:102D60001B0BF70184819581DC01ED91FC910190B1
:102D7000F081E02D6AE10995F701848195810E9437
:102D80008F1B66E0D70113968C910E947B0F1092E7
:102D90004C0280934B025E01B3E1AB0EB11CF70114
:102DA00084819581DC01ED91FC910284F385E02D15
:102DB0000995F60181936F01EA15FB0581F76D8591
:102DC0007E85072E000C880B990B0E94BF2A20E0FD
:102DD00030E040E85DE30E941E2B4B015C016F85F3
:102DE0007889072E000C880B990B0E94BF2A20E0DF
:102DF00030E040E85DE30E941E2B6B017C01698995
:102E00007A89072E000C880B990B0E94BF2A20E0BC
:102E100030E040E85DE30E941E2BD80154968D926D
:102E20009D92AD92BC925797F801C08ED18EE28EE2
:102E3000F38E5C966D937D938D939C935F9781E069
:102E400062960FB6F894DEBF0FBECDBFDF91CF9173
:102E50001F910F91FF90EF90DF90CF90BF90AF90B8
:102E60009F908F9008950F931F93CF93DF938C01C2
:102E7000EB0188E2FB0111928A95E9F74BE050E003
:102E800060EE71E0CE010E94D22F1B8681E090E0BF
:102E9000A0E0B0E08C879D87AE87BF87F801868170
:102EA0009781A085B185888B998BAA8BBB8B83E09A
:102EB00090E0A0E0B0E08C8B9D8BAE8BBF8B1CA212
:102EC0001DA21EA21FA2188E198E1A8E1B8E1C8E7A
:102ED0001D8E1E8E1F8E8AE097EDA3E2BCE388A3B1
:102EE00099A3AAA3BBA3DF91CF911F910F9108953E
:102EF0000F931F93CF93DF93DC015596EC91559779
:102F0000E23071F0E330E9F0E13079F5FB0114963D
:102F10000D90BC91A02DA41BB50BA21BB30B18C028
:102F2000EC01EC81FD81E61BF70BBF0161507109DB
:102F3000EE81FF81DF01A41BB50BAD01421B530BDA
:102F400014C0DA01EC01EE81FF81E61BF70B31972B
:102F5000F7FD0DC0EC014E815F81E417F5073CF4ED
:102F6000AF01BD010E945A1202C00E94C112DF913E
:102F7000CF911F910F9108950F931F93DC015596E8
:102F8000EC915597E23061F0E33009F1E13081F5E1
:102F90001496ED91FC911597E41BF50B319723C026
:102FA000DC011496ED91FC911597DF01A61BB70B80
:102FB000BD01DC011696ED91FC911797DF01A41B72
:102FC000B50BAD0141505109621B730B11C0FA01E1
:102FD000DC0116964D915C911797DA01A61BB70B91
:102FE000BD01621B730BAB01BF010E94C1120CC07B
:102FF00057FD0AC0DC011696ED91FC9117974E170C
:103000005F0714F40E945A121F910F910895EF92D6
:10301000FF920F931F93CF93DF93EC017B018A0103
:1030200088819981009729F02A813B8124173507EF
:10303000F8F4B8016F5F7F4F0E94F02E009759F0AF
:10304000998388831B830A832C813D81232B81F400
:10305000FC0110820DC088819981009711F00E94B7
:10306000672E198218821D821C821B821A8207C059
:103070001D830C83B701888199810E94CB2FCE01DB
:10308000DF91CF911F910F91FF90EF900895CF9313
:10309000DF93EC016115710559F0FB0101900020EF
:1030A000E9F73197AF01461B570B0E9407180CC078
:1030B00088819981009711F00E94672E19821882E9
:1030C0001D821C821B821A82CE01DF91CF9108954E
:1030D0001F920F920FB60F9211242F933F934F938D
:1030E0005F936F937F938F939F93AF93BF93EF9370
:1030F000FF9389EB92E00E94E814FF91EF91BF915A
:10310000AF919F918F917F916F915F914F913F917F
:103110002F910F900FBE0F901F9018951F920F9236
:103120000FB60F9211242F938F939F93EF93FF93DA
:10313000E091C902F091CA028081E091CF02F09142
:10314000D00282FD12C090818091D2028F5F8F7376
:103150002091D302821751F0E091D202F0E0E754BF
:10316000FD4F958F8093D20201C08081FF91EF9136
:103170009F918F912F910F900FBE0F901F901895D8
:103180001F920F920FB60F9211242F933F934F93DC
:103190005F936F937F938F939F93AF93BF93EF93BF
:1031A000FF9380916D0287FF05C0109285001092F9
:1031B00084001BC020916D02022E000C330B809105
:1031C0007A0390E02817390784F480916D02082E65
:1031D000000C990BFC01EE0FFF1F8E0F9F1FFC01CF
:1031E000EA5AFC4F808186FD15C080916D028F5F89
:1031F00080936D0220916D02022E000C330B8091A2
:103200007A0390E028173907C4F480916D028C305E
:1032100064F113C080916D02082E000C990BFC0123
:10322000EE0FFF1F8E0F9F1FFC01EA5AFC4F80819B
:1032300060E08F730E947613D8CF809184009091C4
:103240008500049680349C4918F480E49CE905C00C
:1032500080918400909185000496909389008093DA
:1032600088008FEF80936D023BC0209184003091E5
:10327000850080916D02082E000C990BFC01EE0F69
:10328000FF1F8E0F9F1FFC01EA5AFC4F8181928124
:10329000820F931F909389008093880080916D0224
:1032A000082E000C990BFC01EE0FFF1F8E0F9F1FC5
:1032B000FC01EA5AFC4F808186FF12C080916D02AA
:1032C000082E000C990BFC01EE0FFF1F8E0F9F1FA5
:1032D000FC01EA5AFC4F808161E08F730E947613F3
:1032E000FF91EF91BF91AF919F918F917F916F91DE
:1032F0005F914F913F912F910F900FBE0F901F90B4
:10330000189508958EBD00000DB407FEFDCF8EB553
:1033100008951F93CF93DF93FC01848D958D0097C3
:1033200001F1162FEF0160A10E941B0B8C8D9D8D6A
:10333000DC01ED91FC910190F081E02D60E00995B8
:103340008C8D9D8DDC01ED91FC910190F081E02D43
:10335000612F09958C8D9D8DDF91CF911F910C94DC
:103360008F1BA4A5B5A59C9182A9809589238C93D8
:10337000828D938D892B31F0862FDF91CF911F9114
:103380000C94821928E030E080E8A0A5B1A590A9AE
:10339000462F482319F04C91942B03C04C919095E3
:1033A00094239C93A2A5B3A54C9191A9942B9C9393
:1033B000A2A5B3A54C9191A9909594239C93869531
:1033C0002150310911F7DF91CF911F9108958CBDE4
:1033D0009DBD08951F93CF93DF93EC01162F8C8D25
:1033E0009D8D892BB1F02EA93FA948AD59AD60E064
:1033F00074E284EF90E00E94452CDA01C901409705
:10340000A109B109B695A795979587958093B800BE
:103410000FC08A8D9B8D892B21F08CA99DA90E94BC
:10342000E719EEA5FFA590818BA98095892380835C
:10343000111102C066EA01C067EACE010E94891933
:103440008C8D9D8D892BB1F02AAD3BAD4CAD5DAD22
:1034500060E074E284EF90E00E94452CDA01C9013B
:103460004097A109B109B695A7959795879580933F
:10347000B80006C0EEA5FFA590818BA9892B80839B
:10348000DF91CF911F9108954F925F926F927F923B
:103490008F929F92AF92BF92CF92DF92EF92FF9264
:1034A0000F931F93CF93DF9300D000D0CDB7DEB73B
:1034B0004B015C0129013A01E982FA820B831C83EA
:1034C000D0921C04C0921B0481E0CA94CD2809F05C
:1034D00080E080933C048092010490920204A092C8
:1034E0000304B092040440920504509206046092D2
:1034F00007047092080489819A81AB81BC81809312
:10350000090490930A04A0930B04B0930C046091F7
:103510002F047091300480913104909132040E9404
:10352000BD2A20E030E04AE754E40E941D2D6B01E3
:103530007C0180920D0490920E04A0920F04B09230
:1035400010049B01AC01C301B2010E941E2B2B0190
:103550003C016093110470931204809313049093C0
:103560001404A701960169817A818B819C810E9454
:103570001D2D6B017C0160931504709316048093DC
:103580001704909318048091190490911A040197DC
:1035900069F5A501940160E070E0CB010E94B02CB8
:1035A00060930D0470930E0480930F0490931004A5
:1035B000A301920160E070E0CB010E94B02C609307
:1035C0001104709312048093130490931404A701C0
:1035D000960160E070E0CB010E94B02C609315046E
:1035E0007093160480931704909318040F900F9013
:1035F0000F900F90DF91CF911F910F91FF90EF905F
:10360000DF90CF90BF90AF909F908F907F906F9002
:103610005F904F900895CF92DF92EF92FF92DC017E
:10362000A03282E0B8070CF03EC0B7FD06C0A53B53
:10363000B1052CF0A4EBB0E002C0A0E0B0E08091B6
:10364000F10328E830E06901C81AD10887FDD39456
:10365000CC0CDD1CCC0CDD1C0D2C000CEE08FF0886
:103660008091F20328E532E0281B310987FD33956C
:10367000220F331F220F331FA901330F660B770B65
:103680009A01AB012C193D094E095F090E94062CD5
:1036900024EB30E040E050E00E94DC2BC20ED31E51
:1036A000E41EF51ED6019091F0039C3098F58091B0
:1036B000F10348E850E0481B510987FD5395440F3A
:1036C000551F440F551FA417B5078CF08091F203C6
:1036D00028E532E0281B310987FD3395220F331F7F
:1036E000220F331FAD012A173B070CF4A9014250EA
:1036F0005109440F551F2FB7F894892F90E0FC0112
:10370000EE0FFF1F8E0F9F1FFC01EA5AFC4F5283E2
:1037100041832FBFFF90EF90DF90CF9008953091BD
:10372000B802313208F04BC0809194028111FCCF75
:103730009091B70222E02093940221E0209393021B
:103740002FEF209392021092910230939002E7E9BA
:10375000F2E0A0E7B2E020E0321721F041914D9372
:103760002F5FFACF10926F0220916F02990F922B68
:1037700090936F0290916E02913061F410926E02FC
:1037800090916F029093BB009091BC0093FDF8CF95
:1037900095EC01C095EE9093BC009091940292300C
:1037A000E1F3909192029F3F79F0809192028032F2
:1037B00041F080919202803331F084E005C081E0D5
:1037C00003C082E001C083E0109296021092B8021A
:1037D0001092950208951F920F920FB60F92112426
:1037E0002F933F938F939F93AF93BF9380913F020B
:1037F00090914002A0914102B09142023091B904EF
:1038000023E0230F2D3720F40196A11DB11D05C023
:1038100026E8230F0296A11DB11D2093B9048093C1
:103820003F0290934002A0934102B09342028091E4
:10383000430290914402A0914502B0914602019644
:10384000A11DB11D8093430290934402A0934502B1
:10385000B0934602BF91AF919F918F913F912F916D
:103860000F900FBE0F901F901895CF93DF93EC0130
:10387000988188818E7F888388818D7F888390FF5F
:1038800003C0CE010E94FE0C8BA19CA1009769F1A0
:103890001CA21BA2EF8DF8A1A9A1BAA1309799F49F
:1038A000109749F4DC0111961C921E9213961C92FB
:1038B0001E9212971AC090961C921E925F97FC015E
:1038C000B183A08312C0109741F412A211A2DC01AF
:1038D0001396FC93EE93129708C0B2A3A1A3A9A1DB
:1038E000BAA19096FC93EE935F97DF91CF910895E4
:1038F00081E893E00E94351C86EA93E00E94351C23
:103900008BEC93E00E94351C8091570490915804F1
:103910000E94672E80915D0490915E040E94672E44
:103920008EE291E090937C0480937B0480919904D3
:1039300090919A04009711F00C94672E08950F93BC
:103940001F93CF93DF93EC018BA19CA18B579340E6
:10395000F9F08BE793E09CA38BA380917B0390917C
:103960007C03892B39F4D0937C03C0937B0318A28A
:103970001F8E08C0E0917D03F0917E03F8A3EF8FC6
:10398000D2A3C1A31AA219A2D0937E03C0937D0330
:10399000ABA1BCA11097D9F11D8A1E8A1F8A188E6F
:1039A000EB8DFC8D309779F1888181FD2CC01496C8
:1039B0000D911C9115971596DC93CE9314978881E1
:1039C000826088830995988180FB90F9988388812B
:1039D0008D7F8883EBA1FCA1158304830E946B1467
:1039E00009811A812B813C810D831E832F833887A7
:1039F000DC01CB01801B910BA20BB30B89879A874B
:103A0000AB87BC8704C0888181608883E7CFDF9162
:103A1000CF911F910F910895CF93DF93CDB7DEB76C
:103A2000E1970FB6F894DEBF0FBECDBF789484B592
:103A3000826084BD84B5816084BD85B5826085BDAA
:103A400085B5816085BD80916E00816080936E0038
:103A5000109281008091810082608093810080912A
:103A600081008160809381008091800081608093DB
:103A700080008091B10084608093B1008091B0009B
:103A800081608093B00080917A00846080937A0096
:103A900080917A00826080937A0080917A008160C0
:103AA00080937A0080917A00806880937A001092E7
:103AB000C10062E082E00E94F51380919904909128
:103AC0009A04892B11F52091810430918204C90157
:103AD000079697FD0796B3E095958795BA95E1F718
:103AE00020917F0430918004AC01429FC001439F2C
:103AF000900D529F900D11240E94CF2D90939A0407
:103B000080939904892B09F4FFCF0E945B0F2091C9
:103B100081043091820480917F049091800421324D
:103B20003105A4F0B9016054710977FF02C06F5FDD
:103B30007F4F759567958255910997FD019600E431
:103B400010E022E530E049E652E013C0B9016052CE
:103B5000710977FF02C06F5F7F4F75956795835737
:103B6000910997FD019600E210E023E730E049E873
:103B700050E0959587950E94BD0F82E080939C044C
:103B80008091970490919804892B31F08CE3809375
:103B90009B040E94C313BEC061E08091A0040E94F8
:103BA000F51361E08091A1040E94F5138091A004B7
:103BB000082E000C990BFC01E35CFA4FE491F0E055
:103BC000EE0FFF1FED5CFA4F259134913093A8045E
:103BD0002093A704FC01EF5AFA4FE491E093AD045F
:103BE0008091A104082E000C990BFC01E35CFA4FB4
:103BF000E491F0E0EE0FFF1FED5CFA4FA591B49158
:103C0000B093AA04A093A904FC01EF5AFA4FE491DF
:103C1000E093AE048C91E82BEC9380919504909105
:103C20009604892B09F434C01FB7F89480913E02A2
:103C3000811127C0E7E4F5E08491EBE5F5E094918C
:103C4000E82FF0E0EE0FFF1FE75DFA4FA591B4916A
:103C5000EC91E92321F461E08AE00E94761361E0AF
:103C60008AE00E94F5138CB580618CBD8CB58064B0
:103C70008CBD61E08DE00E94F51361E08BE00E9455
:103C8000F51380913E028F5F80933E021FBF42C0BA
:103C900061E080919E040E94F51361E080919F0491
:103CA0000E94F51380919E04082E000C990BFC01D4
:103CB000E35CFA4FE491F0E0EE0FFF1FED5CFA4F8A
:103CC000259134913093A4042093A304FC01EF5A6E
:103CD000FA4FE491E093AB0480919F04082E000C0E
:103CE000990BFC01E35CFA4FE491F0E0EE0FFF1F4B
:103CF000ED5CFA4FA591B491B093A604A093A504EE
:103D0000FC01EF5AFA4FE491E093AC048C91E095FA
:103D1000E823EC938091A20487FD1EC061E00E941D
:103D2000F51361E08091A2040E94761361E070E0D7
:103D300080E090E00E94311460E08091A2040E9433
:103D400076136AE070E080E090E00E94311461E058
:103D50008091A2040E947613809197049091980418
:103D6000892BD1F02091B1043091B2044091B30479
:103D70005091B40460E074E284EF90E00E94452C1E
:103D8000DA01C9014097A109B109B695A7959795A0
:103D900087958093B80016C0809195049091960401
:103DA000892B31F08091AF049091B0040E94E71903
:103DB000E091A904F091AA0490818091AE048095CD
:103DC0008923808364E085E890E00E94860D6091FD
:103DD000810461508BE794E00E94891964E081E8D6
:103DE00090E00E94860D80919C04813011F064E186
:103DF00001C060E18BE794E00E94891964E08DE7DF
:103E000090E00E94860D80917F049091800480381C
:103E10009105E9F4809181049091820480329105AA
:103E200031F464E089E790E00E94860D29C0803477
:103E3000910531F563E086E790E00E94860D809160
:103E40009C04813011F06FEC17C06FE915C080360B
:103E50009105B1F48091810490918204409781F49E
:103E600063E083E790E00E94860D80919C0481309E
:103E700011F06FEA01C060E18BE794E00E948919BC
:103E800069ED8BE794E00E94891980919C04813050
:103E900011F061EF01C062E28BE794E00E948919A2
:103EA00066E08DE690E00E94860D809197049091E7
:103EB0009804892BD1F02091B5043091B60440913B
:103EC000B7045091B80460E074E284EF90E00E947F
:103ED000452CDA01C9014097A109B109B695A7950A
:103EE000979587958093B80011C0E091A904F0914F
:103EF000AA0490818091AE04892B808380919504DF
:103F000090919604892B11F00E94811967EB71E062
:103F10008DE594E00E9447180E94250B8CEB91E000
:103F20000E944A0D0E94250BE091C902F091CA023D
:103F300082E08083E091C502F091C6021082E09198
:103F4000C702F091C80280E180831092D102E09113
:103F5000CD02F091CE0286E08083E091CB02F09119
:103F6000CC02808180618083E091CB02F091CC0211
:103F7000808188608083E091CB02F091CC028081C7
:103F800080688083E091CB02F091CC0280818F7DAC
:103F9000808388EC91E00E944A0D0E94250B0E94CC
:103FA000C3130E94FC25803A59F068EE73E080E06C
:103FB00090E00E9431140E94FC25803A09F09BC0D9
:103FC00080E090E00E94272660E28FE390E00E946C
:103FD000D1250E94FC25803A39F06AE070E080E04B
:103FE00090E00E943114F5CF62E370E080E090E051
:103FF0000E94311460E08EE390E00E94D1256AE0D7
:1040000070E080E090E00E94311460E087E090E092
:104010000E94D12560E08FE390E00E94D1256AE004
:1040200070E080E090E00E9431148CE090E00E940B
:10403000272664E170E080E090E00E94311468EE91
:1040400073E080E090E00E94311400916D041091C3
:104050006E0480E090E00E94272669E170E080E035
:1040600090E00E94311460E087E090E00E94D1254A
:1040700060E88FE390E00E94D1256AE070E080E084
:1040800090E00E943114C8010E94272664E170E08C
:1040900080E090E00E94311482E791E00E944A0D96
:1040A0000E94250B1091F3038091F0038C3008F0EF
:1040B00055C061E0812F0E94F5138091F003E82F35
:1040C000F0E09F01220F331FE20FF31FEA5AFC4F6B
:1040D0001F739081907C192B10831092F103109222
:1040E000F2036CE00E94762C5CE0859FB001112405
:1040F00040E050E006C0FFCF4F5F5F4F4C305105AE
:1041000079F09B01240F351FF901EE0FFF1F2E0FD1
:104110003F1FF901EA5AFC4F908196FFEDCF11C085
:1041200081110FC01092800082E080938100109274
:10413000850010928400B19A80916F008260809314
:104140006F00E091F003F0E0CF01880F991FE80FB6
:10415000F91FEA5AFC4F8081806480838AE590E0F1
:104160000E940B1B10927C0310927B0310927E0323
:1041700010927D031092800310927F0381E893E0F8
:104180000E949F1C8BEC93E00E949F1C86EA93E0A8
:104190000E949F1C62E871E08DE594E00E94471840
:1041A0008FED91E00E944A0D80917B0390917C03FA
:1041B0009093800380937F03E0917F03F0918003CD
:1041C000309709F475C001A112A1808180FF6BC0F6
:1041D00085859685A785B089892B8A2B8B2B69F4D9
:1041E000908180818E7F808380818D7F808390FF0E
:1041F0005AC0CF010E94FE0C56C00E946B14E09181
:104200007F03F091800341805280638074808184B9
:104210009284A384B484C580D680E780F084DC01D6
:10422000CB0188199909AA09BB098C159D05AE0512
:10423000BF05C8F185859685A785B089181619062A
:104240001A061B065CF485859685A785B0890197BB
:10425000A109B10985879687A787B08B858996893B
:10426000A789B08D0196A11DB11D858B968BA78B5B
:10427000B08FC580D680E780F08481859285A38544
:10428000B4858C0D9D1DAE1DBF1D81879287A387B0
:10429000B4874582568267827086018CF28DE02D4C
:1042A000309709F009951093800300937F0384CF22
:1042B00089EB92E00E94D21403970CF403C289EBBD
:1042C00092E00E94B0141C0180E4281631040CF026
:1042D000F9C191E02916310409F056C00E941F0D62
:1042E0000E948F2D9B01AC01A0E1B7E20E94FB2B45
:1042F00020E83EE340E050E00E94DC2BCA01B90117
:104300000E94BF2A20E030E048EC52E40E941D2DBC
:1043100020E030E048E452E40E94B02C60933D0479
:1043200070933E0480933F04909340040E941F0DBD
:104330006B017C0120E030EC49E754EC0E94B82A84
:10434000882309F476C1C701B6010E948F2D9B0115
:10435000AC01A4EBB0E00E94FB2B20E83EE340E080
:1043600050E00E94DC2BCA01B9016A55710981092C
:1043700091090E94BF2A609336027093370280939E
:1043800038029093390255C1A2E02A16310409F08F
:1043900077C00E941F0D0E948F2D9B01AC01A0E1F0
:1043A000B7E20E94FB2B20E83EE340E050E00E9491
:1043B000DC2BCA01B9010E94BF2A20E030E048ECA2
:1043C00052E40E941D2D4B015C016093F503709334
:1043D000F6038093F7039093F8034090F90350900D
:1043E000FA036090FB037090FC0320E030E0A90129
:1043F0000E94B82A87FD2CC020E030E0A901C3014B
:10440000B2010E94B82A87FD23C08091FD039091DC
:10441000FE03A091FF03B09100048DA39EA3AFA360
:10442000B8A720E030E0A901BC01CD010E94B82A64
:1044300087FD0EC0C0901B04D0901C04EDA0FEA010
:104440000FA118A5A3019201C501B4010E94441A4D
:104450008AE891E00E944A0D809101049091020443
:10446000A0910304B091040480933202909333022C
:10447000A0933402B093350291E090933102D9C0F9
:10448000A3E02A16310409F06EC00E941F0D0E949D
:104490008F2D9B01AC01A0E1B7E20E94FB2B20E82D
:1044A0003EE340E050E00E94DC2BCA01B9010E94CB
:1044B000BF2A20E030E048EC52E40E941D2D4B0161
:1044C0005C016093F9037093FA038093FB0390936C
:1044D000FC034090F5035090F6036090F703709052
:1044E000F80320E030E0A901C301B2010E94B82A1C
:1044F00087FD2CC020E030E0A901C501B4010E9475
:10450000B82A87FD23C08091FD039091FE03A091FE
:10451000FF03B09100048DA39EA3AFA3B8A720E032
:1045200030E0A901BC01CD010E94B82A87FD0EC070
:10453000C0901B04D0901C04EDA0FEA00FA118A5F4
:10454000A5019401C301B2010E94441A81E991E0DE
:104550000E944A0D8091050490910604A0910704E1
:10456000B091080455C094E02916310409F05CC0EC
:104570000E941F0D6B017C0120E030E0A9010E9428
:10458000C52D87FD9FC0C701B6010E948F2D9B01DD
:10459000AC01A0E1B7E20E94FB2B20E83EE340E043
:1045A00050E00E94DC2BCA01B9010E94BF2A20E022
:1045B00030E048EC52E40E941D2D4B015C016093F9
:1045C000FD037093FE038093FF039093000480919A
:1045D000F5039091F603A091F703B091F8038DA332
:1045E0009EA3AFA3B8A720E030E0A901BC01CD0194
:1045F0000E94B82A87FF67C288E991E00E944A0DAD
:104600008091090490910A04A0910B04B0910C04CC
:104610008093320290933302A0933402B093350218
:1046200091E0909331024EC0A6E02A16310409F4BD
:1046300073C247E02416310409F044C00E941F0DE4
:104640006B017C0120E030E0A9010E94C52D87FDAF
:1046500039C0C701B6010E948F2D9B01AC01A0E5B6
:10466000B6E40E94FB2B20E83EE340E050E00E94CD
:10467000DC2BCA01B9010E94BF2A20E030E048ECDF
:1046800052E40E941D2D0E948F2D7093560460935A
:1046900055048BEA91E00E944A0D60915504709197
:1046A0005604072E000C880B990B0E94BF2A6093BA
:1046B000320270933302809334029093350251E0BA
:1046C00050933102BE016F5F7F4F83E694E00E94FA
:1046D0005816C98CDA8CEB8CFC8CA7019601609182
:1046E00041047091420480914304909144040E94DB
:1046F000B82A811110C020913A0230913B024091BA
:104700003C0250913D026D8D7E8D8F8D98A10E944F
:10471000B82A8823A1F0C0924104D0924204E092CA
:104720004304F09244048D8D9E8DAF8DB8A180938B
:104730003A0290933B02A0933C02B0933D028091D9
:104740003B04882309F43FC10E946B146DA37EA330
:104750008FA398A78091230490912404A09125040D
:10476000B09126044DA15EA16FA178A5481B590BFD
:104770006A0B7B0B80912F0490913004A09131043F
:10478000B0913204481759076A077B0708F41BC128
:10479000E0911D04F0911E0480809180A280B3807E
:1047A000E0912104F0912204A501940160817181BE
:1047B000828193810E94B02C2B013C0120912B041B
:1047C00030912C0440912D0450912E04C501B40168
:1047D0000E94B02C69A77AA78BA79CA720911104EF
:1047E000309112044091130450911404C301B2019A
:1047F0000E941E2B20912704309128044091290407
:1048000050912A040E94B12C6B017C016093270413
:10481000709328048093290490932A0480913C0487
:104820008DA781111CC020910D0430910E04409180
:104830000F045091100469A57AA58BA59CA50E9430
:104840001E2B9B01AC01C701B6010E94B02C6093E6
:104850002704709328048093290490932A04C0901D
:104860002704D0902804E0902904F0902A04309086
:104870003704209038041091390400913A04232D14
:10488000322D412F502FC701B6010E94C52D181699
:104890002CF4832D922DA12FB02F18C080913304BA
:1048A00090913404A0913504B09136048EA79FA74F
:1048B000A8ABB9AB9C01AD01C701B6010E94B82AF3
:1048C00087FF0CC08EA59FA5A8A9B9A9809327042E
:1048D00090932804A0932904B0932A049DA59923BA
:1048E00079F020910D0430910E0440910F04509105
:1048F0001004C301B2010E941E2B6B017C0103C096
:10490000C12CD12C760120911504309116044091D0
:1049100017045091180469A57AA58BA59CA50E943F
:104920001E2B9B01AC01609127047091280480919B
:10493000290490912A040E94B02CA70196010E949C
:10494000B12C6B017C019B01AC01632D722D812F79
:10495000902F0E94B82A87FD16C030903304209013
:1049600034041091350400913604232D322D412F4B
:10497000502FB601C7010E94B82A87FD04C03C2C05
:104980002D2C1E2D0F2DE0911F04F0912004832D5E
:10499000922DA12FB02F80839183A283B383809225
:1049A0002B0490922C04A0922D04B0922E048DA181
:1049B0009EA1AFA1B8A58093230490932404A09353
:1049C0002504B0932604C0904504D0904604E0909E
:1049D0004704F09048048090490490904A04A090C5
:1049E0004B04B0904C04A5019401C701B6010E948C
:1049F000C52D18167CF0A501940160E070E0CB0194
:104A00000E94B02C9B01AC01C701B6010E94B82ADC
:104A100087FF3BC020E030E0A901C701B6010E943A
:104A2000C52D1816A4F4A701960160915104709148
:104A3000520480915304909154040E94B12C6093CD
:104A40004D0470934E0480934F049093500420E0E3
:104A500030E0A901C701B6010E94B82A87FF1DC036
:104A600020915104309152044091530450915404C8
:104A7000C701B6010E94B02C60934D0470934E04A0
:104A800080934F049093500408C010924D041092EC
:104A90004E0410924F041092500420914D04309116
:104AA0004E0440914F045091500460E070E084EB5C
:104AB00092E40E94B02C0E948F2DCB010E940B1B10
:104AC0000E94791571CB4090F9035090FA036090E1
:104AD000FB037090FC0320E030E0A901C301B201A8
:104AE0000E94B82A87FD88CD20E030E0A901C501E9
:104AF000B4010E94B82A87FD7FCDC0901B04D090DE
:104B00001C0485017401A30192016DA17EA18FA1F6
:104B100098A50E94441A70CD0E941F0D6B017C0164
:104B200020E030E0A9010E94C52D87FDCBCDC70153
:104B3000B6010E948F2D9B01AC01A0E1B7E20E945B
:104B4000FB2B20E83EE340E050E00E94DC2BCA0152
:104B5000B9010E94BF2A20E030E048EC52E40E94F4
:104B60001D2D6093510470935204809353049093CD
:104B700054048FE991E00E944A0D80915104909174
:104B80005204A0915304B091540480933202909344
:104B90003302A0933402B0933502B1E0B0933102F6
:104BA00091CD0F931F93CF93DF93082F162FC3E65A
:104BB000D4E06B818C819D810E941B0B8C819D8137
:104BC000DC01ED91FC910190F081E02D602F0995C1
:104BD0008C819D81DC01ED91FC910190F081E02DB3
:104BE000612F09958C819D810E948F1B81E0DF914F
:104BF000CF911F910F910895CF93DF93C3E6D4E037
:104C00006B818C819D810E941B0B8C819D81DC01BD
:104C1000ED91FC910190F081E02D60E009958C818F
:104C20009D810E948F1B61E08B810E947B0F1092FF
:104C30004C0280934B028C819D81DC01ED91FC91B3
:104C40000284F385E02D0995DF91CF910895E3E685
:104C5000F4E082879387682F8DE390E00E94D1254E
:104C60006EE170E080E090E00C9431144F925F921E
:104C70006F927F928F929F92AF92BF92CF92DF926C
:104C8000EF92FF920F931F93CF93DF9300D000D04A
:104C900000D0CDB7DEB71092BC021092BB0248EE36
:104CA00053E060E070E04093BD025093BE02609319
:104CB000BF027093C0028AE091E09093BA028093A1
:104CC000B90285EC90E09093C6028093C50284EC13
:104CD00090E09093C8028093C70280EC90E090939C
:104CE000CA028093C90281EC90E09093CC02809339
:104CF000CB0282EC90E09093CE028093CD0286ECC2
:104D000090E09093D0028093CF021092D202109242
:104D1000D3021092D4021092D5028FE694E0109242
:104D2000720410927104409373045093740460935E
:104D30007504709376042CE131E030937004209375
:104D40006F0410927E0410927D0440E850E050936E
:104D5000800440937F0420E230E03093820420936B
:104D600081045093840440938304309386042093F9
:104D70008504109290041092880410928704109277
:104D80008A041092890421E020938F044FEF5FEF93
:104D900050938E0440938D0450938C0440938B0465
:104DA0002093910410929204109294041092930410
:104DB0002EE231E030937C0420937B041092960421
:104DC00010929504909398048093970410929A04FB
:104DD000109299042FEF20939E0420939F04209318
:104DE000A0042093A10424E02093A20420E52093B2
:104DF000AF041092B00440E85AE166E070E04093DE
:104E0000B1045093B2046093B3047093B40440EAC5
:104E100056E861E070E04093B5045093B6046093A7
:104E2000B7047093B80428E631E03093640420930B
:104E3000630441E050E060E070E040936904509307
:104E40006A0460936B0470936C0428E220936604F8
:104E5000909368048093670410925E0410925D043E
:104E60001092600410925F04109262041092610428
:104E700046E050E067EE71E08DE594E00E9407188F
:104E8000109258041092570410925A041092590428
:104E900010925C0410925B0440E050E06FED71E012
:104EA00087E594E00E94071880917A038C30A0F483
:104EB00091E0980F90937A038093F00390E0FC01C7
:104EC000EE0FFF1F8E0F9F1FFC01EA5AFC4F88EB6D
:104ED0009BE09283818303C03FEF3093F0031092F5
:104EE000F5031092F6031092F7031092F803109254
:104EF000F9031092FA031092FB031092FC03109234
:104F0000FD031092FE031092FF031092000485E44B
:104F100094E09093200480931F0481E494E09093A4
:104F20001E0480931D048DE394E0909322048093EB
:104F3000210410923B041092330410923404109216
:104F400035041092360480E090E0AFE7B3E480933C
:104F5000370490933804A0933904B0933A0484E65C
:104F600090E0A0E0B0E080932F0490933004A093F1
:104F70003104B093320410921A0410921904CC2414
:104F8000C394D12CE12CF12C8701A8019701C80111
:104F9000B7010E94441A0E946B1420912F04309193
:104FA0003004409131045091320429833A834B8379
:104FB0005C83DC01CB01821B930BA40BB50B8093AC
:104FC000230490932404A0932504B0932604E09234
:104FD0003D04F0923E0400933F0410934004E0929D
:104FE0004104F09242040093430410934404E0927D
:104FF0004504F092460400934704109348048AE95C
:1050000099E9A9E1BEE38093490490934A04A093EF
:105010004B04B0934C04E0924D04F0924E04009384
:105020004F0410935004E0925104F0925204009304
:105030005304109354048AE590E0909356048093AF
:10504000550486E090E09093F4038093F303812C61
:10505000912C3CE8A32E32ECB32E80923304909234
:105060003404A0923504B0923604412C512C4CE803
:10507000642E42E4742E40923704509238046092B9
:10508000390470923A0480913B0440911F0450917E
:1050900020045E834D83882309F455C0FA01C08043
:1050A000D180E280F380A3019201C701B6010E9482
:1050B000C52D18163CF4ED81FE814082518262823A
:1050C000738210C020E030E04CE852ECC701B6011A
:1050D0000E94B82A87FF06C0ED81FE8180829182FE
:1050E000A282B3828090270490902804A090290483
:1050F000B0902A04C0903704D0903804E09039046E
:10510000F0903A04A7019601C501B4010E94C52D93
:10511000181684F0C0903304D0903404E090350425
:10512000F0903604A7019601C501B4010E94B82A87
:1051300087FF3AC0C0922704D0922804E092290445
:10514000F0922A0431C0ED81FE81C080D180E280DE
:10515000F380C0922704D0922804E0922904F092B0
:105160002A04E0911D04F0911E0480819181A281A6
:10517000B38180932B0490932C04A0932D04B093BF
:105180002E0420E030E04CE852E4C701B6010E9452
:10519000C52D18160CF0D9C140922704509228044E
:1051A0006092290470922A0481E080933B04698113
:1051B0007A818B819C810E94BD2A9B01AC0160E0B9
:1051C00070E088E493E40E941D2D6B017C019B013B
:1051D000AC016091110470911204809113049091BC
:1051E00014040E941E2B6093110470931204809388
:1051F000130490931404A701960160911504709113
:10520000160480911704909118040E941D2D60933C
:10521000150470931604809317049093180488EC77
:10522000882E912CA12CB12C80922F0490923004C6
:10523000A0923104B09232048091CB038E7F809390
:10524000CB038091CB038D7F8093CB031092D4034B
:105250001092D5031092D6031092D7031092D00368
:105260001092D1031092D2031092D3031092CC0368
:105270001092CD031092CE031092CF031092EB0345
:105280001092EA031092ED031092EC031092EF03D8
:105290001092EE031092E0031092E1031092E203E9
:1052A0001092E3038DE999E09093E5038093E40382
:1052B0001092E7031092E6031092E9031092E803BC
:1052C0008092CC039092CD03A092CE03B092CF03F4
:1052D0008091CC039091CD03A091CE03B091CF03E8
:1052E0008093D0039093D103A093D203B093D303C0
:1052F0000E946B146093D4037093D5038093D603FC
:105300009093D703CC24CA94DC2C7601C092D803A6
:10531000D092D903E092DA03F092DB03C092DC036F
:10532000D092DD03E092DE03F092DF038091A603CA
:105330008E7F8093A6038091A6038D7F8093A60322
:105340001092AF031092B0031092B1031092B20307
:105350001092AB031092AC031092AD031092AE0307
:105360001092A7031092A8031092A9031092AA0307
:105370001092C6031092C5031092C8031092C7037F
:105380001092CA031092C9031092BB031092BC037F
:105390001092BD031092BE0385EC99E09093C00378
:1053A0008093BF031092C2031092C1031092C403F2
:1053B0001092C3038092A7039092A803A092A9031E
:1053C000B092AA038091A7039091A803A091A9038A
:1053D000B091AA038093AB039093AC03A093AD0369
:1053E000B093AE030E946B146093AF037093B0034D
:1053F0008093B1039093B203C092B303D092B403ED
:10540000E092B503F092B603C092B703D092B8030E
:10541000E092B903F092BA03809181038E7F80936A
:105420008103809181038D7F8093810310928A0391
:1054300010928B0310928C0310928D0310928603AE
:1054400010928703109288031092890310928203AE
:105450001092830310928403109285031092A1038B
:105460001092A0031092A3031092A2031092A5031E
:105470001092A4031092960310929703109298032F
:105480001092990385E29BE090939B0380939A038B
:1054900010929D0310929C0310929F0310929E0302
:1054A0008092820390928303A0928403B09285033A
:1054B0008091820390918303A0918403B09185032E
:1054C0008093860390938703A0938803B093890306
:1054D0000E946B1460938A0370938B0380938C03F8
:1054E00090938D03C0928E03D0928F03E09290032D
:1054F000F0929103C0929203D0929303E0929403AE
:10550000F092950310927C0310927B0310927E031D
:1055100010927D031092800310927F0326960FB69F
:10552000F894DEBF0FBECDBFDF91CF911F910F91D9
:10553000FF90EF90DF90CF90BF90AF909F908F90B3
:105540007F906F905F904F90089520E030E04CE89E
:1055500052ECC701B6010E94B82A87FF25CE80927F
:10556000270490922804A0922904B0922A041CCE09
:105570000E94FA2A08F481E00895E89409C097FB94
:105580003EF490958095709561957F4F8F4F9F4F1A
:105590009923A9F0F92F96E9BB279395F69587955E
:1055A00077956795B795F111F8CFFAF4BB0F11F421
:1055B00060FF1BC06F5F7F4F8F4F9F4F16C08823C8
:1055C00011F096E911C0772321F09EE8872F762FFE
:1055D00005C0662371F096E8862F70E060E02AF03F
:1055E0009A95660F771F881FDAF7880F969587952B
:1055F00097F90895990F0008550FAA0BE0E8FEEF00
:1056000016161706E807F907C0F012161306E40786
:10561000F50798F0621B730B840B950B39F40A267F
:1056200061F0232B242B252B21F408950A2609F45D
:10563000A140A6958FEF811D811D08950E94312BF9
:105640000C94A22B0E94942B38F00E949B2B20F0EC
:10565000952311F00C948B2B0C94912B11240C940A
:10566000D62B0E94B32B70F3959FC1F3950F50E09A
:10567000551F629FF001729FBB27F00DB11D639F04
:10568000AA27F00DB11DAA1F649F6627B00DA11DAA
:10569000661F829F2227B00DA11D621F739FB00D50
:1056A000A11D621F839FA00D611D221F749F3327C0
:1056B000A00D611D231F849F600D211D822F762F59
:1056C0006A2F11249F5750409AF0F1F088234AF036
:1056D000EE0FFF1FBB1F661F771F881F91505040A2
:1056E000A9F79E3F510580F00C948B2B0C94D62B80
:1056F0005F3FE4F3983ED4F3869577956795B79529
:10570000F795E7959F5FC1F7FE2B880F911D969542
:10571000879597F9089597F99F6780E870E060E0B2
:1057200008959FEF80EC089500240A94161617063A
:1057300018060906089500240A9412161306140682
:1057400005060895092E0394000C11F4882352F0E5
:10575000BB0F40F4BF2B11F460FF04C06F5F7F4F9D
:105760008F4F9F4F089557FD9058440F551F59F084
:105770005F3F71F04795880F97FB991F61F09F3F3E
:1057800079F087950895121613061406551FF2CF67
:105790004695F1DF08C0161617061806991FF1CFB7
:1057A00086957105610508940895E894BB276627DE
:1057B0007727CB0197F90895052E97FB1EF40094E7
:1057C0000E94F32B57FD07D00E94452C07FC03D005
:1057D0004EF40C94F32B50954095309521953F4F06
:1057E0004F4F5F4F089590958095709561957F4FCD
:1057F0008F4F9F4F08950E94672CA59F900DB49FD7
:10580000900DA49F800D911D11240895B7FF0C9455
:10581000FB2B0E94FB2B821B930B08952F923F9230
:105820004F925F926F927F928F929F92AF92BF92B0
:10583000CF92DF92EF92FF920F931F93CF93DF935C
:10584000CDB7DEB7CA1BDB0B0FB6F894DEBF0FBEB9
:10585000CDBF09942A88398848885F846E847D8406
:105860008C849B84AA84B984C884DF80EE80FD8008
:105870000C811B81AA81B981CE0FD11D0FB6F8947E
:10588000DEBF0FBECDBFED010895A1E21A2EAA1B07
:10589000BB1BFD010DC0AA1FBB1FEE1FFF1FA217E0
:1058A000B307E407F50720F0A21BB30BE40BF50BDD
:1058B000661F771F881F991F1A9469F76095709566
:1058C000809590959B01AC01BD01CF010895A29FE9
:1058D000B001B39FC001A39F700D811D1124911DC4
:1058E000B29F700D811D1124911D0895991B79E0BF
:1058F00004C0991F961708F0961B881F7A95C9F760
:105900008095089597FB072E16F4009407D077FD35
:1059100009D00E94962C07FC05D03EF49095819505
:105920009F4F0895709561957F4F0895AA1BBB1BEB
:1059300051E107C0AA1FBB1FA617B70710F0A61B8F
:10594000B70B881F991F5A95A9F780959095BC01B0
:10595000CD010895EE0FFF1F0590F491E02D0994FD
:105960005058BB27AA270E94C82C0C94A22B0E9437
:10597000942B38F00E949B2B20F039F49F3F19F4B0
:1059800026F40C94912B0EF4E095E7FB0C948B2BF2
:10599000E92F0E94B32B58F3BA17620773078407E5
:1059A000950720F079F4A6F50C94D52B0EF4E0952C
:1059B0000B2EBA2FA02D0B01B90190010C01CA01C9
:1059C000A0011124FF27591B99F0593F50F4503E74
:1059D00068F11A16F040A22F232F342F4427585F66
:1059E000F3CF469537952795A795F0405395C9F77E
:1059F0007EF41F16BA0B620B730B840BBAF0915036
:105A0000A1F0FF0FBB1F661F771F881FC2F70EC0D4
:105A1000BA0F621F731F841F48F4879577956795A7
:105A2000B795F7959E3F08F0B0CF9395880F08F093
:105A30009927EE0F9795879508950E94312D0C9424
:105A4000A22B0E949B2B58F00E94942B40F029F42B
:105A50005F3F29F00C948B2B51110C94D62B0C9496
:105A6000912B0E94B32B68F39923B1F3552391F343
:105A7000951B550BBB27AA2762177307840738F0BD
:105A80009F5F5F4F220F331F441FAA1FA9F335D01A
:105A90000E2E3AF0E0E832D091505040E695001CCE
:105AA000CAF72BD0FE2F29D0660F771F881FBB1F88
:105AB000261737074807AB07B0E809F0BB0B802D66
:105AC000BF01FF2793585F4F3AF09E3F510578F092
:105AD0000C948B2B0C94D62B5F3FE4F3983ED4F3BD
