:100000000C9459050C9481050C9481050C94F712FD
:100010000C94F7120C94F7120C9481050C94810542
:100020000C9481050C9481050C9481050C94FB0CB7
:100030000C9481050C9481050C9481050C94810528
:100040000C94881D0C9481050C94C5120C949F127D
:100050000C9481050C9481050C9481050C94810508
:100060000C94EA090C948105DB40A4A62EAFDA02B9
:1000700081DA1281DA02818F2000A1C8D300408D7D
:10008000AED580A800006000000000000000000065
:100090000000000000E00000000000000000000080
:1000A00000000001E000000000000000000000006F
:1000B000000001F00000000000000000000000004F
:1000C0000003F0000000000000000000000000003D
:1000D00007F0000000000000000000000000000722
:1000E000F8000000000000000000000000000FF811
:1000F00000000003C0007E000001E0007F0FF80058
:10010000000003C000FE000001E000FFEFF8000067
:100110000003C000FE000001E000FFFFF800000047
:1001200003C000F00000000F007FFE7FC00000034E
:10013000C000F00000000F003FFE7FF83FF1FBCF52
:10014000FCFEF3BC3DEFE01FFE7FFF7FFBFFDFFE09
:10015000FEFFBC3DEFE01FC6FFFF7FFBFFDFFEFEA3
:10016000FFBC3DEFE00FE3C7FE787BC3DE1EF0FF70
:10017000BC3DEF0007FF87FC787BC3DE1EF0F83C38
:100180003DEF0001FFFFF0007BC3C01EF0F03C3DDF
:10019000EF0001F37FE03FFBC3CFFEF0F03C3DEF0B
:1001A0000003E33F807FFBC3DFFEF0F03C3DEF0048
:1001B00007E73C00787BC3DE1EF0F03C3DEF000714
:1001C000FFBE00787BC3DE1EF0F03C3DEF0007FF72
:1001D000FE00787BC3DE1EF0F03C3DEF000FFFFE1B
:1001E000007FFBFFDFFEF0F03FFDEFE00FFFFF00C1
:1001F0007FFBFFDFFEF0F03FFDEFE00FF9FF003E79
:1002000079F9CF9EF0F01F3DE7E01FF1FF000000FD
:100210000000000000000000001F80FF007FFFFFC3
:10022000FFFFFFFFFFFFFFE01C007F007FFFFFFFDE
:10023000FEB46D888D18E000001F007FFFFFFFFEF9
:1002400095AD7DB577E000000F007FFFFFFFFEA5B5
:10025000AD9D8D19E0000006007FFFFFFFFEB5ADEC
:10026000EDB57EE00000000000018000000000000D
:1002700000000000038000000000000000000007F4
:10028000C000000000000000000007C000000000E7
:1002900000000000000FC00000000000000000008F
:1002A0001FE00000000000000000001FE000000050
:1002B0000000000000003FE000000000000000001F
:1002C000003FF00000000000000000007FF0000090
:1002D00000000000001FF87FF00000000000000098
:1002E0003FFE7FF0000000000000003FFF7FF000B5
:1002F0000000000000001FFFFBE000000000000005
:10030000000FFFF9FFC00000000000000FFFF9FF21
:10031000F800000000000007FFF1FFFF00000000F0
:10032000000003FC73FFFF80000000000001FE3F9F
:10033000FFFF80000000000000FF1E0FFF00000014
:10034000000000007FFE1FFC000000000000003FD6
:10035000FFFFF8000000000000000FDFFFE00000DA
:1003600000000000001F19FFC00000000000000096
:100370003F3CFF00000000000000007E7CF8000011
:100380000000000000007FFE7C0000000000000074
:1003900000FFFFFC0000000000000000FFFFFE0067
:1003A00000000000000000FFFFFE00000000000051
:1003B0000001FFEFFE0000000000000001FFCFFE83
:1003C0000000000000000003FF07FE000000000026
:1003D000000003FC07FE0000000000000003F00323
:1003E000FE00000000000000018000FE0000000090
:1003F0000000000000007E0000000000000000007F
:10040000003E000000000000000000000C000000A2
:10041000000000078000FC000003C000000007800F
:1004200001FC000003C0000000078001FC00000385
:10043000C0000000078001E00000001E000000076F
:100440008001E00000001E007FE3F79FF9FDE778E0
:100450007BDFC0FFF7FFBFFDFDFF787BDFC0FFF74D
:10046000FFBFFDFDFF787BDFC0F0F787BC3DE1FFFC
:10047000787BDE00F0F787BC3DE1F0787BDE0000A2
:10048000F787803DE1E0787BDE007FF7879FFDE125
:10049000E0787BDE00FFF787BFFDE1E0787BDE00E0
:1004A000F0F787BC3DE1E0787BDE00F0F787BC3DEC
:1004B000E1E0787BDE00F0F787BC3DE1E0787BDEB1
:1004C00000FFF7FFBFFDE1E07FFBDFC0FFF7FFBFED
:1004D000FDE1E07FFBDFC07CF3F39F3DE1E03E7B8D
:1004E000CFC00000000000000000000000FFFFFF80
:1004F000FFFFFFFFFFFFFFC0FFFFFFFFFD68DB11F6
:100500001A31C0FFFFFFFFFD2B5AFB6AEFC0FFFF50
:10051000FFFFFD4B5B3B1A33C0FFFFFFFFFD6B5B33
:10052000DB6AFDC05353443133303620616C6C6F4D
:10053000636174696F6E206661696C656400220096
:10054000FF2100000103070F1F3F7F0080C0E0F084
:10055000F8FCFE00000000003E5B4F5B3E3E6B4F30
:100560006B3E1C3E7C3E1C183C7E3C181C577D5745
:100570001C1C5E7F5E1C00183C1800FFE7C3E7FFF1
:100580000018241800FFE7DBE7FF30483A060E2684
:1005900029792926407F050507407F05253F5A3CDC
:1005A000E73C5A7F3E1C1C08081C1C3E7F14227F1F
:1005B00022145F5F005F5F06097F017F00668995F7
:1005C0006A606060606094A2FFA29408047E0408E0
:1005D00010207E201008082A1C08081C2A08081E63
:1005E000101010100C1E0C1E0C30383E3830060E49
:1005F0003E0E06000000000000005F000000070043
:100600000700147F147F14242A7F2A1223130864FE
:100610006236495620500008070300001C224100A2
:100620000041221C002A1C7F1C2A08083E080800E2
:100630008070300008080808080000606000201082
:100640000804023E5149453E00427F40007249493C
:1006500049462141494D331814127F10274545451D
:10066000393C4A494931412111090736494949363E
:10067000464949291E0000140000004034000000D3
:100680000814224114141414140041221408020105
:100690005909063E415D594E7C1211127C7F494931
:1006A00049363E414141227F4141413E7F494949CE
:1006B000417F090909013E414151737F0808087FC4
:1006C00000417F41002040413F017F081422417FCB
:1006D000404040407F021C027F7F0408107F3E4163
:1006E00041413E7F090909063E4151215E7F0919BA
:1006F0002946264949493203017F01033F404040D2
:100700003F1F2040201F3F4038403F6314081463C0
:1007100003047804036159494D43007F414141027C
:1007200004081020004141417F04020102044040BE
:10073000404040000307080020545478407F28447C
:1007400044383844444428384444287F3854545466
:100750001800087E090218A4A49C787F0804047875
:1007600000447D40002040403D007F1028440000B0
:10077000417F40007C047804787C08040478384485
:10078000444438FC1824241818242418FC7C080439
:100790000408485454542404043F44243C4040205A
:1007A0007C1C2040201C3C4030403C442810284405
:1007B0004C9090907C4464544C44000836410000B6
:1007C00000770000004136080002010204023C26C6
:1007D00023263C1EA1A161123A4040207A3854548D
:1007E0005559215555794122545478422155547810
:1007F0004020545579400C1E5272123955555559A6
:10080000395454545939555454580000457C4100CA
:1008100002457D420001457C407D1211127DF02889
:100820002528F07C545545002054547C547C0A09FA
:100830007F4932494949323A4444443A324A484865
:10084000303A4141217A3A42402078009DA0A07D73
:100850003D4242423D3D4040403D3C24FF2424482F
:100860007E4943662B2FFC2F2BFF0929F620C088D9
:100870007E090320545479410000447D41304848AA
:100880004A32384040227A007A0A0A727D0D1931C4
:100890007D2629292F28262929292630484D402020
:1008A000380808080808080808382F10C8ACBA2FFC
:1008B000102834FA00007B000008142A14222214A5
:1008C0002A14085500550055AA55AA55AAFF55FFE8
:1008D00055FF000000FF00101010FF00141414FF5B
:1008E000001010FF00FF1010F010F0141414FC00A2
:1008F0001414F700FF0000FF00FF1414F404FC14AC
:100900001417101F10101F101F1414141F001010A4
:1009100010F0000000001F101010101F1010101019
:10092000F010000000FF101010101010101010FF39
:1009300010000000FF140000FF00FF00001F101750
:100940000000FC04F414141710171414F404F40039
:1009500000FF00F714141414141414F700F71414FF
:1009600014171410101F101F141414F4141010F086
:1009700010F000001F101F0000001F14000000FCFA
:10098000140000F010F01010FF10FF141414FF14E6
:100990001010101F00000000F010FFFFFFFFFFF01D
:1009A000F0F0F0F0FFFFFF0000000000FFFF0F0F6E
:1009B0000F0F0F3844443844FC4A4A4A347E02023E
:1009C0000606027E027E0263554941633844443C78
:1009D00004407E201E2006027E020299A5E7A5990A
:1009E0001C2A492A1C4C7201724C304A4D4D303041
:1009F00048784830BC625A463D3E494949007E012C
:100A000001017E2A2A2A2A2A44445F444440514A4A
:100A1000444040444A51400000FF0103E080FF0091
:100A20000008086B6B083612362436060F090F06CD
:100A3000000018180000001010003040FF010100F5
:100A40001F01011E00191D1712003C3C3C3C000018
:100A50000000000000000023002600290000000024
:100A600000250028002B00040404040404040402EC
:100A7000020202020203030303030301020408103B
:100A80002040800102040810200102040810200008
:100A9000000000240027002A0000000008000201D6
:100AA00000000304070000000000000000009C2874
:100AB000132811241FBECFEFD8E0DEBFCDBF12E058
:100AC000A0E0B1E0E2E9F2E602C005900D92A43B9D
:100AD000B107D9F725E0A4EBB2E001C01D92AA3B13
:100AE000B207E1F715E0C8E5D5E004C02197FE01A3
:100AF0000E94052EC735D107C9F70E94D21D0C945C
:100B00003C310C94000085ED8093BC008091BC00CA
:100B100084FDFCCF1092A20308954091F302262F8A
:100B200030E0240F311D21323105DCF42091A20385
:100B30002430C9F4FC0180E090E0861758F430912D
:100B4000F3022191DC01AD52BD4FA30FB11D2C93D7
:100B50000196F3CF8091F302680F6093F30280E077
:100B6000089581E0089582E0089508950895E09140
:100B70005B0380915A03E81730F4F0E0E45AFC4F2D
:100B8000808190E008958FEF9FEF089590915B032F
:100B900080915A03981750F4E92FF0E0E45AFC4F83
:100BA000208130E09F5F90935B0302C02FEF3FEF07
:100BB000C901089580915A0390E020915B03821B44
:100BC00091090895CF92DF92EF92FF920F931F93B6
:100BD000CF93DF937C01CB018A012091A3032223D1
:100BE00089F0EB016B01C40ED51ECC15DD0569F053
:100BF0006991D701ED91FC910190F081E02DC70141
:100C00000995F3CF642F0E948D05C801DF91CF9124
:100C10001F910F91FF90EF90DF90CF900895CF93A9
:100C2000DF931F92CDB7DEB769832091A303222300
:100C3000D1F02091C603203240F021E030E0FC01E9
:100C40003383228380E090E015C08091A403E82FD5
:100C5000F0E0EB55FC4F998190838F5F8093A40364
:100C60008093C60305C061E0CE0101960E948D0508
:100C700081E090E00F90DF91CF9108950895FC01FD
:100C80006370658B8481958126813781613039F06D
:100C9000633029F0918780873387228708953187D1
:100CA00020879387828708956F927F928F929F9279
:100CB000AF92BF92CF92DF92EF92FF920F931F936A
:100CC000CF93DF93EC014B015A0169013801E881B0
:100CD000F9810284F385E02D0995E881F981028884
:100CE000F389E02D87019601A501B401CE01099594
:100CF000A501460D571D41505109E881F98102882F
:100D0000F389E02D9601B401CE010995E881F981BE
:100D10000088F189E02D9301A501B401CE01099568
:100D2000C80CD91CB60161507109E881F9810088AD
:100D3000F189E02D9301A501CE010995E881F981A2
:100D40000688F789E02DCE01DF91CF911F910F9199
:100D5000FF90EF90DF90CF90BF90AF909F908F90DB
:100D60007F906F9009948F929F92AF92BF92CF9293
:100D7000DF92EF92FF920F931F93CF93DF934C017B
:100D80006B015A01E901DC01ED91FC9162177307D7
:100D900081F40417150724F48B2D5801042F182F04
:100DA0000A191B0998012F5F3F4F048CF58DE02D28
:100DB00012C04017510709F52617370724F48D2D67
:100DC0006901C62FD82F9E012C193D092F5F3F4F77
:100DD000068CF78DE02D8701A501B601C4010995A8
:100DE000DF91CF911F910F91FF90EF90DF90CF9007
:100DF000BF90AF909F908F9008950284F385E02D6F
:100E00000995D401ED91FC910488F589E02D9E01AE
:100E1000A501B601C4010995D401ED91FC910688A4
:100E2000F789E02DC401DF91CF911F910F91FF90C1
:100E3000EF90DF90CF90BF90AF909F908F900994EC
:100E4000EF92FF920F931F93DC011A960D911C9164
:100E50001B9718962D913C911997ED91FC9100A04C
:100E6000F1A1E02D7B0140E050E060E070E00995E9
:100E70001F910F91FF90EF9008954F925F926F92A4
:100E80007F928F929F92AF92BF92CF92DF92EF921A
:100E9000FF920F931F93CF93DF936C012B015A01A5
:100EA00039014801DC01ED91FC910284F385E02DCC
:100EB0000995E201640C751CD601ED91FC91C615F3
:100EC000D7055CF40088F189E02D87019401A50124
:100ED000BE01C60109952196EFCF0688F789E02D5E
:100EE000C601DF91CF911F910F91FF90EF90DF909E
:100EF000CF90BF90AF909F908F907F906F905F90BA
:100F00004F9009948F929F92AF92BF92CF92DF92AF
:100F1000EF92FF920F931F93CF93DF93EC015B014E
:100F20004A016901E881F9810284F385E02D099580
:100F300095012C0D3D1D21503109E881F98104886E
:100F4000F589E02D78018401A401B501CE01099550
:100F5000E881F9810688F789E02DCE01DF91CF91F4
:100F60001F910F91FF90EF90DF90CF90BF90AF90C7
:100F70009F908F9009948F929F92AF92BF92CF9241
:100F8000DF92EF92FF920F931F93CF93DF93EC01C9
:100F90005B014A0169017801E881F9810284F385E6
:100FA000E02D0995C80CD91C860101501109E88172
:100FB000F9810488F589E02D9501A401B501CE01E0
:100FC0000995E881F9810688F789E02DCE01DF9146
:100FD000CF911F910F91FF90EF90DF90CF90BF9036
:100FE000AF909F908F900994EF92FF920F931F9371
:100FF000DC01ED91FC9100A0F1A1E02D09951F917C
:101000000F91FF90EF9008950F931F93DC01ED91E6
:10101000FC91068CF78DE02D09951F910F91089595
:101020000F931F93DC01ED91FC91048CF58DE02D65
:1010300009951F910F910895DC01ED91FC910084B9
:10104000F185E02D09942F923F924F925F926F921B
:101050007F928F929F92AF92BF92CF92DF92EF9248
:10106000FF920F931F93CF93DF9300D000D000D057
:10107000CDB7DEB72C017E836D836A015901C801AB
:10108000FC82EB824801841A950A97FE03C0919472
:101090008194910835012D813E81621A730A77FE91
:1010A00003C0719461947108681479045CF43A2D5A
:1010B0002B2D5C01832F922F3D812E81DE82CD82EC
:1010C000C32ED22EAD81BE81AA16BB065CF43C2D88
:1010D0002D2D6C01832F922F3D812E81BE82AD82FA
:1010E000A32EB22E85012D813E81021B130B1C0104
:1010F0002C183D0837FE03C0319421943108780143
:1011000017FF03C03FEFE31AF30AF594E794C816FC
:10111000D9062CF08FEF9FEF9A83898304C0A1E05A
:10112000B0E0BA83A9832D813E81A216B30624F1D3
:10113000D201ED91FC910484F585E02D2B813C8159
:101140006814790424F44D815E81B60103C0A601C0
:101150006D817E81C2010995E218F308F7FE06C091
:1011600029813A81C20ED31EE00EF11E8D819E812F
:1011700001969E838D83D7CF26960FB6F894DEBF57
:101180000FBECDBFDF91CF911F910F91FF90EF90D8
:10119000DF90CF90BF90AF909F908F907F906F9097
:1011A0005F904F903F902F900895089580E090E0D9
:1011B00008950895AF92BF92CF92EF92FF920F934E
:1011C0001F93CF93DF93EC01262F888D998D009785
:1011D00009F040C06A3059F41D861C862C898E8522
:1011E0009F8538E0239F800D911D112441C06D30F3
:1011F00009F4AAC08E898823C1F03C898C859D851D
:1012000046E0349F800D911D11244885598548176B
:1012100059075CF41D861C868E859F8548E0349FA7
:10122000800D911D11249F878E87EA88FB8808898D
:1012300019894E855F856C857D85CC88CE010E949D
:1012400002192C898C859D8536E0239F800D911D88
:10125000112442C06A3079F41D861C862C89FC0159
:101260003696E4918E859F852E9F800D911D1124C9
:101270009F878E8769C06D3009F466C0FC01349683
:101280003491631708F460C03196E491E61708F4CE
:101290005BC0FC01329665917491422F50E0431B74
:1012A000510937E0349F5001359FB00C1124A60E30
:1012B000B71EF501329634913196E491332311F043
:1012C000E1110DC0F5013496E4912C898C859D8542
:1012D000E29F800D911D11249D878C8735C0F501FB
:1012E000359644915E89552311F16C89E32FF0E026
:1012F000E40FF11D47FDFA956E9FD0016F9FB00D71
:1013000011244C855D854A0F5B1FE885F985E4173C
:10131000F5076CF41D861C86FC013696E4918E85DB
:101320009F856E9F800D911D11249F878E87EA886F
:10133000FB88088919894E855F856C857D85CC88F9
:10134000CE010E940219BECF81E090E0DF91CF91E3
:101350001F910F91FF90EF90CF90BF90AF900895A5
:101360000C94C22FCF9361E087EC93E00E94A00E13
:1013700020E030E048EC52E46091CD027091CE0262
:101380008091CF029091D0020E94792C0E94EA2E87
:101390009B01AC01285D3C4D4F4F5F4FA0E8BEE381
:1013A0000E94562D20E536E440E050E00E94372DA3
:1013B000C90160EC70E00E94DD2DC82F605C87ECF5
:1013C00093E00E94A00E60E46C0F87EC93E0CF9155
:1013D0000C94A00E1F920F920FB60F9211242F9310
:1013E0003F934F935F936F937F938F939F93AF93AD
:1013F000BF93EF93FF938091B900887F803609F403
:101400009CC068F5883209F45BC090F4803109F41F
:1014100054C038F4882309F4F6C0883009F44DC06C
:10142000F6C0883109F44CC0803209F45DC0EFC0C9
:10143000803409F468C048F4803309F455C0883317
:1014400009F0E5C08093A003D8C0803509F44FC0EF
:10145000883509F45DC0883409F0D9C0D6C0883910
:1014600009F4C7C0A8F4883709F467C038F488368F
:1014700009F463C0803709F460C0C9C0883809F432
:10148000B8C0803909F45FC0803809F0C0C05BC0C3
:10149000803B09F486C038F4803A09F466C0883A83
:1014A00009F47FC0B4C0803C09F4A7C0883C09F4AB
:1014B000A4C0883B09F48AC0AAC080917D0310C0F3
:1014C00090919F0380919E03981770F5E0919F0380
:1014D00081E08E0F80939F03F0E0E258FC4F808103
:1014E0008093BB0085EC86C08093A0038EC0E09102
:1014F0009F0381E08E0F80939F038091BB00F0E0FB
:10150000E258FC4F808390919F0380919E036EC0B0
:10151000E0919F0381E08E0F80939F038091BB0039
:10152000F0E0E258FC4F80838091A10381116DC0EF
:1015300081E080937C0384EA61C083E08093A2030E
:1015400010921503CFCF80911503803208F051C05F
:10155000E091150381E08E0F809315038091BB000D
:10156000F0E0EB50FD4F8083BDCF85EC8093BC0055
:101570001092A20380911503803230F4E09115039C
:10158000F0E0EB50FD4F10826091150370E0E091A8
:101590005603F091570385EF92E0099510921503D9
:1015A00036C084E08093A2031092F4021092F302FA
:1015B000E0915803F091590309958091F30281114C
:1015C00005C081E08093F3021092D302E091F4020F
:1015D00081E08E0F8093F402F0E0ED52FD4F8081A8
:1015E0008093BB009091F4028091F302981708F465
:1015F00079CF85E88093BC000AC085EC8093BC005D
:101600001092A20304C01092A0030E948305FF91D0
:10161000EF91BF91AF919F918F917F916F915F916A
:101620004F913F912F910F900FBE0F901F901895E3
:1016300081E08093A3036093C5031092A4031092EA
:10164000C6030895EF92FF920F931F93CF93DF93FA
:101650000E94131681E0809383058093860581E0C4
:1016600090E090938205809381059093800580930C
:101670007F0510927C0510927B0510927E051092DA
:101680007D0582E395E00E94FC1510927C05109286
:101690007B05C8E0D0E0D0937E05C0937D058CE249
:1016A00095E00E94FC158091B8028823A1F08BE49C
:1016B00090E090937C0580937B05D0937E05C0934A
:1016C0007D056091B9027091BA028091BB02909140
:1016D000BC020E94E31455E0E52EF12CF0927C054B
:1016E000E0927B05C0E1D0E0D0937E05C0937D05FC
:1016F0006091C5027091C6028091C7029091C802A4
:101700000E94E31406E210E010937C0500937B0531
:10171000D0937E05C0937D056091CD027091CE027D
:101720008091CF029091D0020E94E31480E590E076
:1017300090937C0580937B05D0937E05C0937D05B7
:101740006091C1027091C2028091C3029091C40263
:101750000E94E314F0927C05E0927B05C8E1D0E0A2
:10176000D0937E05C0937D056091BD027091BE024D
:101770008091BF029091C0020E94E31410937C05F7
:1017800000937B05D0937E05C0937D056091C902CF
:101790007091CA028091CB029091CC020E94E31416
:1017A00080918B0590918C05892BD1F02091A50516
:1017B0003091A6054091A7055091A80560E074E21C
:1017C00084EF90E00E94A02DDA01C9014097A109A1
:1017D000B109B695A795979587958093B80016C0DF
:1017E0008091890590918A05892B31F08091A3051C
:1017F0009091A4050E94D713E0919D05F0919E055C
:1018000090818091A20580958923808365E08EE395
:1018100095E00E9434146091730561508FE695E065
:101820000E9479132091750530917605C9010796BC
:1018300097FD079633E0959587953A95E1F72091C6
:10184000730530917405829F8001839F100D929FD4
:10185000100D1124C0918D05D0918E0580918B05BE
:1018600090918C050C0F1D1F009709F445C06091E5
:101870008F050E94180B80918B0590918C05DC01DF
:10188000ED91FC910190F081E02D60E409957E01DD
:10189000D1E080918B0590918C050E151F0549F1C3
:1018A000D032B8F00E94381C60918F0580918B0572
:1018B00090918C050E94180B80918B0590918C055E
:1018C000DC01ED91FC910190F081E02D60E409953F
:1018D000D1E080918B0590918C05F70161917F019A
:1018E000DC01ED91FC910190F081E02D0995DF5F25
:1018F000D0CF0E94381C41C0E0919B05F0919C051F
:1019000090818091A105892B8083C017D107A9F10F
:1019100089912091890530918A05232B19F00E9425
:101920007213F3CF28E030E040E8E0919705F091A2
:10193000980590919F05582F542319F05081952BAD
:1019400003C05081909595239083E0919905F09183
:101950009A0550819091A005952B9083E09199056F
:10196000F0919A0550819091A005909595239083D0
:10197000469521503109C9F6C8CF80918B059091C9
:101980008C05892BD1F02091A9053091AA054091B1
:10199000AB055091AC0560E074E284EF90E00E94EA
:1019A000A02DDA01C9014097A109B109B695A79503
:1019B000979587958093B80017C0E0919D05F091A9
:1019C0009E0590818091A205892B80838091890555
:1019D00090918A05892B41F0DF91CF911F910F9152
:1019E000FF90EF900C947113DF91CF911F910F91A5
:1019F000FF90EF9008951F920F920FB60F9211244F
:101A00002F933F934F935F936F937F938F939F9306
:101A1000AF93BF93EF93FF938091D20287FF05C0EE
:101A200010928500109284001BC02091D202022ED9
:101A3000000C330B8091880490E02817390784F458
:101A40008091D202082E000C990BFC01EE0FFF1FB3
:101A50008E0F9F1FFC01EC59FB4F808186FD15C046
:101A60008091D2028F5F8093D2022091D202022E07
:101A7000000C330B8091880490E028173907C4F4D8
:101A80008091D2028C3064F113C08091D202082E72
:101A9000000C990BFC01EE0FFF1F8E0F9F1FFC0126
:101AA000EC59FB4F808160E08F730E94B91CD8CF46
:101AB0008091840090918500049680349C4918F4AC
:101AC00080E49CE905C08091840090918500049693
:101AD00090938900809388008FEF8093D2023BC05F
:101AE00020918400309185008091D202082E000C54
:101AF000990BFC01EE0FFF1F8E0F9F1FFC01EC598D
:101B0000FB4F81819281820F931F90938900809374
:101B100088008091D202082E000C990BFC01EE0F78
:101B2000FF1F8E0F9F1FFC01EC59FB4F808186FF2A
:101B300012C08091D202082E000C990BFC01EE0F0E
:101B4000FF1F8E0F9F1FFC01EC59FB4F808161E04E
:101B50008F730E94B91CFF91EF91BF91AF919F913C
:101B60008F917F916F915F914F913F912F910F9046
:101B70000FBE0F901F9018950F931F93CF93DF9375
:101B8000DC015D96ED91FC915E97309781F0EC0160
:101B9000ABA1BCA114960D911C91159715969C9321
:101BA0008E9314970995EBA1FCA115830483DF9113
:101BB000CF911F910F9108950895CF93DF9387ECF4
:101BC00093E00E94460EEC01803491052CF460E015
:101BD00070EC89E794EC19C087EC93E00E94460E04
:101BE00080349105A4F3C054D10920EC2C9FB0019E
:101BF0002D9F700D112480549109680F791F072EB5
:101C0000000C880B990B0E941A2CDF91CF9108953C
:101C1000BC018CE295E00C946912CF92DF92EF92B6
:101C2000FF920F931F93CF93DF936C017A018B0187
:101C3000C0E0D0E0CE15DF0581F0D8016D918D01B7
:101C4000D601ED91FC910190F081E02DC60109953E
:101C5000892B11F02196EECF7E01C701DF91CF9144
:101C60001F910F91FF90EF90DF90CF900895FC01AE
:101C7000538D448D252F30E0842F90E0821B930BF1
:101C8000541710F0CF96089501970895FC01918D97
:101C9000828D981761F0828DDF01A80FB11D5D96CE
:101CA0008C91928D9F5F9F73928F90E008958FEF3C
:101CB0009FEF0895FC01918D828D981731F0828DF0
:101CC000E80FF11D858D90E008958FEF9FEF089547
:101CD000FC01918D228D892F90E0805C9F4F821BAB
:101CE00091098F739927089587EC93E00E94680EFD
:101CF00021E0892B09F420E0822F0895FC01848DD6
:101D0000DF01A80FB11DA35ABF4F2C91848D90E025
:101D100001968F739927848FA689B7892C93A08900
:101D2000B1898C91837080648C93938D848D98138A
:101D300006C00288F389E02D80818F7D808308951D
:101D4000EF92FF920F931F93CF93DF93EC0181E00B
:101D5000888F9B8D8C8D981305C0E889F9898081C7
:101D600085FD26C0F62E0B8D10E00F5F1F4F0F7301
:101D70001127E02E8C8DE8120CC00FB607FCFACFAD
:101D8000E889F989808185FFF5CFCE010E947E0E1A
:101D9000F1CF8B8DFE01E80FF11DE35AFF4FF0826A
:101DA0009FB7F8940B8FEA89FB89808180620AC013
:101DB0009FB7F894EE89FF896083E889F98980816B
:101DC0008370806480839FBF81E090E0DF91CF913A
:101DD0001F910F91FF90EF900895CF93DF93EC0147
:101DE000888D8823C9F0EA89FB89808185FD05C03B
:101DF000A889B9898C9186FD0FC00FB607FCF5CF75
:101E0000808185FFF2CFA889B9898C9185FFEDCFBC
:101E1000CE010E947E0EE7CFDF91CF91089580E042
:101E200090E0892B29F00E94740E81110C9400001F
:101E300008952091B6023091B7022817390771F43E
:101E40009091B4028091B502981741F0E091B402EC
:101E5000F0E0EA5EFC4F808190E008958FEF9FEF05
:101E6000089508951F93CF93DF93DC015C968D91C5
:101E70009C915D97009739F421E030E013963C93F4
:101E80002E9312973BC05196ED91FC91529750962C
:101E90002C915097322F30951FB75E964C915E97DC
:101EA000742F727041FD6095F8944081772311F092
:101EB000422B01C043234083EC012197F1F748E016
:101EC000508160FF02C0522B01C053235083EC01AC
:101ED0002197F1F76695415099F78081772319F0A2
:101EE0008323808302C0282B20831FBF5C968D91A3
:101EF0009C915D970197F1F781E090E0DF91CF91A0
:101F00001F9108952091B6023091B7022817390722
:101F100071F48091B5022091B40290E0805C9F4FF3
:101F2000821B910960E470E00E94DD2D089580E03D
:101F300090E008952091B6023091B7022817390732
:101F4000B9F49091B4028091B502981789F0E091AC
:101F5000B402F0E0EA5EFC4F80812091B40230E0F0
:101F60002F5F3F4F2F7333272093B40290E00895E3
:101F70008FEF9FEF0895FC0177FDB9C080859185B3
:101F8000681779070CF0B3C057FDB1C082859385FF
:101F9000481759070CF008958589823079F48481B7
:101FA0009581DC01A61BB70BBD01615071098681CB
:101FB0009781DC01A41BB50BAD010EC0833009F085
:101FC00084C064277527CA01862797276827792741
:101FD00046815781481B590B415051092130310529
:101FE00031F048F12230310509F44AC00895CA01A0
:101FF00057FD07969C01A3E035952795AA95E1F733
:10200000A481B5812A9FC0012B9F900D3A9F900D0E
:102010001124680F791F068CF78DE02DE60FF71F4E
:102020004770552781E090E001C0880F4A95EAF794
:102030009081892B48C0CA0157FD07969C0193E007
:10204000359527959A95E1F7A481B5812A9FC0011E
:102050002B9F900D3A9F900D1124680F791F068CCD
:10206000F78DE02DE60FF71F4770552781E090E0D0
:1020700001C0880F4A95EAF780959081892323C093
:10208000CA0157FD07969C0183E0359527958A95EF
:10209000E1F7A481B5812A9FC0012B9F900D3A9F43
:1020A000900D1124680F791F068CF78DE02DE60F37
:1020B000F71F4770552781E090E001C0880F4A95CF
:1020C000EAF79081892780830895813009F086CFCF
:1020D00064277527462757276427752784819581AC
:1020E000DC01A61BB70BBD016150710977CF0895C4
:1020F0000E9411318F929F92AF92BF92CF92DF9246
:10210000EF92FF920F931F93CF93DF93CDB7DEB77C
:1021100062970FB6F894DEBF0FBECDBF7C018B0176
:1021200084E2DB011D928A95E9F784E290E0A0E069
:10213000B0E0FB0180839183A283B383F7018681A2
:102140009781A085B185FB0184839583A683B7839E
:1021500083E090E0A0E0B0E080879187A287B3871A
:102160000E947C1DD80150966D937D938D939C9316
:102170005397FE0131968CE0DF011D928A95E9F7B5
:102180006E01BDE0CB0ED11C86E0F60111928A955E
:10219000E9F7D70113966C91139714968D919C9142
:1021A00015970E94180BF70184819581DC01ED9150
:1021B000FC910190F081E02D6AE10995F70184819D
:1021C00095810E94381C66E0D70113968C910E947D
:1021D000041710925B0380935A035E01B3E1AB0EC8
:1021E000B11CF70184819581DC01ED91FC910284A1
:1021F000F385E02D0995F60181936F01EA15FB0542
:1022000081F76D857E85072E000C880B990B0E9447
:102210001A2C20E030E040E85DE30E94792C4B016D
:102220005C016F857889072E000C880B990B0E9442
:102230001A2C20E030E040E85DE30E94792C6B012D
:102240007C0169897A89072E000C880B990B0E9402
:102250001A2C20E030E040E85DE30E94792CD801A0
:1022600054968D929D92AD92BC925797F801C08E74
:10227000D18EE28EF38E5C966D937D938D939C93BD
:102280005F9781E062960FB6F894DEBF0FBECDBFB8
:10229000DF91CF911F910F91FF90EF90DF90CF9042
:1022A000BF90AF909F908F9008950F931F93CF93FF
:1022B000DF938C01EB0188E2FB0111928A95E9F72B
:1022C0004BE050E069E972E0CE010E942D311B869F
:1022D00081E090E0A0E0B0E08C879D87AE87BF876B
:1022E000F80186819781A085B185888B998BAA8B0F
:1022F000BB8B83E090E0A0E0B0E08C8B9D8BAE8B3D
:10230000BF8B1CA21DA21EA21FA2188E198E1A8E90
:102310001B8E1C8E1D8E1E8E1F8E8AE097EDA3E2F3
:10232000BCE388A399A3AAA3BBA3DF91CF911F917C
:102330000F9108950F931F93CF93DF93DC01559670
:10234000EC915597E23071F0E330E9F0E13079F546
:10235000FB0114960D90BC91A02DA41BB50BA21BE4
:10236000B30B18C0EC01EC81FD81E61BF70BBF013C
:1023700061507109EE81FF81DF01A41BB50BAD0136
:10238000421B530B14C0DA01EC01EE81FF81E61B06
:10239000F70B3197F7FD0DC0EC014E815F81E4171B
:1023A000F5073CF4AF01BD010E941C1B02C00E9456
:1023B000831BDF91CF911F910F9108950F931F936E
:1023C000DC015596EC915597E23061F0E33009F16C
:1023D000E13081F51496ED91FC911597E41BF50B16
:1023E000319723C0DC011496ED91FC911597DF0124
:1023F000A61BB70BBD01DC011696ED91FC9117975A
:10240000DF01A41BB50BAD0141505109621B730BD9
:1024100011C0FA01DC0116964D915C911797DA0113
:10242000A61BB70BBD01621B730BAB01BF010E9462
:10243000831B0CC057FD0AC0DC011696ED91FC9180
:1024400017974E175F0714F40E941C1B1F910F91E2
:102450000895EF92FF920F931F93CF93DF93EC01B8
:102460007B018A0188819981009729F02A813B812B
:1024700024173507F8F4B8016F5F7F4F0E944B3087
:10248000009759F0998388831B830A832C813D81AF
:10249000232B81F4FC0110820DC088819981009763
:1024A00011F00E94C22F198218821D821C821B8289
:1024B0001A8207C01D830C83B701888199810E940D
:1024C0002631CE01DF91CF911F910F91FF90EF90B8
:1024D0000895CF93DF93EC016115710559F0FB016D
:1024E00001900020E9F73197AF01461B570B0E947E
:1024F00029120CC088819981009711F00E94C22F87
:10250000198218821D821C821B821A82CE01DF91E1
:10251000CF9108956115710579F0FB0101900020BC
:10252000E9F73197AF01461B570BDC01ED91FC91A8
:102530000280F381E02D099480E090E008951F92DD
:102540000F920FB60F9211242F933F934F935F93E7
:102550006F937F938F939F93AF93BF93EF93FF936B
:1025600087EC93E00E947E0EFF91EF91BF91AF91B7
:102570009F918F917F916F915F914F913F912F919B
:102580000F900FBE0F901F9018951F920F920FB6CD
:102590000F9211242F938F939F93EF93FF93E091CA
:1025A000D703F091D8038081E091DD03F091DE0341
:1025B00082FD12C090818091E0038F5F8F73209124
:1025C000E103821751F0E091E003F0E0E953FC4FA2
:1025D000958F8093E00301C08081FF91EF919F91DF
:1025E0008F912F910F900FBE0F901F9018951F92F3
:1025F0000F920FB60F9211242F933F934F935F9337
:102600006F937F938F939F93AF93BF93EF93FF93BA
:10261000E091B602F091B702309709F451C0968D5F
:10262000A685B785858591FF04C09C91892329F4EF
:1026300047C09C91892309F043C0A389B4899C9128
:102640008589809589238C93868997890197F1F7ED
:10265000608D718DA685B785558538E020E0CB016A
:102660000197F1F7822F90E095958795282F4C914F
:10267000452309F02068315091F7868D81FD209522
:102680008091B50290E001968F7399273091B40242
:10269000381749F0A091B502B0E0AA5EBC4F2C9368
:1026A0008093B50203C0868D8160868F828D938D65
:1026B0000197F1F7A389B4899C918589892B8C9323
:1026C000FF91EF91BF91AF919F918F917F916F910A
:1026D0005F914F913F912F910F900FBE0F901F90E0
:1026E000189508958EBD00000DB407FEFDCF8EB580
:1026F00008951F93CF93DF93FC01848D958D0097F0
:1027000001F1162FEF0160A10E94180B8C8D9D8D99
:10271000DC01ED91FC910190F081E02D60E00995E4
:102720008C8D9D8DDC01ED91FC910190F081E02D6F
:10273000612F09958C8D9D8DDF91CF911F910C9408
:10274000381CA4A5B5A59C9182A9809589238C935A
:10275000828D938D892B31F0862FDF91CF911F9140
:102760000C94721328E030E080E8A0A5B1A590A9F0
:10277000462F482319F04C91942B03C04C9190950F
:1027800094239C93A2A5B3A54C9191A9942B9C93BF
:10279000A2A5B3A54C9191A9909594239C9386955D
:1027A0002150310911F7DF91CF911F9108958CBD10
:1027B0009DBD08951F93CF93DF93EC01162F8C8D51
:1027C0009D8D892BB1F02EA93FA948AD59AD60E090
:1027D00074E284EF90E00E94A02DDA01C9014097D5
:1027E000A109B109B695A795979587958093B800EB
:1027F0000FC08A8D9B8D892B21F08CA99DA90E94E9
:10280000D713EEA5FFA590818BA98095892380839E
:10281000111102C066EA01C067EACE010E94791375
:102820008C8D9D8D892BB1F02AAD3BAD4CAD5DAD4E
:1028300060E074E284EF90E00E94A02DDA01C9010B
:102840004097A109B109B695A7959795879580936B
:10285000B80006C0EEA5FFA590818BA9892B8083C7
:10286000DF91CF911F910895DF92EF92FF920F9326
:102870001F93CF93DF93D82ED92FC62F80918B052E
:1028800090918C05009709F44EC060918F050E94CD
:10289000180B80918B0590918C05DC01ED91FC91DA
:1028A0000190F081E02D60E00995ED2CFD2E11E006
:1028B00080918B0590918C05CC2361F11032B8F09A
:1028C0000E94381C60918F0580918B0590918C053A
:1028D0000E94180B80918B0590918C05DC01ED9185
:1028E000FC910190F081E02D60E0099511E080916C
:1028F0008B0590918C05F7016491DC01ED91FC91C1
:102900000190F081E02D09951F5FC150BFEFEB1AD8
:10291000FB0ACECFDF91CF911F910F91FF90EF90E7
:10292000DF900C94381CE0919B05F0919C05908100
:102930008091A1058095892380830D2D1D2FCC23A7
:1029400009F439C0F80184912091890530918A05F4
:10295000232B31F00E947213C1500F5F1F4FEFCF36
:1029600028E030E040E8E0919705F09198059091DB
:102970009F05582F542319F05081952B03C0508187
:10298000909595239083E0919905F0919A05508157
:102990009091A005952B9083E0919905F0919A056F
:1029A00050819091A0059095952390834695215054
:1029B0003109C9F6D1CFDF91CF911F910F91FF90CF
:1029C000EF90DF9008952F923F924F925F926F9217
:1029D0007F928F929F92AF92BF92CF92DF92EF92AF
:1029E000FF920F931F93CF93DF93CDB7DEB7A497DA
:1029F0000FB6F894DEBF0FBECDBF4B015C019B014B
:102A0000AC010E94252F882319F060EA72E01AC0F9
:102A100075016401E894F7F82FEF3FEF4FE75FE7A8
:102A2000C701B6010E94252F811112C02FEF3FEF81
:102A30004FE75FE7C701B6010E94132C181644F454
:102A400064EA72E08FE695E00E948A128C01B3C0BE
:102A50002FEF3FEF4FE75FE4C501B4010E94202F45
:102A600018161CF468EA72E0EDCF2FEF3FEF4FE746
:102A70005FECC501B4010E94132C87FDF3CF20E069
:102A800030E0A901C501B4010E94132C87FF0BC0DF
:102A90006DE28FE695E00E94DA086C01B7FAB09417
:102AA000B7F8B09402C0C12CD12C2AE037ED43EA2C
:102AB0005BE3C501B4010E940C2E4B015C010E9436
:102AC000F12E2B013C010E94182C9B01AC01C50189
:102AD000B4010E940B2E4B015C0119A27E0181E220
:102AE000E80EF11CEAA2FBA2C301B2012AE030E029
:102AF00040E050E00E94A02D29013A01605DF701FD
:102B000062937F01232B242B252B71F7BF018FE6C6
:102B100095E00E948A128C016EE28FE695E00E9499
:102B2000DA08800F911F8C010C0D1D1D83E0F82E1B
:102B30009AE0292E312C412C512CFA94FF20D9F106
:102B400020E030E040E251E4C501B4010E94792C5C
:102B50004B015C010E94F12E9B0140E050E019A264
:102B60006AA07BA06CA3C32ED42EE52ECA01B901A6
:102B7000A20191010E94A02D605DF30162933F01CB
:102B8000211531054105510589F7BF018FE695E013
:102B90000E948A12080F191F6CA17C2D8D2D9E2D6D
:102BA0000E94182C9B01AC01C501B4010E940B2EA0
:102BB0004B015C01C2CF6DEA71E08FE695E00E94A7
:102BC0008A12800F911FA4960FB6F894DEBF0FBE35
:102BD000CDBFDF91CF911F910F91FF90EF90DF90CC
:102BE000CF90BF90AF909F908F907F906F905F90AD
:102BF0004F903F902F900895CF93DF93FC01448135
:102C00005581608171818FE695E00E940D0EEC0187
:102C10006DEA71E08FE695E00E948A128C0F9D1F8D
:102C2000DF91CF9108952091750530917605C90106
:102C3000079697FD079623E0959587952A95E1F7E6
:102C40002091730530917405829FA001839F500DE0
:102C5000929F500D112460E070E080918D0590915D
:102C60008E050C941F31CF93DF93BC0184E495E073
:102C70000E948A12EC016DEA71E084E495E00E9402
:102C80008A128C0F9D1FDF91CF910895CF92DF9212
:102C9000EF92FF92DC01A03282E0B8070CF03EC058
:102CA000B7FD06C0A53BB1052CF0A4EBB0E002C017
:102CB000A0E0B0E080912A0528E830E06901C81A58
:102CC000D10887FDD394CC0CDD1CCC0CDD1C0D2C65
:102CD000000CEE08FF0880912B0528E532E0281B48
:102CE000310987FD3395220F331F220F331FA901AE
:102CF000330F660B770B9A01AB012C193D094E0976
:102D00005F090E94612D24EB30E040E050E00E941A
:102D1000372DC20ED31EE41EF51ED6019091290553
:102D20009C3098F580912A0548E850E0481B5109ED
:102D300087FD5395440F551F440F551FA417B50722
:102D40008CF080912B0528E532E0281B310987FDA6
:102D50003395220F331F220F331FAD012A173B0774
:102D60000CF4A90142505109440F551F2FB7F89494
:102D7000892F90E0FC01EE0FFF1F8E0F9F1FFC01BB
:102D8000EC59FB4F528341832FBFFF90EF90DF90B0
:102D9000CF9008950F931F93CF93DF93082F162F93
:102DA000C8E3D5E06B818C819D810E94180B8C81DA
:102DB0009D81DC01ED91FC910190F081E02D602F6F
:102DC00009958C819D81DC01ED91FC910190F08150
:102DD000E02D612F09958C819D810E94381C81E036
:102DE000DF91CF911F910F910895E8E3F5E082877D
:102DF0009387682F8DE390E00E94CA166EE170E021
:102E000080E090E00C94421D9091A2039111FCCFC0
:102E100091E09093A2039093A1032FEF2093A0033E
:102E200010929F03260F20939E0390937D03909111
:102E30007D03880F892B80937D0380917C038130F3
:102E400061F410927C0380917D038093BB0080919C
:102E5000BC0083FDF8CF85EC01C085EE8093BC00FB
:102E60008091A2038130E1F380919F03861710F4D3
:102E700060919F03AEE7B3E0ECE5F3E080E08617F6
:102E800021F09D9191938F5FFACF0895CF93DF93B7
:102E9000C8E3D5E06B818C819D810E94180B8C81E9
:102EA0009D81DC01ED91FC910190F081E02D60E0CD
:102EB00009958C819D810E94381C61E08B810E9464
:102EC000041710925B0380935A038C819D81DC016F
:102ED000ED91FC910284F385E02D0995DF91CF916E
:102EE000089510925B0310925A031092A40310925B
:102EF000C6031092A20381E08093A10310927C0389
:102F000061E082E10E94B91C61E083E10E94B91C8A
:102F1000E9EBF0E080818E7F808380818D7F8083EC
:102F200088E48093B80085E48093BC0085EB95E04D
:102F3000909359038093580386EB95E09093570341
:102F40008093560308953F924F925F926F927F92C3
:102F50008F929F92AF92BF92CF92DF92EF92FF92A9
:102F60000F931F93CF93DF9300D000D000D0CDB745
:102F7000DEB72C013B014A015901C901079697FDB3
:102F800007969C0193E0359527959A95E1F73C8348
:102F90002B83C12CD12CE12CF12C312CC3018E0DB3
:102FA0009F1D9A838983E016F106C4F51E821D8257
:102FB0002D813E812A153B054CF5C9018770992763
:102FC000892B11F0330C0EC0ED81FE81F7FD379691
:102FD00083E0F595E7958A95E1F7EC0DFD1DE80D89
:102FE000F91D349037FE0CC021E030E049815A8150
:102FF0006D817E81640D751D8FE695E00E941C0831
:103000008D819E8101969E838D83D2CF9FEFE91A99
:10301000F90A2B813C81C20ED31EC0CF26960FB673
:10302000F894DEBF0FBECDBFDF91CF911F910F91FE
:10303000FF90EF90DF90CF90BF90AF909F908F90D8
:103040007F906F905F904F903F9008954F925F9266
:103050006F927F928F929F92AF92BF92CF92DF92A8
:10306000EF92FF920F931F93CF93DF9300D000D086
:10307000CDB7DEB74B015C0129013A016701780148
:1030800020E030E0A9010E94132C87FDA6C020E0BB
:1030900030E0A901C301B2010E94132C87FD9DC03D
:1030A00020E030E0A901C701B6010E94132C87FD82
:1030B00094C081E02091FF0430910005213031055A
:1030C00009F080E0809320058092E5049092E60468
:1030D000A092E704B092E8044092E9045092EA0416
:1030E0006092EB047092EC04C092ED04D092EE0476
:1030F000E092EF04F092F0046091130570911405D2
:1031000080911505909116050E94182C20E030E062
:103110004AE754E40E94782E69837A838B839C83E8
:103120008092F1049092F204A092F304B092F4041D
:103130009B01AC01C301B2010E94792C2B013C011F
:103140006093F5047093F6048093F7049093F80469
:1031500029813A814B815C81C701B6010E94782E9A
:103160006B017C016093F9047093FA048093FB0473
:103170009093FC048091FD049091FE04019769F501
:10318000A501940160E070E0CB010E940B2E6093DA
:10319000F1047093F2048093F3049093F404A30178
:1031A000920160E070E0CB010E940B2E6093F50469
:1031B0007093F6048093F7049093F804A7019601A6
:1031C00060E070E0CB010E940B2E6093F9047093D5
:1031D000FA048093FB049093FC040F900F900F90DF
:1031E0000F90DF91CF911F910F91FF90EF90DF90A3
:1031F000CF90BF90AF909F908F907F906F905F9097
:103200004F9008952F923F924F925F926F927F92CC
:103210008F929F92AF92BF92CF92DF92EF92FF92E6
:103220000F931F93CF93DF93CDB7DEB76B970FB696
:10323000F894DEBF0FBECDBF9B8F8A8F5B011A0152
:10324000D22E1F830E833701C982DC0158962D913F
:103250003C9159972115310509F0E6C018968D91DA
:103260009C911997681779070CF0CDC11A968D912A
:103270009C911B97481759070CF0C5C18C2C912CB9
:10328000FB0126E0C29EE00DF11D1124FB87EA87B9
:103290001E161F060CF0B7C1A40183E0440F551F92
:1032A0008A95E1F75D874C87CA01820D931D181638
:1032B00019060CF0A8C157968C91811104C05FEAE1
:1032C0005D1508F4D394AA8DBB8DED91FC911197F7
:1032D0000284F385E02DCD010995B5E0DB9EC001A8
:1032E0001124F5013596FF87EE87BB82AA8225015E
:1032F0009C012A193B09398B288BA101485F5F4F3C
:103300005B8B4A8BE889F989E40DF51DED5AFA4F7C
:103310005491588761013D822C82888580FF13C0BB
:10332000AA8DBB8DED91FC91B981B13031F404844B
:10333000F585E02D2E813F8116C00684F785E02DAE
:10334000EE80FF801AC0EE81FF81E615F705F1F0EF
:10335000AA8DBB8DED91FC91B981B13051F40484FB
:10336000F585E02D9301A601B2018A8D9B8D09950B
:103370000DC00684F785E02D7301840194014C8112
:103380005D816A817B818A8D9B8D0995E885E695B3
:10339000E887FFEFCF1ADF0A2C813D81280D391D08
:1033A0003D832C834A895B89C416D50609F0B5CFC5
:1033B0005FEF451A550A8A819B81880D991D9B8371
:1033C0008A83AE85BF854A165B0609F09BCFEE81E6
:1033D000FF81E615F70509F4F4C0EA8DFB8DA081A5
:1033E000B181F981F13079F4B5016B5F7F4F50966F
:1033F000ED91FC915197830128E030E0A1018A8D85
:103400009B8D0995DEC06A857B85681979091E96B2
:10341000ED91FC911F9773010C851D859401A1010D
:103420008A8D9B8D0995CDC0F9013496E491DE1A01
:10343000F901329685919491B7E0DB9E800D911D44
:103440001124F901259134913B8B2A8BFC012591A4
:1034500034912901FC013296C490319634913E8713
:10346000329614913196D4904981423058F0612EB1
:10347000012E000C77088D2D0D2C000C990B9987CF
:10348000888704C019861886612C712CAA8DBB8D83
:10349000ED91FC9111970284F385E02DCD01099502
:1034A000B9818B2E912C689CC001699C900D789CF1
:1034B000900D1124FC01EA0DFB1DFD87EC871A829B
:1034C000712C612CE12F110FFF0B95012E0F3F1F67
:1034D0003B872A87AC0CB11CA5014E0F5F1F5F8B89
:1034E0004E8BC1018D0D911DD7FC9A95998F888FB8
:1034F0009E85691608F065C0862D90E0488559853F
:10350000480F591F489D9001499D300D589D300D21
:103510001124D101A20FB31FB98BA88BEC85FD85B7
:10352000FD83EC83AA84BB84DA80FA85DF1A288DB8
:10353000398D280F391F3D8B2C8B8D2D8A0D4E898F
:103540005F89A416B506C1F1877041F4C2010196E6
:10355000EA89FB89E40DF51D74902C0177FE21C0EA
:10356000AA8DBB8DED91FC91B981B13061F40484D9
:10357000F585E02D2E813F814C895D89B5018A8DCD
:103580009B8D09950EC00684F785E02DEE80FF80A7
:1035900084019401488959896C817D818A8D9B8D34
:1035A0000995770CEFEFAE1ABE0A2C813D81280DEC
:1035B000391D3D832C83C1CF3A813C0D3A836394FE
:1035C00097CFAA8DBB8DED91FC9111970688F78955
:1035D000E02DCD016B960FB6F894DEBF0FBECDBFC8
:1035E000DF91CF911F910F91FF90EF90DF90CF90DF
:1035F000BF90AF909F908F907F906F905F904F9013
:103600003F902F9009946B960FB6F894DEBF0FBED3
:10361000CDBFDF91CF911F910F91FF90EF90DF9081
:10362000CF90BF90AF909F908F907F906F905F9062
:103630004F903F902F9008950F931F93CF93DF9358
:1036400077FF04C0260F371F60E070E0DC0114969E
:10365000CD91DC911597FB01E20FF31FCE17DF0729
:103660001CF49E01261B370B121613060CF046C0E5
:10367000FA0157FD3796DF01E3E0B595A795EA9586
:10368000E1F7AC9FF001AD9FF00DBC9FF00D112450
:103690006E0F7F1FDC015E96ED91FC915F97E60F48
:1036A000F71F4770552781E090E001C0880F4A95C9
:1036B000EAF7482F0130110539F078F00230110592
:1036C000E9F42E0F3F1F13C02E0F3F1FE217F30721
:1036D000A9F08081842B8193F9CF80952E0F3F1F15
:1036E000E217F30759F0908198239193F9CFE217ED
:1036F000F30721F0808184278193F9CFDF91CF9167
:103700001F910F910895EF92FF920F931F93CF9304
:10371000DF93EC0177FDA5C0EC80FD806E157F0581
:103720000CF09FC057FF04C0240F351F40E050E04D
:103730008E819F81FA01E20FF31F8E179F071CF401
:103740009C01241B350B121613060CF08AC0922F15
:10375000842F8695869586958E9DD0018F9DB00D80
:1037600011246A0F7B1FAE8DBF8DA60FB71F477048
:10377000B1F188E0841B482F682F70E0FB01E55B06
:10378000FA4FE491281798F4621B71092FEF30E08B
:1037900002C0359527956A95E2F7E22301301105BD
:1037A00049F078F00230110509F05BC00EC001301D
:1037B000110519F48C91E82B0AC00130110508F0AD
:1037C00049C0E0958C91E82302C08C91E827EC93E6
:1037D000941708F446C02C813D81A20FB31FE92F36
:1037E000E41BE830F8F00230110561F48E2F9C9153
:1037F00090959C932C813D81A20FB31F88508830F7
:10380000B0F70FC081E00115110509F480E0819542
:103810009E2F8C932C813D81A20FB31F985098301E
:10382000C0F7E770EE23E9F0F0E0ED5BFA4FE491CA
:103830000130110539F048F00230110591F48C91F6
:10384000E82706C08C91E82B03C0E0958C91E82313
:10385000EC9307C00230110509F4B7CFAE0DBF1DC0
:10386000BECFDF91CF911F910F91FF90EF90089500
:103870003091C603313208F04BC08091A203811110
:10388000FCCF9091C50322E02093A20321E0209376
:10389000A1032FEF2093A00310929F0330939E0368
:1038A000E5EAF3E0AEE7B3E020E0321721F0419122
:1038B0004D932F5FFACF10927D0320917D03990FD6
:1038C000922B90937D0390917C03913061F4109240
:1038D0007C0390917D039093BB009091BC0093FD7D
:1038E000F8CF95EC01C095EE9093BC009091A203A7
:1038F0009230E1F39091A0039F3F79F08091A00373
:10390000803241F08091A003803331F084E005C023
:1039100081E003C082E001C083E01092A403109212
:10392000C6031092A30308953FB7F8948091B2059F
:103930009091B305A091B405B091B50526B5A89BAB
:1039400005C02F3F19F00196A11DB11D3FBFBA2F31
:10395000A92F982F8827820F911DA11DB11DBC0191
:10396000CD0142E0660F771F881F991F4A95D1F756
:10397000089590E0FC01E756F54F2491FC01E558CD
:10398000F54F3491FC01E959F54FE491EE2309F428
:103990003CC0222339F1233091F038F42130A9F0D2
:1039A000223001F584B58F7D12C0273091F0283088
:1039B000A1F02430B9F4809180008F7D03C0809104
:1039C00080008F77809380000DC084B58F7784BD91
:1039D00009C08091B0008F7703C08091B0008F7DC7
:1039E0008093B000F0E0EE0FFF1FE35AF54FA59172
:1039F000B4919FB7F894611104C08C91309538232D
:103A000002C0EC913E2B3C939FBF0895CF93DF9370
:103A100090E0FC01E558F54F2491FC01E959F54F80
:103A20008491882361F190E0880F991FFC01E15790
:103A3000F54FC591D491FC01E35AF54FA591B4918E
:103A4000611109C09FB7F8948881209582238883EB
:103A5000EC912E230BC0623061F49FB7F8948881FB
:103A6000322F309583238883EC912E2B2C939FBF8C
:103A700006C08FB7F894E8812E2B28838FBFDF9183
:103A8000CF9108958F929F92AF92BF92CF92DF9283
:103A9000EF92FF926B017C010E94941C4B015C0130
:103AA000C114D104E104F104F1F00E94941CDC0182
:103AB000CB0188199909AA09BB09883E9340A10541
:103AC000B10570F321E0C21AD108E108F10888EECF
:103AD000880E83E0981EA11CB11CC114D104E1041E
:103AE000F10419F7DDCFFF90EF90DF90CF90BF90FA
:103AF000AF909F908F9008952FB7F8946091AE0586
:103B00007091AF058091B0059091B1052FBF0895D8
:103B10001F920F920FB60F9211242F933F938F9302
:103B20009F93AF93BF938091AE059091AF05A09105
:103B3000B005B091B1053091AD0523E0230F2D37CD
:103B400020F40196A11DB11D05C026E8230F0296A1
:103B5000A11DB11D2093AD058093AE059093AF05D7
:103B6000A093B005B093B1058091B2059091B305D3
:103B7000A091B405B091B5050196A11DB11D80932A
:103B8000B2059093B305A093B405B093B505BF916A
:103B9000AF919F918F913F912F910F900FBE0F90FA
:103BA0001F901895CF93DF93CDB7DEB7E5970FB68B
:103BB000F894DEBF0FBECDBF789484B5826084BD1B
:103BC00084B5816084BD85B5826085BD85B5816021
:103BD00085BD80916E00816080936E00109281009F
:103BE000809181008260809381008091810081605A
:103BF000809381008091800081608093800080911B
:103C0000B10084608093B1008091B00081608093A6
:103C1000B00080917A00846080937A0080917A006D
:103C2000826080937A0080917A00816080937A002C
:103C300080917A00806880937A001092C10010927F
:103C40005F0510925E0510925D0510925C05109262
:103C50005B0510925A058DE991E090936105809380
:103C6000600590915005963108F058C02DEB30E07A
:103C700030935B0520935A052BE931E030935D05C5
:103C800020935C052CE231E030935F0520935E05C4
:103C900040916800983058F031E09E3008F430E0F0
:103CA00021E0822F01C0880F3A95EAF701C084E035
:103CB000842B80936800983038F09E3040F0963125
:103CC00048F020E030E008C02DE630E005C02BE6EB
:103CD00030E002C02CE630E03093580520935705C1
:103CE000983030F481E001C0880F9A95EAF70EC051
:103CF000292F30E09E3018F42850310902C02E5090
:103D0000310981E001C0880F2A95EAF780935905AF
:103D100080916005909161050197F1F780915E05B2
:103D200090915F05892B49F1E091B602F091B702BD
:103D300045E0E434F40709F1309739F0A389B489F8
:103D40009C918589809589238C93809162058E7FD3
:103D5000809362051092B5021092B40284E495E05B
:103D60009093B7028093B602E0915705F091580501
:103D7000908180915905892B80838AE891E00E9487
:103D8000331662E082E00E94061D6BE971E084E474
:103D900095E00E948A1280918D0590918E05892B65
:103DA000C1F52091750530917605C901079697FDFB
:103DB0000796B3E095958795BA95E1F7209173053D
:103DC00030917405DC01A29FC001A39F900DB29FAA
:103DD000900D11240E942A2F90938E0580938D05BB
:103DE000892BB9F404E215E0F8016491611107C070
:103DF0006DEA71E084E495E00E948A1209C084E4CF
:103E000095E00E94320F0F5F1F4F892B69F7F0CFAB
:103E1000FFCF0E9413162091750530917605809191
:103E200073059091740521323105A4F0B9016054F5
:103E3000710977FF02C06F5F7F4F75956795825557
:103E4000910997FD019600E410E022E530E044E698
:103E500052E013C0B9016052710977FF02C06F5F71
:103E60007F4F759567958357910997FD019600E2FD
:103E700010E023E730E044E850E0959587950E94F4
:103E8000A31782E08093900580918B0590918C051B
:103E9000892B31F08CE380938F050E947117BEC08F
:103EA00061E0809194050E94061D61E08091950576
:103EB0000E94061D80919405082E000C990BFC01B0
:103EC000E959F54FE491F0E0EE0FFF1FE35AF54F8B
:103ED0002591349130939C0520939B05FC01E55876
:103EE000F54FE491E093A10580919505082E000C13
:103EF000990BFC01E959F54FE491F0E0EE0FFF1F3B
:103F0000E35AF54FA591B491B0939E05A0939D05FA
:103F1000FC01E558F54FE491E093A2058C91E82B64
:103F2000EC938091890590918A05892B09F434C01E
:103F30001FB7F8948091D102811127C0E1E7FAE020
:103F40008491E5E8FAE09491E82FF0E0EE0FFF1F8E
:103F5000E157F54FA591B491EC91E92321F461E08B
:103F60008AE00E94B91C61E08AE00E94061D8CB5BF
:103F700080618CBD8CB580648CBD61E08DE00E9459
:103F8000061D61E08BE00E94061D8091D1028F5FCB
:103F90008093D1021FBF42C061E0809192050E94D0
:103FA000061D61E0809193050E94061D8091920597
:103FB000082E000C990BFC01E959F54FE491F0E053
:103FC000EE0FFF1FE35AF54F25913491309398057A
:103FD00020939705FC01E558F54FE491E0939F0588
:103FE00080919305082E000C990BFC01E959F54FBF
:103FF000E491F0E0EE0FFF1FE35AF54FA591B49165
:10400000B0939A05A0939905FC01E558F54FE4910A
:10401000E093A0058C91E095E823EC9380919605C0
:1040200087FD1EC061E00E94061D61E0809196053B
:104030000E94B91C61E070E080E090E00E94421DA7
:1040400060E0809196050E94B91C6AE070E080E013
:1040500090E00E94421D61E0809196050E94B91C8B
:1040600080918B0590918C05892BD1F02091A5052D
:104070003091A6054091A7055091A80560E074E233
:1040800084EF90E00E94A02DDA01C9014097A109B8
:10409000B109B695A795979587958093B80016C0F6
:1040A0008091890590918A05892B31F08091A30533
:1040B0009091A4050E94D713E0919D05F0919E0573
:1040C00090818091A20580958923808364E080E8B7
:1040D00090E00E9434146091750561508FE695E080
:1040E0000E94791364E08CE790E00E943414809180
:1040F0009005813011F064E101C060E18FE695E048
:104100000E94791364E088E790E00E943414809163
:1041100073059091740580389105E9F480917505D7
:10412000909176058032910531F464E084E790E067
:104130000E94341429C08034910531F563E081E791
:1041400090E00E94341480919005813011F06FEC62
:1041500017C06FE915C080369105B1F480917505DF
:1041600090917605409781F463E08EE690E00E949E
:10417000341480919005813011F06FEA01C060E144
:104180008FE695E00E94791369ED8FE695E00E9435
:10419000791380919005813011F061EF01C062E2E6
:1041A0008FE695E00E94791366E088E690E00E9431
:1041B000341480918B0590918C05892BD1F020913E
:1041C000A9053091AA054091AB055091AC0560E07E
:1041D00074E284EF90E00E94A02DDA01C9014097BB
:1041E000A109B109B695A795979587958093B800D1
:1041F00011C0E0919D05F0919E0590818091A205EE
:10420000892B80838091890590918A05892B11F0F3
:104210000E94711364E372E082E395E00E946912E8
:104220000E94220B80EC91E00E94331689E392E019
:104230000E94080E0E94220BE091D703F091D80350
:1042400082E08083E091D303F091D4031082E09167
:10425000D503F091D60380E180831092DF03E091D3
:10426000DB03F091DC0386E08083E091D903F091D9
:10427000DA03808180618083E091D903F091DA03D1
:10428000808188608083E091D903F091DA03808196
:1042900080688083E091D903F091DA0380818F7D7B
:1042A000808385E492E00E94080E0E94220B6EE457
:1042B00072E084E495E00E948A120E9471170E94C5
:1042C0004617803A59F068EE73E080E090E00E9473
:1042D000421D0E944617803A09F016C680E090E021
:1042E0000E94F51660E28FE390E00E94CA160E94D9
:1042F0004617803A39F06AE070E080E090E00E9472
:10430000421DF5CF62E370E080E090E00E94421D24
:1043100060E08EE390E00E94CA166AE070E080E000
:1043200090E00E94421D60E087E090E00E94CA1683
:1043300060E08FE390E00E94CA166AE070E080E0DF
:1043400090E00E94421D8CE090E00E94F51664E12E
:1043500070E080E090E00E94421D68EE73E080E033
:1043600090E00E94421D009142051091430580E0BB
:1043700090E00E94F51669E170E080E090E00E9414
:10438000421D60E087E090E00E94CA1660E88FE37B
:1043900090E00E94CA166AE070E080E090E00E941F
:1043A000421DC8010E94F51664E170E080E090E0D3
:1043B0000E94421D80EB91E00E94080E0E94220B99
:1043C00080EC91E00E94331663EC71E084E495E0A8
:1043D0000E948A12809129058C3008F051C061E05A
:1043E00086E00E94061D80912905E82FF0E09F01DC
:1043F000220F331FE20FF31FEC59FB4F9081907C8B
:104400009660908310922A0510922B056CE00E9412
:10441000D12DFCE08F9FB001112440E050E09B01C2
:10442000240F351FF901EE0FFF1F2E0F3F1FF9015B
:10443000EC59FB4F908196FD16C04F5F5F4F4C309B
:10444000510569F781110FC01092800082E08093BE
:1044500081001092850010928400B19A80916F00C3
:10446000826080936F00E0912905F0E0CF01880F12
:10447000991FE80FF91FEC59FB4F808180648083FE
:104480008AE590E00E94461680EC91E00E94331687
:1044900064ED71E084E495E00E948A121092E104D8
:1044A0001092E2041092E3041092E4041092D904F2
:1044B0001092DA041092DB041092DC04412C512C8F
:1044C00094EB692E92EC792E4092170550921805C4
:1044D0006092190570921A05C12CD12C24EBE22EA2
:1044E00022E4F22EC0921B05D0921C05E0921D051D
:1044F000F0921E0580911F0500910305109104059F
:10450000D8018D909D90AD90BC90882309F44FC048
:10451000A7019601C501B4010E94202F181634F49A
:10452000F801C082D182E282F38210C020E030E044
:1045300044EB52ECC501B4010E94132C87FF06C066
:10454000D8014D925D926D927C92139780900B05ED
:1045500090900C05A0900D05B0900E05C0901B0525
:10456000D0901C05E0901D05F0901E05A701960156
:10457000C501B4010E94202F181684F0C0901705C1
:10458000D0901805E0901905F0901A05A701960142
:10459000C501B4010E94132C87FF3DC0C0920B05DA
:1045A000D0920C05E0920D05F0920E0534C0809279
:1045B0000B0590920C05A0920D05B0920E05E091AE
:1045C0000105F091020580819181A281B3818093E0
:1045D0000F0590931005A0931105B093120520E0EC
:1045E00030E044EB52E4C501B4010E94202F1816BC
:1045F000ACF220E030E044EB52ECC501B4010E9483
:10460000132C87FF08C040920B0550920C05609256
:104610000D0570920E0581E080931F0560911305D2
:104620007091140580911505909116050E94182C23
:104630009B01AC0160E070E088E493E40E94782E76
:104640006B017C019B01AC016091F5047091F60453
:104650008091F7049091F8040E94792C6093F504FE
:104660007093F6048093F7049093F804A7019601E1
:104670006091F9047091FA048091FB049091FC041C
:104680000E94782E6093F9047093FA048093FB04DF
:104690009093FC0488EC90E0A0E0B0E080931305D8
:1046A00090931405A0931505B093160580EC91E046
:1046B0000E94331662EE71E084E495E00E948A1253
:1046C00010928A041092890410928C0410928B0428
:1046D00010928E0410928D048FE894E02091B20421
:1046E0003091B30429583440B1F029E834E03093D4
:1046F000B3042093B20490938A04809389041092A7
:10470000AF041092AE041092B1041092B0049093D2
:104710008C0480938B048FE894E00E94512884EBF2
:1047200094E02091D7043091D8042958344049F1BD
:1047300029E834E03093D8042093D70420918904E9
:1047400030918A04232B49F490938A04809389043E
:104750001092D4041092D3040AC0E0918B04F0911B
:104760008C04F093D404E093D30492A381A3109219
:10477000D6041092D50484EB94E090938C0480933B
:104780008B0484EB94E00E94512880EC91E00E941D
:1047900033168BEF91E00E9433166BE072E082E3F8
:1047A00095E00E9469128FEA91E00E94080E80E86D
:1047B000482E8EE3582E612C712C809189049091A3
:1047C0008A0490938E0480938D04E0918D04F0917F
:1047D0008E04309709F475C001A112A1808180FF79
:1047E0006BC085859685A785B089892B8A2B8B2BF5
:1047F00069F4908180818E7F808380818D7F80832A
:1048000090FF5AC0CF010E94BC0D56C00E947C1D73
:10481000E0918D04F0918E04218132814381548195
:1048200081849284A384B484C580D680E780F08498
:10483000DC01CB0188199909AA09BB098C159D05D2
:10484000AE05BF05C8F185859685A785B089181680
:1048500019061A061B065CF485859685A785B0891E
:104860000197A109B10985879687A787B08B8589AC
:104870009689A789B08D0196A11DB11D858B968B58
:10488000A78BB08FC580D680E780F0848185928524
:10489000A385B4858C0D9D1DAE1DBF1D818792879C
:1048A000A387B4872583368347835087018CF28D95
:1048B000E02D309709F0099510938E0400938D0434
:1048C00084CF87EC93E00E94680E03970CF457C1E5
:1048D00087EC93E00E94460E803491050CF04FC1A6
:1048E0008130910509F062C00E94DD0D6B017C01F1
:1048F00020E030EC49E754EC0E94132C882321F18E
:10490000C701B6010E94EA2E9B01AC01A0E5B6E406
:104910000E94562DA30192010E94372DCA01B901B0
:1049200068527342810991090E941A2C20E030E0FC
:1049300048EC52E40E94782E6093C5027093C60240
:104940008093C7029093C8020E94DD0D6B017C0129
:1049500020E030EC49E754EC0E94132C882309F442
:104960000EC1C701B6010E94EA2E9B01AC01A0E571
:10497000B6E40E94562DA30192010E94372DCA0170
:10498000B90168527342810991090E941A2C20E0F2
:1049900030E048EC52E40E94782E6093BD027093A0
:1049A000BE028093BF029093C002E9C0823091059D
:1049B00009F04AC00E94DD0D0E94EA2E9B01AC0165
:1049C000A0E1B7E20E94562DA30192010E94372D6B
:1049D000CA01B9010E941A2C20E030E048EC52E4F0
:1049E0000E94782E6093020170930301809304016A
:1049F0009093050183E192E00E94080E609102010C
:104A00007091030180910401909105016093B902B6
:104A10007093BA028093BB029093BC02E09025058C
:104A2000F090260500912705109128052091210579
:104A30003091220540912305509124050E942618AB
:104A4000F1E0F093B8029BC08330910509F04AC0B1
:104A50000E94DD0D0E94EA2E9B01AC01A0E1B7E2AD
:104A60000E94562DA30192010E94372DCA01B9015F
:104A70000E941A2C20E030E048EC52E40E94782E8C
:104A8000609321057093220580932305909324055C
:104A90008AE192E00E94080E2091210530912205C2
:104AA00040912305509124052093B9023093BA0216
:104AB0004093BB025093BC02E0902505F090260580
:104AC0000091270510912805609102017091030162
:104AD00080910401909105010E94261841E04093C5
:104AE000B8024DC08430910509F013C20E94DD0D5B
:104AF0000E94EA2E9B01AC01A0E1B7E20E94562D74
:104B0000A30192010E94372DCA01B9010E941A2CFB
:104B100020E030E048EC52E40E94782E60932505B6
:104B200070932605809327059093280581E292E0F3
:104B30000E94080EE0902505F090260500912705BB
:104B400010912805E092B902F092BA020093BB02DC
:104B50001093BC022091210530912205409123053C
:104B6000509124056091020170910301809104012C
:104B7000909105010E94261851E05093B802BE01A1
:104B80006F5F7F4F88E395E00E947A10C98CDA8CC2
:104B9000EB8CFC8C2091CD023091CE024091CF0263
:104BA0005091D002C701B6010E94132C811110C090
:104BB0002091C9023091CA024091CB025091CC029F
:104BC0006D8D7E8D8F8D98A10E94132C8823E1F02E
:104BD000C092CD02D092CE02E092CF02F092D002EB
:104BE0008D8D9E8DAF8DB8A18093C9029093CA021E
:104BF000A093CB02B093CC02C092E104D092E20425
:104C0000E092E304F092E4048091C5029091C60220
:104C1000A091C702B091C8028093D9049093DA049E
:104C2000A093DB04B093DC0480911F05882309F472
:104C30004DC10E947C1D6DA77EA78FA798AB809168
:104C4000070590910805A0910905B0910A054DA5A9
:104C50005EA56FA578A9481B590B6A0B7B0B809149
:104C6000130590911405A0911505B09116054817EC
:104C700059076A077B0708F429C1E0910105F09103
:104C8000020580819181A281B38189A79AA7ABA7F0
:104C9000BCA7E0910505F09106059C01AD0160817E
:104CA0007181828193810E940B2E4B015C012091C6
:104CB0000F0530911005409111055091120569A51D
:104CC0007AA58BA59CA50E940B2E6B017C012091DF
:104CD000F5043091F6044091F7045091F804C501B1
:104CE000B4010E94792C20910B0530910C05409164
:104CF0000D0550910E050E940C2E6DA37EA38FA36F
:104D000098A760930B0570930C0580930D05909305
:104D10000E059091200599AB91111CC02091F104D2
:104D20003091F2044091F3045091F404C701B601AC
:104D30000E94792C9B01AC016DA17EA18FA198A549
:104D40000E940B2E60930B0570930C0580930D054C
:104D500090930E0580910B0590910C05A0910D0587
:104D6000B0910E058DA39EA3AFA3B8A710911B050C
:104D700000911C0530901D0520901E05212F302F1D
:104D8000432D522DBC01CD010E94202F18162CF46A
:104D9000812F902FA32DB22D1AC0809117059091CD
:104DA0001805A0911905B0911A058AAB9BABACAB65
:104DB000BDAB9C01AD016DA17EA18FA198A50E9404
:104DC000132C87FF0CC08AA99BA9ACA9BDA980930D
:104DD0000B0590930C05A0930D05B0930E0599A9B2
:104DE000992379F02091F1043091F2044091F30479
:104DF0005091F404C501B4010E94792C4B015C016F
:104E000003C0812C912C54012091F9043091FA04B3
:104E10004091FB045091FC04C701B6010E94792C1B
:104E20009B01AC0160910B0570910C0580910D0503
:104E300090910E050E940B2EA50194010E940C2E4C
:104E40006B017C019B01AC01612F702F832D922D92
:104E50000E94132C87FD16C01091170500911805AC
:104E60003090190520901A05212F302F432D522DF7
:104E7000B601C7010E94132C87FD04C01C2D0D2D07
:104E80003E2C2F2CE0910305F0910405812F902FEB
:104E9000A32DB22D80839183A283B38389A59AA584
:104EA000ABA5BCA580930F0590931005A0931105A9
:104EB000B09312058DA59EA5AFA5B8A9809307054F
:104EC00090930805A0930905B0930A052091DD048D
:104ED0003091DE044091DF045091E0042093C10240
:104EE0003093C2024093C3025093C40260E070E06A
:104EF00084EB92E40E940B2E0E94EA2ECB010E94CA
:104F000046160E940F0F59CC8CE592E00E94331692
:104F1000FFCF059709F033CE0E94DD0D6B017C01B8
:104F200020E030EC49E754EC0E94132C8823F1F088
:104F3000C701B6010E94EA2E9B01AC01A8E2B3E2D0
:104F40000E94562DA30192010E94372DCA01B9017A
:104F50000E941A2C20E030E048EC52E40E94782EA7
:104F60000E94EA2E709301016093000188E292E0B2
:104F70000E94080E6091000170910101072E000C43
:104F8000880B990B0E941A2C6093B9027093BA0295
:104F90008093BB029093BC0281E08093B802EFCD76
:104FA000CF93DF93EC01988188818E7F88838881FD
:104FB0008D7F888390FF03C0CE010E94BC0D8BA122
:104FC0009CA1009769F11CA21BA2EF8DF8A1A9A1D9
:104FD000BAA1309799F4109749F4DC0111961C920C
:104FE0001E9213961C921E9212971AC090961C92B3
:104FF0001E925F97FC01B183A08312C0109741F409
:1050000012A211A2DC011396FC93EE93129708C032
:10501000B2A3A1A3A9A1BAA19096FC93EE935F9726
:10502000DF91CF9108958FE894E00E94D02784EB20
:1050300094E00E94D02780912C0590912D050E942C
:10504000C22F80913205909133050E94C22F84E3D4
:1050500091E090934505809344058091B60290912C
:10506000B7028454954071F4E0915705F0915805CA
:105070009081809159058095892380831092B70291
:105080001092B60286E491E09093700580936F05CC
:1050900080918D0590918E05009711F00C94C22F90
:1050A00008950F931F93CF93DF93FC01A3A1B4A1A5
:1050B0001097E9F1EC01158A168A178A108E038C75
:1050C000F48DE02D309779F1888181FD2CC0149604
:1050D0000D911C9115971596DC93CE9314978881AA
:1050E000826088830995988180FB90F998838881F4
:1050F0008D7F8883EBA1FCA1158304830E947C1D16
:1051000009811A812B813C810D831E832F8338876F
:10511000DC01CB01801B910BA20BB30B89879A8713
:10512000AB87BC8704C0888181608883E7CFDF912B
:10513000CF911F910F9108954F925F926F927F923E
:105140008F929F92AF92BF92CF92DF92EF92FF9297
:105150001092CA031092C90348EEC42E43E0D42E25
:10516000E12CF12CC092CB03D092CC03E092CD0382
:10517000F092CE0380E191E09093C8038093C7033F
:1051800085EC90E09093D4038093D30384EC90E07B
:105190009093D6038093D50380EC90E09093D8034E
:1051A0008093D70381EC90E09093DA038093D90346
:1051B00082EC90E09093DC038093DB0386EC90E03C
:1051C0009093DE038093DD031092E0031092E103DD
:1051D0001092E2031092E3031092660510926505A7
:1051E000C0926705D0926805E0926905F0926A0561
:1051F00082E291E0909364058093630510927205BA
:105200001092710520E830E0309374052093730507
:1052100080E290E090937605809375053093780551
:105220002093770590937A058093790510928405F1
:1052300010927C0510927B0510927E0510927D05E0
:1052400061E0609383058FEF9FEF909382058093D9
:1052500081059093800580937F056093850510926A
:105260008605109288051092870586E491E0909358
:10527000700580936F0510928A051092890583E668
:1052800095E090938C0580938B0510928E0510927B
:105290008D058FEF809392058093930580939405FD
:1052A0008093950584E08093960580E58093A3051F
:1052B0001092A40580E89AE1A6E0B0E08093A505ED
:1052C0009093A605A093A705B093A80580EA96E859
:1052D000A1E0B0E08093A9059093AA05A093AB0547
:1052E000B093AC051092470510924605C092480550
:1052F000D0924905E0924A05F0924B0584E391E093
:10530000909345058093440510925B0510925A05D1
:1053100010925D0510925C0510925F0510925E057B
:105320001092610510926005809162058E7F8D7FDD
:10533000809362058695817068278BE00E94B91C76
:1053400061E08BE00E94061DE6E8FAE0E491E0935C
:105350005405E2E7FAE0E491F0E0EE0FFF1FE35AB4
:10536000F54F85919491909356058093550560E093
:105370008AE00E94061D8091620581FD04C061E003
:105380008AE00E94B91C8AE080935005E5E8FAE0C3
:10539000E491E0935105E1E7FAE0E491F0E0EE0FEB
:1053A000FF1FED5AF54F859194919093530580938B
:1053B000520580E891E0909339058093380587E3A2
:1053C00090E0A0E0B0E080933E0590933F05A0936D
:1053D0004005B093410588E280933B0583E695E064
:1053E00090933D0580933C05109233051092320551
:1053F000109235051092340510923705109236053B
:1054000046E050E06CEA72E082E395E00E942912E7
:1054100010922D0510922C0510922F0510922E053A
:10542000109231051092300540E050E06FEA71E0D3
:105430008CE295E00E942912809188048C30A0F4BF
:1054400091E0980F909388048093290590E0FC01E7
:10545000EE0FFF1F8E0F9F1FFC01EC59FB4F88EBD7
:105460009BE09283818303C08FEF80932905C090D6
:105470002505D0902605E0902705F090280580901E
:10548000210590902205A0902305B090240540901E
:1054900002015090030160900401709005018DEDB0
:1054A00094E0909304058093030581EE94E090933B
:1054B00002058093010589ED94E0909306058093A1
:1054C000050510921F0510921705109218051092ED
:1054D000190510921A0580E090E0AFE7B3E48093DD
:1054E0001B0590931C05A0931D05B0931E0584E633
:1054F00090E0A0E0B0E08093130590931405A09392
:105500001505B09316051092FE041092FD0420E0DC
:1055100030E0A901C301B2010E94132C87FD5AC0DB
:1055200020E030E0A901C501B4010E94132C87FDE1
:1055300051C020E030E0A901C701B6010E94132C40
:1055400087FD48C081E090E0909300058093FF04C0
:10555000809320054092E5045092E6046092E704AF
:105560007092E8048092E9049092EA04A092EB041D
:10557000B092EC04C092ED04D092EE04E092EF04FD
:10558000F092F0044092F1045092F2046092F3041D
:105590007092F4042DEC3CEC4CEC5DE3C501B401DD
:1055A0000E94792C6093F5047093F6048093F704BD
:1055B0009093F8042DEC3CEC4CEC5DE3C701B60194
:1055C0000E94782E6093F9047093FA048093FB0490
:1055D0009093FC040E947C1DC0901305D09014058C
:1055E000E0901505F0901605DC01CB018C199D09A2
:1055F000AE09BF098093070590930805A09309059C
:10560000B0930A058091B4048E7F8093B404809196
:10561000B4048D7F8093B4041092BD041092BE0434
:105620001092BF041092C0041092B9041092BA04F0
:105630001092BB041092BC041092B5041092B604F0
:105640001092B7041092B8041092D4041092D304AC
:105650001092D6041092D5041092D8041092D70458
:105660001092C9041092CA041092CB041092CC0478
:1056700082EB99E09093CE048093CD041092D004F5
:105680001092CF041092D2041092D10484E190E0E1
:10569000A0E0B0E08093B5049093B604A093B70463
:1056A000B093B8048091B5049091B604A091B7046A
:1056B000B091B8048093B9049093BA04A093BB044A
:1056C000B093BC040E947C1D6093BD047093BE0423
:1056D0008093BF049093C004CC24CA94DC2C760140
:1056E000C092C104D092C204E092C304F092C404F8
:1056F000C092C504D092C604E092C704F092C804D8
:1057000080918F048E7F80938F0480918F048D7F92
:1057100080938F04109298041092990410929A0426
:1057200010929B0410929404109295041092960487
:105730001092970410929004109291041092920487
:10574000109293041092AF041092AE041092B10420
:105750001092B0041092B3041092B2041092A404F8
:105760001092A5041092A6041092A70482E29BE076
:105770009093A9048093A8041092AB041092AA04F9
:105780001092AD041092AC0488EC90E0A0E0B0E080
:105790008093900490939104A0939204B093930407
:1057A0008091900490919104A0919204B0919304FF
:1057B0008093940490939504A0939604B0939704D7
:1057C0000E947C1D609398047093990480939A04BE
:1057D00090939B04C0929C04D0929D04E0929E04FE
:1057E000F0929F04C092A004D092A104E092A2047F
:1057F000F092A30410928A041092890410928C04EF
:1058000010928B0410928E0410928D04FF90EF90F2
:10581000DF90CF90BF90AF909F908F907F906F90D0
:105820005F904F9008950E94552C08F481E00895F0
:10583000E89409C097FB3EF490958095709561952A
:105840007F4F8F4F9F4F9923A9F0F92F96E9BB27E0
:105850009395F695879577956795B795F111F8CF5C
:10586000FAF4BB0F11F460FF1BC06F5F7F4F8F4FC7
:105870009F4F16C0882311F096E911C0772321F0BD
:105880009EE8872F762F05C0662371F096E8862F55
:1058900070E060E02AF09A95660F771F881FDAF7AC
:1058A000880F9695879597F90895990F0008550FD9
:1058B000AA0BE0E8FEEF16161706E807F907C0F096
:1058C00012161306E407F50798F0621B730B840B9E
:1058D000950B39F40A2661F0232B242B252B21F478
:1058E00008950A2609F4A140A6958FEF811D811D18
:1058F00008950E948C2C0C94FD2C0E94EF2C38F003
:105900000E94F62C20F0952311F00C94E62C0C94B8
:10591000EC2C11240C94312D0E940E2D70F3959FC8
:10592000C1F3950F50E0551F629FF001729FBB2796
:10593000F00DB11D639FAA27F00DB11DAA1F649F32
:105940006627B00DA11D661F829F2227B00DA11DE5
:10595000621F739FB00DA11D621F839FA00D611D6B
:10596000221F749F3327A00D611D231F849F600D8C
:10597000211D822F762F6A2F11249F5750409AF0B5
:10598000F1F088234AF0EE0FFF1FBB1F661F771F41
:10599000881F91505040A9F79E3F510580F00C940C
:1059A000E62C0C94312D5F3FE4F3983ED4F38695BA
:1059B00077956795B795F795E7959F5FC1F7FE2BAC
:1059C000880F911D9695879597F9089597F99F6788
:1059D00080E870E060E008959FEF80EC0895002477
:1059E0000A941616170618060906089500240A9444
:1059F00012161306140605060895092E0394000CCA
:105A000011F4882352F0BB0F40F4BF2B11F460FF58
:105A100004C06F5F7F4F8F4F9F4F089557FD905881
:105A2000440F551F59F05F3F71F04795880F97FB62
:105A3000991F61F09F3F79F087950895121613061C
:105A40001406551FF2CF4695F1DF08C0161617064B
:105A50001806991FF1CF8695710561050894089580
:105A6000E894BB2766277727CB0197F90895052E81
:105A700097FB1EF400940E944E2D57FD07D00E9404
:105A8000A02D07FC03D04EF40C944E2D509540955C
:105A9000309521953F4F4F4F5F4F089590958095DA
:105AA000709561957F4F8F4F9F4F08950E94C22D33
:105AB000A59F900DB49F900DA49F800D911D112462
:105AC0000895B7FF0C94562D0E94562D821B930B00
:105AD00008952F923F924F925F926F927F928F9292
