:100000000C9447050C946F050C946F050C946F05C8
:100010000C946F050C946F050C946F050C946F0590
:100020000C946F050C946F050C946F050C94A21141
:100030000C946F050C946F050C946F050C946F0570
:100040000C94D81B0C946F050C9470110C944A11ED
:100050000C946F050C946F050C946F050C946F0550
:100060000C94B5070C946F05DB40A4A62EAFDA0202
:1000700081DA1281DA02818F2000A1C8D300408D7D
:10008000AED580A800006000000000000000000065
:100090000000000000E00000000000000000000080
:1000A00000000001E000000000000000000000006F
:1000B000000001F00000000000000000000000004F
:1000C0000003F0000000000000000000000000003D
:1000D00007F0000000000000000000000000000722
:1000E000F8000000000000000000000000000FF811
:1000F00000000003C0007E000001E0007F0FF80058
:10010000000003C000FE000001E000FFEFF8000067
:100110000003C000FE000001E000FFFFF800000047
:1001200003C000F00000000F007FFE7FC00000034E
:10013000C000F00000000F003FFE7FF83FF1FBCF52
:10014000FCFEF3BC3DEFE01FFE7FFF7FFBFFDFFE09
:10015000FEFFBC3DEFE01FC6FFFF7FFBFFDFFEFEA3
:10016000FFBC3DEFE00FE3C7FE787BC3DE1EF0FF70
:10017000BC3DEF0007FF87FC787BC3DE1EF0F83C38
:100180003DEF0001FFFFF0007BC3C01EF0F03C3DDF
:10019000EF0001F37FE03FFBC3CFFEF0F03C3DEF0B
:1001A0000003E33F807FFBC3DFFEF0F03C3DEF0048
:1001B00007E73C00787BC3DE1EF0F03C3DEF000714
:1001C000FFBE00787BC3DE1EF0F03C3DEF0007FF72
:1001D000FE00787BC3DE1EF0F03C3DEF000FFFFE1B
:1001E000007FFBFFDFFEF0F03FFDEFE00FFFFF00C1
:1001F0007FFBFFDFFEF0F03FFDEFE00FF9FF003E79
:1002000079F9CF9EF0F01F3DE7E01FF1FF000000FD
:100210000000000000000000001F80FF007FFFFFC3
:10022000FFFFFFFFFFFFFFE01C007F007FFFFFFFDE
:10023000FEB46D888D18E000001F007FFFFFFFFEF9
:1002400095AD7DB577E000000F007FFFFFFFFEA5B5
:10025000AD9D8D19E0000006007FFFFFFFFEB5ADEC
:10026000EDB57EE00000000000018000000000000D
:1002700000000000038000000000000000000007F4
:10028000C000000000000000000007C000000000E7
:1002900000000000000FC00000000000000000008F
:1002A0001FE00000000000000000001FE000000050
:1002B0000000000000003FE000000000000000001F
:1002C000003FF00000000000000000007FF0000090
:1002D00000000000001FF87FF00000000000000098
:1002E0003FFE7FF0000000000000003FFF7FF000B5
:1002F0000000000000001FFFFBE000000000000005
:10030000000FFFF9FFC00000000000000FFFF9FF21
:10031000F800000000000007FFF1FFFF00000000F0
:10032000000003FC73FFFF80000000000001FE3F9F
:10033000FFFF80000000000000FF1E0FFF00000014
:10034000000000007FFE1FFC000000000000003FD6
:10035000FFFFF8000000000000000FDFFFE00000DA
:1003600000000000001F19FFC00000000000000096
:100370003F3CFF00000000000000007E7CF8000011
:100380000000000000007FFE7C0000000000000074
:1003900000FFFFFC0000000000000000FFFFFE0067
:1003A00000000000000000FFFFFE00000000000051
:1003B0000001FFEFFE0000000000000001FFCFFE83
:1003C0000000000000000003FF07FE000000000026
:1003D000000003FC07FE0000000000000003F00323
:1003E000FE00000000000000018000FE0000000090
:1003F0000000000000007E0000000000000000007F
:10040000003E000000000000000000000C000000A2
:10041000000000078000FC000003C000000007800F
:1004200001FC000003C0000000078001FC00000385
:10043000C0000000078001E00000001E000000076F
:100440008001E00000001E007FE3F79FF9FDE778E0
:100450007BDFC0FFF7FFBFFDFDFF787BDFC0FFF74D
:10046000FFBFFDFDFF787BDFC0F0F787BC3DE1FFFC
:10047000787BDE00F0F787BC3DE1F0787BDE0000A2
:10048000F787803DE1E0787BDE007FF7879FFDE125
:10049000E0787BDE00FFF787BFFDE1E0787BDE00E0
:1004A000F0F787BC3DE1E0787BDE00F0F787BC3DEC
:1004B000E1E0787BDE00F0F787BC3DE1E0787BDEB1
:1004C00000FFF7FFBFFDE1E07FFBDFC0FFF7FFBFED
:1004D000FDE1E07FFBDFC07CF3F39F3DE1E03E7B8D
:1004E000CFC00000000000000000000000FFFFFF80
:1004F000FFFFFFFFFFFFFFC0FFFFFFFFFD68DB11F6
:100500001A31C0FFFFFFFFFD2B5AFB6AEFC0FFFF50
:10051000FFFFFD4B5B3B1A33C0FFFFFFFFFD6B5B33
:10052000DB6AFDC02200FF2100000000080002017C
:1005300000000304070000000000000000000103A9
:10054000070F1F3F7F0080C0E0F0F8FCFE000000B6
:1005500000003E5B4F5B3E3E6B4F6B3E1C3E7C3E65
:100560001C183C7E3C181C577D571C1C5E7F5E1C73
:1005700000183C1800FFE7C3E7FF0018241800FF2D
:10058000E7DBE7FF30483A060E2629792926407F27
:10059000050507407F05253F5A3CE73C5A7F3E1C36
:1005A0001C08081C1C3E7F14227F22145F5F005F22
:1005B0005F06097F017F006689956A606060606000
:1005C00094A2FFA29408047E040810207E20100844
:1005D000082A1C08081C2A08081E101010100C1EDF
:1005E0000C1E0C30383E3830060E3E0E0600000061
:1005F000000000005F00000007000700147F147F68
:1006000014242A7F2A122313086462364956205084
:100610000008070300001C2241000041221C002AA0
:100620001C7F1C2A08083E0808008070300008085B
:10063000080808000060600020100804023E5149CC
:10064000453E00427F400072494949462141494D9B
:10065000331814127F1027454545393C4A49493122
:1006600041211109073649494936464949291E00A1
:10067000001400000040340000000814224114144B
:10068000141414004122140802015909063E415D68
:10069000594E7C1211127C7F494949363E414141F5
:1006A000227F4141413E7F494949417F0909090172
:1006B0003E414151737F0808087F00417F4100207F
:1006C00040413F017F081422417F404040407F026B
:1006D0001C027F7F0408107F3E4141413E7F090993
:1006E00009063E4151215E7F09192946264949499B
:1006F0003203017F01033F4040403F1F2040201F45
:100700003F4038403F6314081463030478040361D6
:1007100059494D43007F41414102040810200041E6
:1007200041417F0402010204404040404000030771
:10073000080020545478407F2844443838444444C6
:1007400028384444287F385454541800087E09023D
:1007500018A4A49C787F0804047800447D400020FD
:1007600040403D007F1028440000417F40007C0451
:100770007804787C080404783844444438FC18240D
:10078000241818242418FC7C0804040848545454E1
:100790002404043F44243C4040207C1C2040201C76
:1007A0003C4030403C44281028444C9090907C447D
:1007B00064544C44000836410000007700000041BA
:1007C00036080002010204023C2623263C1EA1A199
:1007D00061123A4040207A38545455592155557980
:1007E0004122545478422155547840205455794040
:1007F0000C1E5272123955555559395454545939A1
:10080000555454580000457C410002457D4200018A
:10081000457C407D1211127DF0282528F07C54552E
:1008200045002054547C547C0A097F493249494987
:10083000323A4444443A324A4848303A4141217AB3
:100840003A42402078009DA0A07D3D4242423D3D7D
:100850004040403D3C24FF2424487E4943662B2FE2
:10086000FC2F2BFF0929F620C0887E090320545451
:1008700079410000447D413048484A3238404022A6
:100880007A007A0A0A727D0D19317D2629292F28CE
:10089000262929292630484D40203808080808080C
:1008A000080808382F10C8ACBA2F102834FA0000F6
:1008B0007B000008142A142222142A14085500551B
:1008C0000055AA55AA55AAFF55FF55FF000000FF85
:1008D00000101010FF00141414FF001010FF00FF90
:1008E0001010F010F0141414FC001414F700FF00A2
:1008F00000FF00FF1414F404FC141417101F101050
:100900001F101F1414141F00101010F0000000001E
:100910001F101010101F10101010F010000000FF1A
:10092000101010101010101010FF10000000FF1415
:100930000000FF00FF00001F10170000FC04F4146B
:10094000141710171414F404F40000FF00F7141423
:100950001414141414F700F7141414171410101F9F
:10096000101F141414F4141010F010F000001F10D5
:100970001F0000001F14000000FC140000F010F025
:100980001010FF10FF141414FF141010101F00009B
:100990000000F010FFFFFFFFFFF0F0F0F0F0FFFFAE
:1009A000FF0000000000FFFF0F0F0F0F0F3844443F
:1009B0003844FC4A4A4A347E02020606027E027E1F
:1009C0000263554941633844443C04407E201E2064
:1009D00006027E020299A5E7A5991C2A492A1C4C09
:1009E0007201724C304A4D4D303048784830BC620C
:1009F0005A463D3E494949007E0101017E2A2A2A84
:100A00002A2A44445F444440514A444040444A51A5
:100A1000400000FF0103E080FF000008086B6B0846
:100A20003612362436060F090F060000181800008B
:100A3000001010003040FF0101001F01011E0019CD
:100A40001D1712003C3C3C3C000000000000000070
:100A500000250028002B0000000000240027002AA9
:100A60000004040404040404040202020202020357
:100A70000303030303010204081020408001020461
:100A8000081020010204081020002C2659251124EA
:100A90001FBECFEFD8E0DEBFCDBF11E0A0E0B1E0D8
:100AA000E6E0FFE502C005900D92A83EB107D9F738
:100AB00024E0A8EEB1E001C01D92AB39B207E1F726
:100AC00015E0C6E4D5E004C02197FE010E943F2C4A
:100AD000C534D107C9F70E94221C0C94762F0C94C0
:100AE00000000F931F93DC01ED91FC91068CF78DB4
:100AF000E02D09951F910F9108950F931F93DC012D
:100B0000ED91FC91048CF58DE02D09951F910F91CD
:100B10000895DC01ED91FC910084F185E02D0994AC
:100B20002F923F924F925F926F927F928F929F92FD
:100B3000AF92BF92CF92DF92EF92FF920F931F93EB
:100B4000CF93DF9300D000D000D0CDB7DEB72C011B
:100B50007E836D836A015901C801FC82EB824801E2
:100B6000841A950A97FE03C09194819491083501E7
:100B70002D813E81621A730A77FE03C071946194DD
:100B80007108681479045CF43A2D2B2D5C01832FD5
:100B9000922F3D812E81DE82CD82C32ED22EAD8159
:100BA000BE81AA16BB065CF43C2D2D2D6C01832F53
:100BB000922F3D812E81BE82AD82A32EB22E850161
:100BC0002D813E81021B130B1C012C183D0837FEA2
:100BD00003C0319421943108780117FF03C03FEF1F
:100BE000E31AF30AF594E794C816D9062CF08FEFB0
:100BF0009FEF9A83898304C0A1E0B0E0BA83A98300
:100C00002D813E81A216B30624F1D201ED91FC9113
:100C10000484F585E02D2B813C816814790424F44B
:100C20004D815E81B60103C0A6016D817E81C20146
:100C30000995E218F308F7FE06C029813A81C20E31
:100C4000D31EE00EF11E8D819E8101969E838D83C1
:100C5000D7CF26960FB6F894DEBF0FBECDBFDF917B
:100C6000CF911F910F91FF90EF90DF90CF90BF90A9
:100C7000AF909F908F907F906F905F904F903F903C
:100C80002F90089585ED8093BC008091BC0084FD79
:100C9000FCCF10928E02089540911602262F30E06C
:100CA000240F311D21323105DCF420918E022430D5
:100CB000C9F4FC0180E090E0861758F430911602E8
:100CC0002191DC01AA50BE4FA30FB11D2C930196B8
:100CD000F3CF80911602680F6093160280E00895AA
:100CE00081E0089582E0089508950895E091470213
:100CF00080914602E81730F4F0E0E85BFD4F808118
:100D000090E008958FEF9FEF0895909147028091B2
:100D10004602981750F4E92FF0E0E85BFD4F208180
:100D200030E09F5F9093470202C02FEF3FEFC90171
:100D300008958091460290E020914702821B91091C
:100D40000895CF92DF92EF92FF920F931F93CF936C
:100D5000DF937C01CB018A0120918F02222389F04D
:100D6000EB016B01C40ED51ECC15DD0569F0699150
:100D7000D701ED91FC910190F081E02DC70109951B
:100D8000F3CF642F0E944C06C801DF91CF911F91D1
:100D90000F91FF90EF90DF90CF900895CF93DF9366
:100DA0001F92CDB7DEB7698320918F022223D1F045
:100DB0002091B202203240F021E030E0FC01338388
:100DC000228380E090E015C080919002E82FF0E04F
:100DD000EF56FD4F998190838F5F809390028093AF
:100DE000B20205C061E0CE0101960E944C0681E08E
:100DF00090E00F90DF91CF910895089580E090E00A
:100E0000089508950F931F93CF93DF938C01EB0107
:100E100088E2FB0111928A95E9F74BE050E061ED21
:100E200071E0CE010E94672F1B8681E090E0A0E078
:100E3000B0E08C879D87AE87BF87F8018681978158
:100E4000A085B185888B998BAA8BBB8B83E090E0C2
:100E5000A0E0B0E08C8B9D8BAE8BBF8B1CA21DA243
:100E60001EA21FA2188E198E1A8E1B8E1C8E1D8E0E
:100E70001E8E1F8E8AE097EDA3E2BCE388A399A3A0
:100E8000AAA3BBA3DF91CF911F910F9108950C945A
:100E9000FC2DCF9360EC70E00E94172CC82F605C93
:100EA00083EB92E00E94850C60E46C0F83EB92E090
:100EB000CF910C94850CCF92DF92EF92FF9262E07B
:100EC00083EB92E00E94850C20E030E048EC52E495
:100ED0006091360470913704809138049091390400
:100EE0000E94B32A0E94242D9B01AC01285D3C4D39
:100EF0004F4F5F4FA0E8BEE30E94902B20E5C22E2B
:100F000026E4D22EE12CF12CA70196010E94712B30
:100F1000C9010E94490761E083EB92E00E94850CC1
:100F200020E030E048EC52E460912A0470912B04F8
:100F300080912C0490912D040E94B32A0E94242DAC
:100F40009B01AC01285D3C4D4F4F5F4FA0E8BEE3D5
:100F50000E94902BA70196010E94712BC901FF905E
:100F6000EF90DF90CF900C9449071F920F920FB62D
:100F70000F9211242F933F934F935F936F937F931F
:100F80008F939F93AF93BF93EF93FF938091B9009B
:100F9000887F803609F49CC068F5883209F45BC00C
:100FA00090F4803109F454C038F4882309F4F6C071
:100FB000883009F44DC0F6C0883109F44CC0803245
:100FC00009F45DC0EFC0803409F468C048F4803390
:100FD00009F455C0883309F0E5C080938C02D8C06D
:100FE000803509F44FC0883509F45DC0883409F0B4
:100FF000D9C0D6C0883909F4C7C0A8F4883709F425
:1010000067C038F4883609F463C0803709F460C0DB
:10101000C9C0883809F4B8C0803909F45FC0803885
:1010200009F0C0C05BC0803B09F486C038F4803A48
:1010300009F466C0883A09F47FC0B4C0803C09F462
:10104000A7C0883C09F4A4C0883B09F48AC0AAC0A0
:101050008091690210C090918B0280918A0298174A
:1010600070F5E0918B0281E08E0F80938B02F0E0AF
:10107000E659FD4F80818093BB0085EC86C080934C
:101080008C028EC0E0918B0281E08E0F80938B02E8
:101090008091BB00F0E0E659FD4F808390918B0278
:1010A00080918A026EC0E0918B0281E08E0F809366
:1010B0008B028091BB00F0E0E659FD4F8083809168
:1010C0008D0281116DC081E08093680284EA61C065
:1010D00083E080938E0210923802CFCF8091380245
:1010E000803208F051C0E091380281E08E0F809389
:1010F00038028091BB00F0E0E85EFD4F8083BDCFF9
:1011000085EC8093BC0010928E0280913802803270
:1011100030F4E0913802F0E0E85EFD4F108260911B
:10112000380270E0E0914202F091430288E192E0DF
:1011300009951092380236C084E080938E02109296
:10114000170210921602E0914402F09145020995AF
:1011500080911602811105C081E0809316021092E1
:10116000F601E091170281E08E0F80931702F0E004
:10117000EA50FE4F80818093BB00909117028091CE
:101180001602981708F479CF85E88093BC000AC04E
:1011900085EC8093BC0010928E0204C010928C02E9
:1011A0000E944206FF91EF91BF91AF919F918F9165
:1011B0007F916F915F914F913F912F910F900FBE53
:1011C0000F901F90189581E080938F026093B10279
:1011D000109290021092B20208958F929F92AF9255
:1011E000BF92CF92DF92EF92FF920F931F93CF9314
:1011F000DF93CDB7DEB762970FB6F894DEBF0FBEB0
:10120000CDBF7C018B0184E2DB011D928A95E9F759
:1012100084E290E0A0E0B0E0FB0180839183A283B0
:10122000B383F70186819781A085B185FB01848313
:101230009583A683B78383E090E0A0E0B0E0808749
:101240009187A287B3870E94061AD80150966D93A2
:101250007D938D939C935397FE0131968CE0DF0133
:101260001D928A95E9F76E01BDE0CB0ED11C86E098
:10127000F60111928A95E9F7D70113966C911397AD
:1012800014968D919C9115970E94E308F701848133
:101290009581DC01ED91FC910190F081E02D6AE1F6
:1012A0000995F701848195810E947C1B66E0D70136
:1012B00013968C910E945D13109247028093460210
:1012C0005E01B3E1AB0EB11CF70184819581DC01B5
:1012D000ED91FC910284F385E02D0995F60181934F
:1012E0006F01EA15FB0581F76D857E85072E000CE1
:1012F000880B990B0E94542A20E030E040E85DE31F
:101300000E94B32A4B015C016F857889072E000C7F
:10131000880B990B0E94542A20E030E040E85DE3FE
:101320000E94B32A6B017C0169897A89072E000C1F
:10133000880B990B0E94542A20E030E040E85DE3DE
:101340000E94B32AD80154968D929D92AD92BC9280
:101350005797F801C08ED18EE28EF38E5C966D9316
:101360007D938D939C935F9781E062960FB6F8947E
:10137000DEBF0FBECDBFDF91CF911F910F91FF90C8
:10138000EF90DF90CF90BF90AF909F908F90089597
:10139000EF92FF920F931F93CF93DF930E947415E8
:1013A00081E080936C0480936F0481E090E09093DF
:1013B0006B0480936A04909369048093680410928C
:1013C000650410926404109267041092660486E427
:1013D00094E00E945F151092650410926404C8E0C6
:1013E000D0E0D0936704C093660480E494E00E9448
:1013F0005F158091E8018823A1F08BE490E0909341
:10140000650480936404D0936704C093660460917C
:10141000E9017091EA018091EB019091EC010E9449
:101420004E1455E0E52EF12CF0926504E092640430
:10143000C0E1D0E0D0936704C093660460912604B5
:101440007091270480912804909129040E944E14E1
:1014500006E210E01093650400936404D0936704DF
:10146000C093660460912A0470912B0480912C042F
:1014700090912D040E944E1480E590E090936504B5
:1014800080936404D0936704C0936604609136042B
:101490007091370480913804909139040E944E1461
:1014A000F0926504E0926404C8E1D0E0D093670450
:1014B000C09366046091ED017091EE018091EF019F
:1014C0009091F0010E944E141093650400936404FF
:1014D000D0936704C09366046091F1017091F201AA
:1014E0008091F3019091F4010E944E148091740454
:1014F00090917504892BD1F020918E0430918F0446
:10150000409190045091910460E074E284EF90E087
:101510000E94DA2BDA01C9014097A109B109B695F9
:10152000A795979587958093B80016C0809172040F
:1015300090917304892B31F080918C0490918D04EB
:101540000E94C912E0918604F091870490818091F5
:101550008B0480958923808365E084E295E00E9476
:101560009F1360915C04615088E594E00E946B12C7
:1015700020915E0430915F04C901079697FD07969C
:1015800033E0959587953A95E1F720915C04309189
:101590005D04829F8001839F100D929F100D112486
:1015A000C0917604D0917704809174049091750471
:1015B0000C0F1D1F009709F445C0609178040E942C
:1015C000E3088091740490917504DC01ED91FC9125
:1015D0000190F081E02D60E409957E01D1E08091D9
:1015E0007404909175040E151F0549F1D032B8F0BE
:1015F0000E947C1B60917804809174049091750422
:101600000E94E3088091740490917504DC01ED91CF
:10161000FC910190F081E02D60E40995D1E080918A
:10162000740490917504F70161917F01DC01ED91E3
:10163000FC910190F081E02D0995DF5FD0CF0E94F1
:101640007C1B41C0E0918404F091850490818091DD
:101650008A04892B8083C017D107A9F18991209131
:10166000720430917304232B19F00E946412F3CF9B
:1016700028E030E040E8E0918004F091810490910E
:101680008804582F542319F05081952B03C05081A2
:10169000909595239083E0918204F091830450818A
:1016A00090918904952B9083E0918204F0918304BA
:1016B000508190918904909595239083469521506F
:1016C0003109C9F6C8CF8091740490917504892BB3
:1016D000D1F0209192043091930440919404509160
:1016E000950460E074E284EF90E00E94DA2BDA0166
:1016F000C9014097A109B109B695A7959795879516
:101700008093B80017C0E0918604F091870490811F
:1017100080918B04892B8083809172049091730453
:10172000892B41F0DF91CF911F910F91FF90EF90A6
:101730000C946312DF91CF911F910F91FF90EF9066
:1017400008950F931F93CF93DF93DC015D96ED9186
:10175000FC915E97309781F0EC01ABA1BCA114968F
:101760000D911C91159715969C938E93149709953E
:10177000EBA1FCA115830483DF91CF911F910F9101
:1017800008950895CF93DF9383EB92E00E942B0C92
:10179000EC01803491052CF460E070EC89E794EC66
:1017A00019C083EB92E00E942B0C80349105A4F3C6
:1017B000C054D10920EC2C9FB0012D9F700D112435
:1017C00080549109680F791F072E000C880B990B24
:1017D0000E94542ADF91CF910895BC0180E494E0E7
:1017E0000C942911CF92DF92EF92FF920F931F93E7
:1017F000CF93DF936C017A018B01C0E0D0E0CE156E
:10180000DF0581F0D8016D918D01D601ED91FC913C
:101810000190F081E02DC6010995892B11F02196E8
:10182000EECF7E01C701DF91CF911F910F91FF9005
:10183000EF90DF90CF900895FC01538D448D252FBC
:1018400030E0842F90E0821B930B541710F0CF965A
:10185000089501970895FC01918D828D981761F08C
:10186000828DDF01A80FB11D5D968C91928D9F5FD7
:101870009F73928F90E008958FEF9FEF0895FC0182
:10188000918D828D981731F0828DE80FF11D858D35
:1018900090E008958FEF9FEF0895FC01918D228DC8
:1018A000892F90E0805C9F4F821B91098F7399274D
:1018B000089583EB92E00E944D0C21E0892B09F4FE
:1018C00020E0822F0895FC01848DDF01A80FB11D57
:1018D000A35ABF4F2C91848D90E001968F73992766
:1018E000848FA689B7892C93A089B1898C91837044
:1018F00080648C93938D848D981306C00288F3893D
:10190000E02D80818F7D80830895EF92FF920F9369
:101910001F93CF93DF93EC0181E0888F9B8D8C8D9B
:10192000981305C0E889F989808185FD26C0F62EC7
:101930000B8D10E00F5F1F4F0F731127E02E8C8D62
:10194000E8120CC00FB607FCFACFE889F98980814C
:1019500085FFF5CFCE010E94630CF1CF8B8DFE0188
:10196000E80FF11DE35AFF4FF0829FB7F8940B8FF9
:10197000EA89FB89808180620AC09FB7F894EE896A
:10198000FF896083E889F98980818370806480831E
:101990009FBF81E090E0DF91CF911F910F91FF9069
:1019A000EF900895CF93DF93EC01888D8823C9F0E1
:1019B000EA89FB89808185FD05C0A889B9898C9158
:1019C00086FD0FC00FB607FCF5CF808185FFF2CFF3
:1019D000A889B9898C9185FFEDCFCE010E94630C57
:1019E000E7CFDF91CF91089580E090E0892B29F037
:1019F0000E94590C81110C9400000895FC0177FDA0
:101A0000B9C080859185681779070CF0B3C057FD80
:101A1000B1C082859385481759070CF008958589D0
:101A2000823079F484819581DC01A61BB70BBD015E
:101A30006150710986819781DC01A41BB50BAD0152
:101A40000EC0833009F084C064277527CA01862739
:101A500097276827792746815781481B590B4150A2
:101A600051092130310531F048F12230310509F4B6
:101A70004AC00895CA0157FD07969C01A3E0359519
:101A80002795AA95E1F7A481B5812A9FC0012B9FD4
:101A9000900D3A9F900D1124680F791F068CF78DD9
:101AA000E02DE60FF71F4770552781E090E001C059
:101AB000880F4A95EAF79081892B48C0CA0157FDE3
:101AC00007969C0193E0359527959A95E1F7A481B7
:101AD000B5812A9FC0012B9F900D3A9F900D112434
:101AE000680F791F068CF78DE02DE60FF71F477002
:101AF000552781E090E001C0880F4A95EAF780956C
:101B00009081892323C0CA0157FD07969C0183E079
:101B1000359527958A95E1F7A481B5812A9FC00163
:101B20002B9F900D3A9F900D1124680F791F068C02
:101B3000F78DE02DE60FF71F4770552781E090E005
:101B400001C0880F4A95EAF790818927808308951C
:101B5000813009F086CF64277527462757276427E9
:101B6000752784819581DC01A61BB70BBD016150EF
:101B7000710977CF08950895FC016370658B8481A6
:101B8000958126813781613039F0633029F0918762
:101B900080873387228708953187208793878287BC
:101BA00008956F927F928F929F92AF92BF92CF9241
:101BB000DF92EF92FF920F931F93CF93DF93EC018D
:101BC0004B015A0169013801E881F9810284F385EA
:101BD000E02D0995E881F9810288F389E02D8701DC
:101BE0009601A501B401CE010995A501460D571D29
:101BF00041505109E881F9810288F389E02D96016D
:101C0000B401CE010995E881F9810088F189E02DC0
:101C10009301A501B401CE010995C80CD91CB601E8
:101C200061507109E881F9810088F189E02D930103
:101C3000A501CE010995E881F9810688F789E02D93
:101C4000CE01DF91CF911F910F91FF90EF90DF9028
:101C5000CF90BF90AF909F908F907F906F9009949E
:101C60008F929F92AF92BF92CF92DF92EF92FF92AC
:101C70000F931F93CF93DF934C016B015A01E9013E
:101C8000DC01ED91FC916217730781F404171507CD
:101C900024F48B2D5801042F182F0A191B099801C1
:101CA0002F5F3F4F048CF58DE02D12C04017510778
:101CB00009F52617370724F48D2D6901C62FD82F73
:101CC0009E012C193D092F5F3F4F068CF78DE02DAB
:101CD0008701A501B601C4010995DF91CF911F913C
:101CE0000F91FF90EF90DF90CF90BF90AF909F90BB
:101CF0008F9008950284F385E02D0995D401ED912C
:101D0000FC910488F589E02D9E01A501B601C4016E
:101D10000995D401ED91FC910688F789E02DC40165
:101D2000DF91CF911F910F91FF90EF90DF90CF90B7
:101D3000BF90AF909F908F900994EF92FF920F9376
:101D40001F93DC011A960D911C911B9718962D91EB
:101D50003C911997ED91FC9100A0F1A1E02D7B0140
:101D600040E050E060E070E009951F910F91FF9016
:101D7000EF9008954F925F926F927F928F929F9211
:101D8000AF92BF92CF92DF92EF92FF920F931F9389
:101D9000CF93DF936C012B015A0139014801DC011B
:101DA000ED91FC910284F385E02D0995E201640C2C
:101DB000751CD601ED91FC91C615D7055CF4008821
:101DC000F189E02D87019401A501BE01C6010995A5
:101DD0002196EFCF0688F789E02DC601DF91CF91DC
:101DE0001F910F91FF90EF90DF90CF90BF90AF9039
:101DF0009F908F907F906F905F904F9009948F92FB
:101E00009F92AF92BF92CF92DF92EF92FF920F9389
:101E10001F93CF93DF93EC015B014A016901E881D5
:101E2000F9810284F385E02D099595012C0D3D1D66
:101E300021503109E881F9810488F589E02D780184
:101E40008401A401B501CE010995E881F9810688D4
:101E5000F789E02DCE01DF91CF911F910F91FF9077
:101E6000EF90DF90CF90BF90AF909F908F900994AC
:101E70008F929F92AF92BF92CF92DF92EF92FF929A
:101E80000F931F93CF93DF93EC015B014A0169012C
:101E90007801E881F9810284F385E02D0995C80C69
:101EA000D91C860101501109E881F9810488F5895E
:101EB000E02D9501A401B501CE010995E881F981D4
:101EC0000688F789E02DCE01DF91CF911F910F9108
:101ED000FF90EF90DF90CF90BF90AF909F908F904A
:101EE00009940895EF92FF920F931F93DC01ED91F7
:101EF000FC9100A0F1A1E02D09951F910F91FF9099
:101F0000EF9008950E944B2F0F931F93CF93DF9371
:101F1000DC015596EC915597E23071F0E330E9F031
:101F2000E13079F5FB0114960D90BC91A02DA41B16
:101F3000B50BA21BB30B18C0EC01EC81FD81E61BB5
:101F4000F70BBF0161507109EE81FF81DF01A41B16
:101F5000B50BAD01421B530B14C0DA01EC01EE814D
:101F6000FF81E61BF70B3197F7FD0DC0EC014E81A9
:101F70005F81E417F5073CF4AF01BD010E94311801
:101F800002C00E949818DF91CF911F910F91089580
:101F90000F931F93DC015596EC915597E23061F059
:101FA000E33009F1E13081F51496ED91FC9115973C
:101FB000E41BF50B319723C0DC011496ED91FC91E5
:101FC0001597DF01A61BB70BBD01DC011696ED913D
:101FD000FC911797DF01A41BB50BAD0141505109CE
:101FE000621B730B11C0FA01DC0116964D915C91D6
:101FF0001797DA01A61BB70BBD01621B730BAB0170
:10200000BF010E9498180CC057FD0AC0DC0116964B
:10201000ED91FC9117974E175F0714F40E94311849
:102020001F910F910895AF92BF92CF92EF92FF92BE
:102030000F931F93CF93DF93EC01262F888D998DFB
:10204000009709F040C06A3059F41D861C862C891F
:102050008E859F8538E0239F800D911D112441C0FE
:102060006D3009F4AAC08E898823C1F03C898C8523
:102070009D8546E0349F800D911D1124488559852A
:10208000481759075CF41D861C868E859F8548E09D
:10209000349F800D911D11249F878E87EA88FB88CD
:1020A000088919894E855F856C857D85CC88CE0130
:1020B0000E9417162C898C859D8536E0239F800D04
:1020C000911D112442C06A3079F41D861C862C892A
:1020D000FC013696E4918E859F852E9F800D911D83
:1020E00011249F878E8769C06D3009F466C0FC019A
:1020F00034963491631708F460C03196E491E61782
:1021000008F45BC0FC01329665917491422F50E057
:10211000431B510937E0349F5001359FB00C112407
:10212000A60EB71EF501329634913196E491332311
:1021300011F0E1110DC0F5013496E4912C898C85E4
:102140009D85E29F800D911D11249D878C8735C050
:10215000F501359644915E89552311F16C89E32F81
:10216000F0E0E40FF11D47FDFA956E9FD0016F9FDF
:10217000B00D11244C855D854A0F5B1FE885F985FC
:10218000E417F5076CF41D861C86FC013696E49175
:102190008E859F856E9F800D911D11249F878E8750
:1021A000EA88FB88088919894E855F856C857D855D
:1021B000CC88CE010E941716BECF81E090E0DF915F
:1021C000CF911F910F91FF90EF90CF90BF90AF9064
:1021D0000895EF92FF920F931F93CF93DF93EC013B
:1021E0007B018A0188819981009729F02A813B81AE
:1021F00024173507F8F4B8016F5F7F4F0E94852ED2
:10220000009759F0998388831B830A832C813D8131
:10221000232B81F4FC0110820DC0888199810097E5
:1022200011F00E94FC2D198218821D821C821B82D3
:102230001A8207C01D830C83B701888199810E948F
:10224000602FCE01DF91CF911F910F91FF90EF9002
:102250000895CF93DF93EC016115710559F0FB01EF
:1022600001900020E9F73197AF01461B570B0E9400
:10227000E9100CC088819981009711F00E94FC2D13
:10228000198218821D821C821B821A82CE01DF9164
:10229000CF9108951F920F920FB60F9211242F9392
:1022A0003F934F935F936F937F938F939F93AF93DE
:1022B000BF93EF93FF9383EB92E00E94630CFF9137
:1022C000EF91BF91AF919F918F917F916F915F91AE
:1022D0004F913F912F910F900FBE0F901F90189527
:1022E0001F920F920FB60F9211242F938F939F93EB
:1022F000EF93FF93E091C302F091C4028081E091DB
:10230000C902F091CA0282FD12C090818091CC0274
:102310008F5F8F732091CD02821751F0E091CC0234
:10232000F0E0ED54FD4F958F8093CC0201C0808189
:10233000FF91EF919F918F912F910F900FBE0F9072
:102340001F9018951F920F920FB60F9211242F9382
:102350003F934F935F936F937F938F939F93AF932D
:10236000BF93EF93FF938091390287FF05C01092CE
:102370008500109284001BC020913902022E000CAF
:10238000330B8091740390E02817390784F480910F
:102390003902082E000C990BFC01EE0FFF1F8E0F67
:1023A0009F1FFC01E05BFC4F808186FD15C0809182
:1023B00039028F5F8093390220913902022E000C7E
:1023C000330B8091740390E028173907C4F480918F
:1023D00039028C3064F113C080913902082E000C50
:1023E000990BFC01EE0FFF1F8E0F9F1FFC01E05B9E
:1023F000FC4F808160E08F730E944D19D8CF80918F
:10240000840090918500049680349C4918F480E4FF
:102410009CE905C08091840090918500049690937A
:102420008900809388008FEF809339023BC0209110
:1024300084003091850080913902082E000C990BA0
:10244000FC01EE0FFF1F8E0F9F1FFC01E05BFC4F96
:1024500081819281820F931F9093890080938800DD
:1024600080913902082E000C990BFC01EE0FFF1F22
:102470008E0F9F1FFC01E05BFC4F808186FF12C026
:1024800080913902082E000C990BFC01EE0FFF1F02
:102490008E0F9F1FFC01E05BFC4F808161E08F731A
:1024A0000E944D19FF91EF91BF91AF919F918F9134
:1024B0007F916F915F914F913F912F910F900FBE40
:1024C0000F901F90189508958EBD00000DB407FE63
:1024D000FDCF8EB508951F93CF93DF93FC01848DBC
:1024E000958D009701F1162FEF0160A10E94E3087E
:1024F0008C8D9D8DDC01ED91FC910190F081E02DA2
:1025000060E009958C8D9D8DDC01ED91FC91019031
:10251000F081E02D612F09958C8D9D8DDF91CF91FC
:102520001F910C947C1BA4A5B5A59C9182A98095B4
:1025300089238C93828D938D892B31F0862FDF91A7
:10254000CF911F910C94641228E030E080E8A0A5A0
:10255000B1A590A9462F482319F04C91942B03C0A4
:102560004C91909594239C93A2A5B3A54C9191A9CD
:10257000942B9C93A2A5B3A54C9191A990959423DB
:102580009C9386952150310911F7DF91CF911F91CE
:1025900008958CBD9DBD08951F93CF93DF93EC01EB
:1025A000162F8C8D9D8D892BB1F02EA93FA948AD9A
:1025B00059AD60E074E284EF90E00E94DA2BDA011A
:1025C000C9014097A109B109B695A7959795879537
:1025D0008093B8000FC08A8D9B8D892B21F08CA928
:1025E0009DA90E94C912EEA5FFA590818BA9809597
:1025F00089238083111102C066EA01C067EACE0117
:102600000E946B128C8D9D8D892BB1F02AAD3BAD54
:102610004CAD5DAD60E074E284EF90E00E94DA2B97
:10262000DA01C9014097A109B109B695A795979517
:1026300087958093B80006C0EEA5FFA590818BA971
:10264000892B8083DF91CF911F9108953FB7F89434
:1026500080913E0290913F02A0914002B0914102D0
:1026600026B5A89B05C02F3F19F00196A11DB11DED
:102670003FBFBA2FA92F982F8827820F911DA11D28
:10268000B11DBC01CD0142E0660F771F881F991F65
:102690004A95D1F70895009769F0FC010190002058
:1026A000E9F73197AF01481B590BBC0188E594E06D
:1026B0000C94F20B80E090E0089590918E029111BD
:1026C000FCCF91E090938E0290938D022FEF209398
:1026D0008C0210928B02260F20938A02909369023B
:1026E00090916902880F892B80936902809168021A
:1026F000813061F410926802809169028093BB007E
:102700008091BC0083FDF8CF85EC01C085EE8093FD
:10271000BC0080918E028130E1F380918B0286179C
:1027200010F460918B02AAE6B2E0E8E4F2E080E007
:10273000861721F09D9191938F5FFACF0895DF92D4
:10274000EF92FF920F931F93CF93DF93D82ED92F41
:10275000C62F8091740490917504009709F44EC0BF
:10276000609178040E94E30880917404909175044C
:10277000DC01ED91FC910190F081E02D60E0099584
:10278000ED2CFD2E11E08091740490917504CC2302
:1027900061F11032B8F00E947C1B60917804809146
:1027A0007404909175040E94E308809174049091E0
:1027B0007504DC01ED91FC910190F081E02D60E069
:1027C000099511E08091740490917504F70164916A
:1027D000DC01ED91FC910190F081E02D09951F5FE6
:1027E000C150BFEFEB1AFB0ACECFDF91CF911F9103
:1027F0000F91FF90EF90DF900C947C1BE09184048C
:10280000F0918504908180918A048095892380834A
:102810000D2D1D2FCC2309F439C0F801849120918E
:10282000720430917304232B31F00E946412C15062
:102830000F5F1F4FEFCF28E030E040E8E0918004C9
:10284000F091810490918804582F542319F05081FD
:10285000952B03C05081909595239083E09182043D
:10286000F0918304508190918904952B9083E0919D
:102870008204F0918304508190918904909595236E
:102880009083469521503109C9F6D1CFDF91CF9180
:102890001F910F91FF90EF90DF9008952F923F923C
:1028A0004F925F926F927F928F929F92AF92BF9260
:1028B000CF92DF92EF92FF920F931F93CF93DF930C
:1028C000CDB7DEB7A4970FB6F894DEBF0FBECDBF6D
:1028D0004B015C019B01AC010E945F2D882319F024
:1028E00088ED91E01AC075016401E894F7F82FEFC4
:1028F0003FEF4FE75FE7C701B6010E945F2D8111EF
:1029000010C02FEF3FEF4FE75FE7C701B6010E940E
:102910004D2A181634F48CED91E00E944B138C0173
:10292000AFC02FEF3FEF4FE75FE4C501B4010E9456
:102930005A2D18161CF480EE91E0EFCF2FEF3FEFE9
:102940004FE75FECC501B4010E944D2A87FDF3CF2C
:1029500020E030E0A901C501B4010E944D2A87FFA3
:102960000BC06DE288E594E00E9413106C01B7FA89
:10297000B094B7F8B09402C0C12CD12C2AE037ED46
:1029800043EA5BE3C501B4010E94462C4B015C01A4
:102990000E942B2D2B013C010E94522A9B01AC016D
:1029A000C501B4010E94452C4B015C0119A27E01B6
:1029B00081E2E80EF11CEAA2FBA2C301B2012AE007
:1029C00030E040E050E00E94DA2B29013A01605DDE
:1029D000F70162937F01232B242B252B71F7CF0165
:1029E0000E944B138C016EE288E594E00E94131064
:1029F000800F911F8C010C0D1D1D83E0F82E9AE0B5
:102A0000292E312C412C512CFA94FF20C9F120E0C1
:102A100030E040E251E4C501B4010E94B32A4B0109
:102A20005C010E942B2D9B0140E050E019A26AA09E
:102A30007BA06CA3C32ED42EE52ECA01B901A2013E
:102A400091010E94DA2B605DF30162933F01211531
:102A500031054105510589F7CF010E944B13080F3D
:102A6000191F6CA17C2D8D2D9E2D0E94522A9B0139
:102A7000AC01C501B4010E94452C4B015C01C4CFDF
:102A800084EE91E00E944B13800F911FA4960FB625
:102A9000F894DEBF0FBECDBFDF91CF911F910F9194
:102AA000FF90EF90DF90CF90BF90AF909F908F906E
:102AB0007F906F905F904F903F902F900895CF93AD
:102AC000DF93FC01448155816081718188E594E048
:102AD0000E94F20BEC0184EE91E00E944B138C0FEC
:102AE0009D1FDF91CF91089520915E0430915F0486
:102AF000C901079697FD079623E0959587952A9536
:102B0000E1F720915C0430915D04829FA001839FD6
:102B1000500D929F500D112460E070E0809176047A
:102B2000909177040C94592F3F924F925F926F923D
:102B30007F928F929F92AF92BF92CF92DF92EF924D
:102B4000FF920F931F93CF93DF9300D000D000D05C
:102B5000CDB7DEB72C013B014A015901C9010796E7
:102B600097FD07969C0193E0359527959A95E1F797
:102B70003C832B83C12CD12CE12CF12C312CC301B3
:102B80008E0D9F1D9A838983E016F106C4F51E827F
:102B90001D822D813E812A153B054CF5C9018770A8
:102BA0009927892B11F0330C0EC0ED81FE81F7FDC2
:102BB000379683E0F595E7958A95E1F7EC0DFD1DD5
:102BC000E80DF91D349037FE0CC021E030E049815A
:102BD0005A816D817E81640D751D88E594E00E94A7
:102BE00089058D819E8101969E838D83D2CF9FEF33
:102BF000E91AF90A2B813C81C20ED31EC0CF26965A
:102C00000FB6F894DEBF0FBECDBFDF91CF911F91FD
:102C10000F91FF90EF90DF90CF90BF90AF909F907B
:102C20008F907F906F905F904F903F9008952F927C
:102C30003F924F925F926F927F928F929F92AF924C
:102C4000BF92CF92DF92EF92FF920F931F93CF9399
:102C5000DF93CDB7DEB76B970FB6F894DEBF0FBE2C
:102C6000CDBF9B8F8A8F5B011A01D22E1F830E83EB
:102C70003701C982DC0158962D913C915997211555
:102C8000310509F0E6C018968D919C911997681747
:102C900079070CF0CDC11A968D919C911B9748171E
:102CA00059070CF0C5C18C2C912CFB0126E0C29E6B
:102CB000E00DF11D1124FB87EA871E161F060CF09C
:102CC000B7C1A40183E0440F551F8A95E1F75D87E2
:102CD0004C87CA01820D931D181619060CF0A8C165
:102CE00057968C91811104C05FEA5D1508F4D39466
:102CF000AA8DBB8DED91FC9111970284F385E02D97
:102D0000CD010995B5E0DB9EC0011124F501359692
:102D1000FF87EE87BB82AA8225019C012A193B0905
:102D2000398B288BA101485F5F4F5B8B4A8BE88909
:102D3000F989E40DF51DE35BFA4F54915887610161
:102D40003D822C82888580FF13C0AA8DBB8DED91BA
:102D5000FC91B981B13031F40484F585E02D2E81E8
:102D60003F8116C00684F785E02DEE80FF801AC0F3
:102D7000EE81FF81E615F705F1F0AA8DBB8DED918F
:102D8000FC91B981B13051F40484F585E02D9301B3
:102D9000A601B2018A8D9B8D09950DC00684F78529
:102DA000E02D7301840194014C815D816A817B81F6
:102DB0008A8D9B8D0995E885E695E887FFEFCF1A08
:102DC000DF0A2C813D81280D391D3D832C834A89E2
:102DD0005B89C416D50609F0B5CF5FEF451A550AD1
:102DE0008A819B81880D991D9B838A83AE85BF85CF
:102DF0004A165B0609F09BCFEE81FF81E615F705C9
:102E000009F4F4C0EA8DFB8DA081B181F981F13024
:102E100079F4B5016B5F7F4F5096ED91FC9151971E
:102E2000830128E030E0A1018A8D9B8D0995DEC0E9
:102E30006A857B85681979091E96ED91FC911F972B
:102E400073010C851D859401A1018A8D9B8D0995C7
:102E5000CDC0F9013496E491DE1AF90132968591DC
:102E60009491B7E0DB9E800D911D1124F90125910D
:102E700034913B8B2A8BFC01259134912901FC0173
:102E80003296C490319634913E87329614913196A1
:102E9000D4904981423058F0612E012E000C770801
:102EA0008D2D0D2C000C990B9987888704C01986ED
:102EB0001886612C712CAA8DBB8DED91FC91119718
:102EC0000284F385E02DCD010995B9818B2E912CDB
:102ED000689CC001699C900D789C900D1124FC01A8
:102EE000EA0DFB1DFD87EC871A82712C612CE12F06
:102EF000110FFF0B95012E0F3F1F3B872A87AC0C4C
:102F0000B11CA5014E0F5F1F5F8B4E8BC1018D0D54
:102F1000911DD7FC9A95998F888F9E85691608F028
:102F200065C0862D90E048855985480F591F489DFA
:102F30009001499D300D589D300D1124D101A20FF3
:102F4000B31FB98BA88BEC85FD85FD83EC83AA8428
:102F5000BB84DA80FA85DF1A288D398D280F391F56
:102F60003D8B2C8B8D2D8A0D4E895F89A416B5065D
:102F7000C1F1877041F4C2010196EA89FB89E40D31
:102F8000F51D74902C0177FE21C0AA8DBB8DED91AB
:102F9000FC91B981B13061F40484F585E02D2E8176
:102FA0003F814C895D89B5018A8D9B8D09950EC045
:102FB0000684F785E02DEE80FF8084019401488926
:102FC00059896C817D818A8D9B8D0995770CEFEFF6
:102FD000AE1ABE0A2C813D81280D391D3D832C83FC
:102FE000C1CF3A813C0D3A83639497CFAA8DBB8DB4
:102FF000ED91FC9111970688F789E02DCD016B9634
:103000000FB6F894DEBF0FBECDBFDF91CF911F91F9
:103010000F91FF90EF90DF90CF90BF90AF909F9077
:103020008F907F906F905F904F903F902F9009947A
:103030006B960FB6F894DEBF0FBECDBFDF91CF9178
:103040001F910F91FF90EF90DF90CF90BF90AF90C6
:103050009F908F907F906F905F904F903F902F90B8
:1030600008950F931F93CF93DF9377FF04C0260F2C
:10307000371F60E070E0DC011496CD91DC9115976C
:10308000FB01E20FF31FCE17DF071CF49E01261B86
:10309000370B121613060CF046C0FA0157FD37968F
:1030A000DF01E3E0B595A795EA95E1F7AC9FF00164
:1030B000AD9FF00DBC9FF00D11246E0F7F1FDC0142
:1030C0005E96ED91FC915F97E60FF71F47705527CD
:1030D00081E090E001C0880F4A95EAF7482F01305F
:1030E000110539F078F002301105E9F42E0F3F1F79
:1030F00013C02E0F3F1FE217F307A9F08081842B26
:103100008193F9CF80952E0F3F1FE217F30759F0F7
:10311000908198239193F9CFE217F30721F08081F2
:1031200084278193F9CFDF91CF911F910F9108955B
:10313000EF92FF920F931F93CF93DF93EC0177FDF4
:10314000A5C0EC80FD806E157F050CF09FC057FF79
:1031500004C0240F351F40E050E08E819F81FA01AA
:10316000E20FF31F8E179F071CF49C01241B350BE5
:10317000121613060CF08AC0922F842F869586951E
:1031800086958E9DD0018F9DB00D11246A0F7B1FF7
:10319000AE8DBF8DA60FB71F4770B1F188E0841BBD
:1031A000482F682F70E0FB01EB5BFA4FE491281782
:1031B00098F4621B71092FEF30E002C03595279516
:1031C0006A95E2F7E2230130110549F078F0023008
:1031D000110509F05BC00EC00130110519F48C9186
:1031E000E82B0AC00130110508F049C0E0958C9128
:1031F000E82302C08C91E827EC93941708F446C0AA
:103200002C813D81A20FB31FE92FE41BE830F8F0B9
:103210000230110561F48E2F9C9190959C932C8126
:103220003D81A20FB31F88508830B0F70FC081E0F6
:103230000115110509F480E081959E2F8C932C8156
:103240003D81A20FB31F98509830C0F7E770EE236E
:10325000E9F0F0E0E35CFA4FE4910130110539F058
:1032600048F00230110591F48C91E82706C08C914A
:10327000E82B03C0E0958C91E823EC9307C0023063
:10328000110509F4B7CFAE0DBF1DBECFDF91CF91B1
:103290001F910F91FF90EF90089590E0FC01E75D82
:1032A000FA4F2491FC01EB58F54F3491FC01EF5992
:1032B000F54FE491EE2309F43CC0222339F1233089
:1032C00091F038F42130A9F0223001F584B58F7DDA
:1032D00012C0273091F02830A1F02430B9F4809149
:1032E00080008F7D03C0809180008F778093800065
:1032F0000DC084B58F7784BD09C08091B0008F77F1
:1033000003C08091B0008F7D8093B000F0E0EE0F9D
:10331000FF1FE35BF54FA591B4919FB7F89461113E
:1033200004C08C913095382302C0EC913E2B3C9325
:103330009FBF089510924702109246021092900289
:103340001092B20210928E0281E080938D02109250
:10335000680261E082E10E944D1961E083E10E9410
:103360004D19E9EBF0E080818E7F808380818D7F35
:10337000808388E48093B80085E48093BC0084E770
:1033800096E0909345028093440285E796E09093FF
:1033900043028093420208958F929F92AF92BF9210
:1033A000CF92DF92EF92FF926B017C010E94261375
:1033B0004B015C01C114D104E104F104F1F00E945D
:1033C0002613DC01CB0188199909AA09BB09883E9B
:1033D0009340A105B10570F321E0C21AD108E108BC
:1033E000F10888EE880E83E0981EA11CB11CC11460
:1033F000D104E104F10419F7DDCFFF90EF90DF90E5
:10340000CF90BF90AF909F908F9008952FB7F89472
:1034100060913A0270913B0280913C0290913D0292
:103420002FBF08954F925F926F927F928F929F92DB
:10343000AF92BF92CF92DF92EF92FF920F931F93C2
:10344000CF93DF9300D000D0CDB7DEB74B015C0146
:1034500029013A01E982FA820B831C83D092050488
:10346000C092040481E0CA94CD2809F080E08093E2
:1034700025048092EA039092EB03A092EC03B092B1
:10348000ED034092EE035092EF036092F0037092CE
:10349000F10389819A81AB81BC818093F20390937F
:1034A000F303A093F403B093F503609118047091B3
:1034B000190480911A0490911B040E94522A20E062
:1034C00030E04AE754E40E94B22C6B017C01809208
:1034D000F6039092F703A092F803B092F9039B01D0
:1034E000AC01C301B2010E94B32A2B013C016093DD
:1034F000FA037093FB038093FC039093FD03A701F1
:10350000960169817A818B819C810E94B22C6B012A
:103510007C016093FE037093FF03809300049093FB
:1035200001048091020490910304019769F5A501BB
:10353000940160E070E0CB010E94452C6093F6039B
:103540007093F7038093F8039093F903A30192011A
:1035500060E070E0CB010E94452C6093FA03709309
:10356000FB038093FC039093FD03A701960160E0A9
:1035700070E0CB010E94452C6093FE037093FF0323
:1035800080930004909301040F900F900F900F9080
:10359000DF91CF911F910F91FF90EF90DF90CF902F
:1035A000BF90AF909F908F907F906F905F904F9063
:1035B0000895CF92DF92EF92FF92DC01A03282E079
:1035C000B8070CF03EC0B7FD06C0A53BB1052CF016
:1035D000A4EBB0E002C0A0E0B0E08091DA0328E8FC
:1035E00030E06901C81AD10887FDD394CC0CDD1CEA
:1035F000CC0CDD1C0D2C000CEE08FF088091DB03C9
:1036000028E532E0281B310987FD3395220F331F4F
:10361000220F331FA901330F660B770B9A01AB0101
:103620002C193D094E095F090E949B2B24EB30E0C9
:1036300040E050E00E94712BC20ED31EE41EF51E26
:10364000D6019091D9039C3098F58091DA0348E82F
:1036500050E0481B510987FD5395440F551F440FF7
:10366000551FA417B5078CF08091DB0328E532E0E5
:10367000281B310987FD3395220F331F220F331F7B
:10368000AD012A173B070CF4A90142505109440F20
:10369000551F2FB7F894892F90E0FC01EE0FFF1F04
:1036A0008E0F9F1FFC01E05BFC4F528341832FBFB5
:1036B000FF90EF90DF90CF90089590E0FC01EB58E1
:1036C000F54F2491FC01EF59F54F8491882399F02F
:1036D00090E0880F991FFC01E95AF54FA591B4912C
:1036E000FC01E35BF54F859194918FB7F894EC91D1
:1036F000E22BEC938FBF08953091B202313208F083
:103700004BC080918E028111FCCF9091B10222E0DA
:1037100020938E0221E020938D022FEF20938C02C4
:1037200010928B0230938A02E1E9F2E0AAE6B2E05D
:1037300020E0321721F041914D932F5FFACF109284
:10374000690220916902990F922B909369029091DE
:103750006802913061F4109268029091690290932E
:10376000BB009091BC0093FDF8CF95EC01C095EEA5
:103770009093BC0090918E029230E1F390918C0274
:103780009F3F79F080918C02803241F080918C02D1
:10379000803331F084E005C081E003C082E001C0E5
:1037A00083E0109290021092B20210928F0208955C
:1037B0001F920F920FB60F9211242F933F938F9366
:1037C0009F93AF93BF9380913A0290913B02A09157
:1037D0003C02B0913D023091960423E0230F2D3737
:1037E00020F40196A11DB11D05C026E8230F029605
:1037F000A11DB11D2093960480933A0290933B0241
:10380000A0933C02B0933D0280913E0290913F0212
:10381000A0914002B09141020196A11DB11D80937B
:103820003E0290933F02A0934002B0934102BF91A9
:10383000AF919F918F913F912F910F900FBE0F905D
:103840001F901895CF93DF93CDB7DEB7E1970FB6F2
:10385000F894DEBF0FBECDBF789484B5826084BD7E
:1038600084B5816084BD85B5826085BD85B5816084
:1038700085BD80916E00816080936E001092810002
:1038800080918100826080938100809181008160BD
:10389000809381008091800081608093800080917E
:1038A000B10084608093B1008091B000816080930A
:1038B000B00080917A00846080937A0080917A00D1
:1038C000826080937A0080917A00816080937A0090
:1038D00080917A00806880937A001092C100809174
:1038E000760490917704892B11F520915E04309134
:1038F0005F04C901079697FD0796B3E095958795F4
:10390000BA95E1F720915C0430915D04AC01429FCF
:10391000C001439F900D529F900D11240E94642D71
:103920009093770480937604892B09F4FFCF0E944B
:10393000741520915E0430915F0480915C04909135
:103940005D0421323105A4F0B9016054710977FF9B
:1039500002C06F5F7F4F759567958255910997FDFE
:10396000019600E410E022E530E044E652E013C0A6
:10397000B9016052710977FF02C06F5F7F4F759583
:1039800067958357910997FD019600E210E023E7C0
:1039900030E044E850E0959587950E94941582E0C8
:1039A000809379048091740490917504892B31F08F
:1039B0008CE3809378040E949A19B6C080917D04AC
:1039C0000E945D1B80917E040E945D1B80917D049E
:1039D000082E000C990BFC01EF59F54FE491F0E033
:1039E000EE0FFF1FE35BF54F259134913093850473
:1039F00020938404FC01EB58F54FE491E0938A0492
:103A000080917E04082E000C990BFC01EF59F54FB4
:103A1000E491F0E0EE0FFF1FE35BF54FA591B49149
:103A2000B0938704A0938604FC01EB58F54FE49112
:103A3000E0938B048C91E82BEC938091720490912D
:103A40007304892B89F11FB7F8948091F5018111D6
:103A500024C0EBE6FAE08491EFE7FAE09491E82FD6
:103A6000F0E0EE0FFF1FE95AF54FA591B491EC91EC
:103A7000E92321F461E08AE00E944D198AE00E9466
:103A80005D1B8CB580618CBD8CB580648CBD8DE078
:103A90000E945D1B8BE00E945D1B8091F5018F5F92
:103AA0008093F5011FBF40C080917B040E945D1B85
:103AB00080917C040E945D1B80917B04082E000C89
:103AC000990BFC01EF59F54FE491F0E0EE0FFF1F69
:103AD000E35BF54F2591349130938104209380046A
:103AE000FC01EB58F54FE491E093880480917C044D
:103AF000082E000C990BFC01EF59F54FE491F0E012
:103B0000EE0FFF1FE35BF54FA591B491B0938304D3
:103B1000A0938204FC01EB58F54FE491E0938904F3
:103B20008C91E095E823EC9380917F0487FD1DC084
:103B30000E945D1B61E080917F040E944D1961E04D
:103B400070E080E090E00E94CC1960E080917F04FA
:103B50000E944D196AE070E080E090E00E94CC196C
:103B600061E080917F040E944D19809174049091CE
:103B70007504892BD1F020918E0430918F044091EF
:103B800090045091910460E074E284EF90E00E9410
:103B9000DA2BDA01C9014097A109B109B695A795B9
:103BA000979587958093B80016C080917204909184
:103BB0007304892B31F080918C0490918D040E94C4
:103BC000C912E0918604F0918704908180918B0462
:103BD00080958923808364E080E890E00E949F13B1
:103BE00060915E04615088E594E00E946B1264E08D
:103BF0008CE790E00E949F1380917904813011F04E
:103C000064E101C060E188E594E00E946B1264E029
:103C100088E790E00E949F1380915C0490915D047E
:103C200080389105E9F480915E0490915F048032C0
:103C3000910531F464E084E790E00E949F1329C06D
:103C40008034910531F563E081E790E00E949F1395
:103C500080917904813011F06FEC17C06FE915C0C5
:103C600080369105B1F480915E0490915F04409795
:103C700081F463E08EE690E00E949F1380917904C6
:103C8000813011F06FEA01C060E188E594E00E94A4
:103C90006B1269ED88E594E00E946B1280917904C3
:103CA000813011F061EF01C062E288E594E00E948A
:103CB0006B1266E088E690E00E949F138091740486
:103CC00090917504892BD1F0209192043091930446
:103CD000409194045091950460E074E284EF90E088
:103CE0000E94DA2BDA01C9014097A109B109B69502
:103CF000A795979587958093B80011C0E0918604A9
:103D0000F0918704908180918B04892B808380912E
:103D1000720490917304892B11F00E94631267EA78
:103D200071E086E494E00E9429110E94C8098CEA9F
:103D300091E00E94ED0B0E94C809E091C302F0914E
:103D4000C40282E08083E091BF02F091C002108241
:103D5000E091C102F091C20280E180831092CB0217
:103D6000E091C702F091C80286E08083E091C5022D
:103D7000F091C602808180618083E091C502F0915C
:103D8000C602808188608083E091C502F091C602FE
:103D9000808180688083E091C502F091C6028081B5
:103DA0008F7D808388EB91E00E94ED0B0E94C80913
:103DB00081EC91E00E94ED0B0E94C8091091DC0398
:103DC0008091D9038C3008F051C0812F0E945D1B77
:103DD0008091D903E82FF0E09F01220F331FE20FFB
:103DE000F31FE05BFC4F1F739081907C192B1083B5
:103DF0001092DA031092DB036CE00E940B2C5CE063
:103E0000859FB001112440E050E09B01240F351F35
:103E1000F901EE0FFF1F2E0F3F1FF901E05BFC4F72
:103E2000908196FD16C04F5F5F4F4C30510569F78A
:103E300081110FC01092800082E080938100109267
:103E4000850010928400B19A80916F008260809307
:103E50006F00E091D903F0E0CF01880F991FE80FC0
:103E6000F91FE05BFC4F8081806480838AE590E0ED
:103E70000E94D91A0E949A190E94F225803A51F4A0
:103E800080E090E00E941D2660E28FE390E00E94B7
:103E9000C7250CC068EE73E080E090E00E94CC196A
:103EA0000E94F225803A09F090C0EACF0E94F225E4
:103EB000803A39F06AE070E080E090E00E94CC192E
:103EC000F5CF62E370E080E090E00E94CC1960E002
:103ED0008EE390E00E94C7256AE070E080E090E009
:103EE0000E94CC1960E087E090E00E94C72560E066
:103EF0008FE390E00E94C7256AE070E080E090E0E8
:103F00000E94CC198CE090E00E941D2664E170E0D4
:103F100080E090E00E94CC1968EE73E080E090E0D1
:103F20000E94CC190091CF031091D00380E090E063
:103F30000E941D2669E170E080E090E00E94CC19AB
:103F400060E087E090E00E94C72560E88FE390E0A2
:103F50000E94C7256AE070E080E090E00E94CC19E2
:103F6000C8010E941D2664E170E080E090E00E949C
:103F7000CC19109276031092750310927803109268
:103F8000770310927A03109279038BE793E02091E4
:103F90009E0330919F0325573340C1F025E733E05E
:103FA00030939F0320939E03909376038093750331
:103FB00010929B0310929A0310929D0310929C03FF
:103FC000909378038093770301C0FFCF8BE793E052
:103FD0000E947C2580EA93E02091C3033091C403C2
:103FE0002557334049F125E733E03093C40320934C
:103FF000C3032091750330917603232B49F49093EA
:104000007603809375031092C0031092BF030AC019
:10401000E0917703F0917803F093C003E093BF033E
:1040200092A381A31092C2031092C10380EA93E08D
:10403000909378038093770380EA93E00E947C2535
:1040400062E771E086E494E00E94291186EE91E037
:104050000E94ED0B809175039091760390937A0303
:1040600080937903E0917903F0917A03309709F412
:1040700075C001A112A1808180FF6BC085859685E6
:10408000A785B089892B8A2B8B2B69F4908180813D
:104090008E7F808380818D7F808390FF5AC0CF0187
:1040A0000E94A10B56C00E94061AE0917903F0917C
:1040B0007A03418052806380748081849284A384D7
:1040C000B484C580D680E780F084DC01CB018819F8
:1040D0009909AA09BB098C159D05AE05BF05C8F154
:1040E00085859685A785B089181619061A061B06B8
:1040F0005CF485859685A785B0890197A109B109EA
:1041000085879687A787B08B85899689A789B08D83
:104110000196A11DB11D858B968BA78BB08FC58095
:10412000D680E780F08481859285A385B4858C0D47
:104130009D1DAE1DBF1D81879287A387B4874582D1
:10414000568267827086018CF28DE02D309709F0DF
:10415000099510937A030093790384CF83EB92E05F
:104160000E944D0C03970CF400C283EB92E00E9476
:104170002B0C1C01803491050CF0F7C1019709F05C
:1041800056C00E94C20B0E94242D9B01AC01A0E1ED
:10419000B7E20E94902B20E83EE340E050E00E940E
:1041A000712BCA01B9010E94542A20E030E048EC8A
:1041B00052E40E94B22C20E030E048E452E40E9435
:1041C000452C6093260470932704809328049093D1
:1041D00029040E94C20B6B017C0120E030EC49E70E
:1041E00054EC0E944D2A882309F476C1C701B60118
:1041F0000E94242D9B01AC01A4EBB0E00E94902B07
:1042000020E83EE340E050E00E94712BCA01B90172
:104210006A557109810991090E94542A6093ED0140
:104220007093EE018093EF019093F00155C182E00D
:104230002816310409F077C00E94C20B0E94242D79
:104240009B01AC01A0E1B7E20E94902B20E83EE385
:1042500040E050E00E94712BCA01B9010E94542A2B
:1042600020E030E048EC52E40E94B22C4B015C01AB
:104270006093DE037093DF038093E0039093E10388
:104280004090E2035090E3036090E4037090E503F4
:1042900020E030E0A9010E944D2A87FD2CC020E0DB
:1042A00030E0A901C301B2010E944D2A87FD23C05D
:1042B0008091E6039091E703A091E803B091E903B0
:1042C0008DA39EA3AFA3B8A720E030E0A901BC0155
:1042D000CD010E944D2A87FD0EC0C0900404D090ED
:1042E0000504EDA0FEA00FA118A5A3019201C50130
:1042F000B4010E94121A8AE791E00E94ED0B8091AE
:10430000EA039091EB03A091EC03B091ED0380934D
:10431000E9019093EA01A093EB01B093EC0191E0E5
:104320009093E801D9C0A3E02A16310409F06EC0C9
:104330000E94C20B0E94242D9B01AC01A0E1B7E2B8
:104340000E94902B20E83EE340E050E00E94712B59
:10435000CA01B9010E94542A20E030E048EC52E43E
:104360000E94B22C4B015C016093E2037093E30363
:104370008093E4039093E5034090DE035090DF03C5
:104380006090E0037090E10320E030E0A901C301F8
:10439000B2010E944D2A87FD2CC020E030E0A90127
:1043A000C501B4010E944D2A87FD23C08091E60318
:1043B0009091E703A091E803B091E9038DA39EA338
:1043C000AFA3B8A720E030E0A901BC01CD010E9455
:1043D0004D2A87FD0EC0C0900404D0900504EDA0C6
:1043E000FEA00FA118A5A5019401C301B2010E946E
:1043F000121A81E891E00E94ED0B8091EE039091FA
:10440000EF03A091F003B091F10355C094E0291699
:10441000310409F05CC00E94C20B6B017C0120E0FA
:1044200030E0A9010E945A2D87FD9FC0C701B60147
:104430000E94242D9B01AC01A0E1B7E20E94902BC9
:1044400020E83EE340E050E00E94712BCA01B90130
:104450000E94542A20E030E048EC52E40E94B22C42
:104460004B015C016093E6037093E7038093E803DC
:104470009093E9038091DE039091DF03A091E00324
:10448000B091E1038DA39EA3AFA3B8A720E030E0D5
:10449000A901BC01CD010E944D2A87FF59C288E8BD
:1044A00091E00E94ED0B8091F2039091F303A091B3
:1044B000F403B091F5038093E9019093EA01A0938E
:1044C000EB01B093EC0191E09093E8014EC0A6E0BF
:1044D0002A16310409F465C247E02416310409F0B4
:1044E00044C00E94C20B6B017C0120E030E0A901B6
:1044F0000E945A2D87FD39C0C701B6010E94242DA4
:104500009B01AC01A0E5B6E40E94902B20E83EE3BD
:1045100040E050E00E94712BCA01B9010E94542A68
:1045200020E030E048EC52E40E94B22C0E94242D9E
:1045300070933F0460933E048BE991E00E94ED0B81
:1045400060913E0470913F04072E000C880B990B7C
:104550000E94542A6093E9017093EA018093EB0171
:104560009093EC0151E05093E801BE016F5F7F4FE3
:1045700085EC93E00E94ED08498D5A8D6B8D7C8D02
:104580004093D1035093D2036093D3037093D40329
:104590008D8D9E8DAF8DB8A18093D5039093D6035A
:1045A000A093D703B093D80340932A0450932B04CD
:1045B00060932C0470932D048093F1019093F20189
:1045C000A093F301B093F40180912404882309F4AB
:1045D0003FC10E94061A6DA37EA38FA398A7809166
:1045E0000C0490910D04A0910E04B0910F044DA104
:1045F0005EA16FA178A5481B590B6A0B7B0B8091BC
:10460000180490911904A0911A04B0911B04481742
:1046100059076A077B0708F41BC1E0910604F09173
:10462000070480809180A280B380E0910A04F09119
:104630000B04A501940160817181828193810E94A4
:10464000452C2B013C01209114043091150440911C
:10465000160450911704C501B4010E94452C69A7A6
:104660007AA78BA79CA72091FA033091FB03409176
:10467000FC035091FD03C301B2010E94B32A2091B3
:1046800010043091110440911204509113040E94BF
:10469000462C6B017C01609310047093110480938D
:1046A000120490931304809125048DA781111CC0DE
:1046B0002091F6033091F7034091F8035091F903EC
:1046C00069A57AA58BA59CA50E94B32A9B01AC0184
:1046D000C701B6010E94452C609310047093110429
:1046E0008093120490931304C0901004D09011048E
:1046F000E0901204F09013043090200420902104E4
:104700001091220400912304232D322D412F502F8C
:10471000C701B6010E945A2D18162CF4832D922D34
:10472000A12FB02F18C080911C0490911D04A0915E
:104730001E04B0911F048EA79FA7A8ABB9AB9C0124
:10474000AD01C701B6010E944D2A87FF0CC08EA59E
:104750009FA5A8A9B9A98093100490931104A093D0
:104760001204B09313049DA5992379F02091F603C8
:104770003091F7034091F8035091F903C301B2015E
:104780000E94B32A6B017C0103C0C12CD12C76019D
:104790002091FE033091FF034091000450910104E9
:1047A00069A57AA58BA59CA50E94B32A9B01AC01A3
:1047B000609110047091110480911204909113047F
:1047C0000E94452CA70196010E94462C6B017C019A
:1047D0009B01AC01632D722D812F902F0E944D2AD9
:1047E00087FD16C030901C0420901D0410911E04FB
:1047F00000911F04232D322D412F502FB601C701E8
:104800000E944D2A87FD04C03C2C2D2C1E2D0F2DFF
:10481000E0910804F0910904832D922DA12FB02F6F
:1048200080839183A283B3838092140490921504B1
:10483000A0921604B09217048DA19EA1AFA1B8A5B5
:1048400080930C0490930D04A0930E04B0930F0476
:10485000C0902E04D0902F04E0903004F0903104EA
:104860008090320490903304A0903404B0903504CA
:10487000A5019401C701B6010E945A2D18167CF0BB
:10488000A501940160E070E0CB010E94452C9B01E2
:10489000AC01C701B6010E944D2A87FF3BC020E052
:1048A00030E0A901C701B6010E945A2D1816A4F4E0
:1048B000A701960160913A0470913B0480913C04F9
:1048C00090913D040E94462C609336047093370407
:1048D000809338049093390420E030E0A901C701A7
:1048E000B6010E944D2A87FF1DC020913A043091E5
:1048F0003B0440913C0450913D04C701B6010E9425
:10490000452C609336047093370480933804909359
:10491000390408C0109236041092370410923804FB
:1049200010923904209136043091370440913804B4
:104930005091390460E070E084EB92E40E94452CD1
:104940000E94242DCB010E94D91A0E94F40C82CB24
:104950004090E2035090E3036090E4037090E5031D
:1049600020E030E0A901C301B2010E944D2A87FD79
:1049700096CD20E030E0A901C501B4010E944D2A86
:1049800087FD8DCDC0900404D0900504850174018D
:10499000A30192016DA17EA18FA198A50E94121A78
:1049A0007ECD0E94C20B6B017C0120E030E0A901AA
:1049B0000E945A2D87FDD9CDC701B6010E94242D32
:1049C0009B01AC01A0E1B7E20E94902B20E83EE3FE
:1049D00040E050E00E94712BCA01B9010E94542AA4
:1049E00020E030E048EC52E40E94B22C60933A049C
:1049F00070933B0480933C0490933D048FE891E0D6
:104A00000E94ED0B80913A0490913B04A0913C04EC
:104A1000B0913D048093E9019093EA01A093EB01EA
:104A2000B093EC01B1E0B093E8019FCDCF93DF9359
:104A3000EC01988188818E7F888388818D7F88832F
:104A400090FF03C0CE010E94A10B8BA19CA10097F7
:104A500069F11CA21BA2EF8DF8A1A9A1BAA1309700
:104A600099F4109749F4DC0111961C921E9213964A
:104A70001C921E9212971AC090961C921E925F97DB
:104A8000FC01B183A08312C0109741F412A211A2BD
:104A9000DC011396FC93EE93129708C0B2A3A1A376
:104AA000A9A1BAA19096FC93EE935F97DF91CF9165
:104AB00008958BE793E00E94162580EA93E00E9418
:104AC000162580914004909141040E94FC2D809114
:104AD0004604909147040E94FC2D8EE291E0909351
:104AE000590480935804809176049091770400973C
:104AF00011F00C94FC2D08950F931F93CF93DF9327
:104B0000FC01A3A1B4A11097E9F1EC01158A168A62
:104B1000178A108E038CF48DE02D309779F18881FF
:104B200081FD2CC014960D911C9115971596DC9360
:104B3000CE9314978881826088830995988180FB41
:104B400090F9988388818D7F8883EBA1FCA11583E0
:104B500004830E94061A09811A812B813C810D83EE
:104B60001E832F833887DC01CB01801B910BA20BA6
:104B7000B30B89879A87AB87BC8704C08881816023
:104B80008883E7CFDF91CF911F910F9108950F9305
:104B90001F93CF93DF93082F162FC5ECD3E06B81C3
:104BA0008C819D810E94E3088C819D81DC01ED91C7
:104BB000FC910190F081E02D602F09958C819D8101
:104BC000DC01ED91FC910190F081E02D612F0995C0
:104BD0008C819D810E947C1B81E0DF91CF911F9190
:104BE0000F910895CF93DF93C5ECD3E06B818C8157
:104BF0009D810E94E3088C819D81DC01ED91FC91F7
:104C00000190F081E02D60E009958C819D810E94EA
:104C10007C1B61E08B810E945D13109247028093A0
:104C200046028C819D81DC01ED91FC910284F3852B
:104C3000E02D0995DF91CF910895E5ECF3E08287AF
:104C40009387682F8DE390E00E94C7256EE170E0A6
:104C500080E090E00C94CC194F925F926F927F921B
:104C60008F929F92AF92BF92CF92DF92EF92FF927C
:104C70000F931F93CF93DF9300D000D000D0CDB718
:104C8000DEB71092B6021092B50288EE93E0A0E073
:104C9000B0E08093B7029093B802A093B902B093AA
:104CA000BA022AE031E03093B4022093B30225EC3B
:104CB00030E03093C0022093BF0224EC30E0309308
:104CC000C2022093C10220EC30E03093C402209352
:104CD000C30221EC30E03093C6022093C50222ECDF
:104CE00030E03093C8022093C70226EC30E03093C6
:104CF000CA022093C9021092CC021092CD021092E7
:104D0000CE021092CF0210924F0410924E04809364
:104D1000500490935104A0935204B09353048CE137
:104D200091E090934D0480934C0410925B04109298
:104D30005A0420E830E030935D0420935C0480E264
:104D400090E090935F0480935E043093610420931D
:104D50006004909363048093620410926D04109237
:104D6000650410926404109267041092660481E056
:104D700080936C042FEF3FEF30936B0420936A0411
:104D8000309369042093680480936E0410926F043A
:104D900010927104109270048EE291E09093590485
:104DA0008093580410927304109272048CE494E07F
:104DB0009093750480937404109277041092760493
:104DC00020937B0420937C0420937D0420937E0415
:104DD00084E080937F0480E580938C0410928D049E
:104DE00080E89AE1A6E0B0E080938E0490938F046F
:104DF000A0939004B093910480EA96E8A1E0B0E01B
:104E00008093920490939304A0939404B093950498
:104E100010924704109246041092490410924804DC
:104E200010924B0410924A0440E050E066EE71E0AC
:104E300086E494E00E94E91010924104109240042C
:104E400010924304109242041092450410924404BC
:104E500040E050E066EE71E080E494E00E94E910EA
:104E6000809174038C30A0F491E0980F90937403B8
:104E70008093D90390E0FC01EE0FFF1F8E0F9F1F60
:104E8000FC01E05BFC4F88EB9BE09283818303C0D5
:104E90003FEF3093D9031092DE031092DF0310929C
:104EA000E0031092E1031092E2031092E3031092E8
:104EB000E4031092E5031092E6031092E7031092C8
:104EC000E8031092E9038EE294E090930904809342
:104ED00008048AE294E0909307048093060486E233
:104EE00094E090930B0480930A041092240410928F
:104EF0001C0410921D0410921E0410921F0480E0E6
:104F000090E0AFE7B3E48093200490932104A09352
:104F10002204B093230484E690E0A0E0B0E0809304
:104F2000180490931904A0931A04B0931B041092D0
:104F3000030410920204CC24C394D12CE12CF12C54
:104F40008701A8019701C801B7010E94121A0E94A7
:104F5000061A209118043091190440911A045091B6
:104F60001B0429833A834B835C83DC01CB01821BC6
:104F7000930BA40BB50B80930C0490930D04A0939A
:104F80000E04B0930F04E0922604F09227040093DD
:104F9000280410932904E0922A04F0922B04009331
:104FA0002C0410932D04E0922E04F0922F04009311
:104FB0003004109331048AE999E9A9E1BEE38093B2
:104FC000320490933304A0933404B0933504E092F8
:104FD0003604F09237040093380410933904E092B9
:104FE0003A04F0923B0400933C0410933D048AE59C
:104FF00090E090933F0480933E0486E090E090938D
:10500000DD038093DC03812C912C3CE8A32E32EC51
:10501000B32E80921C0490921D04A0921E04B092A4
:105020001F04412C512C4CE8642E42E4742E409213
:1050300020045092210460922204709223048091F3
:10504000240440910804509109045E834D83882311
:1050500009F455C0FA01C080D180E280F380A30139
:105060009201C701B6010E945A2D18163CF4ED8139
:10507000FE81408251826282738210C020E030E063
:105080004CE852ECC701B6010E944D2A87FF06C0CA
:10509000ED81FE8180829182A282B3828090100491
:1050A00090901104A0901204B0901304C0902004BA
:1050B000D0902104E0902204F0902304A7019601EF
:1050C000C501B4010E945A2D181684F0C0901C042A
:1050D000D0901D04E0901E04F0901F04A7019601DB
:1050E000C501B4010E944D2A87FF3AC0C092100446
:1050F000D0921104E0921204F092130431C0ED81B9
:10510000FE81C080D180E280F380C0921004D092F2
:105110001104E0921204F0921304E0910604F0915D
:10512000070480819181A281B381809314049093BC
:105130001504A0931604B093170420E030E04CE867
:1051400052E4C701B6010E945A2D18160CF092C104
:105150004092100450921104609212047092130451
:1051600081E08093240469817A818B819C810E94F3
:10517000522A9B01AC0160E070E088EC92E40E944E
:10518000B22C6B017C019B01AC016091FA03709120
:10519000FB038091FC039091FD030E94B32A60936E
:1051A000FA037093FB038093FC039093FD03A70124
:1051B00096016091FE037091FF038091000490912D
:1051C00001040E94B22C6093FE037093FF0380934E
:1051D00000049093010484E690E0A0E0B0E08093A6
:1051E000180490931904A0931A04B0931B0488E642
:1051F00091E09093C6038093C50381E090E0A0E026
:10520000B0E08093CB039093CC03A093CD03B093F5
:10521000CE0388E28093C8038CE494E09093CA03A1
:105220008093C9031092D1031092D2031092D3033A
:105230001092D4031092D5031092D6031092D70384
:105240001092D8038091A0038E7F8093A003809159
:10525000A0038D7F8093A0031092A9031092AA034C
:105260001092AB031092AC031092A5031092A60308
:105270001092A7031092A8031092A1031092A20308
:105280001092A3031092A4031092C0031092BF03C4
:105290001092C2031092C1031092C4031092C30370
:1052A0001092B5031092B6031092B7031092B80390
:1052B0008BE597E09093BA038093B9031092BC03F7
:1052C0001092BB031092BE031092BD0388EC882E8F
:1052D000912CA12CB12C8092A1039092A203A092B8
:1052E000A303B092A4038091A1039091A203A09183
:1052F000A303B091A4038093A5039093A603A09366
:10530000A703B093A8030E94061A6093A9037093A1
:10531000AA038093AB039093AC03CC24CA94DC2CF7
:105320007601C092AD03D092AE03E092AF03F0924B
:10533000B003C092B103D092B203E092B303F092F3
:10534000B40380917B038E7F80937B0380917B03EA
:105350008D7F80937B0310928403109285031092BB
:10536000860310928703109280031092810310929B
:1053700082031092830310927C0310927D0310929B
:105380007E0310927F0310929B0310929A03109257
:105390009D0310929C0310929F0310929E03109203
:1053A000900310929103109292031092930388EC51
:1053B00099E0909395038093940310929703109231
:1053C0009603109299031092980380927C03909216
:1053D0007D03A0927E03B0927F0380917C03909125
:1053E0007D03A0917E03B0917F038093800390930F
:1053F0008103A0938203B09383030E94061A6093F3
:105400008403709385038093860390938703C092EF
:105410008803D0928903E0928A03F0928B03C092B2
:105420008C03D0928D03E0928E03F0928F03109242
:1054300076031092750310927803109277031092FE
:105440007A031092790326960FB6F894DEBF0FBE4A
:10545000CDBFDF91CF911F910F91FF90EF90DF9023
:10546000CF90BF90AF909F908F907F906F905F9004
:105470004F90089520E030E04CE852ECC701B601AF
:105480000E944D2A87FF6CCE8092100490921104E6
:10549000A0921204B092130463CE0E948F2A08F4E3
:1054A00081E00895E89409C097FB3EF490958095BB
:1054B000709561957F4F8F4F9F4F9923A9F0F92FDA
:1054C00096E9BB279395F695879577956795B79558
:1054D000F111F8CFFAF4BB0F11F460FF1BC06F5F3E
:1054E0007F4F8F4F9F4F16C0882311F096E911C050
:1054F000772321F09EE8872F762F05C0662371F071
:1055000096E8862F70E060E02AF09A95660F771F84
:10551000881FDAF7880F9695879597F90895990F60
:105520000008550FAA0BE0E8FEEF16161706E8076D
:10553000F907C0F012161306E407F50798F0621B8E
:10554000730B840B950B39F40A2661F0232B242B63
:10555000252B21F408950A2609F4A140A6958FEF82
:10556000811D811D08950E94C62A0C94372B0E942C
:10557000292B38F00E94302B20F0952311F00C9449
:10558000202B0C94262B11240C946B2B0E94482B5F
:1055900070F3959FC1F3950F50E0551F629FF00186
:1055A000729FBB27F00DB11D639FAA27F00DB11D9F
:1055B000AA1F649F6627B00DA11D661F829F222728
:1055C000B00DA11D621F739FB00DA11D621F839FAF
:1055D000A00D611D221F749F3327A00D611D231F85
:1055E000849F600D211D822F762F6A2F11249F57D3
:1055F00050409AF0F1F088234AF0EE0FFF1FBB1FD6
:10560000661F771F881F91505040A9F79E3F510594
:1056100080F00C94202B0C946B2B5F3FE4F3983EAE
:10562000D4F3869577956795B795F795E7959F5F3E
:10563000C1F7FE2B880F911D9695879597F90895D0
:1056400097F99F6780E870E060E008959FEF80EC35
:10565000089500240A9416161706180609060895D8
:1056600000240A9412161306140605060895092E3E
:105670000394000C11F4882352F0BB0F40F4BF2BAD
:1056800011F460FF04C06F5F7F4F8F4F9F4F0895ED
:1056900057FD9058440F551F59F05F3F71F04795E3
:1056A000880F97FB991F61F09F3F79F087950895C8
:1056B000121613061406551FF2CF4695F1DF08C0E7
:1056C000161617061806991FF1CF86957105610504
:1056D00008940895E894BB2766277727CB0197F9AC
:1056E0000895052E97FB1EF400940E94882B57FD09
:1056F00007D00E94DA2B07FC03D04EF40C94882BC1
:1057000050954095309521953F4F4F4F5F4F0895ED
:1057100090958095709561957F4F8F4F9F4F08951D
:105720000E94FC2BA59F900DB49F900DA49F800D0F
:10573000911D11240895B7FF0C94902B0E94902B7B
:10574000821B930B08952F923F924F925F926F921C
:105750007F928F929F92AF92BF92CF92DF92EF9201
:10576000FF920F931F93CF93DF93CDB7DEB7CA1B82
:10577000DB0B0FB6F894DEBF0FBECDBF09942A88AD
:10578000398848885F846E847D848C849B84AA8455
:10579000B984C884DF80EE80FD800C811B81AA81E2
:1057A000B981CE0FD11D0FB6F894DEBF0FBECDBFAD
:1057B000ED010895A1E21A2EAA1BBB1BFD010DC02D
:1057C000AA1FBB1FEE1FFF1FA217B307E407F507B1
:1057D00020F0A21BB30BE40BF50B661F771F881F8D
:1057E000991F1A9469F760957095809590959B0123
:1057F000AC01BD01CF010895A29FB001B39FC001CC
:10580000A39F700D811D1124911DB29F700D811DEC
:105810001124911D0895991B79E004C0991F9617D2
:1058200008F0961B881F7A95C9F78095089597FB15
:10583000072E16F4009407D077FD09D00E942B2C78
:1058400007FC05D03EF4909581959F4F0895709583
:1058500061957F4F0895AA1BBB1B51E107C0AA1F8A
:10586000BB1FA617B70710F0A61BB70B881F991F01
:105870005A95A9F780959095BC01CD010895EE0F3A
:10588000FF1F0590F491E02D09945058BB27AA27DB
:105890000E945D2C0C94372B0E94292B38F00E941B
:1058A000302B20F039F49F3F19F426F40C94262B6A
:1058B0000EF4E095E7FB0C94202BE92F0E94482B77
:1058C00058F3BA17620773078407950720F079F435
:1058D000A6F50C946A2B0EF4E0950B2EBA2FA02D92
:1058E0000B01B90190010C01CA01A0011124FF278D
:1058F000591B99F0593F50F4503E68F11A16F04088
:10590000A22F232F342F4427585FF3CF4695379586
:105910002795A795F0405395C9F77EF41F16BA0B4B
:10592000620B730B840BBAF09150A1F0FF0FBB1FF9
:10593000661F771F881FC2F70EC0BA0F621F731F42
:10594000841F48F4879577956795B795F7959E3F9F
:1059500008F0B0CF9395880F08F09927EE0F979530
:10596000879508950E94C62C0C94372B0E94302BEB
:1059700058F00E94292B40F029F45F3F29F00C9445
:10598000202B51110C946B2B0C94262B0E94482B2E
:1059900068F39923B1F3552391F3951B550BBB275E
:1059A000AA2762177307840738F09F5F5F4F220FA3
:1059B000331F441FAA1FA9F335D00E2E3AF0E0E89A
:1059C00032D091505040E695001CCAF72BD0FE2FE4
:1059D00029D0660F771F881FBB1F26173707480778
:1059E000AB07B0E809F0BB0B802DBF01FF27935830
:1059F0005F4F3AF09E3F510578F00C94202B0C94A9
:105A00006B2B5F3FE4F3983ED4F3869577956795CB
:105A1000B795F7959F5FC9F7880F911D9695879564
:105A200097F90895E1E0660F771F881FBB1F621783
:105A300073078407BA0720F0621B730B840BBA0B41
:105A4000EE1F88F7E09508950E942B2D6894B11100
:105A50000C946B2B08950E94502B88F09F5798F060
:105A6000B92F9927B751B0F0E1F0660F771F881F63
:105A7000991F1AF0BA95C9F714C0B13091F00E947D
:105A80006A2BB1E008950C946A2B672F782F882732
:105A9000B85F39F0B93FCCF3869577956795B395A4
:105AA000D9F73EF490958095709561957F4F8F4F13
:105AB0009F4F08950E948F2A08F48FEF08950E9447
:105AC0008F2A880B990B08950F931F93CF93DF9321
:105AD0008230910510F482E090E0E0919904F09119
